{
  "contractName": "Accounts",
  "abi": [
    {
      "anonymous": false,
      "inputs": [
        {
          "indexed": true,
          "internalType": "address",
          "name": "account",
          "type": "address"
        }
      ],
      "name": "AccountCreated",
      "type": "event"
    },
    {
      "anonymous": false,
      "inputs": [
        {
          "indexed": true,
          "internalType": "address",
          "name": "account",
          "type": "address"
        },
        {
          "indexed": false,
          "internalType": "bytes",
          "name": "dataEncryptionKey",
          "type": "bytes"
        }
      ],
      "name": "AccountDataEncryptionKeySet",
      "type": "event"
    },
    {
      "anonymous": false,
      "inputs": [
        {
          "indexed": true,
          "internalType": "address",
          "name": "account",
          "type": "address"
        },
        {
          "indexed": false,
          "internalType": "string",
          "name": "metadataURL",
          "type": "string"
        }
      ],
      "name": "AccountMetadataURLSet",
      "type": "event"
    },
    {
      "anonymous": false,
      "inputs": [
        {
          "indexed": true,
          "internalType": "address",
          "name": "account",
          "type": "address"
        },
        {
          "indexed": false,
          "internalType": "string",
          "name": "name",
          "type": "string"
        }
      ],
      "name": "AccountNameSet",
      "type": "event"
    },
    {
      "anonymous": false,
      "inputs": [
        {
          "indexed": true,
          "internalType": "address",
          "name": "account",
          "type": "address"
        },
        {
          "indexed": false,
          "internalType": "address",
          "name": "walletAddress",
          "type": "address"
        }
      ],
      "name": "AccountWalletAddressSet",
      "type": "event"
    },
    {
      "anonymous": false,
      "inputs": [
        {
          "indexed": true,
          "internalType": "address",
          "name": "account",
          "type": "address"
        },
        {
          "indexed": false,
          "internalType": "address",
          "name": "signer",
          "type": "address"
        }
      ],
      "name": "AttestationSignerAuthorized",
      "type": "event"
    },
    {
      "anonymous": false,
      "inputs": [
        {
          "indexed": true,
          "internalType": "address",
          "name": "account",
          "type": "address"
        },
        {
          "indexed": false,
          "internalType": "address",
          "name": "oldSigner",
          "type": "address"
        }
      ],
      "name": "AttestationSignerRemoved",
      "type": "event"
    },
    {
      "anonymous": false,
      "inputs": [
        {
          "indexed": true,
          "internalType": "address",
          "name": "previousOwner",
          "type": "address"
        },
        {
          "indexed": true,
          "internalType": "address",
          "name": "newOwner",
          "type": "address"
        }
      ],
      "name": "OwnershipTransferred",
      "type": "event"
    },
    {
      "anonymous": false,
      "inputs": [
        {
          "indexed": true,
          "internalType": "address",
          "name": "registryAddress",
          "type": "address"
        }
      ],
      "name": "RegistrySet",
      "type": "event"
    },
    {
      "anonymous": false,
      "inputs": [
        {
          "indexed": true,
          "internalType": "address",
          "name": "account",
          "type": "address"
        },
        {
          "indexed": false,
          "internalType": "address",
          "name": "signer",
          "type": "address"
        }
      ],
      "name": "ValidatorSignerAuthorized",
      "type": "event"
    },
    {
      "anonymous": false,
      "inputs": [
        {
          "indexed": true,
          "internalType": "address",
          "name": "account",
          "type": "address"
        },
        {
          "indexed": false,
          "internalType": "address",
          "name": "oldSigner",
          "type": "address"
        }
      ],
      "name": "ValidatorSignerRemoved",
      "type": "event"
    },
    {
      "anonymous": false,
      "inputs": [
        {
          "indexed": true,
          "internalType": "address",
          "name": "account",
          "type": "address"
        },
        {
          "indexed": false,
          "internalType": "address",
          "name": "signer",
          "type": "address"
        }
      ],
      "name": "VoteSignerAuthorized",
      "type": "event"
    },
    {
      "anonymous": false,
      "inputs": [
        {
          "indexed": true,
          "internalType": "address",
          "name": "account",
          "type": "address"
        },
        {
          "indexed": false,
          "internalType": "address",
          "name": "oldSigner",
          "type": "address"
        }
      ],
      "name": "VoteSignerRemoved",
      "type": "event"
    },
    {
      "constant": true,
      "inputs": [
        {
          "internalType": "address",
          "name": "",
          "type": "address"
        }
      ],
      "name": "authorizedBy",
      "outputs": [
        {
          "internalType": "address",
          "name": "",
          "type": "address"
        }
      ],
      "payable": false,
      "stateMutability": "view",
      "type": "function"
    },
    {
      "constant": true,
      "inputs": [],
      "name": "initialized",
      "outputs": [
        {
          "internalType": "bool",
          "name": "",
          "type": "bool"
        }
      ],
      "payable": false,
      "stateMutability": "view",
      "type": "function"
    },
    {
      "constant": true,
      "inputs": [],
      "name": "isOwner",
      "outputs": [
        {
          "internalType": "bool",
          "name": "",
          "type": "bool"
        }
      ],
      "payable": false,
      "stateMutability": "view",
      "type": "function"
    },
    {
      "constant": true,
      "inputs": [],
      "name": "owner",
      "outputs": [
        {
          "internalType": "address",
          "name": "",
          "type": "address"
        }
      ],
      "payable": false,
      "stateMutability": "view",
      "type": "function"
    },
    {
      "constant": true,
      "inputs": [],
      "name": "registry",
      "outputs": [
        {
          "internalType": "contract IRegistry",
          "name": "",
          "type": "address"
        }
      ],
      "payable": false,
      "stateMutability": "view",
      "type": "function"
    },
    {
      "constant": false,
      "inputs": [],
      "name": "renounceOwnership",
      "outputs": [],
      "payable": false,
      "stateMutability": "nonpayable",
      "type": "function"
    },
    {
      "constant": false,
      "inputs": [
        {
          "internalType": "address",
          "name": "registryAddress",
          "type": "address"
        }
      ],
      "name": "setRegistry",
      "outputs": [],
      "payable": false,
      "stateMutability": "nonpayable",
      "type": "function"
    },
    {
      "constant": false,
      "inputs": [
        {
          "internalType": "address",
          "name": "newOwner",
          "type": "address"
        }
      ],
      "name": "transferOwnership",
      "outputs": [],
      "payable": false,
      "stateMutability": "nonpayable",
      "type": "function"
    },
    {
      "constant": true,
      "inputs": [],
      "name": "getVersionNumber",
      "outputs": [
        {
          "internalType": "uint256",
          "name": "",
          "type": "uint256"
        },
        {
          "internalType": "uint256",
          "name": "",
          "type": "uint256"
        },
        {
          "internalType": "uint256",
          "name": "",
          "type": "uint256"
        },
        {
          "internalType": "uint256",
          "name": "",
          "type": "uint256"
        }
      ],
      "payable": false,
      "stateMutability": "pure",
      "type": "function"
    },
    {
      "constant": false,
      "inputs": [
        {
          "internalType": "address",
          "name": "registryAddress",
          "type": "address"
        }
      ],
      "name": "initialize",
      "outputs": [],
      "payable": false,
      "stateMutability": "nonpayable",
      "type": "function"
    },
    {
      "constant": false,
      "inputs": [
        {
          "internalType": "string",
          "name": "name",
          "type": "string"
        },
        {
          "internalType": "bytes",
          "name": "dataEncryptionKey",
          "type": "bytes"
        },
        {
          "internalType": "address",
          "name": "walletAddress",
          "type": "address"
        },
        {
          "internalType": "uint8",
          "name": "v",
          "type": "uint8"
        },
        {
          "internalType": "bytes32",
          "name": "r",
          "type": "bytes32"
        },
        {
          "internalType": "bytes32",
          "name": "s",
          "type": "bytes32"
        }
      ],
      "name": "setAccount",
      "outputs": [],
      "payable": false,
      "stateMutability": "nonpayable",
      "type": "function"
    },
    {
      "constant": false,
      "inputs": [],
      "name": "createAccount",
      "outputs": [
        {
          "internalType": "bool",
          "name": "",
          "type": "bool"
        }
      ],
      "payable": false,
      "stateMutability": "nonpayable",
      "type": "function"
    },
    {
      "constant": false,
      "inputs": [
        {
          "internalType": "string",
          "name": "name",
          "type": "string"
        }
      ],
      "name": "setName",
      "outputs": [],
      "payable": false,
      "stateMutability": "nonpayable",
      "type": "function"
    },
    {
      "constant": false,
      "inputs": [
        {
          "internalType": "address",
          "name": "walletAddress",
          "type": "address"
        },
        {
          "internalType": "uint8",
          "name": "v",
          "type": "uint8"
        },
        {
          "internalType": "bytes32",
          "name": "r",
          "type": "bytes32"
        },
        {
          "internalType": "bytes32",
          "name": "s",
          "type": "bytes32"
        }
      ],
      "name": "setWalletAddress",
      "outputs": [],
      "payable": false,
      "stateMutability": "nonpayable",
      "type": "function"
    },
    {
      "constant": false,
      "inputs": [
        {
          "internalType": "bytes",
          "name": "dataEncryptionKey",
          "type": "bytes"
        }
      ],
      "name": "setAccountDataEncryptionKey",
      "outputs": [],
      "payable": false,
      "stateMutability": "nonpayable",
      "type": "function"
    },
    {
      "constant": false,
      "inputs": [
        {
          "internalType": "string",
          "name": "metadataURL",
          "type": "string"
        }
      ],
      "name": "setMetadataURL",
      "outputs": [],
      "payable": false,
      "stateMutability": "nonpayable",
      "type": "function"
    },
    {
      "constant": false,
      "inputs": [
        {
          "internalType": "address",
          "name": "signer",
          "type": "address"
        },
        {
          "internalType": "uint8",
          "name": "v",
          "type": "uint8"
        },
        {
          "internalType": "bytes32",
          "name": "r",
          "type": "bytes32"
        },
        {
          "internalType": "bytes32",
          "name": "s",
          "type": "bytes32"
        }
      ],
      "name": "authorizeVoteSigner",
      "outputs": [],
      "payable": false,
      "stateMutability": "nonpayable",
      "type": "function"
    },
    {
      "constant": false,
      "inputs": [
        {
          "internalType": "address",
          "name": "signer",
          "type": "address"
        },
        {
          "internalType": "uint8",
          "name": "v",
          "type": "uint8"
        },
        {
          "internalType": "bytes32",
          "name": "r",
          "type": "bytes32"
        },
        {
          "internalType": "bytes32",
          "name": "s",
          "type": "bytes32"
        }
      ],
      "name": "authorizeValidatorSigner",
      "outputs": [],
      "payable": false,
      "stateMutability": "nonpayable",
      "type": "function"
    },
    {
      "constant": false,
      "inputs": [
        {
          "internalType": "address",
          "name": "signer",
          "type": "address"
        },
        {
          "internalType": "uint8",
          "name": "v",
          "type": "uint8"
        },
        {
          "internalType": "bytes32",
          "name": "r",
          "type": "bytes32"
        },
        {
          "internalType": "bytes32",
          "name": "s",
          "type": "bytes32"
        },
        {
          "internalType": "bytes",
          "name": "ecdsaPublicKey",
          "type": "bytes"
        }
      ],
      "name": "authorizeValidatorSignerWithPublicKey",
      "outputs": [],
      "payable": false,
      "stateMutability": "nonpayable",
      "type": "function"
    },
    {
      "constant": false,
      "inputs": [
        {
          "internalType": "address",
          "name": "signer",
          "type": "address"
        },
        {
          "internalType": "uint8",
          "name": "v",
          "type": "uint8"
        },
        {
          "internalType": "bytes32",
          "name": "r",
          "type": "bytes32"
        },
        {
          "internalType": "bytes32",
          "name": "s",
          "type": "bytes32"
        },
        {
          "internalType": "bytes",
          "name": "ecdsaPublicKey",
          "type": "bytes"
        },
        {
          "internalType": "bytes",
          "name": "blsPublicKey",
          "type": "bytes"
        },
        {
          "internalType": "bytes",
          "name": "blsPop",
          "type": "bytes"
        }
      ],
      "name": "authorizeValidatorSignerWithKeys",
      "outputs": [],
      "payable": false,
      "stateMutability": "nonpayable",
      "type": "function"
    },
    {
      "constant": false,
      "inputs": [
        {
          "internalType": "address",
          "name": "signer",
          "type": "address"
        },
        {
          "internalType": "uint8",
          "name": "v",
          "type": "uint8"
        },
        {
          "internalType": "bytes32",
          "name": "r",
          "type": "bytes32"
        },
        {
          "internalType": "bytes32",
          "name": "s",
          "type": "bytes32"
        }
      ],
      "name": "authorizeAttestationSigner",
      "outputs": [],
      "payable": false,
      "stateMutability": "nonpayable",
      "type": "function"
    },
    {
      "constant": false,
      "inputs": [],
      "name": "removeVoteSigner",
      "outputs": [],
      "payable": false,
      "stateMutability": "nonpayable",
      "type": "function"
    },
    {
      "constant": false,
      "inputs": [],
      "name": "removeValidatorSigner",
      "outputs": [],
      "payable": false,
      "stateMutability": "nonpayable",
      "type": "function"
    },
    {
      "constant": false,
      "inputs": [],
      "name": "removeAttestationSigner",
      "outputs": [],
      "payable": false,
      "stateMutability": "nonpayable",
      "type": "function"
    },
    {
      "constant": true,
      "inputs": [
        {
          "internalType": "address",
          "name": "signer",
          "type": "address"
        }
      ],
      "name": "attestationSignerToAccount",
      "outputs": [
        {
          "internalType": "address",
          "name": "",
          "type": "address"
        }
      ],
      "payable": false,
      "stateMutability": "view",
      "type": "function"
    },
    {
      "constant": true,
      "inputs": [
        {
          "internalType": "address",
          "name": "signer",
          "type": "address"
        }
      ],
      "name": "validatorSignerToAccount",
      "outputs": [
        {
          "internalType": "address",
          "name": "",
          "type": "address"
        }
      ],
      "payable": false,
      "stateMutability": "view",
      "type": "function"
    },
    {
      "constant": true,
      "inputs": [
        {
          "internalType": "address",
          "name": "signer",
          "type": "address"
        }
      ],
      "name": "voteSignerToAccount",
      "outputs": [
        {
          "internalType": "address",
          "name": "",
          "type": "address"
        }
      ],
      "payable": false,
      "stateMutability": "view",
      "type": "function"
    },
    {
      "constant": true,
      "inputs": [
        {
          "internalType": "address",
          "name": "signer",
          "type": "address"
        }
      ],
      "name": "signerToAccount",
      "outputs": [
        {
          "internalType": "address",
          "name": "",
          "type": "address"
        }
      ],
      "payable": false,
      "stateMutability": "view",
      "type": "function"
    },
    {
      "constant": true,
      "inputs": [
        {
          "internalType": "address",
          "name": "account",
          "type": "address"
        }
      ],
      "name": "getVoteSigner",
      "outputs": [
        {
          "internalType": "address",
          "name": "",
          "type": "address"
        }
      ],
      "payable": false,
      "stateMutability": "view",
      "type": "function"
    },
    {
      "constant": true,
      "inputs": [
        {
          "internalType": "address",
          "name": "account",
          "type": "address"
        }
      ],
      "name": "getValidatorSigner",
      "outputs": [
        {
          "internalType": "address",
          "name": "",
          "type": "address"
        }
      ],
      "payable": false,
      "stateMutability": "view",
      "type": "function"
    },
    {
      "constant": true,
      "inputs": [
        {
          "internalType": "address",
          "name": "account",
          "type": "address"
        }
      ],
      "name": "getAttestationSigner",
      "outputs": [
        {
          "internalType": "address",
          "name": "",
          "type": "address"
        }
      ],
      "payable": false,
      "stateMutability": "view",
      "type": "function"
    },
    {
      "constant": true,
      "inputs": [
        {
          "internalType": "address",
          "name": "account",
          "type": "address"
        }
      ],
      "name": "hasAuthorizedVoteSigner",
      "outputs": [
        {
          "internalType": "bool",
          "name": "",
          "type": "bool"
        }
      ],
      "payable": false,
      "stateMutability": "view",
      "type": "function"
    },
    {
      "constant": true,
      "inputs": [
        {
          "internalType": "address",
          "name": "account",
          "type": "address"
        }
      ],
      "name": "hasAuthorizedValidatorSigner",
      "outputs": [
        {
          "internalType": "bool",
          "name": "",
          "type": "bool"
        }
      ],
      "payable": false,
      "stateMutability": "view",
      "type": "function"
    },
    {
      "constant": true,
      "inputs": [
        {
          "internalType": "address",
          "name": "account",
          "type": "address"
        }
      ],
      "name": "hasAuthorizedAttestationSigner",
      "outputs": [
        {
          "internalType": "bool",
          "name": "",
          "type": "bool"
        }
      ],
      "payable": false,
      "stateMutability": "view",
      "type": "function"
    },
    {
      "constant": true,
      "inputs": [
        {
          "internalType": "address",
          "name": "account",
          "type": "address"
        }
      ],
      "name": "getName",
      "outputs": [
        {
          "internalType": "string",
          "name": "",
          "type": "string"
        }
      ],
      "payable": false,
      "stateMutability": "view",
      "type": "function"
    },
    {
      "constant": true,
      "inputs": [
        {
          "internalType": "address",
          "name": "account",
          "type": "address"
        }
      ],
      "name": "getMetadataURL",
      "outputs": [
        {
          "internalType": "string",
          "name": "",
          "type": "string"
        }
      ],
      "payable": false,
      "stateMutability": "view",
      "type": "function"
    },
    {
      "constant": true,
      "inputs": [
        {
          "internalType": "address[]",
          "name": "accountsToQuery",
          "type": "address[]"
        }
      ],
      "name": "batchGetMetadataURL",
      "outputs": [
        {
          "internalType": "uint256[]",
          "name": "",
          "type": "uint256[]"
        },
        {
          "internalType": "bytes",
          "name": "",
          "type": "bytes"
        }
      ],
      "payable": false,
      "stateMutability": "view",
      "type": "function"
    },
    {
      "constant": true,
      "inputs": [
        {
          "internalType": "address",
          "name": "account",
          "type": "address"
        }
      ],
      "name": "getDataEncryptionKey",
      "outputs": [
        {
          "internalType": "bytes",
          "name": "",
          "type": "bytes"
        }
      ],
      "payable": false,
      "stateMutability": "view",
      "type": "function"
    },
    {
      "constant": true,
      "inputs": [
        {
          "internalType": "address",
          "name": "account",
          "type": "address"
        }
      ],
      "name": "getWalletAddress",
      "outputs": [
        {
          "internalType": "address",
          "name": "",
          "type": "address"
        }
      ],
      "payable": false,
      "stateMutability": "view",
      "type": "function"
    },
    {
      "constant": true,
      "inputs": [
        {
          "internalType": "address",
          "name": "account",
          "type": "address"
        }
      ],
      "name": "isAccount",
      "outputs": [
        {
          "internalType": "bool",
          "name": "",
          "type": "bool"
        }
      ],
      "payable": false,
      "stateMutability": "view",
      "type": "function"
    },
    {
      "constant": true,
      "inputs": [
        {
          "internalType": "address",
          "name": "signer",
          "type": "address"
        }
      ],
      "name": "isAuthorizedSigner",
      "outputs": [
        {
          "internalType": "bool",
          "name": "",
          "type": "bool"
        }
      ],
      "payable": false,
      "stateMutability": "view",
      "type": "function"
    }
  ],
  "bytecode": "0x6080604052600062000016620000c160201b60201c565b9050806000806101000a81548173ffffffffffffffffffffffffffffffffffffffff021916908373ffffffffffffffffffffffffffffffffffffffff1602179055508073ffffffffffffffffffffffffffffffffffffffff16600073ffffffffffffffffffffffffffffffffffffffff167f8be0079c531659141344cd1fd0a4f28419497f9722a3daafe3b4186f6b6457e060405160405180910390a35060018081905550620000c9565b600033905090565b61516d80620000d96000396000f3fe608060405234801561001057600080fd5b50600436106102535760003560e01c8063760fbbb2116101465780639dca362f116100c3578063b5a664c211610087578063b5a664c214611282578063baf7ef0f14611306578063c2e0ee201461136b578063c47f0027146113c7578063c4d66de814611482578063f2fde38b146114c657610253565b80639dca362f14611098578063a5ec94f9146110ba578063a8ae1a3d146110c4578063a91ee0dc14611181578063ae32fa0e146111c557610253565b80638da5cb5b1161010a5780638da5cb5b14610e345780638f32d59b14610e7e57806390b12b4714610ea057806393c5c48714610faf5780639cafb2a11461103357610253565b8063760fbbb214610bbd57806376afa04c14610bc75780637b10399914610c2c5780637b2434cb14610c765780638adaf96f14610cfa57610253565b806349045e16116101d457806361bab1ae1161019857806361bab1ae146109ae57806364439b4314610a325780636642d59414610ab6578063715018a614610b3a578063747daec514610b4457610253565b806349045e16146107825780634ce38b5f146107de57806354255be0146108625780635fd4b08a14610895578063614ed4931461095257610253565b8063158ef93e1161021b578063158ef93e146105975780631fd9afa5146105b957806325ca4c9c1461063d57806341ddd880146106995780634282ee6d1461071d57610253565b80630127dbed146102585780630fa750d2146102b45780630fe7abab1461036e57806310c504b5146104295780631465b92314610433575b600080fd5b61029a6004803603602081101561026e57600080fd5b81019080803573ffffffffffffffffffffffffffffffffffffffff16906020019092919050505061150a565b604051808215151515815260200191505060405180910390f35b61036c600480360360a08110156102ca57600080fd5b81019080803573ffffffffffffffffffffffffffffffffffffffff169060200190929190803560ff16906020019092919080359060200190929190803590602001909291908035906020019064010000000081111561032857600080fd5b82018360208201111561033a57600080fd5b8035906020019184600183028401116401000000008311171561035c57600080fd5b90919293919293905050506115c1565b005b6104276004803603602081101561038457600080fd5b81019080803590602001906401000000008111156103a157600080fd5b8201836020820111156103b357600080fd5b803590602001918460018302840111640100000000831117156103d557600080fd5b91908080601f016020809104026020016040519081016040528093929190818152602001838380828437600081840152601f19601f8201169050808301925050505050505091929192905050506118e6565b005b610431611a71565b005b610595600480360360e081101561044957600080fd5b81019080803573ffffffffffffffffffffffffffffffffffffffff169060200190929190803560ff1690602001909291908035906020019092919080359060200190929190803590602001906401000000008111156104a757600080fd5b8201836020820111156104b957600080fd5b803590602001918460018302840111640100000000831117156104db57600080fd5b9091929391929390803590602001906401000000008111156104fc57600080fd5b82018360208201111561050e57600080fd5b8035906020019184600183028401116401000000008311171561053057600080fd5b90919293919293908035906020019064010000000081111561055157600080fd5b82018360208201111561056357600080fd5b8035906020019184600183028401116401000000008311171561058557600080fd5b9091929391929390505050611b9f565b005b61059f611f4d565b604051808215151515815260200191505060405180910390f35b6105fb600480360360208110156105cf57600080fd5b81019080803573ffffffffffffffffffffffffffffffffffffffff169060200190929190505050611f60565b604051808273ffffffffffffffffffffffffffffffffffffffff1673ffffffffffffffffffffffffffffffffffffffff16815260200191505060405180910390f35b61067f6004803603602081101561065357600080fd5b81019080803573ffffffffffffffffffffffffffffffffffffffff169060200190929190505050611fcc565b604051808215151515815260200191505060405180910390f35b6106db600480360360208110156106af57600080fd5b81019080803573ffffffffffffffffffffffffffffffffffffffff169060200190929190505050612025565b604051808273ffffffffffffffffffffffffffffffffffffffff1673ffffffffffffffffffffffffffffffffffffffff16815260200191505060405180910390f35b6107806004803603608081101561073357600080fd5b81019080803573ffffffffffffffffffffffffffffffffffffffff169060200190929190803560ff1690602001909291908035906020019092919080359060200190929190505050612150565b005b6107c46004803603602081101561079857600080fd5b81019080803573ffffffffffffffffffffffffffffffffffffffff1690602001909291905050506122f5565b604051808215151515815260200191505060405180910390f35b610820600480360360208110156107f457600080fd5b81019080803573ffffffffffffffffffffffffffffffffffffffff16906020019092919050505061238d565b604051808273ffffffffffffffffffffffffffffffffffffffff1673ffffffffffffffffffffffffffffffffffffffff16815260200191505060405180910390f35b61086a6124b8565b6040518085815260200184815260200183815260200182815260200194505050505060405180910390f35b6108d7600480360360208110156108ab57600080fd5b81019080803573ffffffffffffffffffffffffffffffffffffffff1690602001909291905050506124de565b6040518080602001828103825283818151815260200191508051906020019080838360005b838110156109175780820151818401526020810190506108fc565b50505050905090810190601f1680156109445780820380516001836020036101000a031916815260200191505b509250505060405180910390f35b6109946004803603602081101561096857600080fd5b81019080803573ffffffffffffffffffffffffffffffffffffffff1690602001909291905050506125c2565b604051808215151515815260200191505060405180910390f35b6109f0600480360360208110156109c457600080fd5b81019080803573ffffffffffffffffffffffffffffffffffffffff169060200190929190505050612679565b604051808273ffffffffffffffffffffffffffffffffffffffff1673ffffffffffffffffffffffffffffffffffffffff16815260200191505060405180910390f35b610a7460048036036020811015610a4857600080fd5b81019080803573ffffffffffffffffffffffffffffffffffffffff1690602001909291905050506127a4565b604051808273ffffffffffffffffffffffffffffffffffffffff1673ffffffffffffffffffffffffffffffffffffffff16815260200191505060405180910390f35b610af860048036036020811015610acc57600080fd5b81019080803573ffffffffffffffffffffffffffffffffffffffff1690602001909291905050506129b4565b604051808273ffffffffffffffffffffffffffffffffffffffff1673ffffffffffffffffffffffffffffffffffffffff16815260200191505060405180910390f35b610b42612bc4565b005b610bbb60048036036020811015610b5a57600080fd5b8101908080359060200190640100000000811115610b7757600080fd5b820183602082011115610b8957600080fd5b80359060200191846001830284011164010000000083111715610bab57600080fd5b9091929391929390505050612cfd565b005b610bc5612e4e565b005b610c2a60048036036080811015610bdd57600080fd5b81019080803573ffffffffffffffffffffffffffffffffffffffff169060200190929190803560ff1690602001909291908035906020019092919080359060200190929190505050612f7c565b005b610c34613092565b604051808273ffffffffffffffffffffffffffffffffffffffff1673ffffffffffffffffffffffffffffffffffffffff16815260200191505060405180910390f35b610cb860048036036020811015610c8c57600080fd5b81019080803573ffffffffffffffffffffffffffffffffffffffff1690602001909291905050506130b8565b604051808273ffffffffffffffffffffffffffffffffffffffff1673ffffffffffffffffffffffffffffffffffffffff16815260200191505060405180910390f35b610d7160048036036020811015610d1057600080fd5b8101908080359060200190640100000000811115610d2d57600080fd5b820183602082011115610d3f57600080fd5b80359060200191846020830284011164010000000083111715610d6157600080fd5b90919293919293905050506132c8565b604051808060200180602001838103835285818151815260200191508051906020019060200280838360005b83811015610db8578082015181840152602081019050610d9d565b50505050905001838103825284818151815260200191508051906020019080838360005b83811015610df7578082015181840152602081019050610ddc565b50505050905090810190601f168015610e245780820380516001836020036101000a031916815260200191505b5094505050505060405180910390f35b610e3c6135c7565b604051808273ffffffffffffffffffffffffffffffffffffffff1673ffffffffffffffffffffffffffffffffffffffff16815260200191505060405180910390f35b610e866135f0565b604051808215151515815260200191505060405180910390f35b610fad600480360360c0811015610eb657600080fd5b8101908080359060200190640100000000811115610ed357600080fd5b820183602082011115610ee557600080fd5b80359060200191846001830284011164010000000083111715610f0757600080fd5b909192939192939080359060200190640100000000811115610f2857600080fd5b820183602082011115610f3a57600080fd5b80359060200191846001830284011164010000000083111715610f5c57600080fd5b9091929391929390803573ffffffffffffffffffffffffffffffffffffffff169060200190929190803560ff169060200190929190803590602001909291908035906020019092919050505061364e565b005b610ff160048036036020811015610fc557600080fd5b81019080803573ffffffffffffffffffffffffffffffffffffffff169060200190929190505050613715565b604051808273ffffffffffffffffffffffffffffffffffffffff1673ffffffffffffffffffffffffffffffffffffffff16815260200191505060405180910390f35b6110966004803603608081101561104957600080fd5b81019080803573ffffffffffffffffffffffffffffffffffffffff169060200190929190803560ff169060200190929190803590602001909291908035906020019092919050505061383c565b005b6110a0613ba3565b604051808215151515815260200191505060405180910390f35b6110c2613cdc565b005b611106600480360360208110156110da57600080fd5b81019080803573ffffffffffffffffffffffffffffffffffffffff169060200190929190505050613e0a565b6040518080602001828103825283818151815260200191508051906020019080838360005b8381101561114657808201518184015260208101905061112b565b50505050905090810190601f1680156111735780820380516001836020036101000a031916815260200191505b509250505060405180910390f35b6111c36004803603602081101561119757600080fd5b81019080803573ffffffffffffffffffffffffffffffffffffffff169060200190929190505050613eee565b005b611207600480360360208110156111db57600080fd5b81019080803573ffffffffffffffffffffffffffffffffffffffff169060200190929190505050614092565b6040518080602001828103825283818151815260200191508051906020019080838360005b8381101561124757808201518184015260208101905061122c565b50505050905090810190601f1680156112745780820380516001836020036101000a031916815260200191505b509250505060405180910390f35b6112c46004803603602081101561129857600080fd5b81019080803573ffffffffffffffffffffffffffffffffffffffff169060200190929190505050614176565b604051808273ffffffffffffffffffffffffffffffffffffffff1673ffffffffffffffffffffffffffffffffffffffff16815260200191505060405180910390f35b6113696004803603608081101561131c57600080fd5b81019080803573ffffffffffffffffffffffffffffffffffffffff169060200190929190803560ff16906020019092919080359060200190929190803590602001909291905050506141a9565b005b6113ad6004803603602081101561138157600080fd5b81019080803573ffffffffffffffffffffffffffffffffffffffff169060200190929190505050614463565b604051808215151515815260200191505060405180910390f35b611480600480360360208110156113dd57600080fd5b81019080803590602001906401000000008111156113fa57600080fd5b82018360208201111561140c57600080fd5b8035906020019184600183028401116401000000008311171561142e57600080fd5b91908080601f016020809104026020016040519081016040528093929190818152602001838380828437600081840152601f19601f82011690508083019250505050505050919291929050505061451a565b005b6114c46004803603602081101561149857600080fd5b81019080803573ffffffffffffffffffffffffffffffffffffffff1690602001909291905050506146a8565b005b611508600480360360208110156114dc57600080fd5b81019080803573ffffffffffffffffffffffffffffffffffffffff16906020019092919050505061475b565b005b600061151582611fcc565b61151e57600080fd5b6000600360008473ffffffffffffffffffffffffffffffffffffffff1673ffffffffffffffffffffffffffffffffffffffff16815260200190815260200160002060010160010160009054906101000a900473ffffffffffffffffffffffffffffffffffffffff169050600073ffffffffffffffffffffffffffffffffffffffff168173ffffffffffffffffffffffffffffffffffffffff161415915050919050565b60018060008282540192505081905550600060015490506000600360003373ffffffffffffffffffffffffffffffffffffffff1673ffffffffffffffffffffffffffffffffffffffff1681526020019081526020016000209050611627888888886147e1565b878160010160010160006101000a81548173ffffffffffffffffffffffffffffffffffffffff021916908373ffffffffffffffffffffffffffffffffffffffff160217905550611675614ac9565b73ffffffffffffffffffffffffffffffffffffffff16634e06fd8a338a87876040518563ffffffff1660e01b8152600401808573ffffffffffffffffffffffffffffffffffffffff1673ffffffffffffffffffffffffffffffffffffffff1681526020018473ffffffffffffffffffffffffffffffffffffffff1673ffffffffffffffffffffffffffffffffffffffff168152602001806020018281038252848482818152602001925080828437600081840152601f19601f82011690508083019250505095505050505050602060405180830381600087803b15801561175b57600080fd5b505af115801561176f573d6000803e3d6000fd5b505050506040513d602081101561178557600080fd5b81019080805190602001909291905050506117eb576040517f08c379a00000000000000000000000000000000000000000000000000000000081526004018080602001828103825260218152602001806150f76021913960400191505060405180910390fd5b3373ffffffffffffffffffffffffffffffffffffffff167f16e382723fb40543364faf68863212ba253a099607bf6d3a5b47e50a8bf9494389604051808273ffffffffffffffffffffffffffffffffffffffff1673ffffffffffffffffffffffffffffffffffffffff16815260200191505060405180910390a25060015481146118dd576040517f08c379a000000000000000000000000000000000000000000000000000000000815260040180806020018281038252600e8152602001807f7265656e7472616e742063616c6c00000000000000000000000000000000000081525060200191505060405180910390fd5b50505050505050565b60218151101561195e576040517f08c379a00000000000000000000000000000000000000000000000000000000081526004018080602001828103825260208152602001807f6461746120656e6372797074696f6e206b6579206c656e677468203c3d20333281525060200191505060405180910390fd5b6000600360003373ffffffffffffffffffffffffffffffffffffffff1673ffffffffffffffffffffffffffffffffffffffff1681526020019081526020016000209050818160060190805190602001906119b9929190614e89565b503373ffffffffffffffffffffffffffffffffffffffff167f43fdefe0a824cb0e3bbaf9c4bc97669187996136fe9282382baf10787f0d808d836040518080602001828103825283818151815260200191508051906020019080838360005b83811015611a33578082015181840152602081019050611a18565b50505050905090810190601f168015611a605780820380516001836020036101000a031916815260200191505b509250505060405180910390a25050565b6000600360003373ffffffffffffffffffffffffffffffffffffffff1673ffffffffffffffffffffffffffffffffffffffff16815260200190815260200160002090503373ffffffffffffffffffffffffffffffffffffffff167fa197481f404d8a8082368ad7445380f01e75f27dea6b7aef234a4ce071127fae8260010160000160009054906101000a900473ffffffffffffffffffffffffffffffffffffffff16604051808273ffffffffffffffffffffffffffffffffffffffff1673ffffffffffffffffffffffffffffffffffffffff16815260200191505060405180910390a260008160010160000160006101000a81548173ffffffffffffffffffffffffffffffffffffffff021916908373ffffffffffffffffffffffffffffffffffffffff16021790555050565b60018060008282540192505081905550600060015490506000600360003373ffffffffffffffffffffffffffffffffffffffff1673ffffffffffffffffffffffffffffffffffffffff1681526020019081526020016000209050611c058c8c8c8c6147e1565b8b8160010160010160006101000a81548173ffffffffffffffffffffffffffffffffffffffff021916908373ffffffffffffffffffffffffffffffffffffffff160217905550611c53614ac9565b73ffffffffffffffffffffffffffffffffffffffff1663713ea0f3338e8b8b8b8b8b8b6040518963ffffffff1660e01b8152600401808973ffffffffffffffffffffffffffffffffffffffff1673ffffffffffffffffffffffffffffffffffffffff1681526020018873ffffffffffffffffffffffffffffffffffffffff1673ffffffffffffffffffffffffffffffffffffffff16815260200180602001806020018060200184810384528a8a82818152602001925080828437600081840152601f19601f8201169050808301925050508481038352888882818152602001925080828437600081840152601f19601f8201169050808301925050508481038252868682818152602001925080828437600081840152601f19601f8201169050808301925050509b505050505050505050505050602060405180830381600087803b158015611da157600080fd5b505af1158015611db5573d6000803e3d6000fd5b505050506040513d6020811015611dcb57600080fd5b8101908080519060200190929190505050611e4e576040517f08c379a000000000000000000000000000000000000000000000000000000000815260040180806020018281038252601f8152602001807f4661696c656420746f207570646174652076616c696461746f72206b6579730081525060200191505060405180910390fd5b3373ffffffffffffffffffffffffffffffffffffffff167f16e382723fb40543364faf68863212ba253a099607bf6d3a5b47e50a8bf949438d604051808273ffffffffffffffffffffffffffffffffffffffff1673ffffffffffffffffffffffffffffffffffffffff16815260200191505060405180910390a2506001548114611f40576040517f08c379a000000000000000000000000000000000000000000000000000000000815260040180806020018281038252600e8152602001807f7265656e7472616e742063616c6c00000000000000000000000000000000000081525060200191505060405180910390fd5b5050505050505050505050565b600260009054906101000a900460ff1681565b6000600360008373ffffffffffffffffffffffffffffffffffffffff1673ffffffffffffffffffffffffffffffffffffffff16815260200190815260200160002060040160009054906101000a900473ffffffffffffffffffffffffffffffffffffffff169050919050565b6000600360008373ffffffffffffffffffffffffffffffffffffffff1673ffffffffffffffffffffffffffffffffffffffff16815260200190815260200160002060000160009054906101000a900460ff169050919050565b600061203082611fcc565b6120a2576040517f08c379a000000000000000000000000000000000000000000000000000000000815260040180806020018281038252600f8152602001807f556e6b6e6f776e206163636f756e74000000000000000000000000000000000081525060200191505060405180910390fd5b6000600360008473ffffffffffffffffffffffffffffffffffffffff1673ffffffffffffffffffffffffffffffffffffffff16815260200190815260200160002060010160000160009054906101000a900473ffffffffffffffffffffffffffffffffffffffff169050600073ffffffffffffffffffffffffffffffffffffffff168173ffffffffffffffffffffffffffffffffffffffff16146121465780612148565b825b915050919050565b60018060008282540192505081905550600060015490506000600360003373ffffffffffffffffffffffffffffffffffffffff1673ffffffffffffffffffffffffffffffffffffffff16815260200190815260200160002090506121b6868686866147e1565b858160010160000160006101000a81548173ffffffffffffffffffffffffffffffffffffffff021916908373ffffffffffffffffffffffffffffffffffffffff1602179055503373ffffffffffffffffffffffffffffffffffffffff167faab5f8a189373aaa290f42ae65ea5d7971b732366ca5bf66556e76263944af2887604051808273ffffffffffffffffffffffffffffffffffffffff1673ffffffffffffffffffffffffffffffffffffffff16815260200191505060405180910390a25060015481146122ee576040517f08c379a000000000000000000000000000000000000000000000000000000000815260040180806020018281038252600e8152602001807f7265656e7472616e742063616c6c00000000000000000000000000000000000081525060200191505060405180910390fd5b5050505050565b60008073ffffffffffffffffffffffffffffffffffffffff16600460008473ffffffffffffffffffffffffffffffffffffffff1673ffffffffffffffffffffffffffffffffffffffff16815260200190815260200160002060009054906101000a900473ffffffffffffffffffffffffffffffffffffffff1673ffffffffffffffffffffffffffffffffffffffff1614159050919050565b600061239882611fcc565b61240a576040517f08c379a000000000000000000000000000000000000000000000000000000000815260040180806020018281038252600f8152602001807f556e6b6e6f776e206163636f756e74000000000000000000000000000000000081525060200191505060405180910390fd5b6000600360008473ffffffffffffffffffffffffffffffffffffffff1673ffffffffffffffffffffffffffffffffffffffff16815260200190815260200160002060010160010160009054906101000a900473ffffffffffffffffffffffffffffffffffffffff169050600073ffffffffffffffffffffffffffffffffffffffff168173ffffffffffffffffffffffffffffffffffffffff16146124ae57806124b0565b825b915050919050565b600080600080600180600180839350829250819150809050935093509350935090919293565b6060600360008373ffffffffffffffffffffffffffffffffffffffff1673ffffffffffffffffffffffffffffffffffffffff1681526020019081526020016000206005018054600181600116156101000203166002900480601f0160208091040260200160405190810160405280929190818152602001828054600181600116156101000203166002900480156125b65780601f1061258b576101008083540402835291602001916125b6565b820191906000526020600020905b81548152906001019060200180831161259957829003601f168201915b50505050509050919050565b60006125cd82611fcc565b6125d657600080fd5b6000600360008473ffffffffffffffffffffffffffffffffffffffff1673ffffffffffffffffffffffffffffffffffffffff16815260200190815260200160002060010160000160009054906101000a900473ffffffffffffffffffffffffffffffffffffffff169050600073ffffffffffffffffffffffffffffffffffffffff168173ffffffffffffffffffffffffffffffffffffffff161415915050919050565b600061268482611fcc565b6126f6576040517f08c379a000000000000000000000000000000000000000000000000000000000815260040180806020018281038252600f8152602001807f556e6b6e6f776e206163636f756e74000000000000000000000000000000000081525060200191505060405180910390fd5b6000600360008473ffffffffffffffffffffffffffffffffffffffff1673ffffffffffffffffffffffffffffffffffffffff16815260200190815260200160002060010160020160009054906101000a900473ffffffffffffffffffffffffffffffffffffffff169050600073ffffffffffffffffffffffffffffffffffffffff168173ffffffffffffffffffffffffffffffffffffffff161461279a578061279c565b825b915050919050565b600080600460008473ffffffffffffffffffffffffffffffffffffffff1673ffffffffffffffffffffffffffffffffffffffff16815260200190815260200160002060009054906101000a900473ffffffffffffffffffffffffffffffffffffffff169050600073ffffffffffffffffffffffffffffffffffffffff168173ffffffffffffffffffffffffffffffffffffffff161461292f578273ffffffffffffffffffffffffffffffffffffffff16600360008373ffffffffffffffffffffffffffffffffffffffff1673ffffffffffffffffffffffffffffffffffffffff16815260200190815260200160002060010160010160009054906101000a900473ffffffffffffffffffffffffffffffffffffffff1673ffffffffffffffffffffffffffffffffffffffff1614612926576040517f08c379a000000000000000000000000000000000000000000000000000000000815260040180806020018281038252602681526020018061502f6026913960400191505060405180910390fd5b809150506129af565b61293883611fcc565b6129aa576040517f08c379a000000000000000000000000000000000000000000000000000000000815260040180806020018281038252600e8152602001807f6e6f7420616e206163636f756e7400000000000000000000000000000000000081525060200191505060405180910390fd5b829150505b919050565b600080600460008473ffffffffffffffffffffffffffffffffffffffff1673ffffffffffffffffffffffffffffffffffffffff16815260200190815260200160002060009054906101000a900473ffffffffffffffffffffffffffffffffffffffff169050600073ffffffffffffffffffffffffffffffffffffffff168173ffffffffffffffffffffffffffffffffffffffff1614612b3f578273ffffffffffffffffffffffffffffffffffffffff16600360008373ffffffffffffffffffffffffffffffffffffffff1673ffffffffffffffffffffffffffffffffffffffff16815260200190815260200160002060010160000160009054906101000a900473ffffffffffffffffffffffffffffffffffffffff1673ffffffffffffffffffffffffffffffffffffffff1614612b36576040517f08c379a00000000000000000000000000000000000000000000000000000000081526004018080602001828103825260218152602001806151186021913960400191505060405180910390fd5b80915050612bbf565b612b4883611fcc565b612bba576040517f08c379a000000000000000000000000000000000000000000000000000000000815260040180806020018281038252600e8152602001807f6e6f7420616e206163636f756e7400000000000000000000000000000000000081525060200191505060405180910390fd5b829150505b919050565b612bcc6135f0565b612c3e576040517f08c379a00000000000000000000000000000000000000000000000000000000081526004018080602001828103825260208152602001807f4f776e61626c653a2063616c6c6572206973206e6f7420746865206f776e657281525060200191505060405180910390fd5b600073ffffffffffffffffffffffffffffffffffffffff166000809054906101000a900473ffffffffffffffffffffffffffffffffffffffff1673ffffffffffffffffffffffffffffffffffffffff167f8be0079c531659141344cd1fd0a4f28419497f9722a3daafe3b4186f6b6457e060405160405180910390a360008060006101000a81548173ffffffffffffffffffffffffffffffffffffffff021916908373ffffffffffffffffffffffffffffffffffffffff160217905550565b612d0633611fcc565b612d78576040517f08c379a000000000000000000000000000000000000000000000000000000000815260040180806020018281038252600f8152602001807f556e6b6e6f776e206163636f756e74000000000000000000000000000000000081525060200191505060405180910390fd5b6000600360003373ffffffffffffffffffffffffffffffffffffffff1673ffffffffffffffffffffffffffffffffffffffff16815260200190815260200160002090508282826007019190612dce929190614f09565b503373ffffffffffffffffffffffffffffffffffffffff167f0b5629fec5b6b5a1c2cfe0de7495111627a8cf297dced72e0669527425d3f01b848460405180806020018281038252848482818152602001925080828437600081840152601f19601f820116905080830192505050935050505060405180910390a2505050565b6000600360003373ffffffffffffffffffffffffffffffffffffffff1673ffffffffffffffffffffffffffffffffffffffff16815260200190815260200160002090503373ffffffffffffffffffffffffffffffffffffffff167f14670729407debb6ed03d885f8ba57155de89ce39bf17127ae4900ec7c2ad1038260010160020160009054906101000a900473ffffffffffffffffffffffffffffffffffffffff16604051808273ffffffffffffffffffffffffffffffffffffffff1673ffffffffffffffffffffffffffffffffffffffff16815260200191505060405180910390a260008160010160020160006101000a81548173ffffffffffffffffffffffffffffffffffffffff021916908373ffffffffffffffffffffffffffffffffffffffff16021790555050565b6000600360003373ffffffffffffffffffffffffffffffffffffffff1673ffffffffffffffffffffffffffffffffffffffff1681526020019081526020016000209050612fcb858585856147e1565b848160010160020160006101000a81548173ffffffffffffffffffffffffffffffffffffffff021916908373ffffffffffffffffffffffffffffffffffffffff1602179055503373ffffffffffffffffffffffffffffffffffffffff167f9dfbc5a621c3e2d0d83beee687a17dfc796bbce2118793e5e254409bb265ca0b86604051808273ffffffffffffffffffffffffffffffffffffffff1673ffffffffffffffffffffffffffffffffffffffff16815260200191505060405180910390a25050505050565b600260019054906101000a900473ffffffffffffffffffffffffffffffffffffffff1681565b600080600460008473ffffffffffffffffffffffffffffffffffffffff1673ffffffffffffffffffffffffffffffffffffffff16815260200190815260200160002060009054906101000a900473ffffffffffffffffffffffffffffffffffffffff169050600073ffffffffffffffffffffffffffffffffffffffff168173ffffffffffffffffffffffffffffffffffffffff1614613243578273ffffffffffffffffffffffffffffffffffffffff16600360008373ffffffffffffffffffffffffffffffffffffffff1673ffffffffffffffffffffffffffffffffffffffff16815260200190815260200160002060010160020160009054906101000a900473ffffffffffffffffffffffffffffffffffffffff1673ffffffffffffffffffffffffffffffffffffffff161461323a576040517f08c379a000000000000000000000000000000000000000000000000000000000815260040180806020018281038252602881526020018061507b6028913960400191505060405180910390fd5b809150506132c3565b61324c83611fcc565b6132be576040517f08c379a000000000000000000000000000000000000000000000000000000000815260040180806020018281038252600e8152602001807f6e6f7420616e206163636f756e7400000000000000000000000000000000000081525060200191505060405180910390fd5b829150505b919050565b60608060008090506060858590506040519080825280602002602001820160405280156133045781602001602082028038833980820191505090505b50905060008090505b868690508110156133f2576003600088888481811061332857fe5b9050602002013573ffffffffffffffffffffffffffffffffffffffff1673ffffffffffffffffffffffffffffffffffffffff1673ffffffffffffffffffffffffffffffffffffffff1681526020019081526020016000206007018054600181600116156101000203166002900490508282815181106133a357fe5b6020026020010181815250506133d58282815181106133be57fe5b602002602001015184614bc490919063ffffffff16565b92506133eb600182614bc490919063ffffffff16565b905061330d565b506060826040519080825280601f01601f1916602001820160405280156134285781602001600182028038833980820191505090505b509050600080905060008090505b888890508110156135b55760008090505b84828151811061345357fe5b602002602001015181101561359957600360008b8b8581811061347257fe5b9050602002013573ffffffffffffffffffffffffffffffffffffffff1673ffffffffffffffffffffffffffffffffffffffff1673ffffffffffffffffffffffffffffffffffffffff168152602001908152602001600020600701818154600181600116156101000203166002900481106134e857fe5b8154600116156135075790600052602060002090602091828204019190065b9054901a7f01000000000000000000000000000000000000000000000000000000000000000284848151811061353957fe5b60200101907effffffffffffffffffffffffffffffffffffffffffffffffffffffffffffff1916908160001a90535061357c600184614bc490919063ffffffff16565b9250613592600182614bc490919063ffffffff16565b9050613447565b506135ae600182614bc490919063ffffffff16565b9050613436565b50828295509550505050509250929050565b60008060009054906101000a900473ffffffffffffffffffffffffffffffffffffffff16905090565b60008060009054906101000a900473ffffffffffffffffffffffffffffffffffffffff1673ffffffffffffffffffffffffffffffffffffffff16613632614c4c565b73ffffffffffffffffffffffffffffffffffffffff1614905090565b61365733611fcc565b61366557613663613ba3565b505b6136b288888080601f016020809104026020016040519081016040528093929190818152602001838380828437600081840152601f19601f8201169050808301925050505050505061451a565b6136ff86868080601f016020809104026020016040519081016040528093929190818152602001838380828437600081840152601f19601f820116905080830192505050505050506118e6565b61370b8484848461383c565b5050505050505050565b600080600460008473ffffffffffffffffffffffffffffffffffffffff1673ffffffffffffffffffffffffffffffffffffffff16815260200190815260200160002060009054906101000a900473ffffffffffffffffffffffffffffffffffffffff169050600073ffffffffffffffffffffffffffffffffffffffff168173ffffffffffffffffffffffffffffffffffffffff16146137b75780915050613837565b6137c083611fcc565b613832576040517f08c379a000000000000000000000000000000000000000000000000000000000815260040180806020018281038252600e8152602001807f4e6f7420616e206163636f756e7400000000000000000000000000000000000081525060200191505060405180910390fd5b829150505b919050565b61384533611fcc565b6138b7576040517f08c379a000000000000000000000000000000000000000000000000000000000815260040180806020018281038252600f8152602001807f556e6b6e6f776e206163636f756e74000000000000000000000000000000000081525060200191505060405180910390fd5b3373ffffffffffffffffffffffffffffffffffffffff168473ffffffffffffffffffffffffffffffffffffffff16148061391d5750600073ffffffffffffffffffffffffffffffffffffffff168473ffffffffffffffffffffffffffffffffffffffff16145b613a9c57600073__Signatures____________________________6396ef41a1338686866040518563ffffffff1660e01b8152600401808573ffffffffffffffffffffffffffffffffffffffff1673ffffffffffffffffffffffffffffffffffffffff1681526020018460ff1660ff16815260200183815260200182815260200194505050505060206040518083038186803b1580156139bc57600080fd5b505af41580156139d0573d6000803e3d6000fd5b505050506040513d60208110156139e657600080fd5b810190808051906020019092919050505090508473ffffffffffffffffffffffffffffffffffffffff168173ffffffffffffffffffffffffffffffffffffffff1614613a9a576040517f08c379a00000000000000000000000000000000000000000000000000000000081526004018080602001828103825260118152602001807f496e76616c6964207369676e617475726500000000000000000000000000000081525060200191505060405180910390fd5b505b6000600360003373ffffffffffffffffffffffffffffffffffffffff1673ffffffffffffffffffffffffffffffffffffffff1681526020019081526020016000209050848160040160006101000a81548173ffffffffffffffffffffffffffffffffffffffff021916908373ffffffffffffffffffffffffffffffffffffffff1602179055503373ffffffffffffffffffffffffffffffffffffffff167ff81d74398fd47e35c36b714019df15f200f623dde569b5b531d6a0b4da5c5f2686604051808273ffffffffffffffffffffffffffffffffffffffff1673ffffffffffffffffffffffffffffffffffffffff16815260200191505060405180910390a25050505050565b6000613bae33614c54565b8015613bbf5750613bbe33614cae565b5b613c31576040517f08c379a000000000000000000000000000000000000000000000000000000000815260040180806020018281038252600e8152602001807f4163636f756e742065786973747300000000000000000000000000000000000081525060200191505060405180910390fd5b6000600360003373ffffffffffffffffffffffffffffffffffffffff1673ffffffffffffffffffffffffffffffffffffffff168152602001908152602001600020905060018160000160006101000a81548160ff0219169083151502179055503373ffffffffffffffffffffffffffffffffffffffff167f805996f252884581e2f74cf3d2b03564d5ec26ccc90850ae12653dc1b72d1fa260405160405180910390a2600191505090565b6000600360003373ffffffffffffffffffffffffffffffffffffffff1673ffffffffffffffffffffffffffffffffffffffff16815260200190815260200160002090503373ffffffffffffffffffffffffffffffffffffffff167fa54764c62865ff0cd3f271fb1d4635662bff10f0878694f1654fb7fbdecb830d8260010160010160009054906101000a900473ffffffffffffffffffffffffffffffffffffffff16604051808273ffffffffffffffffffffffffffffffffffffffff1673ffffffffffffffffffffffffffffffffffffffff16815260200191505060405180910390a260008160010160010160006101000a81548173ffffffffffffffffffffffffffffffffffffffff021916908373ffffffffffffffffffffffffffffffffffffffff16021790555050565b6060600360008373ffffffffffffffffffffffffffffffffffffffff1673ffffffffffffffffffffffffffffffffffffffff1681526020019081526020016000206007018054600181600116156101000203166002900480601f016020809104026020016040519081016040528092919081815260200182805460018160011615610100020316600290048015613ee25780601f10613eb757610100808354040283529160200191613ee2565b820191906000526020600020905b815481529060010190602001808311613ec557829003601f168201915b50505050509050919050565b613ef66135f0565b613f68576040517f08c379a00000000000000000000000000000000000000000000000000000000081526004018080602001828103825260208152602001807f4f776e61626c653a2063616c6c6572206973206e6f7420746865206f776e657281525060200191505060405180910390fd5b600073ffffffffffffffffffffffffffffffffffffffff168173ffffffffffffffffffffffffffffffffffffffff16141561400b576040517f08c379a00000000000000000000000000000000000000000000000000000000081526004018080602001828103825260208152602001807f43616e6e6f7420726567697374657220746865206e756c6c206164647265737381525060200191505060405180910390fd5b80600260016101000a81548173ffffffffffffffffffffffffffffffffffffffff021916908373ffffffffffffffffffffffffffffffffffffffff1602179055508073ffffffffffffffffffffffffffffffffffffffff167f27fe5f0c1c3b1ed427cc63d0f05759ffdecf9aec9e18d31ef366fc8a6cb5dc3b60405160405180910390a250565b6060600360008373ffffffffffffffffffffffffffffffffffffffff1673ffffffffffffffffffffffffffffffffffffffff1681526020019081526020016000206006018054600181600116156101000203166002900480601f01602080910402602001604051908101604052809291908181526020018280546001816001161561010002031660029004801561416a5780601f1061413f5761010080835404028352916020019161416a565b820191906000526020600020905b81548152906001019060200180831161414d57829003601f168201915b50505050509050919050565b60046020528060005260406000206000915054906101000a900473ffffffffffffffffffffffffffffffffffffffff1681565b60018060008282540192505081905550600060015490506000600360003373ffffffffffffffffffffffffffffffffffffffff1673ffffffffffffffffffffffffffffffffffffffff168152602001908152602001600020905061420f868686866147e1565b858160010160010160006101000a81548173ffffffffffffffffffffffffffffffffffffffff021916908373ffffffffffffffffffffffffffffffffffffffff16021790555061425d614ac9565b73ffffffffffffffffffffffffffffffffffffffff1663facd743b336040518263ffffffff1660e01b8152600401808273ffffffffffffffffffffffffffffffffffffffff1673ffffffffffffffffffffffffffffffffffffffff16815260200191505060206040518083038186803b1580156142d957600080fd5b505afa1580156142ed573d6000803e3d6000fd5b505050506040513d602081101561430357600080fd5b81019080805190602001909291905050501561436a576040517f08c379a00000000000000000000000000000000000000000000000000000000081526004018080602001828103825260218152602001806150a36021913960400191505060405180910390fd5b3373ffffffffffffffffffffffffffffffffffffffff167f16e382723fb40543364faf68863212ba253a099607bf6d3a5b47e50a8bf9494387604051808273ffffffffffffffffffffffffffffffffffffffff1673ffffffffffffffffffffffffffffffffffffffff16815260200191505060405180910390a250600154811461445c576040517f08c379a000000000000000000000000000000000000000000000000000000000815260040180806020018281038252600e8152602001807f7265656e7472616e742063616c6c00000000000000000000000000000000000081525060200191505060405180910390fd5b5050505050565b600061446e82611fcc565b61447757600080fd5b6000600360008473ffffffffffffffffffffffffffffffffffffffff1673ffffffffffffffffffffffffffffffffffffffff16815260200190815260200160002060010160020160009054906101000a900473ffffffffffffffffffffffffffffffffffffffff169050600073ffffffffffffffffffffffffffffffffffffffff168173ffffffffffffffffffffffffffffffffffffffff161415915050919050565b61452333611fcc565b614595576040517f08c379a000000000000000000000000000000000000000000000000000000000815260040180806020018281038252600f8152602001807f556e6b6e6f776e206163636f756e74000000000000000000000000000000000081525060200191505060405180910390fd5b6000600360003373ffffffffffffffffffffffffffffffffffffffff1673ffffffffffffffffffffffffffffffffffffffff1681526020019081526020016000209050818160050190805190602001906145f0929190614f89565b503373ffffffffffffffffffffffffffffffffffffffff167fa6e2c5a23bb917ba0a584c4b250257ddad698685829b66a8813c004b39934fe4836040518080602001828103825283818151815260200191508051906020019080838360005b8381101561466a57808201518184015260208101905061464f565b50505050905090810190601f1680156146975780820380516001836020036101000a031916815260200191505b509250505060405180910390a25050565b600260009054906101000a900460ff161561472b576040517f08c379a000000000000000000000000000000000000000000000000000000000815260040180806020018281038252601c8152602001807f636f6e747261637420616c726561647920696e697469616c697a65640000000081525060200191505060405180910390fd5b6001600260006101000a81548160ff02191690831515021790555061474f33614d45565b61475881613eee565b50565b6147636135f0565b6147d5576040517f08c379a00000000000000000000000000000000000000000000000000000000081526004018080602001828103825260208152602001807f4f776e61626c653a2063616c6c6572206973206e6f7420746865206f776e657281525060200191505060405180910390fd5b6147de81614d45565b50565b6147ea33611fcc565b61485c576040517f08c379a000000000000000000000000000000000000000000000000000000000815260040180806020018281038252600f8152602001807f556e6b6e6f776e206163636f756e74000000000000000000000000000000000081525060200191505060405180910390fd5b61486584614c54565b8015614876575061487584614cae565b5b6148cb576040517f08c379a00000000000000000000000000000000000000000000000000000000081526004018080602001828103825260338152602001806150c46033913960400191505060405180910390fd5b600073__Signatures____________________________6396ef41a1338686866040518563ffffffff1660e01b8152600401808573ffffffffffffffffffffffffffffffffffffffff1673ffffffffffffffffffffffffffffffffffffffff1681526020018460ff1660ff16815260200183815260200182815260200194505050505060206040518083038186803b15801561496657600080fd5b505af415801561497a573d6000803e3d6000fd5b505050506040513d602081101561499057600080fd5b810190808051906020019092919050505090508473ffffffffffffffffffffffffffffffffffffffff168173ffffffffffffffffffffffffffffffffffffffff1614614a44576040517f08c379a00000000000000000000000000000000000000000000000000000000081526004018080602001828103825260118152602001807f496e76616c6964207369676e617475726500000000000000000000000000000081525060200191505060405180910390fd5b33600460008773ffffffffffffffffffffffffffffffffffffffff1673ffffffffffffffffffffffffffffffffffffffff16815260200190815260200160002060006101000a81548173ffffffffffffffffffffffffffffffffffffffff021916908373ffffffffffffffffffffffffffffffffffffffff1602179055505050505050565b6000600260019054906101000a900473ffffffffffffffffffffffffffffffffffffffff1673ffffffffffffffffffffffffffffffffffffffff1663dcf0aaed60405160200180807f56616c696461746f727300000000000000000000000000000000000000000000815250600a019050604051602081830303815290604052805190602001206040518263ffffffff1660e01b81526004018082815260200191505060206040518083038186803b158015614b8457600080fd5b505afa158015614b98573d6000803e3d6000fd5b505050506040513d6020811015614bae57600080fd5b8101908080519060200190929190505050905090565b600080828401905083811015614c42576040517f08c379a000000000000000000000000000000000000000000000000000000000815260040180806020018281038252601b8152602001807f536166654d6174683a206164646974696f6e206f766572666c6f77000000000081525060200191505060405180910390fd5b8091505092915050565b600033905090565b6000600360008373ffffffffffffffffffffffffffffffffffffffff1673ffffffffffffffffffffffffffffffffffffffff16815260200190815260200160002060000160009054906101000a900460ff16159050919050565b60008073ffffffffffffffffffffffffffffffffffffffff16600460008473ffffffffffffffffffffffffffffffffffffffff1673ffffffffffffffffffffffffffffffffffffffff16815260200190815260200160002060009054906101000a900473ffffffffffffffffffffffffffffffffffffffff1673ffffffffffffffffffffffffffffffffffffffff16149050919050565b600073ffffffffffffffffffffffffffffffffffffffff168173ffffffffffffffffffffffffffffffffffffffff161415614dcb576040517f08c379a00000000000000000000000000000000000000000000000000000000081526004018080602001828103825260268152602001806150556026913960400191505060405180910390fd5b8073ffffffffffffffffffffffffffffffffffffffff166000809054906101000a900473ffffffffffffffffffffffffffffffffffffffff1673ffffffffffffffffffffffffffffffffffffffff167f8be0079c531659141344cd1fd0a4f28419497f9722a3daafe3b4186f6b6457e060405160405180910390a3806000806101000a81548173ffffffffffffffffffffffffffffffffffffffff021916908373ffffffffffffffffffffffffffffffffffffffff16021790555050565b828054600181600116156101000203166002900490600052602060002090601f016020900481019282601f10614eca57805160ff1916838001178555614ef8565b82800160010185558215614ef8579182015b82811115614ef7578251825591602001919060010190614edc565b5b509050614f059190615009565b5090565b828054600181600116156101000203166002900490600052602060002090601f016020900481019282601f10614f4a57803560ff1916838001178555614f78565b82800160010185558215614f78579182015b82811115614f77578235825591602001919060010190614f5c565b5b509050614f859190615009565b5090565b828054600181600116156101000203166002900490600052602060002090601f016020900481019282601f10614fca57805160ff1916838001178555614ff8565b82800160010185558215614ff8579182015b82811115614ff7578251825591602001919060010190614fdc565b5b5090506150059190615009565b5090565b61502b91905b8082111561502757600081600090555060010161500f565b5090565b9056fe6e6f742061637469766520617574686f72697a65642076616c696461746f72207369676e65724f776e61626c653a206e6577206f776e657220697320746865207a65726f20616464726573736e6f742061637469766520617574686f72697a6564206174746573746174696f6e207369676e657243616e6e6f7420617574686f72697a652076616c696461746f72207369676e657243616e6e6f742072652d617574686f72697a652061646472657373206f72206c6f636b656420676f6c64206163636f756e742e4661696c656420746f20757064617465204543445341207075626c6963206b65796e6f742061637469766520617574686f72697a656420766f7465207369676e6572a265627a7a72315820eb787e528ec7c37e6a9a30b16d59baf8ed6694cb5a151cd9e1cae3608686642764736f6c634300050d0032",
  "source": "pragma solidity ^0.5.13;\r\n\r\nimport \"openzeppelin-solidity/contracts/math/SafeMath.sol\";\r\nimport \"openzeppelin-solidity/contracts/ownership/Ownable.sol\";\r\n\r\nimport \"./interfaces/IAccounts.sol\";\r\n\r\nimport \"../common/Initializable.sol\";\r\nimport \"../common/interfaces/ICeloVersionedContract.sol\";\r\nimport \"../common/Signatures.sol\";\r\nimport \"../common/UsingRegistry.sol\";\r\nimport \"../common/libraries/ReentrancyGuard.sol\";\r\n\r\ncontract Accounts is\r\n  IAccounts,\r\n  ICeloVersionedContract,\r\n  Ownable,\r\n  ReentrancyGuard,\r\n  Initializable,\r\n  UsingRegistry\r\n{\r\n  using SafeMath for uint256;\r\n\r\n  struct Signers {\r\n    // The address that is authorized to vote in governance and validator elections on behalf of the\r\n    // account. The account can vote as well, whether or not a vote signing key has been specified.\r\n    address vote;\r\n    // The address that is authorized to manage a validator or validator group and sign consensus\r\n    // messages on behalf of the account. The account can manage the validator, whether or not a\r\n    // validator signing key has been specified. However, if a validator signing key has been\r\n    // specified, only that key may actually participate in consensus.\r\n    address validator;\r\n    // The address of the key with which this account wants to sign attestations on the Attestations\r\n    // contract\r\n    address attestation;\r\n  }\r\n\r\n  struct Account {\r\n    bool exists;\r\n    // Each account may authorize signing keys to use for voting, valdiating or attestation.\r\n    // These keys may not be keys of other accounts, and may not be authorized by any other\r\n    // account for any purpose.\r\n    Signers signers;\r\n    // The address at which the account expects to receive transfers. If it's empty/0x0, the\r\n    // account indicates that an address exchange should be initiated with the dataEncryptionKey\r\n    address walletAddress;\r\n    // An optional human readable identifier for the account\r\n    string name;\r\n    // The ECDSA public key used to encrypt and decrypt data for this account\r\n    bytes dataEncryptionKey;\r\n    // The URL under which an account adds metadata and claims\r\n    string metadataURL;\r\n  }\r\n\r\n  mapping(address => Account) internal accounts;\r\n  // Maps authorized signers to the account that provided the authorization.\r\n  mapping(address => address) public authorizedBy;\r\n\r\n  event AttestationSignerAuthorized(address indexed account, address signer);\r\n  event VoteSignerAuthorized(address indexed account, address signer);\r\n  event ValidatorSignerAuthorized(address indexed account, address signer);\r\n  event AttestationSignerRemoved(address indexed account, address oldSigner);\r\n  event VoteSignerRemoved(address indexed account, address oldSigner);\r\n  event ValidatorSignerRemoved(address indexed account, address oldSigner);\r\n  event AccountDataEncryptionKeySet(address indexed account, bytes dataEncryptionKey);\r\n  event AccountNameSet(address indexed account, string name);\r\n  event AccountMetadataURLSet(address indexed account, string metadataURL);\r\n  event AccountWalletAddressSet(address indexed account, address walletAddress);\r\n  event AccountCreated(address indexed account);\r\n\r\n  /**\r\n   * @notice Returns the storage, major, minor, and patch version of the contract.\r\n   * @return The storage, major, minor, and patch version of the contract.\r\n   */\r\n  function getVersionNumber() external pure returns (uint256, uint256, uint256, uint256) {\r\n    return (1, 1, 1, 1);\r\n  }\r\n\r\n  /**\r\n   * @notice Used in place of the constructor to allow the contract to be upgradable via proxy.\r\n   * @param registryAddress The address of the registry core smart contract.\r\n   */\r\n  function initialize(address registryAddress) external initializer {\r\n    _transferOwnership(msg.sender);\r\n    setRegistry(registryAddress);\r\n  }\r\n\r\n  /**\r\n   * @notice Convenience Setter for the dataEncryptionKey and wallet address for an account\r\n   * @param name A string to set as the name of the account\r\n   * @param dataEncryptionKey secp256k1 public key for data encryption. Preferably compressed.\r\n   * @param walletAddress The wallet address to set for the account\r\n   * @param v The recovery id of the incoming ECDSA signature.\r\n   * @param r Output value r of the ECDSA signature.\r\n   * @param s Output value s of the ECDSA signature.\r\n   * @dev v, r, s constitute `signer`'s signature on `msg.sender` (unless the wallet address\r\n   *      is 0x0 or msg.sender).\r\n   */\r\n  function setAccount(\r\n    string calldata name,\r\n    bytes calldata dataEncryptionKey,\r\n    address walletAddress,\r\n    uint8 v,\r\n    bytes32 r,\r\n    bytes32 s\r\n  ) external {\r\n    if (!isAccount(msg.sender)) {\r\n      createAccount();\r\n    }\r\n    setName(name);\r\n    setAccountDataEncryptionKey(dataEncryptionKey);\r\n    setWalletAddress(walletAddress, v, r, s);\r\n  }\r\n\r\n  /**\r\n   * @notice Creates an account.\r\n   * @return True if account creation succeeded.\r\n   */\r\n  function createAccount() public returns (bool) {\r\n    require(isNotAccount(msg.sender) && isNotAuthorizedSigner(msg.sender), \"Account exists\");\r\n    Account storage account = accounts[msg.sender];\r\n    account.exists = true;\r\n    emit AccountCreated(msg.sender);\r\n    return true;\r\n  }\r\n\r\n  /**\r\n   * @notice Setter for the name of an account.\r\n   * @param name The name to set.\r\n   */\r\n  function setName(string memory name) public {\r\n    require(isAccount(msg.sender), \"Unknown account\");\r\n    Account storage account = accounts[msg.sender];\r\n    account.name = name;\r\n    emit AccountNameSet(msg.sender, name);\r\n  }\r\n\r\n  /**\r\n   * @notice Setter for the wallet address for an account\r\n   * @param walletAddress The wallet address to set for the account\r\n   * @param v The recovery id of the incoming ECDSA signature.\r\n   * @param r Output value r of the ECDSA signature.\r\n   * @param s Output value s of the ECDSA signature.\r\n   * @dev Wallet address can be zero. This means that the owner of the wallet\r\n   *  does not want to be paid directly without interaction, and instead wants users to\r\n   * contact them, using the data encryption key, and arrange a payment.\r\n   * @dev v, r, s constitute `signer`'s signature on `msg.sender` (unless the wallet address\r\n   *      is 0x0 or msg.sender).\r\n   */\r\n  function setWalletAddress(address walletAddress, uint8 v, bytes32 r, bytes32 s) public {\r\n    require(isAccount(msg.sender), \"Unknown account\");\r\n    if (!(walletAddress == msg.sender || walletAddress == address(0x0))) {\r\n      address signer = Signatures.getSignerOfAddress(msg.sender, v, r, s);\r\n      require(signer == walletAddress, \"Invalid signature\");\r\n    }\r\n    Account storage account = accounts[msg.sender];\r\n    account.walletAddress = walletAddress;\r\n    emit AccountWalletAddressSet(msg.sender, walletAddress);\r\n  }\r\n\r\n  /**\r\n   * @notice Setter for the data encryption key and version.\r\n   * @param dataEncryptionKey secp256k1 public key for data encryption. Preferably compressed.\r\n   */\r\n  function setAccountDataEncryptionKey(bytes memory dataEncryptionKey) public {\r\n    require(dataEncryptionKey.length >= 33, \"data encryption key length <= 32\");\r\n    Account storage account = accounts[msg.sender];\r\n    account.dataEncryptionKey = dataEncryptionKey;\r\n    emit AccountDataEncryptionKeySet(msg.sender, dataEncryptionKey);\r\n  }\r\n\r\n  /**\r\n   * @notice Setter for the metadata of an account.\r\n   * @param metadataURL The URL to access the metadata.\r\n   */\r\n  function setMetadataURL(string calldata metadataURL) external {\r\n    require(isAccount(msg.sender), \"Unknown account\");\r\n    Account storage account = accounts[msg.sender];\r\n    account.metadataURL = metadataURL;\r\n    emit AccountMetadataURLSet(msg.sender, metadataURL);\r\n  }\r\n\r\n  /**\r\n   * @notice Authorizes an address to sign votes on behalf of the account.\r\n   * @param signer The address of the signing key to authorize.\r\n   * @param v The recovery id of the incoming ECDSA signature.\r\n   * @param r Output value r of the ECDSA signature.\r\n   * @param s Output value s of the ECDSA signature.\r\n   * @dev v, r, s constitute `signer`'s signature on `msg.sender`.\r\n   */\r\n  function authorizeVoteSigner(address signer, uint8 v, bytes32 r, bytes32 s)\r\n    external\r\n    nonReentrant\r\n  {\r\n    Account storage account = accounts[msg.sender];\r\n    authorize(signer, v, r, s);\r\n    account.signers.vote = signer;\r\n    emit VoteSignerAuthorized(msg.sender, signer);\r\n  }\r\n\r\n  /**\r\n   * @notice Authorizes an address to sign consensus messages on behalf of the account.\r\n   * @param signer The address of the signing key to authorize.\r\n   * @param v The recovery id of the incoming ECDSA signature.\r\n   * @param r Output value r of the ECDSA signature.\r\n   * @param s Output value s of the ECDSA signature.\r\n   * @dev v, r, s constitute `signer`'s signature on `msg.sender`.\r\n   */\r\n  function authorizeValidatorSigner(address signer, uint8 v, bytes32 r, bytes32 s)\r\n    external\r\n    nonReentrant\r\n  {\r\n    Account storage account = accounts[msg.sender];\r\n    authorize(signer, v, r, s);\r\n    account.signers.validator = signer;\r\n    require(!getValidators().isValidator(msg.sender), \"Cannot authorize validator signer\");\r\n    emit ValidatorSignerAuthorized(msg.sender, signer);\r\n  }\r\n\r\n  /**\r\n   * @notice Authorizes an address to sign consensus messages on behalf of the account.\r\n   * @param signer The address of the signing key to authorize.\r\n   * @param v The recovery id of the incoming ECDSA signature.\r\n   * @param r Output value r of the ECDSA signature.\r\n   * @param s Output value s of the ECDSA signature.\r\n   * @param ecdsaPublicKey The ECDSA public key corresponding to `signer`.\r\n   * @dev v, r, s constitute `signer`'s signature on `msg.sender`.\r\n   */\r\n  function authorizeValidatorSignerWithPublicKey(\r\n    address signer,\r\n    uint8 v,\r\n    bytes32 r,\r\n    bytes32 s,\r\n    bytes calldata ecdsaPublicKey\r\n  ) external nonReentrant {\r\n    Account storage account = accounts[msg.sender];\r\n    authorize(signer, v, r, s);\r\n    account.signers.validator = signer;\r\n    require(\r\n      getValidators().updateEcdsaPublicKey(msg.sender, signer, ecdsaPublicKey),\r\n      \"Failed to update ECDSA public key\"\r\n    );\r\n    emit ValidatorSignerAuthorized(msg.sender, signer);\r\n  }\r\n\r\n  /**\r\n   * @notice Authorizes an address to sign consensus messages on behalf of the account.\r\n   * @param signer The address of the signing key to authorize.\r\n   * @param ecdsaPublicKey The ECDSA public key corresponding to `signer`.\r\n   * @param blsPublicKey The BLS public key that the validator is using for consensus, should pass\r\n   *   proof of possession. 96 bytes.\r\n   * @param blsPop The BLS public key proof-of-possession, which consists of a signature on the\r\n   *   account address. 48 bytes.\r\n   * @param v The recovery id of the incoming ECDSA signature.\r\n   * @param r Output value r of the ECDSA signature.\r\n   * @param s Output value s of the ECDSA signature.\r\n   * @dev v, r, s constitute `signer`'s signature on `msg.sender`.\r\n   */\r\n  function authorizeValidatorSignerWithKeys(\r\n    address signer,\r\n    uint8 v,\r\n    bytes32 r,\r\n    bytes32 s,\r\n    bytes calldata ecdsaPublicKey,\r\n    bytes calldata blsPublicKey,\r\n    bytes calldata blsPop\r\n  ) external nonReentrant {\r\n    Account storage account = accounts[msg.sender];\r\n    authorize(signer, v, r, s);\r\n    account.signers.validator = signer;\r\n    require(\r\n      getValidators().updatePublicKeys(msg.sender, signer, ecdsaPublicKey, blsPublicKey, blsPop),\r\n      \"Failed to update validator keys\"\r\n    );\r\n    emit ValidatorSignerAuthorized(msg.sender, signer);\r\n  }\r\n\r\n  /**\r\n   * @notice Authorizes an address to sign attestations on behalf of the account.\r\n   * @param signer The address of the signing key to authorize.\r\n   * @param v The recovery id of the incoming ECDSA signature.\r\n   * @param r Output value r of the ECDSA signature.\r\n   * @param s Output value s of the ECDSA signature.\r\n   * @dev v, r, s constitute `signer`'s signature on `msg.sender`.\r\n   */\r\n  function authorizeAttestationSigner(address signer, uint8 v, bytes32 r, bytes32 s) public {\r\n    Account storage account = accounts[msg.sender];\r\n    authorize(signer, v, r, s);\r\n    account.signers.attestation = signer;\r\n    emit AttestationSignerAuthorized(msg.sender, signer);\r\n  }\r\n\r\n  /**\r\n   * @notice Removes the currently authorized vote signer for the account.\r\n   * Note that the signers cannot be reauthorized after they have been removed.\r\n   */\r\n  function removeVoteSigner() public {\r\n    Account storage account = accounts[msg.sender];\r\n    emit VoteSignerRemoved(msg.sender, account.signers.vote);\r\n    account.signers.vote = address(0);\r\n  }\r\n\r\n  /**\r\n   * @notice Removes the currently authorized validator signer for the account\r\n   * Note that the signers cannot be reauthorized after they have been removed.\r\n   */\r\n  function removeValidatorSigner() public {\r\n    Account storage account = accounts[msg.sender];\r\n    emit ValidatorSignerRemoved(msg.sender, account.signers.validator);\r\n    account.signers.validator = address(0);\r\n  }\r\n\r\n  /**\r\n   * @notice Removes the currently authorized attestation signer for the account\r\n   * Note that the signers cannot be reauthorized after they have been removed.\r\n   */\r\n  function removeAttestationSigner() public {\r\n    Account storage account = accounts[msg.sender];\r\n    emit AttestationSignerRemoved(msg.sender, account.signers.attestation);\r\n    account.signers.attestation = address(0);\r\n  }\r\n\r\n  /**\r\n   * @notice Returns the account associated with `signer`.\r\n   * @param signer The address of the account or currently authorized attestation signer.\r\n   * @dev Fails if the `signer` is not an account or currently authorized attestation signer.\r\n   * @return The associated account.\r\n   */\r\n  function attestationSignerToAccount(address signer) external view returns (address) {\r\n    address authorizingAccount = authorizedBy[signer];\r\n    if (authorizingAccount != address(0)) {\r\n      require(\r\n        accounts[authorizingAccount].signers.attestation == signer,\r\n        \"not active authorized attestation signer\"\r\n      );\r\n      return authorizingAccount;\r\n    } else {\r\n      require(isAccount(signer), \"not an account\");\r\n      return signer;\r\n    }\r\n  }\r\n\r\n  /**\r\n   * @notice Returns the account associated with `signer`.\r\n   * @param signer The address of an account or currently authorized validator signer.\r\n   * @dev Fails if the `signer` is not an account or currently authorized validator.\r\n   * @return The associated account.\r\n   */\r\n  function validatorSignerToAccount(address signer) public view returns (address) {\r\n    address authorizingAccount = authorizedBy[signer];\r\n    if (authorizingAccount != address(0)) {\r\n      require(\r\n        accounts[authorizingAccount].signers.validator == signer,\r\n        \"not active authorized validator signer\"\r\n      );\r\n      return authorizingAccount;\r\n    } else {\r\n      require(isAccount(signer), \"not an account\");\r\n      return signer;\r\n    }\r\n  }\r\n\r\n  /**\r\n   * @notice Returns the account associated with `signer`.\r\n   * @param signer The address of the account or currently authorized vote signer.\r\n   * @dev Fails if the `signer` is not an account or currently authorized vote signer.\r\n   * @return The associated account.\r\n   */\r\n  function voteSignerToAccount(address signer) external view returns (address) {\r\n    address authorizingAccount = authorizedBy[signer];\r\n    if (authorizingAccount != address(0)) {\r\n      require(\r\n        accounts[authorizingAccount].signers.vote == signer,\r\n        \"not active authorized vote signer\"\r\n      );\r\n      return authorizingAccount;\r\n    } else {\r\n      require(isAccount(signer), \"not an account\");\r\n      return signer;\r\n    }\r\n  }\r\n\r\n  /**\r\n   * @notice Returns the account associated with `signer`.\r\n   * @param signer The address of the account or previously authorized signer.\r\n   * @dev Fails if the `signer` is not an account or previously authorized signer.\r\n   * @return The associated account.\r\n   */\r\n  function signerToAccount(address signer) external view returns (address) {\r\n    address authorizingAccount = authorizedBy[signer];\r\n    if (authorizingAccount != address(0)) {\r\n      return authorizingAccount;\r\n    } else {\r\n      require(isAccount(signer), \"Not an account\");\r\n      return signer;\r\n    }\r\n  }\r\n\r\n  /**\r\n   * @notice Returns the vote signer for the specified account.\r\n   * @param account The address of the account.\r\n   * @return The address with which the account can sign votes.\r\n   */\r\n  function getVoteSigner(address account) public view returns (address) {\r\n    require(isAccount(account), \"Unknown account\");\r\n    address signer = accounts[account].signers.vote;\r\n    return signer == address(0) ? account : signer;\r\n  }\r\n\r\n  /**\r\n   * @notice Returns the validator signer for the specified account.\r\n   * @param account The address of the account.\r\n   * @return The address with which the account can register a validator or group.\r\n   */\r\n  function getValidatorSigner(address account) public view returns (address) {\r\n    require(isAccount(account), \"Unknown account\");\r\n    address signer = accounts[account].signers.validator;\r\n    return signer == address(0) ? account : signer;\r\n  }\r\n\r\n  /**\r\n   * @notice Returns the attestation signer for the specified account.\r\n   * @param account The address of the account.\r\n   * @return The address with which the account can sign attestations.\r\n   */\r\n  function getAttestationSigner(address account) public view returns (address) {\r\n    require(isAccount(account), \"Unknown account\");\r\n    address signer = accounts[account].signers.attestation;\r\n    return signer == address(0) ? account : signer;\r\n  }\r\n\r\n  /**\r\n   * @notice Returns if account has specified a dedicated vote signer.\r\n   * @param account The address of the account.\r\n   * @return Whether the account has specified a dedicated vote signer.\r\n   */\r\n  function hasAuthorizedVoteSigner(address account) external view returns (bool) {\r\n    require(isAccount(account));\r\n    address signer = accounts[account].signers.vote;\r\n    return signer != address(0);\r\n  }\r\n\r\n  /**\r\n   * @notice Returns if account has specified a dedicated validator signer.\r\n   * @param account The address of the account.\r\n   * @return Whether the account has specified a dedicated validator signer.\r\n   */\r\n  function hasAuthorizedValidatorSigner(address account) external view returns (bool) {\r\n    require(isAccount(account));\r\n    address signer = accounts[account].signers.validator;\r\n    return signer != address(0);\r\n  }\r\n\r\n  /**\r\n   * @notice Returns if account has specified a dedicated attestation signer.\r\n   * @param account The address of the account.\r\n   * @return Whether the account has specified a dedicated attestation signer.\r\n   */\r\n  function hasAuthorizedAttestationSigner(address account) external view returns (bool) {\r\n    require(isAccount(account));\r\n    address signer = accounts[account].signers.attestation;\r\n    return signer != address(0);\r\n  }\r\n\r\n  /**\r\n   * @notice Getter for the name of an account.\r\n   * @param account The address of the account to get the name for.\r\n   * @return name The name of the account.\r\n   */\r\n  function getName(address account) external view returns (string memory) {\r\n    return accounts[account].name;\r\n  }\r\n\r\n  /**\r\n   * @notice Getter for the metadata of an account.\r\n   * @param account The address of the account to get the metadata for.\r\n   * @return metadataURL The URL to access the metadata.\r\n   */\r\n  function getMetadataURL(address account) external view returns (string memory) {\r\n    return accounts[account].metadataURL;\r\n  }\r\n\r\n  /**\r\n   * @notice Getter for the metadata of multiple accounts.\r\n   * @param accountsToQuery The addresses of the accounts to get the metadata for.\r\n   * @return (stringLengths[] - the length of each string in bytes\r\n   *          data - all strings concatenated\r\n   *         )\r\n   */\r\n  function batchGetMetadataURL(address[] calldata accountsToQuery)\r\n    external\r\n    view\r\n    returns (uint256[] memory, bytes memory)\r\n  {\r\n    uint256 totalSize = 0;\r\n    uint256[] memory sizes = new uint256[](accountsToQuery.length);\r\n    for (uint256 i = 0; i < accountsToQuery.length; i = i.add(1)) {\r\n      sizes[i] = bytes(accounts[accountsToQuery[i]].metadataURL).length;\r\n      totalSize = totalSize.add(sizes[i]);\r\n    }\r\n\r\n    bytes memory data = new bytes(totalSize);\r\n    uint256 pointer = 0;\r\n    for (uint256 i = 0; i < accountsToQuery.length; i = i.add(1)) {\r\n      for (uint256 j = 0; j < sizes[i]; j = j.add(1)) {\r\n        data[pointer] = bytes(accounts[accountsToQuery[i]].metadataURL)[j];\r\n        pointer = pointer.add(1);\r\n      }\r\n    }\r\n    return (sizes, data);\r\n  }\r\n\r\n  /**\r\n   * @notice Getter for the data encryption key and version.\r\n   * @param account The address of the account to get the key for\r\n   * @return dataEncryptionKey secp256k1 public key for data encryption. Preferably compressed.\r\n   */\r\n  function getDataEncryptionKey(address account) external view returns (bytes memory) {\r\n    return accounts[account].dataEncryptionKey;\r\n  }\r\n\r\n  /**\r\n   * @notice Getter for the wallet address for an account\r\n   * @param account The address of the account to get the wallet address for\r\n   * @return Wallet address\r\n   */\r\n  function getWalletAddress(address account) external view returns (address) {\r\n    return accounts[account].walletAddress;\r\n  }\r\n\r\n  /**\r\n   * @notice Check if an account already exists.\r\n   * @param account The address of the account\r\n   * @return Returns `true` if account exists. Returns `false` otherwise.\r\n   */\r\n  function isAccount(address account) public view returns (bool) {\r\n    return (accounts[account].exists);\r\n  }\r\n\r\n  /**\r\n   * @notice Check if an account already exists.\r\n   * @param account The address of the account\r\n   * @return Returns `false` if account exists. Returns `true` otherwise.\r\n   */\r\n  function isNotAccount(address account) internal view returns (bool) {\r\n    return (!accounts[account].exists);\r\n  }\r\n\r\n  /**\r\n   * @notice Check if an address has been an authorized signer for an account.\r\n   * @param signer The possibly authorized address.\r\n   * @return Returns `true` if authorized. Returns `false` otherwise.\r\n   */\r\n  function isAuthorizedSigner(address signer) external view returns (bool) {\r\n    return (authorizedBy[signer] != address(0));\r\n  }\r\n\r\n  /**\r\n   * @notice Check if an address has been an authorized signer for an account.\r\n   * @param signer The possibly authorized address.\r\n   * @return Returns `false` if authorized. Returns `true` otherwise.\r\n   */\r\n  function isNotAuthorizedSigner(address signer) internal view returns (bool) {\r\n    return (authorizedBy[signer] == address(0));\r\n  }\r\n\r\n  /**\r\n   * @notice Authorizes some role of `msg.sender`'s account to another address.\r\n   * @param authorized The address to authorize.\r\n   * @param v The recovery id of the incoming ECDSA signature.\r\n   * @param r Output value r of the ECDSA signature.\r\n   * @param s Output value s of the ECDSA signature.\r\n   * @dev Fails if the address is already authorized or is an account.\r\n   * @dev Note that once an address is authorized, it may never be authorized again.\r\n   * @dev v, r, s constitute `current`'s signature on `msg.sender`.\r\n   */\r\n  function authorize(address authorized, uint8 v, bytes32 r, bytes32 s) private {\r\n    require(isAccount(msg.sender), \"Unknown account\");\r\n    require(\r\n      isNotAccount(authorized) && isNotAuthorizedSigner(authorized),\r\n      \"Cannot re-authorize address or locked gold account.\"\r\n    );\r\n\r\n    address signer = Signatures.getSignerOfAddress(msg.sender, v, r, s);\r\n    require(signer == authorized, \"Invalid signature\");\r\n\r\n    authorizedBy[authorized] = msg.sender;\r\n  }\r\n}\r\n",
  "sourcePath": "D:\\Work\\celo-monorepo\\packages\\protocol\\contracts\\common\\Accounts.sol",
  "compiler": {
    "name": "solc",
    "version": "0.5.13+commit.5b0b510c.Emscripten.clang"
  },
  "schemaVersion": "3.0.23",
  "updatedAt": "2021-02-08T13:54:47.336Z",
  "devdoc": {
    "methods": {
      "attestationSignerToAccount(address)": {
        "details": "Fails if the `signer` is not an account or currently authorized attestation signer.",
        "params": {
          "signer": "The address of the account or currently authorized attestation signer."
        },
        "return": "The associated account."
      },
      "authorizeAttestationSigner(address,uint8,bytes32,bytes32)": {
        "details": "v, r, s constitute `signer`'s signature on `msg.sender`.",
        "params": {
          "r": "Output value r of the ECDSA signature.",
          "s": "Output value s of the ECDSA signature.",
          "signer": "The address of the signing key to authorize.",
          "v": "The recovery id of the incoming ECDSA signature."
        }
      },
      "authorizeValidatorSigner(address,uint8,bytes32,bytes32)": {
        "details": "v, r, s constitute `signer`'s signature on `msg.sender`.",
        "params": {
          "r": "Output value r of the ECDSA signature.",
          "s": "Output value s of the ECDSA signature.",
          "signer": "The address of the signing key to authorize.",
          "v": "The recovery id of the incoming ECDSA signature."
        }
      },
      "authorizeValidatorSignerWithKeys(address,uint8,bytes32,bytes32,bytes,bytes,bytes)": {
        "details": "v, r, s constitute `signer`'s signature on `msg.sender`.",
        "params": {
          "blsPop": "The BLS public key proof-of-possession, which consists of a signature on the  account address. 48 bytes.",
          "blsPublicKey": "The BLS public key that the validator is using for consensus, should pass  proof of possession. 96 bytes.",
          "ecdsaPublicKey": "The ECDSA public key corresponding to `signer`.",
          "r": "Output value r of the ECDSA signature.",
          "s": "Output value s of the ECDSA signature.",
          "signer": "The address of the signing key to authorize.",
          "v": "The recovery id of the incoming ECDSA signature."
        }
      },
      "authorizeValidatorSignerWithPublicKey(address,uint8,bytes32,bytes32,bytes)": {
        "details": "v, r, s constitute `signer`'s signature on `msg.sender`.",
        "params": {
          "ecdsaPublicKey": "The ECDSA public key corresponding to `signer`.",
          "r": "Output value r of the ECDSA signature.",
          "s": "Output value s of the ECDSA signature.",
          "signer": "The address of the signing key to authorize.",
          "v": "The recovery id of the incoming ECDSA signature."
        }
      },
      "authorizeVoteSigner(address,uint8,bytes32,bytes32)": {
        "details": "v, r, s constitute `signer`'s signature on `msg.sender`.",
        "params": {
          "r": "Output value r of the ECDSA signature.",
          "s": "Output value s of the ECDSA signature.",
          "signer": "The address of the signing key to authorize.",
          "v": "The recovery id of the incoming ECDSA signature."
        }
      },
      "batchGetMetadataURL(address[])": {
        "params": {
          "accountsToQuery": "The addresses of the accounts to get the metadata for."
        },
        "return": "(stringLengths[] - the length of each string in bytes         data - all strings concatenated        )"
      },
      "createAccount()": {
        "return": "True if account creation succeeded."
      },
      "getAttestationSigner(address)": {
        "params": {
          "account": "The address of the account."
        },
        "return": "The address with which the account can sign attestations."
      },
      "getDataEncryptionKey(address)": {
        "params": {
          "account": "The address of the account to get the key for"
        },
        "return": "dataEncryptionKey secp256k1 public key for data encryption. Preferably compressed."
      },
      "getMetadataURL(address)": {
        "params": {
          "account": "The address of the account to get the metadata for."
        },
        "return": "metadataURL The URL to access the metadata."
      },
      "getName(address)": {
        "params": {
          "account": "The address of the account to get the name for."
        },
        "return": "name The name of the account."
      },
      "getValidatorSigner(address)": {
        "params": {
          "account": "The address of the account."
        },
        "return": "The address with which the account can register a validator or group."
      },
      "getVersionNumber()": {
        "return": "The storage, major, minor, and patch version of the contract."
      },
      "getVoteSigner(address)": {
        "params": {
          "account": "The address of the account."
        },
        "return": "The address with which the account can sign votes."
      },
      "getWalletAddress(address)": {
        "params": {
          "account": "The address of the account to get the wallet address for"
        },
        "return": "Wallet address"
      },
      "hasAuthorizedAttestationSigner(address)": {
        "params": {
          "account": "The address of the account."
        },
        "return": "Whether the account has specified a dedicated attestation signer."
      },
      "hasAuthorizedValidatorSigner(address)": {
        "params": {
          "account": "The address of the account."
        },
        "return": "Whether the account has specified a dedicated validator signer."
      },
      "hasAuthorizedVoteSigner(address)": {
        "params": {
          "account": "The address of the account."
        },
        "return": "Whether the account has specified a dedicated vote signer."
      },
      "initialize(address)": {
        "params": {
          "registryAddress": "The address of the registry core smart contract."
        }
      },
      "isAccount(address)": {
        "params": {
          "account": "The address of the account"
        },
        "return": "Returns `true` if account exists. Returns `false` otherwise."
      },
      "isAuthorizedSigner(address)": {
        "params": {
          "signer": "The possibly authorized address."
        },
        "return": "Returns `true` if authorized. Returns `false` otherwise."
      },
      "isOwner()": {
        "details": "Returns true if the caller is the current owner."
      },
      "owner()": {
        "details": "Returns the address of the current owner."
      },
      "renounceOwnership()": {
        "details": "Leaves the contract without owner. It will not be possible to call `onlyOwner` functions anymore. Can only be called by the current owner.     * NOTE: Renouncing ownership will leave the contract without an owner, thereby removing any functionality that is only available to the owner."
      },
      "setAccount(string,bytes,address,uint8,bytes32,bytes32)": {
        "details": "v, r, s constitute `signer`'s signature on `msg.sender` (unless the wallet address     is 0x0 or msg.sender).",
        "params": {
          "dataEncryptionKey": "secp256k1 public key for data encryption. Preferably compressed.",
          "name": "A string to set as the name of the account",
          "r": "Output value r of the ECDSA signature.",
          "s": "Output value s of the ECDSA signature.",
          "v": "The recovery id of the incoming ECDSA signature.",
          "walletAddress": "The wallet address to set for the account"
        }
      },
      "setAccountDataEncryptionKey(bytes)": {
        "params": {
          "dataEncryptionKey": "secp256k1 public key for data encryption. Preferably compressed."
        }
      },
      "setMetadataURL(string)": {
        "params": {
          "metadataURL": "The URL to access the metadata."
        }
      },
      "setName(string)": {
        "params": {
          "name": "The name to set."
        }
      },
      "setRegistry(address)": {
        "params": {
          "registryAddress": "The address of a registry contract for routing to other contracts."
        }
      },
      "setWalletAddress(address,uint8,bytes32,bytes32)": {
        "details": "Wallet address can be zero. This means that the owner of the wallet does not want to be paid directly without interaction, and instead wants users to contact them, using the data encryption key, and arrange a payment.v, r, s constitute `signer`'s signature on `msg.sender` (unless the wallet address     is 0x0 or msg.sender).",
        "params": {
          "r": "Output value r of the ECDSA signature.",
          "s": "Output value s of the ECDSA signature.",
          "v": "The recovery id of the incoming ECDSA signature.",
          "walletAddress": "The wallet address to set for the account"
        }
      },
      "signerToAccount(address)": {
        "details": "Fails if the `signer` is not an account or previously authorized signer.",
        "params": {
          "signer": "The address of the account or previously authorized signer."
        },
        "return": "The associated account."
      },
      "transferOwnership(address)": {
        "details": "Transfers ownership of the contract to a new account (`newOwner`). Can only be called by the current owner."
      },
      "validatorSignerToAccount(address)": {
        "details": "Fails if the `signer` is not an account or currently authorized validator.",
        "params": {
          "signer": "The address of an account or currently authorized validator signer."
        },
        "return": "The associated account."
      },
      "voteSignerToAccount(address)": {
        "details": "Fails if the `signer` is not an account or currently authorized vote signer.",
        "params": {
          "signer": "The address of the account or currently authorized vote signer."
        },
        "return": "The associated account."
      }
    }
  },
  "userdoc": {
    "methods": {
      "attestationSignerToAccount(address)": {
        "notice": "Returns the account associated with `signer`."
      },
      "authorizeAttestationSigner(address,uint8,bytes32,bytes32)": {
        "notice": "Authorizes an address to sign attestations on behalf of the account."
      },
      "authorizeValidatorSigner(address,uint8,bytes32,bytes32)": {
        "notice": "Authorizes an address to sign consensus messages on behalf of the account."
      },
      "authorizeValidatorSignerWithKeys(address,uint8,bytes32,bytes32,bytes,bytes,bytes)": {
        "notice": "Authorizes an address to sign consensus messages on behalf of the account."
      },
      "authorizeValidatorSignerWithPublicKey(address,uint8,bytes32,bytes32,bytes)": {
        "notice": "Authorizes an address to sign consensus messages on behalf of the account."
      },
      "authorizeVoteSigner(address,uint8,bytes32,bytes32)": {
        "notice": "Authorizes an address to sign votes on behalf of the account."
      },
      "batchGetMetadataURL(address[])": {
        "notice": "Getter for the metadata of multiple accounts."
      },
      "createAccount()": {
        "notice": "Creates an account."
      },
      "getAttestationSigner(address)": {
        "notice": "Returns the attestation signer for the specified account."
      },
      "getDataEncryptionKey(address)": {
        "notice": "Getter for the data encryption key and version."
      },
      "getMetadataURL(address)": {
        "notice": "Getter for the metadata of an account."
      },
      "getName(address)": {
        "notice": "Getter for the name of an account."
      },
      "getValidatorSigner(address)": {
        "notice": "Returns the validator signer for the specified account."
      },
      "getVersionNumber()": {
        "notice": "Returns the storage, major, minor, and patch version of the contract."
      },
      "getVoteSigner(address)": {
        "notice": "Returns the vote signer for the specified account."
      },
      "getWalletAddress(address)": {
        "notice": "Getter for the wallet address for an account"
      },
      "hasAuthorizedAttestationSigner(address)": {
        "notice": "Returns if account has specified a dedicated attestation signer."
      },
      "hasAuthorizedValidatorSigner(address)": {
        "notice": "Returns if account has specified a dedicated validator signer."
      },
      "hasAuthorizedVoteSigner(address)": {
        "notice": "Returns if account has specified a dedicated vote signer."
      },
      "initialize(address)": {
        "notice": "Used in place of the constructor to allow the contract to be upgradable via proxy."
      },
      "isAccount(address)": {
        "notice": "Check if an account already exists."
      },
      "isAuthorizedSigner(address)": {
        "notice": "Check if an address has been an authorized signer for an account."
      },
      "removeAttestationSigner()": {
        "notice": "Removes the currently authorized attestation signer for the account Note that the signers cannot be reauthorized after they have been removed."
      },
      "removeValidatorSigner()": {
        "notice": "Removes the currently authorized validator signer for the account Note that the signers cannot be reauthorized after they have been removed."
      },
      "removeVoteSigner()": {
        "notice": "Removes the currently authorized vote signer for the account. Note that the signers cannot be reauthorized after they have been removed."
      },
      "setAccount(string,bytes,address,uint8,bytes32,bytes32)": {
        "notice": "Convenience Setter for the dataEncryptionKey and wallet address for an account"
      },
      "setAccountDataEncryptionKey(bytes)": {
        "notice": "Setter for the data encryption key and version."
      },
      "setMetadataURL(string)": {
        "notice": "Setter for the metadata of an account."
      },
      "setName(string)": {
        "notice": "Setter for the name of an account."
      },
      "setRegistry(address)": {
        "notice": "Updates the address pointing to a Registry contract."
      },
      "setWalletAddress(address,uint8,bytes32,bytes32)": {
        "notice": "Setter for the wallet address for an account"
      },
      "signerToAccount(address)": {
        "notice": "Returns the account associated with `signer`."
      },
      "validatorSignerToAccount(address)": {
        "notice": "Returns the account associated with `signer`."
      },
      "voteSignerToAccount(address)": {
        "notice": "Returns the account associated with `signer`."
      }
    }
  }
}