{
  "contractName": "AddressLinkedList",
  "abi": [
    {
      "constant": true,
      "inputs": [],
      "name": "getVersionNumber",
      "outputs": [
        {
          "internalType": "uint256",
          "name": "",
          "type": "uint256"
        },
        {
          "internalType": "uint256",
          "name": "",
          "type": "uint256"
        },
        {
          "internalType": "uint256",
          "name": "",
          "type": "uint256"
        },
        {
          "internalType": "uint256",
          "name": "",
          "type": "uint256"
        }
      ],
      "payable": false,
      "stateMutability": "pure",
      "type": "function"
    },
    {
      "constant": true,
      "inputs": [
        {
          "internalType": "address",
          "name": "a",
          "type": "address"
        }
      ],
      "name": "toBytes",
      "outputs": [
        {
          "internalType": "bytes32",
          "name": "",
          "type": "bytes32"
        }
      ],
      "payable": false,
      "stateMutability": "pure",
      "type": "function"
    },
    {
      "constant": true,
      "inputs": [
        {
          "internalType": "bytes32",
          "name": "b",
          "type": "bytes32"
        }
      ],
      "name": "toAddress",
      "outputs": [
        {
          "internalType": "address",
          "name": "",
          "type": "address"
        }
      ],
      "payable": false,
      "stateMutability": "pure",
      "type": "function"
    }
  ],
  "bytecode": "0x6111f0610026600b82828239805160001a60731461001957fe5b30600052607381538281f3fe73000000000000000000000000000000000000000030146080604052600436106100a85760003560e01c8063593b79fe11610070578063593b79fe146102aa578063b1cfea4314610302578063b2f8fe961461038f578063e2c0c56a1461042a578063fe3c7a8e14610485576100a8565b806307debf7c146100ad57806326afac4914610148578063341f6623146101a3578063542424fb1461021157806354255be014610277575b600080fd5b8180156100b957600080fd5b50610146600480360360808110156100d057600080fd5b8101908080359060200190929190803573ffffffffffffffffffffffffffffffffffffffff169060200190929190803573ffffffffffffffffffffffffffffffffffffffff169060200190929190803573ffffffffffffffffffffffffffffffffffffffff169060200190929190505050610508565b005b81801561015457600080fd5b506101a16004803603604081101561016b57600080fd5b8101908080359060200190929190803573ffffffffffffffffffffffffffffffffffffffff16906020019092919050505061053d565b005b6101cf600480360360208110156101b957600080fd5b8101908080359060200190929190505050610567565b604051808273ffffffffffffffffffffffffffffffffffffffff1673ffffffffffffffffffffffffffffffffffffffff16815260200191505060405180910390f35b61025d6004803603604081101561022757600080fd5b8101908080359060200190929190803573ffffffffffffffffffffffffffffffffffffffff169060200190929190505050610578565b604051808215151515815260200191505060405180910390f35b61027f6105b0565b6040518085815260200184815260200183815260200182815260200194505050505060405180910390f35b6102ec600480360360208110156102c057600080fd5b81019080803573ffffffffffffffffffffffffffffffffffffffff1690602001909291905050506105d7565b6040518082815260200191505060405180910390f35b6103386004803603604081101561031857600080fd5b8101908080359060200190929190803590602001909291905050506105fe565b6040518080602001828103825283818151815260200191508051906020019060200280838360005b8381101561037b578082015181840152602081019050610360565b505050509050019250505060405180910390f35b81801561039b57600080fd5b50610428600480360360808110156103b257600080fd5b8101908080359060200190929190803573ffffffffffffffffffffffffffffffffffffffff169060200190929190803573ffffffffffffffffffffffffffffffffffffffff169060200190929190803573ffffffffffffffffffffffffffffffffffffffff1690602001909291905050506106e1565b005b81801561043657600080fd5b506104836004803603604081101561044d57600080fd5b8101908080359060200190929190803573ffffffffffffffffffffffffffffffffffffffff169060200190929190505050610716565b005b6104b16004803603602081101561049b57600080fd5b8101908080359060200190929190505050610735565b6040518080602001828103825283818151815260200191508051906020019060200280838360005b838110156104f45780820151818401526020810190506104d9565b505050509050019250505060405180910390f35b610537610514846105d7565b61051d846105d7565b610526846105d7565b8761074c909392919063ffffffff16565b50505050565b610563610549826105d7565b6000801b84600101548561074c909392919063ffffffff16565b5050565b600060608260001c901c9050919050565b6000826003016000610589846105d7565b815260200190815260200160002060020160009054906101000a900460ff16905092915050565b60008060008060018060016000839350829250819150809050935093509350935090919293565b600060608273ffffffffffffffffffffffffffffffffffffffff16901b60001b9050919050565b6060806106148385610b9390919063ffffffff16565b90506060836040519080825280602002602001820160405280156106475781602001602082028038833980820191505090505b50905060008090505b848110156106d55761067483828151811061066757fe5b6020026020010151610567565b82828151811061068057fe5b602002602001019073ffffffffffffffffffffffffffffffffffffffff16908173ffffffffffffffffffffffffffffffffffffffff16815250506106ce600182610cb590919063ffffffff16565b9050610650565b50809250505092915050565b6107106106ed846105d7565b6106f6846105d7565b6106ff846105d7565b87610d3d909392919063ffffffff16565b50505050565b610731610722826105d7565b83610dfc90919063ffffffff16565b5050565b60606107458283600201546105fe565b9050919050565b6000801b8314156107c5576040517f08c379a00000000000000000000000000000000000000000000000000000000081526004018080602001828103825260138152602001807f4b6579206d75737420626520646566696e65640000000000000000000000000081525060200191505060405180910390fd5b6107cf8484610f99565b15610842576040517f08c379a00000000000000000000000000000000000000000000000000000000081526004018080602001828103825260208152602001807f43616e277420696e7365727420616e206578697374696e6720656c656d656e7481525060200191505060405180910390fd5b8282141580156108525750828114155b6108a7576040517f08c379a00000000000000000000000000000000000000000000000000000000081526004018080602001828103825260308152602001806110d46030913960400191505060405180910390fd5b6000846003016000858152602001908152602001600020905060018160020160006101000a81548160ff02191690831515021790555060008560020154141561090157838560010181905550838560000181905550610b6c565b6000801b8314158061091657506000801b8214155b61096b576040517f08c379a000000000000000000000000000000000000000000000000000000000815260040180806020018281038252602d81526020018061118f602d913960400191505060405180910390fd5b8281600001819055508181600101819055506000801b8314610a6a576109918584610f99565b6109e6576040517f08c379a000000000000000000000000000000000000000000000000000000000815260040180806020018281038252603481526020018061112b6034913960400191505060405180910390fd5b6000856003016000858152602001908152602001600020905082816001015414610a5b576040517f08c379a00000000000000000000000000000000000000000000000000000000081526004018080602001828103825260278152602001806111046027913960400191505060405180910390fd5b84816001018190555050610a74565b8385600101819055505b6000801b8214610b6157610a888583610f99565b610add576040517f08c379a000000000000000000000000000000000000000000000000000000000815260040180806020018281038252603081526020018061115f6030913960400191505060405180910390fd5b6000856003016000848152602001908152602001600020905083816000015414610b52576040517f08c379a00000000000000000000000000000000000000000000000000000000081526004018080602001828103825260278152602001806111046027913960400191505060405180910390fd5b84816000018190555050610b6b565b8385600001819055505b5b610b8460018660020154610cb590919063ffffffff16565b85600201819055505050505050565b60608260020154821115610c0f576040517f08c379a00000000000000000000000000000000000000000000000000000000081526004018080602001828103825260138152602001807f6e6f7420656e6f75676820656c656d656e74730000000000000000000000000081525060200191505060405180910390fd5b606082604051908082528060200260200182016040528015610c405781602001602082028038833980820191505090505b50905060008460000154905060008090505b84811015610ca95781838281518110610c6757fe5b602002602001018181525050856003016000838152602001908152602001600020600001549150610ca2600182610cb590919063ffffffff16565b9050610c52565b50819250505092915050565b600080828401905083811015610d33576040517f08c379a000000000000000000000000000000000000000000000000000000000815260040180806020018281038252601b8152602001807f536166654d6174683a206164646974696f6e206f766572666c6f77000000000081525060200191505060405180910390fd5b8091505092915050565b6000801b8314158015610d505750818314155b8015610d5c5750808314155b8015610d6e5750610d6d8484610f99565b5b610de0576040517f08c379a000000000000000000000000000000000000000000000000000000000815260040180806020018281038252600e8152602001807f6b6579206f6e20696e206c69737400000000000000000000000000000000000081525060200191505060405180910390fd5b610dea8484610dfc565b610df68484848461074c565b50505050565b600082600301600083815260200190815260200160002090506000801b8214158015610e2e5750610e2d8383610f99565b5b610ea0576040517f08c379a000000000000000000000000000000000000000000000000000000000815260040180806020018281038252600f8152602001807f6b6579206e6f7420696e206c697374000000000000000000000000000000000081525060200191505060405180910390fd5b6000801b816000015414610ede5760008360030160008360000154815260200190815260200160002090508160010154816001018190555050610eec565b806001015483600101819055505b6000801b816001015414610f2a5760008360030160008360010154815260200190815260200160002090508160000154816000018190555050610f38565b806000015483600001819055505b82600301600083815260200190815260200160002060008082016000905560018201600090556002820160006101000a81549060ff02191690555050610f8c60018460020154610fc990919063ffffffff16565b8360020181905550505050565b600082600301600083815260200190815260200160002060020160009054906101000a900460ff16905092915050565b600061100b83836040518060400160405280601e81526020017f536166654d6174683a207375627472616374696f6e206f766572666c6f770000815250611013565b905092915050565b60008383111582906110c0576040517f08c379a00000000000000000000000000000000000000000000000000000000081526004018080602001828103825283818151815260200191508051906020019080838360005b8381101561108557808201518184015260208101905061106a565b50505050905090810190601f1680156110b25780820380516001836020036101000a031916815260200191505b509250505060405180910390fd5b506000838503905080915050939250505056fe4b65792063616e6e6f74206265207468652073616d652061732070726576696f75734b6579206f72206e6578744b657970726576696f75734b6579206d7573742062652061646a6163656e7420746f206e6578744b657949662070726576696f75734b657920697320646566696e65642c206974206d75737420657869737420696e20746865206c6973744966206e6578744b657920697320646566696e65642c206974206d75737420657869737420696e20746865206c6973744569746865722070726576696f75734b6579206f72206e6578744b6579206d75737420626520646566696e6564a265627a7a72315820ea21e0e8d27fde811daf5be0f84e28c347a7f6a3d4ea423a6b5d9547d255331764736f6c634300050d0032",
  "source": "pragma solidity ^0.5.13;\r\n\r\nimport \"openzeppelin-solidity/contracts/math/SafeMath.sol\";\r\n\r\nimport \"./LinkedList.sol\";\r\n\r\n/**\r\n * @title Maintains a doubly linked list keyed by address.\r\n * @dev Following the `next` pointers will lead you to the head, rather than the tail.\r\n */\r\nlibrary AddressLinkedList {\r\n  using LinkedList for LinkedList.List;\r\n  using SafeMath for uint256;\r\n\r\n  /**\r\n   * @notice Returns the storage, major, minor, and patch version of the contract.\r\n   * @return The storage, major, minor, and patch version of the contract.\r\n   */\r\n  function getVersionNumber() external pure returns (uint256, uint256, uint256, uint256) {\r\n    return (1, 1, 1, 0);\r\n  }\r\n\r\n  function toBytes(address a) public pure returns (bytes32) {\r\n    return bytes32(uint256(a) << 96);\r\n  }\r\n\r\n  function toAddress(bytes32 b) public pure returns (address) {\r\n    return address(uint256(b) >> 96);\r\n  }\r\n\r\n  /**\r\n   * @notice Inserts an element into a doubly linked list.\r\n   * @param list A storage pointer to the underlying list.\r\n   * @param key The key of the element to insert.\r\n   * @param previousKey The key of the element that comes before the element to insert.\r\n   * @param nextKey The key of the element that comes after the element to insert.\r\n   */\r\n  function insert(LinkedList.List storage list, address key, address previousKey, address nextKey)\r\n    public\r\n  {\r\n    list.insert(toBytes(key), toBytes(previousKey), toBytes(nextKey));\r\n  }\r\n\r\n  /**\r\n   * @notice Inserts an element at the end of the doubly linked list.\r\n   * @param list A storage pointer to the underlying list.\r\n   * @param key The key of the element to insert.\r\n   */\r\n  function push(LinkedList.List storage list, address key) public {\r\n    list.insert(toBytes(key), bytes32(0), list.tail);\r\n  }\r\n\r\n  /**\r\n   * @notice Removes an element from the doubly linked list.\r\n   * @param list A storage pointer to the underlying list.\r\n   * @param key The key of the element to remove.\r\n   */\r\n  function remove(LinkedList.List storage list, address key) public {\r\n    list.remove(toBytes(key));\r\n  }\r\n\r\n  /**\r\n   * @notice Updates an element in the list.\r\n   * @param list A storage pointer to the underlying list.\r\n   * @param key The element key.\r\n   * @param previousKey The key of the element that comes before the updated element.\r\n   * @param nextKey The key of the element that comes after the updated element.\r\n   */\r\n  function update(LinkedList.List storage list, address key, address previousKey, address nextKey)\r\n    public\r\n  {\r\n    list.update(toBytes(key), toBytes(previousKey), toBytes(nextKey));\r\n  }\r\n\r\n  /**\r\n   * @notice Returns whether or not a particular key is present in the sorted list.\r\n   * @param list A storage pointer to the underlying list.\r\n   * @param key The element key.\r\n   * @return Whether or not the key is in the sorted list.\r\n   */\r\n  function contains(LinkedList.List storage list, address key) public view returns (bool) {\r\n    return list.elements[toBytes(key)].exists;\r\n  }\r\n\r\n  /**\r\n   * @notice Returns the N greatest elements of the list.\r\n   * @param list A storage pointer to the underlying list.\r\n   * @param n The number of elements to return.\r\n   * @return The keys of the greatest elements.\r\n   * @dev Reverts if n is greater than the number of elements in the list.\r\n   */\r\n  function headN(LinkedList.List storage list, uint256 n) public view returns (address[] memory) {\r\n    bytes32[] memory byteKeys = list.headN(n);\r\n    address[] memory keys = new address[](n);\r\n    for (uint256 i = 0; i < n; i = i.add(1)) {\r\n      keys[i] = toAddress(byteKeys[i]);\r\n    }\r\n    return keys;\r\n  }\r\n\r\n  /**\r\n   * @notice Gets all element keys from the doubly linked list.\r\n   * @param list A storage pointer to the underlying list.\r\n   * @return All element keys from head to tail.\r\n   */\r\n  function getKeys(LinkedList.List storage list) public view returns (address[] memory) {\r\n    return headN(list, list.numElements);\r\n  }\r\n}\r\n",
  "sourcePath": "D:\\Work\\celo-monorepo\\packages\\protocol\\contracts\\common\\linkedlists\\AddressLinkedList.sol",
  "compiler": {
    "name": "solc",
    "version": "0.5.13+commit.5b0b510c.Emscripten.clang"
  },
  "schemaVersion": "3.0.23",
  "updatedAt": "2021-02-08T13:54:47.571Z",
  "devdoc": {
    "details": "Following the `next` pointers will lead you to the head, rather than the tail.",
    "methods": {
      "contains(LinkedList.List storage,address)": {
        "params": {
          "key": "The element key.",
          "list": "A storage pointer to the underlying list."
        },
        "return": "Whether or not the key is in the sorted list."
      },
      "getKeys(LinkedList.List storage)": {
        "params": {
          "list": "A storage pointer to the underlying list."
        },
        "return": "All element keys from head to tail."
      },
      "getVersionNumber()": {
        "return": "The storage, major, minor, and patch version of the contract."
      },
      "headN(LinkedList.List storage,uint256)": {
        "details": "Reverts if n is greater than the number of elements in the list.",
        "params": {
          "list": "A storage pointer to the underlying list.",
          "n": "The number of elements to return."
        },
        "return": "The keys of the greatest elements."
      },
      "insert(LinkedList.List storage,address,address,address)": {
        "params": {
          "key": "The key of the element to insert.",
          "list": "A storage pointer to the underlying list.",
          "nextKey": "The key of the element that comes after the element to insert.",
          "previousKey": "The key of the element that comes before the element to insert."
        }
      },
      "push(LinkedList.List storage,address)": {
        "params": {
          "key": "The key of the element to insert.",
          "list": "A storage pointer to the underlying list."
        }
      },
      "remove(LinkedList.List storage,address)": {
        "params": {
          "key": "The key of the element to remove.",
          "list": "A storage pointer to the underlying list."
        }
      },
      "update(LinkedList.List storage,address,address,address)": {
        "params": {
          "key": "The element key.",
          "list": "A storage pointer to the underlying list.",
          "nextKey": "The key of the element that comes after the updated element.",
          "previousKey": "The key of the element that comes before the updated element."
        }
      }
    },
    "title": "Maintains a doubly linked list keyed by address."
  },
  "userdoc": {
    "methods": {
      "contains(LinkedList.List storage,address)": {
        "notice": "Returns whether or not a particular key is present in the sorted list."
      },
      "getKeys(LinkedList.List storage)": {
        "notice": "Gets all element keys from the doubly linked list."
      },
      "getVersionNumber()": {
        "notice": "Returns the storage, major, minor, and patch version of the contract."
      },
      "headN(LinkedList.List storage,uint256)": {
        "notice": "Returns the N greatest elements of the list."
      },
      "insert(LinkedList.List storage,address,address,address)": {
        "notice": "Inserts an element into a doubly linked list."
      },
      "push(LinkedList.List storage,address)": {
        "notice": "Inserts an element at the end of the doubly linked list."
      },
      "remove(LinkedList.List storage,address)": {
        "notice": "Removes an element from the doubly linked list."
      },
      "update(LinkedList.List storage,address,address,address)": {
        "notice": "Updates an element in the list."
      }
    }
  }
}