{
  "contractName": "AddressSortedLinkedList",
  "abi": [
    {
      "constant": true,
      "inputs": [],
      "name": "getVersionNumber",
      "outputs": [
        {
          "internalType": "uint256",
          "name": "",
          "type": "uint256"
        },
        {
          "internalType": "uint256",
          "name": "",
          "type": "uint256"
        },
        {
          "internalType": "uint256",
          "name": "",
          "type": "uint256"
        },
        {
          "internalType": "uint256",
          "name": "",
          "type": "uint256"
        }
      ],
      "payable": false,
      "stateMutability": "pure",
      "type": "function"
    },
    {
      "constant": true,
      "inputs": [
        {
          "internalType": "address",
          "name": "a",
          "type": "address"
        }
      ],
      "name": "toBytes",
      "outputs": [
        {
          "internalType": "bytes32",
          "name": "",
          "type": "bytes32"
        }
      ],
      "payable": false,
      "stateMutability": "pure",
      "type": "function"
    },
    {
      "constant": true,
      "inputs": [
        {
          "internalType": "bytes32",
          "name": "b",
          "type": "bytes32"
        }
      ],
      "name": "toAddress",
      "outputs": [
        {
          "internalType": "address",
          "name": "",
          "type": "address"
        }
      ],
      "payable": false,
      "stateMutability": "pure",
      "type": "function"
    }
  ],
  "bytecode": "0x611a1a610026600b82828239805160001a60731461001957fe5b30600052607381538281f3fe73000000000000000000000000000000000000000030146080604052600436106100be5760003560e01c806354255be01161007b57806354255be014610370578063593b79fe146103a357806369b317e3146103fb578063cab455ae146104c6578063dcb2a4dd1461056b578063e0fe44b3146105f8576100be565b806302f13028146100c357806328135929146101295780632dedbbf014610184578063341f6623146102295780633a72e8021461029757806342b6351a1461031a575b600080fd5b61010f600480360360408110156100d957600080fd5b8101908080359060200190929190803573ffffffffffffffffffffffffffffffffffffffff16906020019092919050505061065a565b604051808215151515815260200191505060405180910390f35b81801561013557600080fd5b506101826004803603604081101561014c57600080fd5b8101908080359060200190929190803573ffffffffffffffffffffffffffffffffffffffff16906020019092919050505061067f565b005b81801561019057600080fd5b50610227600480360360a08110156101a757600080fd5b8101908080359060200190929190803573ffffffffffffffffffffffffffffffffffffffff16906020019092919080359060200190929190803573ffffffffffffffffffffffffffffffffffffffff169060200190929190803573ffffffffffffffffffffffffffffffffffffffff16906020019092919050505061069e565b005b6102556004803603602081101561023f57600080fd5b81019080803590602001909291905050506106d6565b604051808273ffffffffffffffffffffffffffffffffffffffff1673ffffffffffffffffffffffffffffffffffffffff16815260200191505060405180910390f35b6102c3600480360360208110156102ad57600080fd5b81019080803590602001909291905050506106e7565b6040518080602001828103825283818151815260200191508051906020019060200280838360005b838110156103065780820151818401526020810190506102eb565b505050509050019250505060405180910390f35b61035a6004803603606081101561033057600080fd5b81019080803590602001909291908035906020019092919080359060200190929190505050610701565b6040518082815260200191505060405180910390f35b61037861079d565b6040518085815260200184815260200183815260200182815260200194505050505060405180910390f35b6103e5600480360360208110156103b957600080fd5b81019080803573ffffffffffffffffffffffffffffffffffffffff1690602001909291905050506107c4565b6040518082815260200191505060405180910390f35b6104276004803603602081101561041157600080fd5b81019080803590602001909291905050506107eb565b604051808060200180602001838103835285818151815260200191508051906020019060200280838360005b8381101561046e578082015181840152602081019050610453565b50505050905001838103825284818151815260200191508051906020019060200280838360005b838110156104b0578082015181840152602081019050610495565b5050505090500194505050505060405180910390f35b8180156104d257600080fd5b50610569600480360360a08110156104e957600080fd5b8101908080359060200190929190803573ffffffffffffffffffffffffffffffffffffffff16906020019092919080359060200190929190803573ffffffffffffffffffffffffffffffffffffffff169060200190929190803573ffffffffffffffffffffffffffffffffffffffff169060200190929190505050610941565b005b6105a16004803603604081101561058157600080fd5b810190808035906020019092919080359060200190929190505050610979565b6040518080602001828103825283818151815260200191508051906020019060200280838360005b838110156105e45780820151818401526020810190506105c9565b505050509050019250505060405180910390f35b6106446004803603604081101561060e57600080fd5b8101908080359060200190929190803573ffffffffffffffffffffffffffffffffffffffff169060200190929190505050610a5c565b6040518082815260200191505060405180910390f35b6000610677610668836107c4565b84610a8190919063ffffffff16565b905092915050565b61069a61068b826107c4565b83610aa190919063ffffffff16565b5050565b6106cf6106aa856107c4565b846106b4856107c4565b6106bd856107c4565b89610ad690949392919063ffffffff16565b5050505050565b600060608260001c901c9050919050565b60606106fa828360000160020154610979565b9050919050565b600080610715838660000160020154610d74565b905060008560000160000154905060008090505b8281101561078f57856107458389610d8d90919063ffffffff16565b101561075657809350505050610796565b866000016003016000838152602001908152602001600020600001549150610788600182610dad90919063ffffffff16565b9050610729565b5081925050505b9392505050565b60008060008060018060016000839350829250819150809050935093509350935090919293565b600060608273ffffffffffffffffffffffffffffffffffffffff16901b60001b9050919050565b60608060606107f984610e35565b90506060815160405190808252806020026020018201604052801561082d5781602001602082028038833980820191505090505b509050606082516040519080825280602002602001820160405280156108625781602001602082028038833980820191505090505b50905060008090505b83518110156109325761089084828151811061088357fe5b60200260200101516106d6565b83828151811061089c57fe5b602002602001019073ffffffffffffffffffffffffffffffffffffffff16908173ffffffffffffffffffffffffffffffffffffffff16815250508660040160008583815181106108e857fe5b602002602001015181526020019081526020016000205482828151811061090b57fe5b60200260200101818152505061092b600182610dad90919063ffffffff16565b905061086b565b50818194509450505050915091565b61097261094d856107c4565b84610957856107c4565b610960856107c4565b89610e4a90949392919063ffffffff16565b5050505050565b60608061098f8385610e6890919063ffffffff16565b90506060836040519080825280602002602001820160405280156109c25781602001602082028038833980820191505090505b50905060008090505b84811015610a50576109ef8382815181106109e257fe5b60200260200101516106d6565b8282815181106109fb57fe5b602002602001019073ffffffffffffffffffffffffffffffffffffffff16908173ffffffffffffffffffffffffffffffffffffffff1681525050610a49600182610dad90919063ffffffff16565b90506109cb565b50809250505092915050565b6000610a79610a6a836107c4565b84610d8d90919063ffffffff16565b905092915050565b6000610a998284600001610e8890919063ffffffff16565b905092915050565b610ab78183600001610eb890919063ffffffff16565b6000826004016000838152602001908152602001600020819055505050565b6000801b8414158015610ae95750818414155b8015610af55750808414155b8015610b085750610b068585610a81565b155b610b7a576040517f08c379a000000000000000000000000000000000000000000000000000000000815260040180806020018281038252600b8152602001807f696e76616c6964206b657900000000000000000000000000000000000000000081525060200191505060405180910390fd5b6000801b82141580610b8f57506000801b8114155b80610ba1575060008560000160020154145b610c13576040517f08c379a000000000000000000000000000000000000000000000000000000000815260040180806020018281038252601b8152602001807f6772656174657220616e64206c6573736572206b6579207a65726f000000000081525060200191505060405180910390fd5b610c1d8583610a81565b80610c2a57506000801b82145b610c9c576040517f08c379a00000000000000000000000000000000000000000000000000000000081526004018080602001828103825260128152602001807f696e76616c6964206c6573736572206b6579000000000000000000000000000081525060200191505060405180910390fd5b610ca68582610a81565b80610cb357506000801b81145b610d25576040517f08c379a00000000000000000000000000000000000000000000000000000000081526004018080602001828103825260138152602001807f696e76616c69642067726561746572206b65790000000000000000000000000081525060200191505060405180910390fd5b610d3185848484611055565b8092508193505050610d5384838388600001611208909392919063ffffffff16565b82856004016000868152602001908152602001600020819055505050505050565b6000818310610d835781610d85565b825b905092915050565b600082600401600083815260200190815260200160002054905092915050565b600080828401905083811015610e2b576040517f08c379a000000000000000000000000000000000000000000000000000000000815260040180806020018281038252601b8152602001807f536166654d6174683a206164646974696f6e206f766572666c6f77000000000081525060200191505060405180910390fd5b8091505092915050565b6060610e438260000161164f565b9050919050565b610e548585610aa1565b610e618585858585610ad6565b5050505050565b6060610e80828460000161166690919063ffffffff16565b905092915050565b600082600301600083815260200190815260200160002060020160009054906101000a900460ff16905092915050565b600082600301600083815260200190815260200160002090506000801b8214158015610eea5750610ee98383610e88565b5b610f5c576040517f08c379a000000000000000000000000000000000000000000000000000000000815260040180806020018281038252600f8152602001807f6b6579206e6f7420696e206c697374000000000000000000000000000000000081525060200191505060405180910390fd5b6000801b816000015414610f9a5760008360030160008360000154815260200190815260200160002090508160010154816001018190555050610fa8565b806001015483600101819055505b6000801b816001015414610fe65760008360030160008360010154815260200190815260200160002090508160000154816000018190555050610ff4565b806000015483600001819055505b82600301600083815260200190815260200160002060008082016000905560018201600090556002820160006101000a81549060ff021916905550506110486001846002015461178890919063ffffffff16565b8360020181905550505050565b6000806000801b84148015611079575061107886868689600001600101546117d2565b5b1561109057838660000160010154915091506111ff565b6000801b831480156110b157506110b086868860000160000154866117d2565b5b156110c857856000016000015483915091506111ff565b6000801b84141580156110fe57506110fd868686896000016003016000898152602001908152602001600020600101546117d2565b5b15611129578386600001600301600086815260200190815260200160002060010154915091506111ff565b6000801b831415801561115f575061115e868688600001600301600087815260200190815260200160002060000154866117d2565b5b1561118a578560000160030160008481526020019081526020016000206000015483915091506111ff565b60006111fe576040517f08c379a000000000000000000000000000000000000000000000000000000000815260040180806020018281038252601e8152602001807f676574206c657373657220616e642067726561746572206661696c757265000081525060200191505060405180910390fd5b5b94509492505050565b6000801b831415611281576040517f08c379a00000000000000000000000000000000000000000000000000000000081526004018080602001828103825260138152602001807f4b6579206d75737420626520646566696e65640000000000000000000000000081525060200191505060405180910390fd5b61128b8484610e88565b156112fe576040517f08c379a00000000000000000000000000000000000000000000000000000000081526004018080602001828103825260208152602001807f43616e277420696e7365727420616e206578697374696e6720656c656d656e7481525060200191505060405180910390fd5b82821415801561130e5750828114155b611363576040517f08c379a00000000000000000000000000000000000000000000000000000000081526004018080602001828103825260308152602001806118fe6030913960400191505060405180910390fd5b6000846003016000858152602001908152602001600020905060018160020160006101000a81548160ff0219169083151502179055506000856002015414156113bd57838560010181905550838560000181905550611628565b6000801b831415806113d257506000801b8214155b611427576040517f08c379a000000000000000000000000000000000000000000000000000000000815260040180806020018281038252602d8152602001806119b9602d913960400191505060405180910390fd5b8281600001819055508181600101819055506000801b83146115265761144d8584610e88565b6114a2576040517f08c379a00000000000000000000000000000000000000000000000000000000081526004018080602001828103825260348152602001806119556034913960400191505060405180910390fd5b6000856003016000858152602001908152602001600020905082816001015414611517576040517f08c379a000000000000000000000000000000000000000000000000000000000815260040180806020018281038252602781526020018061192e6027913960400191505060405180910390fd5b84816001018190555050611530565b8385600101819055505b6000801b821461161d576115448583610e88565b611599576040517f08c379a00000000000000000000000000000000000000000000000000000000081526004018080602001828103825260308152602001806119896030913960400191505060405180910390fd5b600085600301600084815260200190815260200160002090508381600001541461160e576040517f08c379a000000000000000000000000000000000000000000000000000000000815260040180806020018281038252602781526020018061192e6027913960400191505060405180910390fd5b84816000018190555050611627565b8385600001819055505b5b61164060018660020154610dad90919063ffffffff16565b85600201819055505050505050565b606061165f828360020154611666565b9050919050565b606082600201548211156116e2576040517f08c379a00000000000000000000000000000000000000000000000000000000081526004018080602001828103825260138152602001807f6e6f7420656e6f75676820656c656d656e74730000000000000000000000000081525060200191505060405180910390fd5b6060826040519080825280602002602001820160405280156117135781602001602082028038833980820191505090505b50905060008460000154905060008090505b8481101561177c578183828151811061173a57fe5b602002602001018181525050856003016000838152602001908152602001600020600001549150611775600182610dad90919063ffffffff16565b9050611725565b50819250505092915050565b60006117ca83836040518060400160405280601e81526020017f536166654d6174683a207375627472616374696f6e206f766572666c6f77000081525061183d565b905092915050565b6000806000801b8414806117fb5750848660040160008681526020019081526020016000205411155b905060008060001b8414806118255750858760040160008681526020019081526020016000205410155b90508180156118315750805b92505050949350505050565b60008383111582906118ea576040517f08c379a00000000000000000000000000000000000000000000000000000000081526004018080602001828103825283818151815260200191508051906020019080838360005b838110156118af578082015181840152602081019050611894565b50505050905090810190601f1680156118dc5780820380516001836020036101000a031916815260200191505b509250505060405180910390fd5b506000838503905080915050939250505056fe4b65792063616e6e6f74206265207468652073616d652061732070726576696f75734b6579206f72206e6578744b657970726576696f75734b6579206d7573742062652061646a6163656e7420746f206e6578744b657949662070726576696f75734b657920697320646566696e65642c206974206d75737420657869737420696e20746865206c6973744966206e6578744b657920697320646566696e65642c206974206d75737420657869737420696e20746865206c6973744569746865722070726576696f75734b6579206f72206e6578744b6579206d75737420626520646566696e6564a265627a7a723158207d24795f31fa3f7e39ea0e9af7b41ed1826ac18dc5fec35481aec3453374519864736f6c634300050d0032",
  "source": "pragma solidity ^0.5.13;\r\n\r\nimport \"openzeppelin-solidity/contracts/math/Math.sol\";\r\nimport \"openzeppelin-solidity/contracts/math/SafeMath.sol\";\r\n\r\nimport \"./SortedLinkedList.sol\";\r\n\r\n/**\r\n * @title Maintains a sorted list of unsigned ints keyed by address.\r\n */\r\nlibrary AddressSortedLinkedList {\r\n  using SafeMath for uint256;\r\n  using SortedLinkedList for SortedLinkedList.List;\r\n\r\n  /**\r\n   * @notice Returns the storage, major, minor, and patch version of the contract.\r\n   * @return The storage, major, minor, and patch version of the contract.\r\n   */\r\n  function getVersionNumber() external pure returns (uint256, uint256, uint256, uint256) {\r\n    return (1, 1, 1, 0);\r\n  }\r\n\r\n  function toBytes(address a) public pure returns (bytes32) {\r\n    return bytes32(uint256(a) << 96);\r\n  }\r\n\r\n  function toAddress(bytes32 b) public pure returns (address) {\r\n    return address(uint256(b) >> 96);\r\n  }\r\n\r\n  /**\r\n   * @notice Inserts an element into a doubly linked list.\r\n   * @param list A storage pointer to the underlying list.\r\n   * @param key The key of the element to insert.\r\n   * @param value The element value.\r\n   * @param lesserKey The key of the element less than the element to insert.\r\n   * @param greaterKey The key of the element greater than the element to insert.\r\n   */\r\n  function insert(\r\n    SortedLinkedList.List storage list,\r\n    address key,\r\n    uint256 value,\r\n    address lesserKey,\r\n    address greaterKey\r\n  ) public {\r\n    list.insert(toBytes(key), value, toBytes(lesserKey), toBytes(greaterKey));\r\n  }\r\n\r\n  /**\r\n   * @notice Removes an element from the doubly linked list.\r\n   * @param list A storage pointer to the underlying list.\r\n   * @param key The key of the element to remove.\r\n   */\r\n  function remove(SortedLinkedList.List storage list, address key) public {\r\n    list.remove(toBytes(key));\r\n  }\r\n\r\n  /**\r\n   * @notice Updates an element in the list.\r\n   * @param list A storage pointer to the underlying list.\r\n   * @param key The element key.\r\n   * @param value The element value.\r\n   * @param lesserKey The key of the element will be just left of `key` after the update.\r\n   * @param greaterKey The key of the element will be just right of `key` after the update.\r\n   * @dev Note that only one of \"lesserKey\" or \"greaterKey\" needs to be correct to reduce friction.\r\n   */\r\n  function update(\r\n    SortedLinkedList.List storage list,\r\n    address key,\r\n    uint256 value,\r\n    address lesserKey,\r\n    address greaterKey\r\n  ) public {\r\n    list.update(toBytes(key), value, toBytes(lesserKey), toBytes(greaterKey));\r\n  }\r\n\r\n  /**\r\n   * @notice Returns whether or not a particular key is present in the sorted list.\r\n   * @param list A storage pointer to the underlying list.\r\n   * @param key The element key.\r\n   * @return Whether or not the key is in the sorted list.\r\n   */\r\n  function contains(SortedLinkedList.List storage list, address key) public view returns (bool) {\r\n    return list.contains(toBytes(key));\r\n  }\r\n\r\n  /**\r\n   * @notice Returns the value for a particular key in the sorted list.\r\n   * @param list A storage pointer to the underlying list.\r\n   * @param key The element key.\r\n   * @return The element value.\r\n   */\r\n  function getValue(SortedLinkedList.List storage list, address key) public view returns (uint256) {\r\n    return list.getValue(toBytes(key));\r\n  }\r\n\r\n  /**\r\n   * @notice Gets all elements from the doubly linked list.\r\n   * @return An unpacked list of elements from largest to smallest.\r\n   */\r\n  function getElements(SortedLinkedList.List storage list)\r\n    public\r\n    view\r\n    returns (address[] memory, uint256[] memory)\r\n  {\r\n    bytes32[] memory byteKeys = list.getKeys();\r\n    address[] memory keys = new address[](byteKeys.length);\r\n    uint256[] memory values = new uint256[](byteKeys.length);\r\n    for (uint256 i = 0; i < byteKeys.length; i = i.add(1)) {\r\n      keys[i] = toAddress(byteKeys[i]);\r\n      values[i] = list.values[byteKeys[i]];\r\n    }\r\n    return (keys, values);\r\n  }\r\n\r\n  /**\r\n   * @notice Returns the minimum of `max` and the  number of elements in the list > threshold.\r\n   * @param list A storage pointer to the underlying list.\r\n   * @param threshold The number that the element must exceed to be included.\r\n   * @param max The maximum number returned by this function.\r\n   * @return The minimum of `max` and the  number of elements in the list > threshold.\r\n   */\r\n  function numElementsGreaterThan(\r\n    SortedLinkedList.List storage list,\r\n    uint256 threshold,\r\n    uint256 max\r\n  ) public view returns (uint256) {\r\n    uint256 revisedMax = Math.min(max, list.list.numElements);\r\n    bytes32 key = list.list.head;\r\n    for (uint256 i = 0; i < revisedMax; i = i.add(1)) {\r\n      if (list.getValue(key) < threshold) {\r\n        return i;\r\n      }\r\n      key = list.list.elements[key].previousKey;\r\n    }\r\n    return revisedMax;\r\n  }\r\n\r\n  /**\r\n   * @notice Returns the N greatest elements of the list.\r\n   * @param list A storage pointer to the underlying list.\r\n   * @param n The number of elements to return.\r\n   * @return The keys of the greatest elements.\r\n   */\r\n  function headN(SortedLinkedList.List storage list, uint256 n)\r\n    public\r\n    view\r\n    returns (address[] memory)\r\n  {\r\n    bytes32[] memory byteKeys = list.headN(n);\r\n    address[] memory keys = new address[](n);\r\n    for (uint256 i = 0; i < n; i = i.add(1)) {\r\n      keys[i] = toAddress(byteKeys[i]);\r\n    }\r\n    return keys;\r\n  }\r\n\r\n  /**\r\n   * @notice Gets all element keys from the doubly linked list.\r\n   * @param list A storage pointer to the underlying list.\r\n   * @return All element keys from head to tail.\r\n   */\r\n  function getKeys(SortedLinkedList.List storage list) public view returns (address[] memory) {\r\n    return headN(list, list.list.numElements);\r\n  }\r\n}\r\n",
  "sourcePath": "D:\\Work\\celo-monorepo\\packages\\protocol\\contracts\\common\\linkedlists\\AddressSortedLinkedList.sol",
  "compiler": {
    "name": "solc",
    "version": "0.5.13+commit.5b0b510c.Emscripten.clang"
  },
  "schemaVersion": "3.0.23",
  "updatedAt": "2021-02-08T13:54:47.577Z",
  "devdoc": {
    "methods": {
      "contains(SortedLinkedList.List storage,address)": {
        "params": {
          "key": "The element key.",
          "list": "A storage pointer to the underlying list."
        },
        "return": "Whether or not the key is in the sorted list."
      },
      "getElements(SortedLinkedList.List storage)": {
        "return": "An unpacked list of elements from largest to smallest."
      },
      "getKeys(SortedLinkedList.List storage)": {
        "params": {
          "list": "A storage pointer to the underlying list."
        },
        "return": "All element keys from head to tail."
      },
      "getValue(SortedLinkedList.List storage,address)": {
        "params": {
          "key": "The element key.",
          "list": "A storage pointer to the underlying list."
        },
        "return": "The element value."
      },
      "getVersionNumber()": {
        "return": "The storage, major, minor, and patch version of the contract."
      },
      "headN(SortedLinkedList.List storage,uint256)": {
        "params": {
          "list": "A storage pointer to the underlying list.",
          "n": "The number of elements to return."
        },
        "return": "The keys of the greatest elements."
      },
      "insert(SortedLinkedList.List storage,address,uint256,address,address)": {
        "params": {
          "greaterKey": "The key of the element greater than the element to insert.",
          "key": "The key of the element to insert.",
          "lesserKey": "The key of the element less than the element to insert.",
          "list": "A storage pointer to the underlying list.",
          "value": "The element value."
        }
      },
      "numElementsGreaterThan(SortedLinkedList.List storage,uint256,uint256)": {
        "params": {
          "list": "A storage pointer to the underlying list.",
          "max": "The maximum number returned by this function.",
          "threshold": "The number that the element must exceed to be included."
        },
        "return": "The minimum of `max` and the  number of elements in the list > threshold."
      },
      "remove(SortedLinkedList.List storage,address)": {
        "params": {
          "key": "The key of the element to remove.",
          "list": "A storage pointer to the underlying list."
        }
      },
      "update(SortedLinkedList.List storage,address,uint256,address,address)": {
        "details": "Note that only one of \"lesserKey\" or \"greaterKey\" needs to be correct to reduce friction.",
        "params": {
          "greaterKey": "The key of the element will be just right of `key` after the update.",
          "key": "The element key.",
          "lesserKey": "The key of the element will be just left of `key` after the update.",
          "list": "A storage pointer to the underlying list.",
          "value": "The element value."
        }
      }
    },
    "title": "Maintains a sorted list of unsigned ints keyed by address."
  },
  "userdoc": {
    "methods": {
      "contains(SortedLinkedList.List storage,address)": {
        "notice": "Returns whether or not a particular key is present in the sorted list."
      },
      "getElements(SortedLinkedList.List storage)": {
        "notice": "Gets all elements from the doubly linked list."
      },
      "getKeys(SortedLinkedList.List storage)": {
        "notice": "Gets all element keys from the doubly linked list."
      },
      "getValue(SortedLinkedList.List storage,address)": {
        "notice": "Returns the value for a particular key in the sorted list."
      },
      "getVersionNumber()": {
        "notice": "Returns the storage, major, minor, and patch version of the contract."
      },
      "headN(SortedLinkedList.List storage,uint256)": {
        "notice": "Returns the N greatest elements of the list."
      },
      "insert(SortedLinkedList.List storage,address,uint256,address,address)": {
        "notice": "Inserts an element into a doubly linked list."
      },
      "numElementsGreaterThan(SortedLinkedList.List storage,uint256,uint256)": {
        "notice": "Returns the minimum of `max` and the  number of elements in the list > threshold."
      },
      "remove(SortedLinkedList.List storage,address)": {
        "notice": "Removes an element from the doubly linked list."
      },
      "update(SortedLinkedList.List storage,address,uint256,address,address)": {
        "notice": "Updates an element in the list."
      }
    }
  }
}