{
  "contractName": "BlockchainParameters",
  "abi": [
    {
      "anonymous": false,
      "inputs": [
        {
          "indexed": false,
          "internalType": "uint256",
          "name": "limit",
          "type": "uint256"
        }
      ],
      "name": "BlockGasLimitSet",
      "type": "event"
    },
    {
      "anonymous": false,
      "inputs": [
        {
          "indexed": false,
          "internalType": "uint256",
          "name": "gas",
          "type": "uint256"
        }
      ],
      "name": "IntrinsicGasForAlternativeFeeCurrencySet",
      "type": "event"
    },
    {
      "anonymous": false,
      "inputs": [
        {
          "indexed": false,
          "internalType": "uint256",
          "name": "major",
          "type": "uint256"
        },
        {
          "indexed": false,
          "internalType": "uint256",
          "name": "minor",
          "type": "uint256"
        },
        {
          "indexed": false,
          "internalType": "uint256",
          "name": "patch",
          "type": "uint256"
        }
      ],
      "name": "MinimumClientVersionSet",
      "type": "event"
    },
    {
      "anonymous": false,
      "inputs": [
        {
          "indexed": true,
          "internalType": "address",
          "name": "previousOwner",
          "type": "address"
        },
        {
          "indexed": true,
          "internalType": "address",
          "name": "newOwner",
          "type": "address"
        }
      ],
      "name": "OwnershipTransferred",
      "type": "event"
    },
    {
      "constant": true,
      "inputs": [],
      "name": "blockGasLimit",
      "outputs": [
        {
          "internalType": "uint256",
          "name": "",
          "type": "uint256"
        }
      ],
      "payable": false,
      "stateMutability": "view",
      "type": "function"
    },
    {
      "constant": true,
      "inputs": [],
      "name": "initialized",
      "outputs": [
        {
          "internalType": "bool",
          "name": "",
          "type": "bool"
        }
      ],
      "payable": false,
      "stateMutability": "view",
      "type": "function"
    },
    {
      "constant": true,
      "inputs": [],
      "name": "intrinsicGasForAlternativeFeeCurrency",
      "outputs": [
        {
          "internalType": "uint256",
          "name": "",
          "type": "uint256"
        }
      ],
      "payable": false,
      "stateMutability": "view",
      "type": "function"
    },
    {
      "constant": true,
      "inputs": [],
      "name": "isOwner",
      "outputs": [
        {
          "internalType": "bool",
          "name": "",
          "type": "bool"
        }
      ],
      "payable": false,
      "stateMutability": "view",
      "type": "function"
    },
    {
      "constant": true,
      "inputs": [],
      "name": "owner",
      "outputs": [
        {
          "internalType": "address",
          "name": "",
          "type": "address"
        }
      ],
      "payable": false,
      "stateMutability": "view",
      "type": "function"
    },
    {
      "constant": false,
      "inputs": [],
      "name": "renounceOwnership",
      "outputs": [],
      "payable": false,
      "stateMutability": "nonpayable",
      "type": "function"
    },
    {
      "constant": false,
      "inputs": [
        {
          "internalType": "address",
          "name": "newOwner",
          "type": "address"
        }
      ],
      "name": "transferOwnership",
      "outputs": [],
      "payable": false,
      "stateMutability": "nonpayable",
      "type": "function"
    },
    {
      "constant": false,
      "inputs": [
        {
          "internalType": "uint256",
          "name": "major",
          "type": "uint256"
        },
        {
          "internalType": "uint256",
          "name": "minor",
          "type": "uint256"
        },
        {
          "internalType": "uint256",
          "name": "patch",
          "type": "uint256"
        },
        {
          "internalType": "uint256",
          "name": "_gasForNonGoldCurrencies",
          "type": "uint256"
        },
        {
          "internalType": "uint256",
          "name": "gasLimit",
          "type": "uint256"
        }
      ],
      "name": "initialize",
      "outputs": [],
      "payable": false,
      "stateMutability": "nonpayable",
      "type": "function"
    },
    {
      "constant": false,
      "inputs": [
        {
          "internalType": "uint256",
          "name": "major",
          "type": "uint256"
        },
        {
          "internalType": "uint256",
          "name": "minor",
          "type": "uint256"
        },
        {
          "internalType": "uint256",
          "name": "patch",
          "type": "uint256"
        }
      ],
      "name": "setMinimumClientVersion",
      "outputs": [],
      "payable": false,
      "stateMutability": "nonpayable",
      "type": "function"
    },
    {
      "constant": false,
      "inputs": [
        {
          "internalType": "uint256",
          "name": "gasLimit",
          "type": "uint256"
        }
      ],
      "name": "setBlockGasLimit",
      "outputs": [],
      "payable": false,
      "stateMutability": "nonpayable",
      "type": "function"
    },
    {
      "constant": false,
      "inputs": [
        {
          "internalType": "uint256",
          "name": "gas",
          "type": "uint256"
        }
      ],
      "name": "setIntrinsicGasForAlternativeFeeCurrency",
      "outputs": [],
      "payable": false,
      "stateMutability": "nonpayable",
      "type": "function"
    },
    {
      "constant": true,
      "inputs": [],
      "name": "getMinimumClientVersion",
      "outputs": [
        {
          "internalType": "uint256",
          "name": "major",
          "type": "uint256"
        },
        {
          "internalType": "uint256",
          "name": "minor",
          "type": "uint256"
        },
        {
          "internalType": "uint256",
          "name": "patch",
          "type": "uint256"
        }
      ],
      "payable": false,
      "stateMutability": "view",
      "type": "function"
    }
  ],
  "bytecode": "0x608060405260006100146100b760201b60201c565b9050806000806101000a81548173ffffffffffffffffffffffffffffffffffffffff021916908373ffffffffffffffffffffffffffffffffffffffff1602179055508073ffffffffffffffffffffffffffffffffffffffff16600073ffffffffffffffffffffffffffffffffffffffff167f8be0079c531659141344cd1fd0a4f28419497f9722a3daafe3b4186f6b6457e060405160405180910390a3506100bf565b600033905090565b610a42806100ce6000396000f3fe608060405234801561001057600080fd5b50600436106100b45760003560e01c80638f32d59b116100715780638f32d59b14610197578063a69257f3146101b9578063bb3ff745146101e7578063cb0ec62814610229578063dcbab60814610257578063f2fde38b146102ad576100b4565b8063158ef93e146100b957806325eb315d146100db578063715018a6146101075780637877a79714610111578063808474f11461012f5780638da5cb5b1461014d575b600080fd5b6100c16102f1565b604051808215151515815260200191505060405180910390f35b6100e3610304565b60405180848152602001838152602001828152602001935050505060405180910390f35b61010f610325565b005b61011961045e565b6040518082815260200191505060405180910390f35b610137610464565b6040518082815260200191505060405180910390f35b61015561046a565b604051808273ffffffffffffffffffffffffffffffffffffffff1673ffffffffffffffffffffffffffffffffffffffff16815260200191505060405180910390f35b61019f610493565b604051808215151515815260200191505060405180910390f35b6101e5600480360360208110156101cf57600080fd5b81019080803590602001909291905050506104f1565b005b610227600480360360608110156101fd57600080fd5b810190808035906020019092919080359060200190929190803590602001909291905050506105ac565b005b6102556004803603602081101561023f57600080fd5b810190808035906020019092919050505061068f565b005b6102ab600480360360a081101561026d57600080fd5b81019080803590602001909291908035906020019092919080359060200190929190803590602001909291908035906020019092919050505061074a565b005b6102ef600480360360208110156102c357600080fd5b81019080803573ffffffffffffffffffffffffffffffffffffffff169060200190929190505050610815565b005b600060149054906101000a900460ff1681565b60008060006001600001546001800154600160020154925092509250909192565b61032d610493565b61039f576040517f08c379a00000000000000000000000000000000000000000000000000000000081526004018080602001828103825260208152602001807f4f776e61626c653a2063616c6c6572206973206e6f7420746865206f776e657281525060200191505060405180910390fd5b600073ffffffffffffffffffffffffffffffffffffffff166000809054906101000a900473ffffffffffffffffffffffffffffffffffffffff1673ffffffffffffffffffffffffffffffffffffffff167f8be0079c531659141344cd1fd0a4f28419497f9722a3daafe3b4186f6b6457e060405160405180910390a360008060006101000a81548173ffffffffffffffffffffffffffffffffffffffff021916908373ffffffffffffffffffffffffffffffffffffffff160217905550565b60045481565b60055481565b60008060009054906101000a900473ffffffffffffffffffffffffffffffffffffffff16905090565b60008060009054906101000a900473ffffffffffffffffffffffffffffffffffffffff1673ffffffffffffffffffffffffffffffffffffffff166104d561089b565b73ffffffffffffffffffffffffffffffffffffffff1614905090565b6104f9610493565b61056b576040517f08c379a00000000000000000000000000000000000000000000000000000000081526004018080602001828103825260208152602001807f4f776e61626c653a2063616c6c6572206973206e6f7420746865206f776e657281525060200191505060405180910390fd5b806004819055507f55311ae9c14427b0863f38ed97a2a5944c50d824bbf692836246512e6822c3cf816040518082815260200191505060405180910390a150565b6105b4610493565b610626576040517f08c379a00000000000000000000000000000000000000000000000000000000081526004018080602001828103825260208152602001807f4f776e61626c653a2063616c6c6572206973206e6f7420746865206f776e657281525060200191505060405180910390fd5b82600160000181905550816001800181905550806001600201819055507f809db05bd174a70ede53d18fc046c5ceb86ebffbb7746a0c8605772c97ef0d5283838360405180848152602001838152602001828152602001935050505060405180910390a1505050565b610697610493565b610709576040517f08c379a00000000000000000000000000000000000000000000000000000000081526004018080602001828103825260208152602001807f4f776e61626c653a2063616c6c6572206973206e6f7420746865206f776e657281525060200191505060405180910390fd5b806005819055507fba9c6f28c7d9990745a5b5282dbee04706c28cae24a44736c3ba99b57c021f3e816040518082815260200191505060405180910390a150565b600060149054906101000a900460ff16156107cd576040517f08c379a000000000000000000000000000000000000000000000000000000000815260040180806020018281038252601c8152602001807f636f6e747261637420616c726561647920696e697469616c697a65640000000081525060200191505060405180910390fd5b6001600060146101000a81548160ff0219169083151502179055506107f1336108a3565b6107fc8585856105ac565b610805816104f1565b61080e8261068f565b5050505050565b61081d610493565b61088f576040517f08c379a00000000000000000000000000000000000000000000000000000000081526004018080602001828103825260208152602001807f4f776e61626c653a2063616c6c6572206973206e6f7420746865206f776e657281525060200191505060405180910390fd5b610898816108a3565b50565b600033905090565b600073ffffffffffffffffffffffffffffffffffffffff168173ffffffffffffffffffffffffffffffffffffffff161415610929576040517f08c379a00000000000000000000000000000000000000000000000000000000081526004018080602001828103825260268152602001806109e86026913960400191505060405180910390fd5b8073ffffffffffffffffffffffffffffffffffffffff166000809054906101000a900473ffffffffffffffffffffffffffffffffffffffff1673ffffffffffffffffffffffffffffffffffffffff167f8be0079c531659141344cd1fd0a4f28419497f9722a3daafe3b4186f6b6457e060405160405180910390a3806000806101000a81548173ffffffffffffffffffffffffffffffffffffffff021916908373ffffffffffffffffffffffffffffffffffffffff1602179055505056fe4f776e61626c653a206e6577206f776e657220697320746865207a65726f2061646472657373a265627a7a72315820d762f7d16ea3fbea574dbc6dad200b0450598353a082158fa5adff891102bbdc64736f6c634300050d0032",
  "source": "pragma solidity ^0.5.3;\r\n\r\nimport \"openzeppelin-solidity/contracts/ownership/Ownable.sol\";\r\nimport \"../common/Initializable.sol\";\r\n\r\n/**\r\n * @title Contract for storing blockchain parameters that can be set by governance.\r\n */\r\ncontract BlockchainParameters is Ownable, Initializable {\r\n  struct ClientVersion {\r\n    uint256 major;\r\n    uint256 minor;\r\n    uint256 patch;\r\n  }\r\n\r\n  ClientVersion private minimumClientVersion;\r\n  uint256 public blockGasLimit;\r\n  uint256 public intrinsicGasForAlternativeFeeCurrency;\r\n\r\n  event MinimumClientVersionSet(uint256 major, uint256 minor, uint256 patch);\r\n  event IntrinsicGasForAlternativeFeeCurrencySet(uint256 gas);\r\n  event BlockGasLimitSet(uint256 limit);\r\n\r\n  /**\r\n   * @notice Used in place of the constructor to allow the contract to be upgradable via proxy.\r\n   * @param major Minimum client version that can be used in the chain, major version.\r\n   * @param minor Minimum client version that can be used in the chain, minor version.\r\n   * @param patch Minimum client version that can be used in the chain, patch level.\r\n   * @param _gasForNonGoldCurrencies Intrinsic gas for non-gold gas currencies.\r\n   * @param gasLimit Block gas limit.\r\n   */\r\n  function initialize(\r\n    uint256 major,\r\n    uint256 minor,\r\n    uint256 patch,\r\n    uint256 _gasForNonGoldCurrencies,\r\n    uint256 gasLimit\r\n  ) external initializer {\r\n    _transferOwnership(msg.sender);\r\n    setMinimumClientVersion(major, minor, patch);\r\n    setBlockGasLimit(gasLimit);\r\n    setIntrinsicGasForAlternativeFeeCurrency(_gasForNonGoldCurrencies);\r\n  }\r\n\r\n  /**\r\n   * @notice Sets the minimum client version.\r\n   * @param major Major version.\r\n   * @param minor Minor version.\r\n   * @param patch Patch version.\r\n   * @dev For example if the version is 1.9.2, 1 is the major version, 9 is minor,\r\n   * and 2 is the patch level.\r\n   */\r\n  function setMinimumClientVersion(uint256 major, uint256 minor, uint256 patch) public onlyOwner {\r\n    minimumClientVersion.major = major;\r\n    minimumClientVersion.minor = minor;\r\n    minimumClientVersion.patch = patch;\r\n    emit MinimumClientVersionSet(major, minor, patch);\r\n  }\r\n\r\n  /**\r\n   * @notice Sets the block gas limit.\r\n   * @param gasLimit New block gas limit.\r\n   */\r\n  function setBlockGasLimit(uint256 gasLimit) public onlyOwner {\r\n    blockGasLimit = gasLimit;\r\n    emit BlockGasLimitSet(gasLimit);\r\n  }\r\n\r\n  /**\r\n   * @notice Sets the intrinsic gas for non-gold gas currencies.\r\n   * @param gas Intrinsic gas for non-gold gas currencies.\r\n   */\r\n  function setIntrinsicGasForAlternativeFeeCurrency(uint256 gas) public onlyOwner {\r\n    intrinsicGasForAlternativeFeeCurrency = gas;\r\n    emit IntrinsicGasForAlternativeFeeCurrencySet(gas);\r\n  }\r\n\r\n  /**\r\n   * @notice Query minimum client version.\r\n   * @return Returns major, minor, and patch version numbers.\r\n   */\r\n  function getMinimumClientVersion()\r\n    external\r\n    view\r\n    returns (uint256 major, uint256 minor, uint256 patch)\r\n  {\r\n    return (minimumClientVersion.major, minimumClientVersion.minor, minimumClientVersion.patch);\r\n  }\r\n\r\n}\r\n",
  "sourcePath": "D:\\Work\\celo-monorepo\\packages\\protocol\\contracts\\governance\\BlockchainParameters.sol",
  "compiler": {
    "name": "solc",
    "version": "0.5.13+commit.5b0b510c.Emscripten.clang"
  },
  "schemaVersion": "3.0.23",
  "updatedAt": "2020-09-09T12:47:31.129Z",
  "devdoc": {
    "methods": {
      "getMinimumClientVersion()": {
        "return": "Returns major, minor, and patch version numbers."
      },
      "initialize(uint256,uint256,uint256,uint256,uint256)": {
        "params": {
          "_gasForNonGoldCurrencies": "Intrinsic gas for non-gold gas currencies.",
          "gasLimit": "Block gas limit.",
          "major": "Minimum client version that can be used in the chain, major version.",
          "minor": "Minimum client version that can be used in the chain, minor version.",
          "patch": "Minimum client version that can be used in the chain, patch level."
        }
      },
      "isOwner()": {
        "details": "Returns true if the caller is the current owner."
      },
      "owner()": {
        "details": "Returns the address of the current owner."
      },
      "renounceOwnership()": {
        "details": "Leaves the contract without owner. It will not be possible to call `onlyOwner` functions anymore. Can only be called by the current owner.     * NOTE: Renouncing ownership will leave the contract without an owner, thereby removing any functionality that is only available to the owner."
      },
      "setBlockGasLimit(uint256)": {
        "params": {
          "gasLimit": "New block gas limit."
        }
      },
      "setIntrinsicGasForAlternativeFeeCurrency(uint256)": {
        "params": {
          "gas": "Intrinsic gas for non-gold gas currencies."
        }
      },
      "setMinimumClientVersion(uint256,uint256,uint256)": {
        "details": "For example if the version is 1.9.2, 1 is the major version, 9 is minor, and 2 is the patch level.",
        "params": {
          "major": "Major version.",
          "minor": "Minor version.",
          "patch": "Patch version."
        }
      },
      "transferOwnership(address)": {
        "details": "Transfers ownership of the contract to a new account (`newOwner`). Can only be called by the current owner."
      }
    },
    "title": "Contract for storing blockchain parameters that can be set by governance."
  },
  "userdoc": {
    "methods": {
      "getMinimumClientVersion()": {
        "notice": "Query minimum client version."
      },
      "initialize(uint256,uint256,uint256,uint256,uint256)": {
        "notice": "Used in place of the constructor to allow the contract to be upgradable via proxy."
      },
      "setBlockGasLimit(uint256)": {
        "notice": "Sets the block gas limit."
      },
      "setIntrinsicGasForAlternativeFeeCurrency(uint256)": {
        "notice": "Sets the intrinsic gas for non-gold gas currencies."
      },
      "setMinimumClientVersion(uint256,uint256,uint256)": {
        "notice": "Sets the minimum client version."
      }
    }
  }
}