{
  "contractName": "EpochRewards",
  "abi": [
    {
      "anonymous": false,
      "inputs": [
        {
          "indexed": true,
          "internalType": "address",
          "name": "partner",
          "type": "address"
        },
        {
          "indexed": false,
          "internalType": "uint256",
          "name": "fraction",
          "type": "uint256"
        }
      ],
      "name": "CarbonOffsettingFundSet",
      "type": "event"
    },
    {
      "anonymous": false,
      "inputs": [
        {
          "indexed": false,
          "internalType": "uint256",
          "name": "fraction",
          "type": "uint256"
        }
      ],
      "name": "CommunityRewardFractionSet",
      "type": "event"
    },
    {
      "anonymous": false,
      "inputs": [
        {
          "indexed": true,
          "internalType": "address",
          "name": "previousOwner",
          "type": "address"
        },
        {
          "indexed": true,
          "internalType": "address",
          "name": "newOwner",
          "type": "address"
        }
      ],
      "name": "OwnershipTransferred",
      "type": "event"
    },
    {
      "anonymous": false,
      "inputs": [
        {
          "indexed": true,
          "internalType": "address",
          "name": "registryAddress",
          "type": "address"
        }
      ],
      "name": "RegistrySet",
      "type": "event"
    },
    {
      "anonymous": false,
      "inputs": [
        {
          "indexed": false,
          "internalType": "uint256",
          "name": "max",
          "type": "uint256"
        },
        {
          "indexed": false,
          "internalType": "uint256",
          "name": "underspendAdjustmentFactor",
          "type": "uint256"
        },
        {
          "indexed": false,
          "internalType": "uint256",
          "name": "overspendAdjustmentFactor",
          "type": "uint256"
        }
      ],
      "name": "RewardsMultiplierParametersSet",
      "type": "event"
    },
    {
      "anonymous": false,
      "inputs": [
        {
          "indexed": false,
          "internalType": "uint256",
          "name": "payment",
          "type": "uint256"
        }
      ],
      "name": "TargetValidatorEpochPaymentSet",
      "type": "event"
    },
    {
      "anonymous": false,
      "inputs": [
        {
          "indexed": false,
          "internalType": "uint256",
          "name": "fraction",
          "type": "uint256"
        }
      ],
      "name": "TargetVotingGoldFractionSet",
      "type": "event"
    },
    {
      "anonymous": false,
      "inputs": [
        {
          "indexed": false,
          "internalType": "uint256",
          "name": "max",
          "type": "uint256"
        },
        {
          "indexed": false,
          "internalType": "uint256",
          "name": "adjustmentFactor",
          "type": "uint256"
        }
      ],
      "name": "TargetVotingYieldParametersSet",
      "type": "event"
    },
    {
      "anonymous": false,
      "inputs": [
        {
          "indexed": false,
          "internalType": "uint256",
          "name": "target",
          "type": "uint256"
        }
      ],
      "name": "TargetVotingYieldSet",
      "type": "event"
    },
    {
      "anonymous": false,
      "inputs": [
        {
          "indexed": false,
          "internalType": "uint256",
          "name": "fraction",
          "type": "uint256"
        }
      ],
      "name": "TargetVotingYieldUpdated",
      "type": "event"
    },
    {
      "constant": true,
      "inputs": [],
      "name": "carbonOffsettingPartner",
      "outputs": [
        {
          "internalType": "address",
          "name": "",
          "type": "address"
        }
      ],
      "payable": false,
      "stateMutability": "view",
      "type": "function"
    },
    {
      "constant": true,
      "inputs": [
        {
          "internalType": "address",
          "name": "sender",
          "type": "address"
        },
        {
          "internalType": "bytes",
          "name": "blsKey",
          "type": "bytes"
        },
        {
          "internalType": "bytes",
          "name": "blsPop",
          "type": "bytes"
        }
      ],
      "name": "checkProofOfPossession",
      "outputs": [
        {
          "internalType": "bool",
          "name": "",
          "type": "bool"
        }
      ],
      "payable": false,
      "stateMutability": "view",
      "type": "function"
    },
    {
      "constant": true,
      "inputs": [
        {
          "internalType": "uint256",
          "name": "aNumerator",
          "type": "uint256"
        },
        {
          "internalType": "uint256",
          "name": "aDenominator",
          "type": "uint256"
        },
        {
          "internalType": "uint256",
          "name": "bNumerator",
          "type": "uint256"
        },
        {
          "internalType": "uint256",
          "name": "bDenominator",
          "type": "uint256"
        },
        {
          "internalType": "uint256",
          "name": "exponent",
          "type": "uint256"
        },
        {
          "internalType": "uint256",
          "name": "_decimals",
          "type": "uint256"
        }
      ],
      "name": "fractionMulExp",
      "outputs": [
        {
          "internalType": "uint256",
          "name": "",
          "type": "uint256"
        },
        {
          "internalType": "uint256",
          "name": "",
          "type": "uint256"
        }
      ],
      "payable": false,
      "stateMutability": "view",
      "type": "function"
    },
    {
      "constant": true,
      "inputs": [
        {
          "internalType": "bytes",
          "name": "header",
          "type": "bytes"
        }
      ],
      "name": "getBlockNumberFromHeader",
      "outputs": [
        {
          "internalType": "uint256",
          "name": "",
          "type": "uint256"
        }
      ],
      "payable": false,
      "stateMutability": "view",
      "type": "function"
    },
    {
      "constant": true,
      "inputs": [],
      "name": "getEpochNumber",
      "outputs": [
        {
          "internalType": "uint256",
          "name": "",
          "type": "uint256"
        }
      ],
      "payable": false,
      "stateMutability": "view",
      "type": "function"
    },
    {
      "constant": true,
      "inputs": [
        {
          "internalType": "uint256",
          "name": "blockNumber",
          "type": "uint256"
        }
      ],
      "name": "getEpochNumberOfBlock",
      "outputs": [
        {
          "internalType": "uint256",
          "name": "",
          "type": "uint256"
        }
      ],
      "payable": false,
      "stateMutability": "view",
      "type": "function"
    },
    {
      "constant": true,
      "inputs": [],
      "name": "getEpochSize",
      "outputs": [
        {
          "internalType": "uint256",
          "name": "",
          "type": "uint256"
        }
      ],
      "payable": false,
      "stateMutability": "view",
      "type": "function"
    },
    {
      "constant": true,
      "inputs": [
        {
          "internalType": "uint256",
          "name": "blockNumber",
          "type": "uint256"
        }
      ],
      "name": "getParentSealBitmap",
      "outputs": [
        {
          "internalType": "bytes32",
          "name": "",
          "type": "bytes32"
        }
      ],
      "payable": false,
      "stateMutability": "view",
      "type": "function"
    },
    {
      "constant": true,
      "inputs": [
        {
          "internalType": "bytes",
          "name": "header",
          "type": "bytes"
        }
      ],
      "name": "getVerifiedSealBitmapFromHeader",
      "outputs": [
        {
          "internalType": "bytes32",
          "name": "",
          "type": "bytes32"
        }
      ],
      "payable": false,
      "stateMutability": "view",
      "type": "function"
    },
    {
      "constant": true,
      "inputs": [
        {
          "internalType": "bytes",
          "name": "header",
          "type": "bytes"
        }
      ],
      "name": "hashHeader",
      "outputs": [
        {
          "internalType": "bytes32",
          "name": "",
          "type": "bytes32"
        }
      ],
      "payable": false,
      "stateMutability": "view",
      "type": "function"
    },
    {
      "constant": true,
      "inputs": [],
      "name": "initialized",
      "outputs": [
        {
          "internalType": "bool",
          "name": "",
          "type": "bool"
        }
      ],
      "payable": false,
      "stateMutability": "view",
      "type": "function"
    },
    {
      "constant": true,
      "inputs": [],
      "name": "isOwner",
      "outputs": [
        {
          "internalType": "bool",
          "name": "",
          "type": "bool"
        }
      ],
      "payable": false,
      "stateMutability": "view",
      "type": "function"
    },
    {
      "constant": true,
      "inputs": [
        {
          "internalType": "uint256",
          "name": "blockNumber",
          "type": "uint256"
        }
      ],
      "name": "minQuorumSize",
      "outputs": [
        {
          "internalType": "uint256",
          "name": "",
          "type": "uint256"
        }
      ],
      "payable": false,
      "stateMutability": "view",
      "type": "function"
    },
    {
      "constant": true,
      "inputs": [],
      "name": "minQuorumSizeInCurrentSet",
      "outputs": [
        {
          "internalType": "uint256",
          "name": "",
          "type": "uint256"
        }
      ],
      "payable": false,
      "stateMutability": "view",
      "type": "function"
    },
    {
      "constant": true,
      "inputs": [],
      "name": "numberValidatorsInCurrentSet",
      "outputs": [
        {
          "internalType": "uint256",
          "name": "",
          "type": "uint256"
        }
      ],
      "payable": false,
      "stateMutability": "view",
      "type": "function"
    },
    {
      "constant": true,
      "inputs": [
        {
          "internalType": "uint256",
          "name": "blockNumber",
          "type": "uint256"
        }
      ],
      "name": "numberValidatorsInSet",
      "outputs": [
        {
          "internalType": "uint256",
          "name": "",
          "type": "uint256"
        }
      ],
      "payable": false,
      "stateMutability": "view",
      "type": "function"
    },
    {
      "constant": true,
      "inputs": [],
      "name": "owner",
      "outputs": [
        {
          "internalType": "address",
          "name": "",
          "type": "address"
        }
      ],
      "payable": false,
      "stateMutability": "view",
      "type": "function"
    },
    {
      "constant": true,
      "inputs": [],
      "name": "registry",
      "outputs": [
        {
          "internalType": "contract IRegistry",
          "name": "",
          "type": "address"
        }
      ],
      "payable": false,
      "stateMutability": "view",
      "type": "function"
    },
    {
      "constant": false,
      "inputs": [],
      "name": "renounceOwnership",
      "outputs": [],
      "payable": false,
      "stateMutability": "nonpayable",
      "type": "function"
    },
    {
      "constant": false,
      "inputs": [
        {
          "internalType": "address",
          "name": "registryAddress",
          "type": "address"
        }
      ],
      "name": "setRegistry",
      "outputs": [],
      "payable": false,
      "stateMutability": "nonpayable",
      "type": "function"
    },
    {
      "constant": true,
      "inputs": [],
      "name": "startTime",
      "outputs": [
        {
          "internalType": "uint256",
          "name": "",
          "type": "uint256"
        }
      ],
      "payable": false,
      "stateMutability": "view",
      "type": "function"
    },
    {
      "constant": true,
      "inputs": [],
      "name": "targetValidatorEpochPayment",
      "outputs": [
        {
          "internalType": "uint256",
          "name": "",
          "type": "uint256"
        }
      ],
      "payable": false,
      "stateMutability": "view",
      "type": "function"
    },
    {
      "constant": false,
      "inputs": [
        {
          "internalType": "address",
          "name": "newOwner",
          "type": "address"
        }
      ],
      "name": "transferOwnership",
      "outputs": [],
      "payable": false,
      "stateMutability": "nonpayable",
      "type": "function"
    },
    {
      "constant": true,
      "inputs": [
        {
          "internalType": "uint256",
          "name": "index",
          "type": "uint256"
        }
      ],
      "name": "validatorSignerAddressFromCurrentSet",
      "outputs": [
        {
          "internalType": "address",
          "name": "",
          "type": "address"
        }
      ],
      "payable": false,
      "stateMutability": "view",
      "type": "function"
    },
    {
      "constant": true,
      "inputs": [
        {
          "internalType": "uint256",
          "name": "index",
          "type": "uint256"
        },
        {
          "internalType": "uint256",
          "name": "blockNumber",
          "type": "uint256"
        }
      ],
      "name": "validatorSignerAddressFromSet",
      "outputs": [
        {
          "internalType": "address",
          "name": "",
          "type": "address"
        }
      ],
      "payable": false,
      "stateMutability": "view",
      "type": "function"
    },
    {
      "constant": false,
      "inputs": [
        {
          "internalType": "address",
          "name": "registryAddress",
          "type": "address"
        },
        {
          "internalType": "uint256",
          "name": "targetVotingYieldInitial",
          "type": "uint256"
        },
        {
          "internalType": "uint256",
          "name": "targetVotingYieldMax",
          "type": "uint256"
        },
        {
          "internalType": "uint256",
          "name": "targetVotingYieldAdjustmentFactor",
          "type": "uint256"
        },
        {
          "internalType": "uint256",
          "name": "rewardsMultiplierMax",
          "type": "uint256"
        },
        {
          "internalType": "uint256",
          "name": "rewardsMultiplierUnderspendAdjustmentFactor",
          "type": "uint256"
        },
        {
          "internalType": "uint256",
          "name": "rewardsMultiplierOverspendAdjustmentFactor",
          "type": "uint256"
        },
        {
          "internalType": "uint256",
          "name": "_targetVotingGoldFraction",
          "type": "uint256"
        },
        {
          "internalType": "uint256",
          "name": "_targetValidatorEpochPayment",
          "type": "uint256"
        },
        {
          "internalType": "uint256",
          "name": "_communityRewardFraction",
          "type": "uint256"
        },
        {
          "internalType": "address",
          "name": "_carbonOffsettingPartner",
          "type": "address"
        },
        {
          "internalType": "uint256",
          "name": "_carbonOffsettingFraction",
          "type": "uint256"
        }
      ],
      "name": "initialize",
      "outputs": [],
      "payable": false,
      "stateMutability": "nonpayable",
      "type": "function"
    },
    {
      "constant": true,
      "inputs": [],
      "name": "getTargetVotingYieldParameters",
      "outputs": [
        {
          "internalType": "uint256",
          "name": "",
          "type": "uint256"
        },
        {
          "internalType": "uint256",
          "name": "",
          "type": "uint256"
        },
        {
          "internalType": "uint256",
          "name": "",
          "type": "uint256"
        }
      ],
      "payable": false,
      "stateMutability": "view",
      "type": "function"
    },
    {
      "constant": true,
      "inputs": [],
      "name": "getRewardsMultiplierParameters",
      "outputs": [
        {
          "internalType": "uint256",
          "name": "",
          "type": "uint256"
        },
        {
          "internalType": "uint256",
          "name": "",
          "type": "uint256"
        },
        {
          "internalType": "uint256",
          "name": "",
          "type": "uint256"
        }
      ],
      "payable": false,
      "stateMutability": "view",
      "type": "function"
    },
    {
      "constant": false,
      "inputs": [
        {
          "internalType": "uint256",
          "name": "value",
          "type": "uint256"
        }
      ],
      "name": "setCommunityRewardFraction",
      "outputs": [
        {
          "internalType": "bool",
          "name": "",
          "type": "bool"
        }
      ],
      "payable": false,
      "stateMutability": "nonpayable",
      "type": "function"
    },
    {
      "constant": true,
      "inputs": [],
      "name": "getCommunityRewardFraction",
      "outputs": [
        {
          "internalType": "uint256",
          "name": "",
          "type": "uint256"
        }
      ],
      "payable": false,
      "stateMutability": "view",
      "type": "function"
    },
    {
      "constant": false,
      "inputs": [
        {
          "internalType": "address",
          "name": "partner",
          "type": "address"
        },
        {
          "internalType": "uint256",
          "name": "value",
          "type": "uint256"
        }
      ],
      "name": "setCarbonOffsettingFund",
      "outputs": [
        {
          "internalType": "bool",
          "name": "",
          "type": "bool"
        }
      ],
      "payable": false,
      "stateMutability": "nonpayable",
      "type": "function"
    },
    {
      "constant": true,
      "inputs": [],
      "name": "getCarbonOffsettingFraction",
      "outputs": [
        {
          "internalType": "uint256",
          "name": "",
          "type": "uint256"
        }
      ],
      "payable": false,
      "stateMutability": "view",
      "type": "function"
    },
    {
      "constant": false,
      "inputs": [
        {
          "internalType": "uint256",
          "name": "value",
          "type": "uint256"
        }
      ],
      "name": "setTargetVotingGoldFraction",
      "outputs": [
        {
          "internalType": "bool",
          "name": "",
          "type": "bool"
        }
      ],
      "payable": false,
      "stateMutability": "nonpayable",
      "type": "function"
    },
    {
      "constant": true,
      "inputs": [],
      "name": "getTargetVotingGoldFraction",
      "outputs": [
        {
          "internalType": "uint256",
          "name": "",
          "type": "uint256"
        }
      ],
      "payable": false,
      "stateMutability": "view",
      "type": "function"
    },
    {
      "constant": false,
      "inputs": [
        {
          "internalType": "uint256",
          "name": "value",
          "type": "uint256"
        }
      ],
      "name": "setTargetValidatorEpochPayment",
      "outputs": [
        {
          "internalType": "bool",
          "name": "",
          "type": "bool"
        }
      ],
      "payable": false,
      "stateMutability": "nonpayable",
      "type": "function"
    },
    {
      "constant": false,
      "inputs": [
        {
          "internalType": "uint256",
          "name": "max",
          "type": "uint256"
        },
        {
          "internalType": "uint256",
          "name": "underspendAdjustmentFactor",
          "type": "uint256"
        },
        {
          "internalType": "uint256",
          "name": "overspendAdjustmentFactor",
          "type": "uint256"
        }
      ],
      "name": "setRewardsMultiplierParameters",
      "outputs": [
        {
          "internalType": "bool",
          "name": "",
          "type": "bool"
        }
      ],
      "payable": false,
      "stateMutability": "nonpayable",
      "type": "function"
    },
    {
      "constant": false,
      "inputs": [
        {
          "internalType": "uint256",
          "name": "max",
          "type": "uint256"
        },
        {
          "internalType": "uint256",
          "name": "adjustmentFactor",
          "type": "uint256"
        }
      ],
      "name": "setTargetVotingYieldParameters",
      "outputs": [
        {
          "internalType": "bool",
          "name": "",
          "type": "bool"
        }
      ],
      "payable": false,
      "stateMutability": "nonpayable",
      "type": "function"
    },
    {
      "constant": false,
      "inputs": [
        {
          "internalType": "uint256",
          "name": "targetVotingYield",
          "type": "uint256"
        }
      ],
      "name": "setTargetVotingYield",
      "outputs": [
        {
          "internalType": "bool",
          "name": "",
          "type": "bool"
        }
      ],
      "payable": false,
      "stateMutability": "nonpayable",
      "type": "function"
    },
    {
      "constant": true,
      "inputs": [],
      "name": "getTargetGoldTotalSupply",
      "outputs": [
        {
          "internalType": "uint256",
          "name": "",
          "type": "uint256"
        }
      ],
      "payable": false,
      "stateMutability": "view",
      "type": "function"
    },
    {
      "constant": true,
      "inputs": [],
      "name": "getTargetVoterRewards",
      "outputs": [
        {
          "internalType": "uint256",
          "name": "",
          "type": "uint256"
        }
      ],
      "payable": false,
      "stateMutability": "view",
      "type": "function"
    },
    {
      "constant": true,
      "inputs": [],
      "name": "getTargetTotalEpochPaymentsInGold",
      "outputs": [
        {
          "internalType": "uint256",
          "name": "",
          "type": "uint256"
        }
      ],
      "payable": false,
      "stateMutability": "view",
      "type": "function"
    },
    {
      "constant": true,
      "inputs": [],
      "name": "getRewardsMultiplier",
      "outputs": [
        {
          "internalType": "uint256",
          "name": "",
          "type": "uint256"
        }
      ],
      "payable": false,
      "stateMutability": "view",
      "type": "function"
    },
    {
      "constant": true,
      "inputs": [],
      "name": "getVotingGoldFraction",
      "outputs": [
        {
          "internalType": "uint256",
          "name": "",
          "type": "uint256"
        }
      ],
      "payable": false,
      "stateMutability": "view",
      "type": "function"
    },
    {
      "constant": false,
      "inputs": [],
      "name": "updateTargetVotingYield",
      "outputs": [],
      "payable": false,
      "stateMutability": "nonpayable",
      "type": "function"
    },
    {
      "constant": true,
      "inputs": [],
      "name": "isReserveLow",
      "outputs": [
        {
          "internalType": "bool",
          "name": "",
          "type": "bool"
        }
      ],
      "payable": false,
      "stateMutability": "view",
      "type": "function"
    },
    {
      "constant": true,
      "inputs": [],
      "name": "calculateTargetEpochRewards",
      "outputs": [
        {
          "internalType": "uint256",
          "name": "",
          "type": "uint256"
        },
        {
          "internalType": "uint256",
          "name": "",
          "type": "uint256"
        },
        {
          "internalType": "uint256",
          "name": "",
          "type": "uint256"
        },
        {
          "internalType": "uint256",
          "name": "",
          "type": "uint256"
        }
      ],
      "payable": false,
      "stateMutability": "view",
      "type": "function"
    }
  ],
  "bytecode": "0x6080604052600060025560006200001b620000bf60201b60201c565b9050806000806101000a81548173ffffffffffffffffffffffffffffffffffffffff021916908373ffffffffffffffffffffffffffffffffffffffff1602179055508073ffffffffffffffffffffffffffffffffffffffff16600073ffffffffffffffffffffffffffffffffffffffff167f8be0079c531659141344cd1fd0a4f28419497f9722a3daafe3b4186f6b6457e060405160405180910390a350620000c7565b600033905090565b615d4a80620000d76000396000f3fe608060405234801561001057600080fd5b506004361061028a5760003560e01c80638331c1d71161015c5780639b2b592f116100ce578063df4da46111610087578063df4da46114610e70578063e185aaa814610e8e578063e50e652d14610eac578063ec68307214610eee578063f2fde38b14610f69578063fae8db0a14610fad5761028a565b80639b2b592f14610d22578063a1b9596214610d64578063a91ee0dc14610d82578063ae098de214610dc6578063b63b4a2314610de4578063cd52782e14610e2a5761028a565b806392ecd7451161012057806392ecd74514610c2e5780639402838414610c3857806396c3d2fd14610c7e5780639917907f14610cc45780639a7b3be714610ce25780639ad0cce714610d005761028a565b80638331c1d714610a7b57806387ee8a0f14610ad55780638a88362614610af35780638da5cb5b14610bc25780638f32d59b14610c0c5761028a565b80635049890f11610200578063715018a6116101b9578063715018a6146109045780637385e5da1461090e57806378e979251461092c5780637b1039991461094a5780637cca2a3c146109945780637d16412514610a5d5761028a565b80635049890f146106f05780635918bb581461070e5780635d180adb1461075e5780635f396e48146107d6578063643470431461080257806367960e91146108355761028a565b806323f0ab651161025257806323f0ab65146103b35780632848f9e31461053d5780633b1eb4bf1461055b578063434c99c41461059d5780634901c725146106035780634b2c2f44146106215761028a565b80630203ab241461028f578063123633ea146102ad578063158ef93e1461031b578063171af90f1461033d57806322dae21f14610369575b600080fd5b610297610fef565b6040518082815260200191505060405180910390f35b6102d9600480360360208110156102c357600080fd5b810190808035906020019092919050505061100e565b604051808273ffffffffffffffffffffffffffffffffffffffff1673ffffffffffffffffffffffffffffffffffffffff16815260200191505060405180910390f35b61032361115f565b604051808215151515815260200191505060405180910390f35b610345611172565b60405180848152602001838152602001828152602001935050505060405180910390f35b6103716111eb565b604051808273ffffffffffffffffffffffffffffffffffffffff1673ffffffffffffffffffffffffffffffffffffffff16815260200191505060405180910390f35b610523600480360360608110156103c957600080fd5b81019080803573ffffffffffffffffffffffffffffffffffffffff1690602001909291908035906020019064010000000081111561040657600080fd5b82018360208201111561041857600080fd5b8035906020019184600183028401116401000000008311171561043a57600080fd5b91908080601f016020809104026020016040519081016040528093929190818152602001838380828437600081840152601f19601f8201169050808301925050505050505091929192908035906020019064010000000081111561049d57600080fd5b8201836020820111156104af57600080fd5b803590602001918460018302840111640100000000831117156104d157600080fd5b91908080601f016020809104026020016040519081016040528093929190818152602001838380828437600081840152601f19601f820116905080830192505050505050509192919290505050611211565b604051808215151515815260200191505060405180910390f35b6105456113ca565b6040518082815260200191505060405180910390f35b6105876004803603602081101561057157600080fd5b8101908080359060200190929190505050611494565b6040518082815260200191505060405180910390f35b6105e9600480360360408110156105b357600080fd5b81019080803573ffffffffffffffffffffffffffffffffffffffff169060200190929190803590602001909291905050506114ae565b604051808215151515815260200191505060405180910390f35b61060b61167a565b6040518082815260200191505060405180910390f35b6106da6004803603602081101561063757600080fd5b810190808035906020019064010000000081111561065457600080fd5b82018360208201111561066657600080fd5b8035906020019184600183028401116401000000008311171561068857600080fd5b91908080601f016020809104026020016040519081016040528093929190818152602001838380828437600081840152601f19601f82011690508083019250505050505050919291929050505061188a565b6040518082815260200191505060405180910390f35b6106f8611a1e565b6040518082815260200191505060405180910390f35b6107446004803603604081101561072457600080fd5b810190808035906020019092919080359060200190929190505050611b48565b604051808215151515815260200191505060405180910390f35b6107946004803603604081101561077457600080fd5b810190808035906020019092919080359060200190929190505050611d71565b604051808273ffffffffffffffffffffffffffffffffffffffff1673ffffffffffffffffffffffffffffffffffffffff16815260200191505060405180910390f35b6107de611ec3565b60405180848152602001838152602001828152602001935050505060405180910390f35b61080a611f42565b6040518085815260200184815260200183815260200182815260200194505050505060405180910390f35b6108ee6004803603602081101561084b57600080fd5b810190808035906020019064010000000081111561086857600080fd5b82018360208201111561087a57600080fd5b8035906020019184600183028401116401000000008311171561089c57600080fd5b91908080601f016020809104026020016040519081016040528093929190818152602001838380828437600081840152601f19601f820116905080830192505050505050509192919290505050612177565b6040518082815260200191505060405180910390f35b61090c61230b565b005b610916612444565b6040518082815260200191505060405180910390f35b610934612454565b6040518082815260200191505060405180910390f35b61095261245a565b604051808273ffffffffffffffffffffffffffffffffffffffff1673ffffffffffffffffffffffffffffffffffffffff16815260200191505060405180910390f35b610a5b60048036036101808110156109ab57600080fd5b81019080803573ffffffffffffffffffffffffffffffffffffffff169060200190929190803590602001909291908035906020019092919080359060200190929190803590602001909291908035906020019092919080359060200190929190803590602001909291908035906020019092919080359060200190929190803573ffffffffffffffffffffffffffffffffffffffff16906020019092919080359060200190929190505050612480565b005b610a6561258f565b6040518082815260200191505060405180910390f35b610abb60048036036060811015610a9157600080fd5b810190808035906020019092919080359060200190929190803590602001909291905050506125b5565b604051808215151515815260200191505060405180910390f35b610add6127eb565b6040518082815260200191505060405180910390f35b610bac60048036036020811015610b0957600080fd5b8101908080359060200190640100000000811115610b2657600080fd5b820183602082011115610b3857600080fd5b80359060200191846001830284011164010000000083111715610b5a57600080fd5b91908080601f016020809104026020016040519081016040528093929190818152602001838380828437600081840152601f19601f820116905080830192505050505050509192919290505050612932565b6040518082815260200191505060405180910390f35b610bca612ac6565b604051808273ffffffffffffffffffffffffffffffffffffffff1673ffffffffffffffffffffffffffffffffffffffff16815260200191505060405180910390f35b610c14612aef565b604051808215151515815260200191505060405180910390f35b610c36612b4d565b005b610c6460048036036020811015610c4e57600080fd5b8101908080359060200190929190505050612d0e565b604051808215151515815260200191505060405180910390f35b610caa60048036036020811015610c9457600080fd5b8101908080359060200190929190505050612ec0565b604051808215151515815260200191505060405180910390f35b610ccc612fde565b6040518082815260200191505060405180910390f35b610cea613004565b6040518082815260200191505060405180910390f35b610d08613014565b604051808215151515815260200191505060405180910390f35b610d4e60048036036020811015610d3857600080fd5b8101908080359060200190929190505050613176565b6040518082815260200191505060405180910390f35b610d6c6132bf565b6040518082815260200191505060405180910390f35b610dc460048036036020811015610d9857600080fd5b81019080803573ffffffffffffffffffffffffffffffffffffffff1690602001909291905050506134a3565b005b610dce613647565b6040518082815260200191505060405180910390f35b610e1060048036036020811015610dfa57600080fd5b810190808035906020019092919050505061366d565b604051808215151515815260200191505060405180910390f35b610e5660048036036020811015610e4057600080fd5b8101908080359060200190929190505050613786565b604051808215151515815260200191505060405180910390f35b610e786138ea565b6040518082815260200191505060405180910390f35b610e96613a26565b6040518082815260200191505060405180910390f35b610ed860048036036020811015610ec257600080fd5b8101908080359060200190929190505050613a2c565b6040518082815260200191505060405180910390f35b610f4c600480360360c0811015610f0457600080fd5b81019080803590602001909291908035906020019092919080359060200190929190803590602001909291908035906020019092919080359060200190929190505050613a77565b604051808381526020018281526020019250505060405180910390f35b610fab60048036036020811015610f7f57600080fd5b81019080803573ffffffffffffffffffffffffffffffffffffffff169060200190929190505050613c8b565b005b610fd960048036036020811015610fc357600080fd5b8101908080359060200190929190505050613d11565b6040518082815260200191505060405180910390f35b6000611009611004610fff613e5a565b613f11565b614216565b905090565b60006060600060fa73ffffffffffffffffffffffffffffffffffffffff16844360405160200180838152602001828152602001925050506040516020818303038152906040526040518082805190602001908083835b602083106110875780518252602082019150602081019050602083039250611064565b6001836020036101000a038019825116818451168082178552505050505050905001915050600060405180830381855afa9150503d80600081146110e7576040519150601f19603f3d011682016040523d82523d6000602084013e6110ec565b606091505b5080935081925050508061114b576040517f08c379a000000000000000000000000000000000000000000000000000000000815260040180806020018281038252603d815260200180615b1d603d913960400191505060405180910390fd5b611156826000614224565b92505050919050565b600060149054906101000a900460ff1681565b6000806000806006905061119d81600001604051806020016040529081600082015481525050614216565b6111be82600201604051806020016040529081600082015481525050614216565b6111df83600101604051806020016040529081600082015481525050614216565b93509350935050909192565b600c60009054906101000a900473ffffffffffffffffffffffffffffffffffffffff1681565b60008060fb73ffffffffffffffffffffffffffffffffffffffff16858585604051602001808473ffffffffffffffffffffffffffffffffffffffff1673ffffffffffffffffffffffffffffffffffffffff1660601b815260140183805190602001908083835b6020831061129a5780518252602082019150602081019050602083039250611277565b6001836020036101000a03801982511681845116808217855250505050505090500182805190602001908083835b602083106112eb57805182526020820191506020810190506020830392506112c8565b6001836020036101000a03801982511681845116808217855250505050505090500193505050506040516020818303038152906040526040518082805190602001908083835b602083106113545780518252602082019150602081019050602083039250611331565b6001836020036101000a038019825116818451168082178552505050505050905001915050600060405180830381855afa9150503d80600081146113b4576040519150601f19603f3d011682016040523d82523d6000602084013e6113b9565b606091505b505080915050809150509392505050565b600061148f61148a600660000160405180602001604052908160008201548152505061147c6113f761423b565b73ffffffffffffffffffffffffffffffffffffffff16631f6042436040518163ffffffff1660e01b815260040160206040518083038186803b15801561143c57600080fd5b505afa158015611450573d6000803e3d6000fd5b505050506040513d602081101561146657600080fd5b8101908080519060200190929190505050614336565b6143c090919063ffffffff16565b61481f565b905090565b60006114a7826114a26138ea565b614840565b9050919050565b60006114b8612aef565b61152a576040517f08c379a00000000000000000000000000000000000000000000000000000000081526004018080602001828103825260208152602001807f4f776e61626c653a2063616c6c6572206973206e6f7420746865206f776e657281525060200191505060405180910390fd5b600c60009054906101000a900473ffffffffffffffffffffffffffffffffffffffff1673ffffffffffffffffffffffffffffffffffffffff168373ffffffffffffffffffffffffffffffffffffffff161415806115a557506115a1600b604051806020016040529081600082015481525050614216565b8214155b6115ae57600080fd5b6115be6115b9614878565b614216565b82106115c957600080fd5b82600c60006101000a81548173ffffffffffffffffffffffffffffffffffffffff021916908373ffffffffffffffffffffffffffffffffffffffff1602179055506116138261489e565b600b600082015181600001559050508273ffffffffffffffffffffffffffffffffffffffff167fe296227209b47bb8f4a76768ebd564dcde1c44be325a5d262f27c1fd4fd4538b836040518082815260200191505060405180910390a26001905092915050565b600080600160009054906101000a900473ffffffffffffffffffffffffffffffffffffffff1673ffffffffffffffffffffffffffffffffffffffff1663dcf0aaed60405160200180807f537461626c65546f6b656e000000000000000000000000000000000000000000815250600b019050604051602081830303815290604052805190602001206040518263ffffffff1660e01b81526004018082815260200191505060206040518083038186803b15801561173657600080fd5b505afa15801561174a573d6000803e3d6000fd5b505050506040513d602081101561176057600080fd5b8101908080519060200190929190505050905060008061177e6148bc565b73ffffffffffffffffffffffffffffffffffffffff1663ef90e1b0846040518263ffffffff1660e01b8152600401808273ffffffffffffffffffffffffffffffffffffffff1673ffffffffffffffffffffffffffffffffffffffff168152602001915050604080518083038186803b1580156117f957600080fd5b505afa15801561180d573d6000803e3d6000fd5b505050506040513d604081101561182357600080fd5b810190808051906020019092919080519060200190929190505050915091506118828261187483611866600d546118586127eb565b6149b790919063ffffffff16565b6149b790919063ffffffff16565b614a3d90919063ffffffff16565b935050505090565b60006060600060f473ffffffffffffffffffffffffffffffffffffffff16846040516020018082805190602001908083835b602083106118df57805182526020820191506020810190506020830392506118bc565b6001836020036101000a0380198251168184511680821785525050505050509050019150506040516020818303038152906040526040518082805190602001908083835b602083106119465780518252602082019150602081019050602083039250611923565b6001836020036101000a038019825116818451168082178552505050505050905001915050600060405180830381855afa9150503d80600081146119a6576040519150601f19603f3d011682016040523d82523d6000602084013e6119ab565b606091505b50809350819250505080611a0a576040517f08c379a0000000000000000000000000000000000000000000000000000000008152600401808060200182810382526038815260200180615a6b6038913960400191505060405180910390fd5b611a15826000614a87565b92505050919050565b600080611a3660025442614b1890919063ffffffff16565b90506201518061016d600f0202811015611ae8576000611a8a6002611a7c6b01f04ef12cb04cf1580000006b033b2e3c9fd0803ce8000000614b1890919063ffffffff16565b614a3d90919063ffffffff16565b90506000611abd6201518061016d600f0202611aaf85856149b790919063ffffffff16565b614a3d90919063ffffffff16565b9050611ade6b01f04ef12cb04cf15800000082614b6290919063ffffffff16565b9350505050611b45565b6000611b3f576040517f08c379a0000000000000000000000000000000000000000000000000000000008152600401808060200182810382526032815260200180615a396032913960400191505060405180910390fd5b60009150505b90565b6000611b52612aef565b611bc4576040517f08c379a00000000000000000000000000000000000000000000000000000000081526004018080602001828103825260208152602001807f4f776e61626c653a2063616c6c6572206973206e6f7420746865206f776e657281525060200191505060405180910390fd5b611be66006600201604051806020016040529081600082015481525050614216565b83141580611c155750611c116006600101604051806020016040529081600082015481525050614216565b8214155b611c6a576040517f08c379a0000000000000000000000000000000000000000000000000000000008152600401808060200182810382526022815260200180615afb6022913960400191505060405180910390fd5b611c738361489e565b600660020160008201518160000155905050611c8e8261489e565b600660010160008201518160000155905050611cd3611cab614878565b6006600201604051806020016040529081600082015481525050614bea90919063ffffffff16565b611d28576040517f08c379a000000000000000000000000000000000000000000000000000000000815260040180806020018281038252602f815260200180615cc4602f913960400191505060405180910390fd5b7f1b76e38f3fdd1f284ed4d47c9d50ff407748c516ff9761616ff638c2331076258383604051808381526020018281526020019250505060405180910390a16001905092915050565b60006060600060fa73ffffffffffffffffffffffffffffffffffffffff16858560405160200180838152602001828152602001925050506040516020818303038152906040526040518082805190602001908083835b60208310611dea5780518252602082019150602081019050602083039250611dc7565b6001836020036101000a038019825116818451168082178552505050505050905001915050600060405180830381855afa9150503d8060008114611e4a576040519150601f19603f3d011682016040523d82523d6000602084013e611e4f565b606091505b50809350819250505080611eae576040517f08c379a0000000000000000000000000000000000000000000000000000000008152600401808060200182810382526036815260200180615bc46036913960400191505060405180910390fd5b611eb9826000614224565b9250505092915050565b60008060008060039050611eee81600201604051806020016040529081600082015481525050614216565b611f1282600001600001604051806020016040529081600082015481525050614216565b611f3683600001600101604051806020016040529081600082015481525050614216565b93509350935050909192565b600080600080611f50614bff565b73ffffffffffffffffffffffffffffffffffffffff1663e5839836306040518263ffffffff1660e01b8152600401808273ffffffffffffffffffffffffffffffffffffffff1673ffffffffffffffffffffffffffffffffffffffff16815260200191505060206040518083038186803b158015611fcc57600080fd5b505afa158015611fe0573d6000803e3d6000fd5b505050506040513d6020811015611ff657600080fd5b81019080805190602001909291905050501561205d576040517f08c379a0000000000000000000000000000000000000000000000000000000008152600401808060200182810382526022815260200180615aa36022913960400191505060405180910390fd5b60006120676113ca565b90506000612073613e5a565b905061207d615930565b61208682613f11565b90506120ad6120a88261209a600d54614336565b6143c090919063ffffffff16565b61481f565b6120d06120cb836120bd87614336565b6143c090919063ffffffff16565b61481f565b61211b61211684612108600a6040518060200160405290816000820154815250506120fa89614336565b6143c090919063ffffffff16565b6143c090919063ffffffff16565b61481f565b61216661216185612153600b6040518060200160405290816000820154815250506121458a614336565b6143c090919063ffffffff16565b6143c090919063ffffffff16565b61481f565b965096509650965050505090919293565b60006060600060f673ffffffffffffffffffffffffffffffffffffffff16846040516020018082805190602001908083835b602083106121cc57805182526020820191506020810190506020830392506121a9565b6001836020036101000a0380198251168184511680821785525050505050509050019150506040516020818303038152906040526040518082805190602001908083835b602083106122335780518252602082019150602081019050602083039250612210565b6001836020036101000a038019825116818451168082178552505050505050905001915050600060405180830381855afa9150503d8060008114612293576040519150601f19603f3d011682016040523d82523d6000602084013e612298565b606091505b508093508192505050806122f7576040517f08c379a0000000000000000000000000000000000000000000000000000000008152600401808060200182810382526023815260200180615cf36023913960400191505060405180910390fd5b612302826000614a87565b92505050919050565b612313612aef565b612385576040517f08c379a00000000000000000000000000000000000000000000000000000000081526004018080602001828103825260208152602001807f4f776e61626c653a2063616c6c6572206973206e6f7420746865206f776e657281525060200191505060405180910390fd5b600073ffffffffffffffffffffffffffffffffffffffff166000809054906101000a900473ffffffffffffffffffffffffffffffffffffffff1673ffffffffffffffffffffffffffffffffffffffff167f8be0079c531659141344cd1fd0a4f28419497f9722a3daafe3b4186f6b6457e060405160405180910390a360008060006101000a81548173ffffffffffffffffffffffffffffffffffffffff021916908373ffffffffffffffffffffffffffffffffffffffff160217905550565b600061244f43613a2c565b905090565b60025481565b600160009054906101000a900473ffffffffffffffffffffffffffffffffffffffff1681565b600060149054906101000a900460ff1615612503576040517f08c379a000000000000000000000000000000000000000000000000000000000815260040180806020018281038252601c8152602001807f636f6e747261637420616c726561647920696e697469616c697a65640000000081525060200191505060405180910390fd5b6001600060146101000a81548160ff02191690831515021790555061252733614cfa565b6125308c6134a3565b61253a8a8a611b48565b506125468888886125b5565b5061255085612d0e565b5061255a84612ec0565b506125648361366d565b5061256f82826114ae565b506125798b613786565b5042600281905550505050505050505050505050565b60006125b0600b604051806020016040529081600082015481525050614216565b905090565b60006125bf612aef565b612631576040517f08c379a00000000000000000000000000000000000000000000000000000000081526004018080602001828103825260208152602001807f4f776e61626c653a2063616c6c6572206973206e6f7420746865206f776e657281525060200191505060405180910390fd5b6126536003600201604051806020016040529081600082015481525050614216565b8414158061268557506126816003600001600101604051806020016040529081600082015481525050614216565b8214155b806126b457506126b06003600001600001604051806020016040529081600082015481525050614216565b8314155b612709576040517f08c379a000000000000000000000000000000000000000000000000000000000815260040180806020018281038252602181526020018061599a6021913960400191505060405180910390fd5b604051806040016040528060405180604001604052806127288761489e565b81526020016127368661489e565b81525081526020016127478661489e565b815250600360008201518160000160008201518160000160008201518160000155505060208201518160010160008201518160000155505050506020820151816002016000820151816000015550509050507f191445ee0115396c9725b9c642b985d63820ca57d54e42e5eb38faec4022f05d84848460405180848152602001838152602001828152602001935050505060405180910390a1600190509392505050565b60006060600060f973ffffffffffffffffffffffffffffffffffffffff1643604051602001808281526020019150506040516020818303038152906040526040518082805190602001908083835b6020831061285c5780518252602082019150602081019050602083039250612839565b6001836020036101000a038019825116818451168082178552505050505050905001915050600060405180830381855afa9150503d80600081146128bc576040519150601f19603f3d011682016040523d82523d6000602084013e6128c1565b606091505b50809350819250505080612920576040517f08c379a0000000000000000000000000000000000000000000000000000000008152600401808060200182810382526035815260200180615b5a6035913960400191505060405180910390fd5b61292b826000614224565b9250505090565b60006060600060f773ffffffffffffffffffffffffffffffffffffffff16846040516020018082805190602001908083835b602083106129875780518252602082019150602081019050602083039250612964565b6001836020036101000a0380198251168184511680821785525050505050509050019150506040516020818303038152906040526040518082805190602001908083835b602083106129ee57805182526020820191506020810190506020830392506129cb565b6001836020036101000a038019825116818451168082178552505050505050905001915050600060405180830381855afa9150503d8060008114612a4e576040519150601f19603f3d011682016040523d82523d6000602084013e612a53565b606091505b50809350819250505080612ab2576040517f08c379a0000000000000000000000000000000000000000000000000000000008152600401808060200182810382526031815260200180615c936031913960400191505060405180910390fd5b612abd826000614224565b92505050919050565b60008060009054906101000a900473ffffffffffffffffffffffffffffffffffffffff16905090565b60008060009054906101000a900473ffffffffffffffffffffffffffffffffffffffff1673ffffffffffffffffffffffffffffffffffffffff16612b31614e3e565b73ffffffffffffffffffffffffffffffffffffffff1614905090565b600073ffffffffffffffffffffffffffffffffffffffff163373ffffffffffffffffffffffffffffffffffffffff1614612bef576040517f08c379a00000000000000000000000000000000000000000000000000000000081526004018080602001828103825260108152602001807f4f6e6c7920564d2063616e2063616c6c0000000000000000000000000000000081525060200191505060405180910390fd5b612bf7614bff565b73ffffffffffffffffffffffffffffffffffffffff1663e5839836306040518263ffffffff1660e01b8152600401808273ffffffffffffffffffffffffffffffffffffffff1673ffffffffffffffffffffffffffffffffffffffff16815260200191505060206040518083038186803b158015612c7357600080fd5b505afa158015612c87573d6000803e3d6000fd5b505050506040513d6020811015612c9d57600080fd5b810190808051906020019092919050505015612d04576040517f08c379a0000000000000000000000000000000000000000000000000000000008152600401808060200182810382526022815260200180615aa36022913960400191505060405180910390fd5b612d0c614e46565b565b6000612d18612aef565b612d8a576040517f08c379a00000000000000000000000000000000000000000000000000000000081526004018080602001828103825260208152602001807f4f776e61626c653a2063616c6c6572206973206e6f7420746865206f776e657281525060200191505060405180910390fd5b612da96009604051806020016040529081600082015481525050614216565b821415612e01576040517f08c379a00000000000000000000000000000000000000000000000000000000081526004018080602001828103825260258152602001806159bb6025913960400191505060405180910390fd5b612e11612e0c614878565b614216565b8210612e68576040517f08c379a0000000000000000000000000000000000000000000000000000000008152600401808060200182810382526033815260200180615a066033913960400191505060405180910390fd5b612e718261489e565b6009600082015181600001559050507fbae2f33c70949fbc7325c98655f3039e5e1c7f774874c99fd4f31ec5f432b159826040518082815260200191505060405180910390a160019050919050565b6000612eca612aef565b612f3c576040517f08c379a00000000000000000000000000000000000000000000000000000000081526004018080602001828103825260208152602001807f4f776e61626c653a2063616c6c6572206973206e6f7420746865206f776e657281525060200191505060405180910390fd5b600d54821415612f97576040517f08c379a00000000000000000000000000000000000000000000000000000000081526004018080602001828103825260288152602001806159446028913960400191505060405180910390fd5b81600d819055507fa21d141963bb2c1064b5376f762d22d3e9c4c51617edcf105bcec0f14e36800c826040518082815260200191505060405180910390a160019050919050565b6000612fff600a604051806020016040529081600082015481525050614216565b905090565b600061300f43611494565b905090565b600061301e615930565b61303b61303660025442614b1890919063ffffffff16565b614336565b9050613045615930565b613052632efe0780614336565b905061305c615930565b6130666002614336565b9050613070615930565b613083838561523a90919063ffffffff16565b1561309757613090614878565b90506130bf565b6130bc6130ad848661525090919063ffffffff16565b8361539990919063ffffffff16565b90505b6130c7615930565b6131576130d2615440565b73ffffffffffffffffffffffffffffffffffffffff166356b6d0d56040518163ffffffff1660e01b815260040160206040518083038186803b15801561311757600080fd5b505afa15801561312b573d6000803e3d6000fd5b505050506040513d602081101561314157600080fd5b810190808051906020019092919050505061489e565b905061316c828261553b90919063ffffffff16565b9550505050505090565b60006060600060f973ffffffffffffffffffffffffffffffffffffffff1684604051602001808281526020019150506040516020818303038152906040526040518082805190602001908083835b602083106131e757805182526020820191506020810190506020830392506131c4565b6001836020036101000a038019825116818451168082178552505050505050905001915050600060405180830381855afa9150503d8060008114613247576040519150601f19603f3d011682016040523d82523d6000602084013e61324c565b606091505b508093508192505050806132ab576040517f08c379a000000000000000000000000000000000000000000000000000000000815260040180806020018281038252602e81526020018061596c602e913960400191505060405180910390fd5b6132b6826000614224565b92505050919050565b6000806133e36132cd615440565b73ffffffffffffffffffffffffffffffffffffffff16638d9a5e6f6040518163ffffffff1660e01b815260040160206040518083038186803b15801561331257600080fd5b505afa158015613326573d6000803e3d6000fd5b505050506040513d602081101561333c57600080fd5b8101908080519060200190929190505050613355615551565b73ffffffffffffffffffffffffffffffffffffffff166318160ddd6040518163ffffffff1660e01b815260040160206040518083038186803b15801561339a57600080fd5b505afa1580156133ae573d6000803e3d6000fd5b505050506040513d60208110156133c457600080fd5b8101908080519060200190929190505050614b1890919063ffffffff16565b905060006133ef61423b565b73ffffffffffffffffffffffffffffffffffffffff16639a0e7d666040518163ffffffff1660e01b815260040160206040518083038186803b15801561343457600080fd5b505afa158015613448573d6000803e3d6000fd5b505050506040513d602081101561345e57600080fd5b8101908080519060200190929190505050905061349c61349761348084614336565b61348984614336565b61525090919063ffffffff16565b614216565b9250505090565b6134ab612aef565b61351d576040517f08c379a00000000000000000000000000000000000000000000000000000000081526004018080602001828103825260208152602001807f4f776e61626c653a2063616c6c6572206973206e6f7420746865206f776e657281525060200191505060405180910390fd5b600073ffffffffffffffffffffffffffffffffffffffff168173ffffffffffffffffffffffffffffffffffffffff1614156135c0576040517f08c379a00000000000000000000000000000000000000000000000000000000081526004018080602001828103825260208152602001807f43616e6e6f7420726567697374657220746865206e756c6c206164647265737381525060200191505060405180910390fd5b80600160006101000a81548173ffffffffffffffffffffffffffffffffffffffff021916908373ffffffffffffffffffffffffffffffffffffffff1602179055508073ffffffffffffffffffffffffffffffffffffffff167f27fe5f0c1c3b1ed427cc63d0f05759ffdecf9aec9e18d31ef366fc8a6cb5dc3b60405160405180910390a250565b60006136686009604051806020016040529081600082015481525050614216565b905090565b6000613677612aef565b6136e9576040517f08c379a00000000000000000000000000000000000000000000000000000000081526004018080602001828103825260208152602001807f4f776e61626c653a2063616c6c6572206973206e6f7420746865206f776e657281525060200191505060405180910390fd5b613708600a604051806020016040529081600082015481525050614216565b8214158015613725575061372261371d614878565b614216565b82105b61372e57600080fd5b6137378261489e565b600a600082015181600001559050507fe6c1b64ad7e601924731051286b7b408b1a6f3ae96dcd6d2d9cd82578372ef9e826040518082815260200191505060405180910390a160019050919050565b6000613790612aef565b613802576040517f08c379a00000000000000000000000000000000000000000000000000000000081526004018080602001828103825260208152602001807f4f776e61626c653a2063616c6c6572206973206e6f7420746865206f776e657281525060200191505060405180910390fd5b61380a615930565b6138138361489e565b905061384160066002016040518060200160405290816000820154815250508261553b90919063ffffffff16565b613896576040517f08c379a0000000000000000000000000000000000000000000000000000000008152600401808060200182810382526035815260200180615b8f6035913960400191505060405180910390fd5b806006600001600082015181600001559050507f152c3fc1e1cd415804bc9ae15876b37e62d8909358b940e6f4847ca927f46637836040518082815260200191505060405180910390a16001915050919050565b60006060600060f873ffffffffffffffffffffffffffffffffffffffff166040516020016040516020818303038152906040526040518082805190602001908083835b60208310613950578051825260208201915060208101905060208303925061392d565b6001836020036101000a038019825116818451168082178552505050505050905001915050600060405180830381855afa9150503d80600081146139b0576040519150601f19603f3d011682016040523d82523d6000602084013e6139b5565b606091505b50809350819250505080613a14576040517f08c379a0000000000000000000000000000000000000000000000000000000008152600401808060200182810382526025815260200180615c426025913960400191505060405180910390fd5b613a1f826000614224565b9250505090565b600d5481565b6000613a706003613a626002613a546002613a4688613176565b6149b790919063ffffffff16565b614b6290919063ffffffff16565b614a3d90919063ffffffff16565b9050919050565b60008060008714158015613a8c575060008514155b613afe576040517f08c379a00000000000000000000000000000000000000000000000000000000081526004018080602001828103825260158152602001807f612064656e6f6d696e61746f72206973207a65726f000000000000000000000081525060200191505060405180910390fd5b6000806000606060fc73ffffffffffffffffffffffffffffffffffffffff168c8c8c8c8c8c6040516020018087815260200186815260200185815260200184815260200183815260200182815260200196505050505050506040516020818303038152906040526040518082805190602001908083835b60208310613b985780518252602082019150602081019050602083039250613b75565b6001836020036101000a038019825116818451168082178552505050505050905001915050600060405180830381855afa9150503d8060008114613bf8576040519150601f19603f3d011682016040523d82523d6000602084013e613bfd565b606091505b50809250819350505081613c5c576040517f08c379a0000000000000000000000000000000000000000000000000000000008152600401808060200182810382526027815260200180615c1b6027913960400191505060405180910390fd5b613c67816000614224565b9350613c74816020614224565b925083839550955050505050965096945050505050565b613c93612aef565b613d05576040517f08c379a00000000000000000000000000000000000000000000000000000000081526004018080602001828103825260208152602001807f4f776e61626c653a2063616c6c6572206973206e6f7420746865206f776e657281525060200191505060405180910390fd5b613d0e81614cfa565b50565b60006060600060f573ffffffffffffffffffffffffffffffffffffffff1684604051602001808281526020019150506040516020818303038152906040526040518082805190602001908083835b60208310613d825780518252602082019150602081019050602083039250613d5f565b6001836020036101000a038019825116818451168082178552505050505050905001915050600060405180830381855afa9150503d8060008114613de2576040519150601f19603f3d011682016040523d82523d6000602084013e613de7565b606091505b50809350819250505080613e46576040517f08c379a000000000000000000000000000000000000000000000000000000000815260040180806020018281038252602c815260200180615c67602c913960400191505060405180910390fd5b613e51826000614a87565b92505050919050565b600080613e656113ca565b90506000613e7161167a565b90506000613e888284614b6290919063ffffffff16565b9050613f06613f01613eea600b604051806020016040529081600082015481525050613edc600a604051806020016040529081600082015481525050613ece6001614336565b61539990919063ffffffff16565b61539990919063ffffffff16565b613ef384614336565b61525090919063ffffffff16565b61481f565b905080935050505090565b613f19615930565b6000613f23611a1e565b90506000613f2f615551565b73ffffffffffffffffffffffffffffffffffffffff166318160ddd6040518163ffffffff1660e01b815260040160206040518083038186803b158015613f7457600080fd5b505afa158015613f88573d6000803e3d6000fd5b505050506040513d6020811015613f9e57600080fd5b810190808051906020019092919050505090506000613fe4613fc98684614b6290919063ffffffff16565b6b033b2e3c9fd0803ce8000000614b1890919063ffffffff16565b90506000614007846b033b2e3c9fd0803ce8000000614b1890919063ffffffff16565b9050614011615930565b61403461401d83614336565b61402685614336565b61525090919063ffffffff16565b9050614050614041614878565b8261564c90919063ffffffff16565b156141335761405d615930565b6140a56003600001600001604051806020016040529081600082015481525050614097614088614878565b8561539990919063ffffffff16565b6143c090919063ffffffff16565b90506140af615930565b6140c9826140bb614878565b61566190919063ffffffff16565b90506140f7600360020160405180602001604052908160008201548152505082614bea90919063ffffffff16565b1561410b5780975050505050505050614211565b6003600201604051806020016040529081600082015481525050975050505050505050614211565b61414d61413e614878565b82614bea90919063ffffffff16565b156142015761415a615930565b6141a2600360000160010160405180602001604052908160008201548152505061419484614186614878565b61539990919063ffffffff16565b6143c090919063ffffffff16565b90506141be6141af614878565b82614bea90919063ffffffff16565b156141ea576141dd816141cf614878565b61539990919063ffffffff16565b9650505050505050614211565b6141f4600061489e565b9650505050505050614211565b614209614878565b955050505050505b919050565b600081600001519050919050565b60006142308383614a87565b60001c905092915050565b6000600160009054906101000a900473ffffffffffffffffffffffffffffffffffffffff1673ffffffffffffffffffffffffffffffffffffffff1663dcf0aaed60405160200180807f456c656374696f6e0000000000000000000000000000000000000000000000008152506008019050604051602081830303815290604052805190602001206040518263ffffffff1660e01b81526004018082815260200191505060206040518083038186803b1580156142f657600080fd5b505afa15801561430a573d6000803e3d6000fd5b505050506040513d602081101561432057600080fd5b8101908080519060200190929190505050905090565b61433e615930565b61434661570a565b82111561439e576040517f08c379a0000000000000000000000000000000000000000000000000000000008152600401808060200182810382526036815260200180615ac56036913960400191505060405180910390fd5b604051806020016040528069d3c21bcecceda100000084028152509050919050565b6143c8615930565b6000836000015114806143df575060008260000151145b156143fb57604051806020016040528060008152509050614819565b69d3c21bcecceda10000008260000151141561441957829050614819565b69d3c21bcecceda10000008360000151141561443757819050614819565b600069d3c21bcecceda100000061444d85615729565b600001518161445857fe5b049050600061446685615760565b600001519050600069d3c21bcecceda100000061448286615729565b600001518161448d57fe5b049050600061449b86615760565b600001519050600082850290506000851461452f57828582816144ba57fe5b041461452e576040517f08c379a00000000000000000000000000000000000000000000000000000000081526004018080602001828103825260168152602001807f6f766572666c6f7720783179312064657465637465640000000000000000000081525060200191505060405180910390fd5b5b600069d3c21bcecceda100000082029050600082146145d15769d3c21bcecceda100000082828161455c57fe5b04146145d0576040517f08c379a000000000000000000000000000000000000000000000000000000000815260040180806020018281038252601f8152602001807f6f766572666c6f772078317931202a206669786564312064657465637465640081525060200191505060405180910390fd5b5b809150600084860290506000861461466257848682816145ed57fe5b0414614661576040517f08c379a00000000000000000000000000000000000000000000000000000000081526004018080602001828103825260168152602001807f6f766572666c6f7720783279312064657465637465640000000000000000000081525060200191505060405180910390fd5b5b60008488029050600088146146f0578488828161467b57fe5b04146146ef576040517f08c379a00000000000000000000000000000000000000000000000000000000081526004018080602001828103825260168152602001807f6f766572666c6f7720783179322064657465637465640000000000000000000081525060200191505060405180910390fd5b5b6146f861579d565b878161470057fe5b04965061470b61579d565b858161471357fe5b04945060008588029050600088146147a4578588828161472f57fe5b04146147a3576040517f08c379a00000000000000000000000000000000000000000000000000000000081526004018080602001828103825260168152602001807f6f766572666c6f7720783279322064657465637465640000000000000000000081525060200191505060405180910390fd5b5b6147ac615930565b60405180602001604052808781525090506147d581604051806020016040528087815250615661565b90506147ef81604051806020016040528086815250615661565b905061480981604051806020016040528085815250615661565b9050809a50505050505050505050505b92915050565b600069d3c21bcecceda100000082600001518161483857fe5b049050919050565b60008082848161484c57fe5b049050600083858161485a57fe5b06141561486a5780915050614872565b600181019150505b92915050565b614880615930565b604051806020016040528069d3c21bcecceda1000000815250905090565b6148a6615930565b6040518060200160405280838152509050919050565b6000600160009054906101000a900473ffffffffffffffffffffffffffffffffffffffff1673ffffffffffffffffffffffffffffffffffffffff1663dcf0aaed60405160200180807f536f727465644f7261636c657300000000000000000000000000000000000000815250600d019050604051602081830303815290604052805190602001206040518263ffffffff1660e01b81526004018082815260200191505060206040518083038186803b15801561497757600080fd5b505afa15801561498b573d6000803e3d6000fd5b505050506040513d60208110156149a157600080fd5b8101908080519060200190929190505050905090565b6000808314156149ca5760009050614a37565b60008284029050828482816149db57fe5b0414614a32576040517f08c379a0000000000000000000000000000000000000000000000000000000008152600401808060200182810382526021815260200180615bfa6021913960400191505060405180910390fd5b809150505b92915050565b6000614a7f83836040518060400160405280601a81526020017f536166654d6174683a206469766973696f6e206279207a65726f0000000000008152506157aa565b905092915050565b60006020820183511015614b03576040517f08c379a00000000000000000000000000000000000000000000000000000000081526004018080602001828103825260148152602001807f736c6963696e67206f7574206f662072616e676500000000000000000000000081525060200191505060405180910390fd5b60006020830184015190508091505092915050565b6000614b5a83836040518060400160405280601e81526020017f536166654d6174683a207375627472616374696f6e206f766572666c6f770000815250615870565b905092915050565b600080828401905083811015614be0576040517f08c379a000000000000000000000000000000000000000000000000000000000815260040180806020018281038252601b8152602001807f536166654d6174683a206164646974696f6e206f766572666c6f77000000000081525060200191505060405180910390fd5b8091505092915050565b60008160000151836000015110905092915050565b6000600160009054906101000a900473ffffffffffffffffffffffffffffffffffffffff1673ffffffffffffffffffffffffffffffffffffffff1663dcf0aaed60405160200180807f467265657a6572000000000000000000000000000000000000000000000000008152506007019050604051602081830303815290604052805190602001206040518263ffffffff1660e01b81526004018082815260200191505060206040518083038186803b158015614cba57600080fd5b505afa158015614cce573d6000803e3d6000fd5b505050506040513d6020811015614ce457600080fd5b8101908080519060200190929190505050905090565b600073ffffffffffffffffffffffffffffffffffffffff168173ffffffffffffffffffffffffffffffffffffffff161415614d80576040517f08c379a00000000000000000000000000000000000000000000000000000000081526004018080602001828103825260268152602001806159e06026913960400191505060405180910390fd5b8073ffffffffffffffffffffffffffffffffffffffff166000809054906101000a900473ffffffffffffffffffffffffffffffffffffffff1673ffffffffffffffffffffffffffffffffffffffff167f8be0079c531659141344cd1fd0a4f28419497f9722a3daafe3b4186f6b6457e060405160405180910390a3806000806101000a81548173ffffffffffffffffffffffffffffffffffffffff021916908373ffffffffffffffffffffffffffffffffffffffff16021790555050565b600033905090565b614e4e614bff565b73ffffffffffffffffffffffffffffffffffffffff1663e5839836306040518263ffffffff1660e01b8152600401808273ffffffffffffffffffffffffffffffffffffffff1673ffffffffffffffffffffffffffffffffffffffff16815260200191505060206040518083038186803b158015614eca57600080fd5b505afa158015614ede573d6000803e3d6000fd5b505050506040513d6020811015614ef457600080fd5b810190808051906020019092919050505015614f5b576040517f08c379a0000000000000000000000000000000000000000000000000000000008152600401808060200182810382526022815260200180615aa36022913960400191505060405180910390fd5b614f63615930565b614f73614f6e6132bf565b61489e565b9050614f9e60096040518060200160405290816000820154815250508261564c90919063ffffffff16565b156150a457614fab615930565b614fd460096040518060200160405290816000820154815250508361539990919063ffffffff16565b9050614fde615930565b61500a6006600101604051806020016040529081600082015481525050836143c090919063ffffffff16565b905061503860066000016040518060200160405290816000820154815250508261523a90919063ffffffff16565b1561505e576150476000614336565b60066000016000820151816000015590505061509d565b61508a81600660000160405180602001604052908160008201548152505061539990919063ffffffff16565b6006600001600082015181600001559050505b50506151df565b6150cd600960405180602001604052908160008201548152505082614bea90919063ffffffff16565b156151de576150da615930565b61510382600960405180602001604052908160008201548152505061539990919063ffffffff16565b905061510d615930565b6151396006600101604051806020016040529081600082015481525050836143c090919063ffffffff16565b905061516781600660000160405180602001604052908160008201548152505061566190919063ffffffff16565b6006600001600082015181600001559050506151be6006600201604051806020016040529081600082015481525050600660000160405180602001604052908160008201548152505061564c90919063ffffffff16565b156151db5760066002016006600001600082015481600001559050505b50505b5b7f49d8cdfe05bae61517c234f65f4088454013bafe561115126a8fe0074dc7700e6152226006600001604051806020016040529081600082015481525050614216565b6040518082815260200191505060405180910390a150565b6000816000015183600001511015905092915050565b615258615930565b6000826000015114156152d3576040517f08c379a00000000000000000000000000000000000000000000000000000000081526004018080602001828103825260118152602001807f63616e277420646976696465206279203000000000000000000000000000000081525060200191505060405180910390fd5b600069d3c21bcecceda10000008460000151029050836000015169d3c21bcecceda1000000828161530057fe5b0414615374576040517f08c379a00000000000000000000000000000000000000000000000000000000081526004018080602001828103825260128152602001807f6f766572666c6f7720617420646976696465000000000000000000000000000081525060200191505060405180910390fd5b60405180602001604052808460000151838161538c57fe5b0481525091505092915050565b6153a1615930565b81600001518360000151101561541f576040517f08c379a000000000000000000000000000000000000000000000000000000000815260040180806020018281038252601f8152602001807f737562737472616374696f6e20756e646572666c6f772064657465637465640081525060200191505060405180910390fd5b60405180602001604052808360000151856000015103815250905092915050565b6000600160009054906101000a900473ffffffffffffffffffffffffffffffffffffffff1673ffffffffffffffffffffffffffffffffffffffff1663dcf0aaed60405160200180807f52657365727665000000000000000000000000000000000000000000000000008152506007019050604051602081830303815290604052805190602001206040518263ffffffff1660e01b81526004018082815260200191505060206040518083038186803b1580156154fb57600080fd5b505afa15801561550f573d6000803e3d6000fd5b505050506040513d602081101561552557600080fd5b8101908080519060200190929190505050905090565b6000816000015183600001511115905092915050565b6000600160009054906101000a900473ffffffffffffffffffffffffffffffffffffffff1673ffffffffffffffffffffffffffffffffffffffff1663dcf0aaed60405160200180807f476f6c64546f6b656e00000000000000000000000000000000000000000000008152506009019050604051602081830303815290604052805190602001206040518263ffffffff1660e01b81526004018082815260200191505060206040518083038186803b15801561560c57600080fd5b505afa158015615620573d6000803e3d6000fd5b505050506040513d602081101561563657600080fd5b8101908080519060200190929190505050905090565b60008160000151836000015111905092915050565b615669615930565b60008260000151846000015101905083600001518110156156f2576040517f08c379a00000000000000000000000000000000000000000000000000000000081526004018080602001828103825260158152602001807f616464206f766572666c6f77206465746563746564000000000000000000000081525060200191505060405180910390fd5b60405180602001604052808281525091505092915050565b60007601357c299a88ea76a58924d52ce4f26a85af186c2b9e74905090565b615731615930565b604051806020016040528069d3c21bcecceda10000008085600001518161575457fe5b04028152509050919050565b615768615930565b604051806020016040528069d3c21bcecceda10000008085600001518161578b57fe5b04028460000151038152509050919050565b600064e8d4a51000905090565b60008083118290615856576040517f08c379a00000000000000000000000000000000000000000000000000000000081526004018080602001828103825283818151815260200191508051906020019080838360005b8381101561581b578082015181840152602081019050615800565b50505050905090810190601f1680156158485780820380516001836020036101000a031916815260200191505b509250505060405180910390fd5b50600083858161586257fe5b049050809150509392505050565b600083831115829061591d576040517f08c379a00000000000000000000000000000000000000000000000000000000081526004018080602001828103825283818151815260200191508051906020019080838360005b838110156158e25780820151818401526020810190506158c7565b50505050905090810190601f16801561590f5780820380516001836020036101000a031916815260200191505b509250505060405180910390fd5b5060008385039050809150509392505050565b604051806020016040528060008152509056fe5461726765742076616c696461746f722065706f6368207061796d656e7420756e6368616e6765646572726f722063616c6c696e67206e756d62657256616c696461746f7273496e53657420707265636f6d70696c654261642072657761726473206d756c7469706c69657220706172616d657465727354617267657420766f74696e6720676f6c64206672616374696f6e20756e6368616e6765644f776e61626c653a206e6577206f776e657220697320746865207a65726f206164647265737354617267657420766f74696e6720676f6c64206672616374696f6e2063616e6e6f74206265206c6172676572207468616e2031496d706c656d656e7420626c6f636b207265776172642063616c63756c6174696f6e20666f722079656172732031352d33306572726f722063616c6c696e672067657456657269666965645365616c4269746d617046726f6d48656164657220707265636f6d70696c6563616e27742063616c6c207768656e20636f6e74726163742069732066726f7a656e63616e277420637265617465206669786964697479206e756d626572206c6172676572207468616e206d61784e6577466978656428294261642074617267657420766f74696e67207969656c6420706172616d65746572736572726f722063616c6c696e672076616c696461746f725369676e65724164647265737346726f6d43757272656e7453657420707265636f6d70696c656572726f722063616c6c696e67206e756d62657256616c696461746f7273496e43757272656e7453657420707265636f6d70696c6554617267657420766f74696e67207969656c64206d757374206265206c657373207468616e206f7220657175616c20746f206d61786572726f722063616c6c696e672076616c696461746f725369676e65724164647265737346726f6d53657420707265636f6d70696c65536166654d6174683a206d756c7469706c69636174696f6e206f766572666c6f776572726f722063616c6c696e67206672616374696f6e4d756c45787020707265636f6d70696c656572726f722063616c6c696e672067657445706f636853697a6520707265636f6d70696c656572726f722063616c6c696e6720676574506172656e745365616c4269746d617020707265636f6d70696c656572726f722063616c6c696e6720676574426c6f636b4e756d62657246726f6d48656164657220707265636f6d70696c654d61782074617267657420766f74696e67207969656c64206d757374206265206c6f776572207468616e20313030256572726f722063616c6c696e67206861736848656164657220707265636f6d70696c65a265627a7a72315820c4fc996af7e344c9a968e3c1b24a927f6015d34065c8087bb007574399eb44bf64736f6c634300050d0032",
  "source": "pragma solidity ^0.5.3;\r\n\r\nimport \"openzeppelin-solidity/contracts/math/SafeMath.sol\";\r\nimport \"openzeppelin-solidity/contracts/ownership/Ownable.sol\";\r\n\r\nimport \"../common/CalledByVm.sol\";\r\nimport \"../common/FixidityLib.sol\";\r\nimport \"../common/Freezable.sol\";\r\nimport \"../common/Initializable.sol\";\r\nimport \"../common/UsingRegistry.sol\";\r\nimport \"../common/UsingPrecompiles.sol\";\r\n\r\n/**\r\n * @title Contract for calculating epoch rewards.\r\n */\r\ncontract EpochRewards is\r\n  Ownable,\r\n  Initializable,\r\n  UsingPrecompiles,\r\n  UsingRegistry,\r\n  Freezable,\r\n  CalledByVm\r\n{\r\n  using FixidityLib for FixidityLib.Fraction;\r\n  using SafeMath for uint256;\r\n\r\n  uint256 constant GENESIS_GOLD_SUPPLY = 600000000 ether; // 600 million Gold\r\n  uint256 constant GOLD_SUPPLY_CAP = 1000000000 ether; // 1 billion Gold\r\n  uint256 constant YEARS_LINEAR = 15;\r\n  uint256 constant SECONDS_LINEAR = YEARS_LINEAR * 365 * 1 days;\r\n\r\n  // This struct governs how the rewards multiplier should deviate from 1.0 based on the ratio of\r\n  // supply remaining to target supply remaining.\r\n  struct RewardsMultiplierAdjustmentFactors {\r\n    FixidityLib.Fraction underspend;\r\n    FixidityLib.Fraction overspend;\r\n  }\r\n\r\n  // This struct governs the multiplier on the target rewards to give out in a given epoch due to\r\n  // potential deviations in the actual Gold total supply from the target total supply.\r\n  // In the case where the actual exceeds the target (i.e. the protocol has \"overspent\" with\r\n  // respect to epoch rewards and payments) the rewards multiplier will be less than one.\r\n  // In the case where the actual is less than the target (i.e. the protocol has \"underspent\" with\r\n  // respect to epoch rewards and payments) the rewards multiplier will be greater than one.\r\n  struct RewardsMultiplierParameters {\r\n    RewardsMultiplierAdjustmentFactors adjustmentFactors;\r\n    // The maximum rewards multiplier.\r\n    FixidityLib.Fraction max;\r\n  }\r\n\r\n  // This struct governs the target yield awarded to voters in validator elections.\r\n  struct TargetVotingYieldParameters {\r\n    // The target yield awarded to users voting in validator elections.\r\n    FixidityLib.Fraction target;\r\n    // Governs the adjustment of the target yield based on the deviation of the percentage of\r\n    // Gold voting in validator elections from the `targetVotingGoldFraction`.\r\n    FixidityLib.Fraction adjustmentFactor;\r\n    // The maximum target yield awarded to users voting in validator elections.\r\n    FixidityLib.Fraction max;\r\n  }\r\n\r\n  uint256 public startTime = 0;\r\n  RewardsMultiplierParameters private rewardsMultiplierParams;\r\n  TargetVotingYieldParameters private targetVotingYieldParams;\r\n  FixidityLib.Fraction private targetVotingGoldFraction;\r\n  FixidityLib.Fraction private communityRewardFraction;\r\n  FixidityLib.Fraction private carbonOffsettingFraction;\r\n  address public carbonOffsettingPartner;\r\n  uint256 public targetValidatorEpochPayment;\r\n\r\n  event TargetVotingGoldFractionSet(uint256 fraction);\r\n  event CommunityRewardFractionSet(uint256 fraction);\r\n  event CarbonOffsettingFundSet(address indexed partner, uint256 fraction);\r\n  event TargetValidatorEpochPaymentSet(uint256 payment);\r\n  event TargetVotingYieldParametersSet(uint256 max, uint256 adjustmentFactor);\r\n  event TargetVotingYieldSet(uint256 target);\r\n  event RewardsMultiplierParametersSet(\r\n    uint256 max,\r\n    uint256 underspendAdjustmentFactor,\r\n    uint256 overspendAdjustmentFactor\r\n  );\r\n\r\n  event TargetVotingYieldUpdated(uint256 fraction);\r\n\r\n  /**\r\n   * @notice Used in place of the constructor to allow the contract to be upgradable via proxy.\r\n   * @param registryAddress The address of the registry contract.\r\n   * @param targetVotingYieldInitial The initial relative target block reward for voters.\r\n   * @param targetVotingYieldMax The max relative target block reward for voters.\r\n   * @param targetVotingYieldAdjustmentFactor The target block reward adjustment factor for voters.\r\n   * @param rewardsMultiplierMax The max multiplier on target epoch rewards.\r\n   * @param rewardsMultiplierUnderspendAdjustmentFactor Adjusts the multiplier on target epoch\r\n   *   rewards when the protocol is running behind the target Gold supply.\r\n   * @param rewardsMultiplierOverspendAdjustmentFactor Adjusts the multiplier on target epoch\r\n   *   rewards when the protocol is running ahead of the target Gold supply.\r\n   * @param _targetVotingGoldFraction The percentage of floating Gold voting to target.\r\n   * @param _targetValidatorEpochPayment The target validator epoch payment.\r\n   * @param _communityRewardFraction The percentage of rewards that go the community funds.\r\n   * @param _carbonOffsettingPartner The address of the carbon offsetting partner.\r\n   * @param _carbonOffsettingFraction The percentage of rewards going to carbon offsetting partner.\r\n   * @dev Should be called only once.\r\n   */\r\n  function initialize(\r\n    address registryAddress,\r\n    uint256 targetVotingYieldInitial,\r\n    uint256 targetVotingYieldMax,\r\n    uint256 targetVotingYieldAdjustmentFactor,\r\n    uint256 rewardsMultiplierMax,\r\n    uint256 rewardsMultiplierUnderspendAdjustmentFactor,\r\n    uint256 rewardsMultiplierOverspendAdjustmentFactor,\r\n    uint256 _targetVotingGoldFraction,\r\n    uint256 _targetValidatorEpochPayment,\r\n    uint256 _communityRewardFraction,\r\n    address _carbonOffsettingPartner,\r\n    uint256 _carbonOffsettingFraction\r\n  ) external initializer {\r\n    _transferOwnership(msg.sender);\r\n    setRegistry(registryAddress);\r\n    setTargetVotingYieldParameters(targetVotingYieldMax, targetVotingYieldAdjustmentFactor);\r\n    setRewardsMultiplierParameters(\r\n      rewardsMultiplierMax,\r\n      rewardsMultiplierUnderspendAdjustmentFactor,\r\n      rewardsMultiplierOverspendAdjustmentFactor\r\n    );\r\n    setTargetVotingGoldFraction(_targetVotingGoldFraction);\r\n    setTargetValidatorEpochPayment(_targetValidatorEpochPayment);\r\n    setCommunityRewardFraction(_communityRewardFraction);\r\n    setCarbonOffsettingFund(_carbonOffsettingPartner, _carbonOffsettingFraction);\r\n    setTargetVotingYield(targetVotingYieldInitial);\r\n    startTime = now;\r\n  }\r\n\r\n  /**\r\n   * @notice Returns the target voting yield parameters.\r\n   * @return The target, max, and adjustment factor for target voting yield.\r\n   */\r\n  function getTargetVotingYieldParameters() external view returns (uint256, uint256, uint256) {\r\n    TargetVotingYieldParameters storage params = targetVotingYieldParams;\r\n    return (params.target.unwrap(), params.max.unwrap(), params.adjustmentFactor.unwrap());\r\n  }\r\n\r\n  /**\r\n   * @notice Returns the rewards multiplier parameters.\r\n   * @return The max multiplier and under/over spend adjustment factors.\r\n   */\r\n  function getRewardsMultiplierParameters() external view returns (uint256, uint256, uint256) {\r\n    RewardsMultiplierParameters storage params = rewardsMultiplierParams;\r\n    return (\r\n      params.max.unwrap(),\r\n      params.adjustmentFactors.underspend.unwrap(),\r\n      params.adjustmentFactors.overspend.unwrap()\r\n    );\r\n  }\r\n\r\n  /**\r\n   * @notice Sets the community reward percentage\r\n   * @param value The percentage of the total reward to be sent to the community funds.\r\n   * @return True upon success.\r\n   */\r\n  function setCommunityRewardFraction(uint256 value) public onlyOwner returns (bool) {\r\n    require(value != communityRewardFraction.unwrap() && value < FixidityLib.fixed1().unwrap());\r\n    communityRewardFraction = FixidityLib.wrap(value);\r\n    emit CommunityRewardFractionSet(value);\r\n    return true;\r\n  }\r\n\r\n  /**\r\n   * @notice Returns the community reward fraction.\r\n   * @return The percentage of total reward which goes to the community funds.\r\n   */\r\n  function getCommunityRewardFraction() external view returns (uint256) {\r\n    return communityRewardFraction.unwrap();\r\n  }\r\n\r\n  /**\r\n   * @notice Sets the carbon offsetting fund.\r\n   * @param partner The address of the carbon offsetting partner.\r\n   * @param value The percentage of the total reward to be sent to the carbon offsetting partner.\r\n   * @return True upon success.\r\n   */\r\n  function setCarbonOffsettingFund(address partner, uint256 value) public onlyOwner returns (bool) {\r\n    require(partner != carbonOffsettingPartner || value != carbonOffsettingFraction.unwrap());\r\n    require(value < FixidityLib.fixed1().unwrap());\r\n    carbonOffsettingPartner = partner;\r\n    carbonOffsettingFraction = FixidityLib.wrap(value);\r\n    emit CarbonOffsettingFundSet(partner, value);\r\n    return true;\r\n  }\r\n\r\n  /**\r\n   * @notice Returns the carbon offsetting partner reward fraction.\r\n   * @return The percentage of total reward which goes to the carbon offsetting partner.\r\n   */\r\n  function getCarbonOffsettingFraction() external view returns (uint256) {\r\n    return carbonOffsettingFraction.unwrap();\r\n  }\r\n\r\n  /**\r\n   * @notice Sets the target voting Gold fraction.\r\n   * @param value The percentage of floating Gold voting to target.\r\n   * @return True upon success.\r\n   */\r\n  function setTargetVotingGoldFraction(uint256 value) public onlyOwner returns (bool) {\r\n    require(value != targetVotingGoldFraction.unwrap(), \"Target voting gold fraction unchanged\");\r\n    require(\r\n      value < FixidityLib.fixed1().unwrap(),\r\n      \"Target voting gold fraction cannot be larger than 1\"\r\n    );\r\n    targetVotingGoldFraction = FixidityLib.wrap(value);\r\n    emit TargetVotingGoldFractionSet(value);\r\n    return true;\r\n  }\r\n\r\n  /**\r\n   * @notice Returns the target voting Gold fraction.\r\n   * @return The percentage of floating Gold voting to target.\r\n   */\r\n  function getTargetVotingGoldFraction() external view returns (uint256) {\r\n    return targetVotingGoldFraction.unwrap();\r\n  }\r\n\r\n  /**\r\n   * @notice Sets the target per-epoch payment in Celo Dollars for validators.\r\n   * @param value The value in Celo Dollars.\r\n   * @return True upon success.\r\n   */\r\n  function setTargetValidatorEpochPayment(uint256 value) public onlyOwner returns (bool) {\r\n    require(value != targetValidatorEpochPayment, \"Target validator epoch payment unchanged\");\r\n    targetValidatorEpochPayment = value;\r\n    emit TargetValidatorEpochPaymentSet(value);\r\n    return true;\r\n  }\r\n\r\n  /**\r\n   * @notice Sets the rewards multiplier parameters.\r\n   * @param max The max multiplier on target epoch rewards.\r\n   * @param underspendAdjustmentFactor Adjusts the multiplier on target epoch rewards when the\r\n   *   protocol is running behind the target Gold supply.\r\n   * @param overspendAdjustmentFactor Adjusts the multiplier on target epoch rewards when the\r\n   *   protocol is running ahead of the target Gold supply.\r\n   * @return True upon success.\r\n   */\r\n  function setRewardsMultiplierParameters(\r\n    uint256 max,\r\n    uint256 underspendAdjustmentFactor,\r\n    uint256 overspendAdjustmentFactor\r\n  ) public onlyOwner returns (bool) {\r\n    require(\r\n      max != rewardsMultiplierParams.max.unwrap() ||\r\n        overspendAdjustmentFactor != rewardsMultiplierParams.adjustmentFactors.overspend.unwrap() ||\r\n        underspendAdjustmentFactor != rewardsMultiplierParams.adjustmentFactors.underspend.unwrap(),\r\n      \"Bad rewards multiplier parameters\"\r\n    );\r\n    rewardsMultiplierParams = RewardsMultiplierParameters(\r\n      RewardsMultiplierAdjustmentFactors(\r\n        FixidityLib.wrap(underspendAdjustmentFactor),\r\n        FixidityLib.wrap(overspendAdjustmentFactor)\r\n      ),\r\n      FixidityLib.wrap(max)\r\n    );\r\n    emit RewardsMultiplierParametersSet(max, underspendAdjustmentFactor, overspendAdjustmentFactor);\r\n    return true;\r\n  }\r\n\r\n  /**\r\n   * @notice Sets the target voting yield parameters.\r\n   * @param max The max relative target block reward for voters.\r\n   * @param adjustmentFactor The target block reward adjustment factor for voters.\r\n   * @return True upon success.\r\n   */\r\n  function setTargetVotingYieldParameters(uint256 max, uint256 adjustmentFactor)\r\n    public\r\n    onlyOwner\r\n    returns (bool)\r\n  {\r\n    require(\r\n      max != targetVotingYieldParams.max.unwrap() ||\r\n        adjustmentFactor != targetVotingYieldParams.adjustmentFactor.unwrap(),\r\n      \"Bad target voting yield parameters\"\r\n    );\r\n    targetVotingYieldParams.max = FixidityLib.wrap(max);\r\n    targetVotingYieldParams.adjustmentFactor = FixidityLib.wrap(adjustmentFactor);\r\n    require(\r\n      targetVotingYieldParams.max.lt(FixidityLib.fixed1()),\r\n      \"Max target voting yield must be lower than 100%\"\r\n    );\r\n    emit TargetVotingYieldParametersSet(max, adjustmentFactor);\r\n    return true;\r\n  }\r\n\r\n  /**\r\n   * @notice Sets the target voting yield.  Uses fixed point arithmetic\r\n   * for protection against overflow.\r\n   * @param targetVotingYield The relative target block reward for voters.\r\n   * @return True upon success.\r\n   */\r\n  function setTargetVotingYield(uint256 targetVotingYield) public onlyOwner returns (bool) {\r\n    FixidityLib.Fraction memory target = FixidityLib.wrap(targetVotingYield);\r\n    require(\r\n      target.lte(targetVotingYieldParams.max),\r\n      \"Target voting yield must be less than or equal to max\"\r\n    );\r\n    targetVotingYieldParams.target = target;\r\n    emit TargetVotingYieldSet(targetVotingYield);\r\n    return true;\r\n  }\r\n\r\n  /**\r\n   * @notice Returns the target Gold supply according to the epoch rewards target schedule.\r\n   * @return The target Gold supply according to the epoch rewards target schedule.\r\n   */\r\n  function getTargetGoldTotalSupply() public view returns (uint256) {\r\n    uint256 timeSinceInitialization = now.sub(startTime);\r\n    if (timeSinceInitialization < SECONDS_LINEAR) {\r\n      // Pay out half of all block rewards linearly.\r\n      uint256 linearRewards = GOLD_SUPPLY_CAP.sub(GENESIS_GOLD_SUPPLY).div(2);\r\n      uint256 targetRewards = linearRewards.mul(timeSinceInitialization).div(SECONDS_LINEAR);\r\n      return targetRewards.add(GENESIS_GOLD_SUPPLY);\r\n    } else {\r\n      // TODO(asa): Implement block reward calculation for years 15-30.\r\n      require(false, \"Implement block reward calculation for years 15-30\");\r\n      return 0;\r\n    }\r\n  }\r\n\r\n  /**\r\n   * @notice Returns the rewards multiplier based on the current and target Gold supplies.\r\n   * @param targetGoldSupplyIncrease The target increase in current Gold supply.\r\n   * @return The rewards multiplier based on the current and target Gold supplies.\r\n   */\r\n  function _getRewardsMultiplier(uint256 targetGoldSupplyIncrease)\r\n    internal\r\n    view\r\n    returns (FixidityLib.Fraction memory)\r\n  {\r\n    uint256 targetSupply = getTargetGoldTotalSupply();\r\n    uint256 totalSupply = getGoldToken().totalSupply();\r\n    uint256 remainingSupply = GOLD_SUPPLY_CAP.sub(totalSupply.add(targetGoldSupplyIncrease));\r\n    uint256 targetRemainingSupply = GOLD_SUPPLY_CAP.sub(targetSupply);\r\n    FixidityLib.Fraction memory remainingToTargetRatio = FixidityLib\r\n      .newFixed(remainingSupply)\r\n      .divide(FixidityLib.newFixed(targetRemainingSupply));\r\n    if (remainingToTargetRatio.gt(FixidityLib.fixed1())) {\r\n      FixidityLib.Fraction memory delta = remainingToTargetRatio\r\n        .subtract(FixidityLib.fixed1())\r\n        .multiply(rewardsMultiplierParams.adjustmentFactors.underspend);\r\n      FixidityLib.Fraction memory multiplier = FixidityLib.fixed1().add(delta);\r\n      if (multiplier.lt(rewardsMultiplierParams.max)) {\r\n        return multiplier;\r\n      } else {\r\n        return rewardsMultiplierParams.max;\r\n      }\r\n    } else if (remainingToTargetRatio.lt(FixidityLib.fixed1())) {\r\n      FixidityLib.Fraction memory delta = FixidityLib\r\n        .fixed1()\r\n        .subtract(remainingToTargetRatio)\r\n        .multiply(rewardsMultiplierParams.adjustmentFactors.overspend);\r\n      if (delta.lt(FixidityLib.fixed1())) {\r\n        return FixidityLib.fixed1().subtract(delta);\r\n      } else {\r\n        return FixidityLib.wrap(0);\r\n      }\r\n    } else {\r\n      return FixidityLib.fixed1();\r\n    }\r\n  }\r\n\r\n  /**\r\n   * @notice Returns the total target epoch rewards for voters.\r\n   * @return the total target epoch rewards for voters.\r\n   */\r\n  function getTargetVoterRewards() public view returns (uint256) {\r\n    return\r\n      FixidityLib\r\n        .newFixed(getElection().getActiveVotes())\r\n        .multiply(targetVotingYieldParams.target)\r\n        .fromFixed();\r\n  }\r\n\r\n  /**\r\n   * @notice Returns the total target epoch payments to validators, converted to Gold.\r\n   * @return The total target epoch payments to validators, converted to Gold.\r\n   */\r\n  function getTargetTotalEpochPaymentsInGold() public view returns (uint256) {\r\n    address stableTokenAddress = registry.getAddressForOrDie(STABLE_TOKEN_REGISTRY_ID);\r\n    (uint256 numerator, uint256 denominator) = getSortedOracles().medianRate(stableTokenAddress);\r\n    return\r\n      numberValidatorsInCurrentSet().mul(targetValidatorEpochPayment).mul(denominator).div(\r\n        numerator\r\n      );\r\n  }\r\n\r\n  /**\r\n   * @notice Returns the target gold supply increase used in calculating the rewards multiplier.\r\n   * @return The target increase in gold w/out the rewards multiplier.\r\n   */\r\n  function _getTargetGoldSupplyIncrease() internal view returns (uint256) {\r\n    uint256 targetEpochRewards = getTargetVoterRewards();\r\n    uint256 targetTotalEpochPaymentsInGold = getTargetTotalEpochPaymentsInGold();\r\n    uint256 targetGoldSupplyIncrease = targetEpochRewards.add(targetTotalEpochPaymentsInGold);\r\n    // increase /= (1 - fraction) st the final community reward is fraction * increase\r\n    targetGoldSupplyIncrease = FixidityLib\r\n      .newFixed(targetGoldSupplyIncrease)\r\n      .divide(\r\n      FixidityLib.newFixed(1).subtract(communityRewardFraction).subtract(carbonOffsettingFraction)\r\n    )\r\n      .fromFixed();\r\n    return targetGoldSupplyIncrease;\r\n  }\r\n\r\n  /**\r\n   * @notice Returns the rewards multiplier based on the current and target Gold supplies.\r\n   * @return The rewards multiplier based on the current and target Gold supplies.\r\n   */\r\n  function getRewardsMultiplier() external view returns (uint256) {\r\n    return _getRewardsMultiplier(_getTargetGoldSupplyIncrease()).unwrap();\r\n  }\r\n\r\n  /**\r\n   * @notice Returns the fraction of floating Gold being used for voting in validator elections.\r\n   * @return The fraction of floating Gold being used for voting in validator elections.\r\n   */\r\n  function getVotingGoldFraction() public view returns (uint256) {\r\n    uint256 liquidGold = getGoldToken().totalSupply().sub(getReserve().getReserveGoldBalance());\r\n    uint256 votingGold = getElection().getTotalVotes();\r\n    return FixidityLib.newFixed(votingGold).divide(FixidityLib.newFixed(liquidGold)).unwrap();\r\n  }\r\n\r\n  /**\r\n   * @notice Updates the target voting yield based on the difference between the target and current\r\n   *   voting Gold fraction.\r\n   */\r\n  function _updateTargetVotingYield() internal onlyWhenNotFrozen {\r\n    FixidityLib.Fraction memory votingGoldFraction = FixidityLib.wrap(getVotingGoldFraction());\r\n    if (votingGoldFraction.gt(targetVotingGoldFraction)) {\r\n      FixidityLib.Fraction memory votingGoldFractionDelta = votingGoldFraction.subtract(\r\n        targetVotingGoldFraction\r\n      );\r\n      FixidityLib.Fraction memory targetVotingYieldDelta = votingGoldFractionDelta.multiply(\r\n        targetVotingYieldParams.adjustmentFactor\r\n      );\r\n      if (targetVotingYieldDelta.gte(targetVotingYieldParams.target)) {\r\n        targetVotingYieldParams.target = FixidityLib.newFixed(0);\r\n      } else {\r\n        targetVotingYieldParams.target = targetVotingYieldParams.target.subtract(\r\n          targetVotingYieldDelta\r\n        );\r\n      }\r\n    } else if (votingGoldFraction.lt(targetVotingGoldFraction)) {\r\n      FixidityLib.Fraction memory votingGoldFractionDelta = targetVotingGoldFraction.subtract(\r\n        votingGoldFraction\r\n      );\r\n      FixidityLib.Fraction memory targetVotingYieldDelta = votingGoldFractionDelta.multiply(\r\n        targetVotingYieldParams.adjustmentFactor\r\n      );\r\n      targetVotingYieldParams.target = targetVotingYieldParams.target.add(targetVotingYieldDelta);\r\n      if (targetVotingYieldParams.target.gt(targetVotingYieldParams.max)) {\r\n        targetVotingYieldParams.target = targetVotingYieldParams.max;\r\n      }\r\n    }\r\n    emit TargetVotingYieldUpdated(targetVotingYieldParams.target.unwrap());\r\n  }\r\n\r\n  /**\r\n   * @notice Updates the target voting yield based on the difference between the target and current\r\n   *   voting Gold fraction.\r\n   * @dev Only called directly by the protocol.\r\n   */\r\n  function updateTargetVotingYield() external onlyVm onlyWhenNotFrozen {\r\n    _updateTargetVotingYield();\r\n  }\r\n\r\n  /**\r\n   * @notice Determines if the reserve is low enough to demand a diversion from\r\n   *    the community reward. Targets initial critical ratio of 2 with a linear\r\n   *    decline until 25 years have passed where the critical ratio will be 1.\r\n   */\r\n  function isReserveLow() external view returns (bool) {\r\n    // critical reserve ratio = 2 - time in second / 25 years\r\n    FixidityLib.Fraction memory timeSinceInitialization = FixidityLib.newFixed(now.sub(startTime));\r\n    FixidityLib.Fraction memory m = FixidityLib.newFixed(25 * 365 * 1 days);\r\n    FixidityLib.Fraction memory b = FixidityLib.newFixed(2);\r\n    FixidityLib.Fraction memory criticalRatio;\r\n    // Don't let the critical reserve ratio go under 1 after 25 years.\r\n    if (timeSinceInitialization.gte(m)) {\r\n      criticalRatio = FixidityLib.fixed1();\r\n    } else {\r\n      criticalRatio = b.subtract(timeSinceInitialization.divide(m));\r\n    }\r\n    FixidityLib.Fraction memory ratio = FixidityLib.wrap(getReserve().getReserveRatio());\r\n    return ratio.lte(criticalRatio);\r\n  }\r\n\r\n  /**\r\n   * @notice Calculates the per validator epoch payment and the total rewards to voters.\r\n   * @return The per validator epoch reward, the total rewards to voters, the total community\r\n   * reward, and the total carbon offsetting partner reward.\r\n   */\r\n  function calculateTargetEpochRewards()\r\n    external\r\n    view\r\n    onlyWhenNotFrozen\r\n    returns (uint256, uint256, uint256, uint256)\r\n  {\r\n    uint256 targetVoterReward = getTargetVoterRewards();\r\n    uint256 targetGoldSupplyIncrease = _getTargetGoldSupplyIncrease();\r\n    FixidityLib.Fraction memory rewardsMultiplier = _getRewardsMultiplier(targetGoldSupplyIncrease);\r\n    return (\r\n      FixidityLib.newFixed(targetValidatorEpochPayment).multiply(rewardsMultiplier).fromFixed(),\r\n      FixidityLib.newFixed(targetVoterReward).multiply(rewardsMultiplier).fromFixed(),\r\n      FixidityLib\r\n        .newFixed(targetGoldSupplyIncrease)\r\n        .multiply(communityRewardFraction)\r\n        .multiply(rewardsMultiplier)\r\n        .fromFixed(),\r\n      FixidityLib\r\n        .newFixed(targetGoldSupplyIncrease)\r\n        .multiply(carbonOffsettingFraction)\r\n        .multiply(rewardsMultiplier)\r\n        .fromFixed()\r\n    );\r\n  }\r\n}\r\n",
  "sourcePath": "D:\\Work\\celo-monorepo\\packages\\protocol\\contracts\\governance\\EpochRewards.sol",
  "compiler": {
    "name": "solc",
    "version": "0.5.13+commit.5b0b510c.Emscripten.clang"
  },
  "schemaVersion": "3.0.23",
  "updatedAt": "2020-09-09T12:47:31.184Z",
  "devdoc": {
    "methods": {
      "calculateTargetEpochRewards()": {
        "return": "The per validator epoch reward, the total rewards to voters, the total community reward, and the total carbon offsetting partner reward."
      },
      "checkProofOfPossession(address,bytes,bytes)": {
        "params": {
          "blsKey": "The BLS public key that the validator is using for consensus, should pass proof  of possession. 48 bytes.",
          "blsPop": "The BLS public key proof-of-possession, which consists of a signature on the  account address. 96 bytes.",
          "sender": "The address signed by the BLS key to generate the proof of possession."
        },
        "return": "True upon success."
      },
      "fractionMulExp(uint256,uint256,uint256,uint256,uint256,uint256)": {
        "params": {
          "_decimals": "precision",
          "aDenominator": "Denominator of first fraction",
          "aNumerator": "Numerator of first fraction",
          "bDenominator": "Denominator of exponentiated fraction",
          "bNumerator": "Numerator of exponentiated fraction",
          "exponent": "exponent to raise b to"
        },
        "return": "numerator/denominator of the computed quantity (not reduced)."
      },
      "getBlockNumberFromHeader(bytes)": {
        "params": {
          "header": "RLP encoded header"
        },
        "return": "Block number."
      },
      "getCarbonOffsettingFraction()": {
        "return": "The percentage of total reward which goes to the carbon offsetting partner."
      },
      "getCommunityRewardFraction()": {
        "return": "The percentage of total reward which goes to the community funds."
      },
      "getEpochNumber()": {
        "return": "Current epoch number."
      },
      "getEpochNumberOfBlock(uint256)": {
        "params": {
          "blockNumber": "Block number where epoch number is calculated."
        },
        "return": "Epoch number."
      },
      "getEpochSize()": {
        "return": "The current epoch size in blocks."
      },
      "getParentSealBitmap(uint256)": {
        "params": {
          "blockNumber": "Block number to retrieve. Must be within 4 epochs of the current number."
        },
        "return": "Bitmap parent seal with set bits at indices corresponding to signing validators."
      },
      "getRewardsMultiplier()": {
        "return": "The rewards multiplier based on the current and target Gold supplies."
      },
      "getRewardsMultiplierParameters()": {
        "return": "The max multiplier and under/over spend adjustment factors."
      },
      "getTargetGoldTotalSupply()": {
        "return": "The target Gold supply according to the epoch rewards target schedule."
      },
      "getTargetTotalEpochPaymentsInGold()": {
        "return": "The total target epoch payments to validators, converted to Gold."
      },
      "getTargetVoterRewards()": {
        "return": "the total target epoch rewards for voters."
      },
      "getTargetVotingGoldFraction()": {
        "return": "The percentage of floating Gold voting to target."
      },
      "getTargetVotingYieldParameters()": {
        "return": "The target, max, and adjustment factor for target voting yield."
      },
      "getVerifiedSealBitmapFromHeader(bytes)": {
        "params": {
          "header": "RLP encoded header"
        },
        "return": "Bitmap parent seal with set bits at indices correspoinding to signing validators."
      },
      "getVotingGoldFraction()": {
        "return": "The fraction of floating Gold being used for voting in validator elections."
      },
      "hashHeader(bytes)": {
        "params": {
          "header": "RLP encoded header"
        },
        "return": "Header hash."
      },
      "initialize(address,uint256,uint256,uint256,uint256,uint256,uint256,uint256,uint256,uint256,address,uint256)": {
        "details": "Should be called only once.",
        "params": {
          "_carbonOffsettingFraction": "The percentage of rewards going to carbon offsetting partner.",
          "_carbonOffsettingPartner": "The address of the carbon offsetting partner.",
          "_communityRewardFraction": "The percentage of rewards that go the community funds.",
          "_targetValidatorEpochPayment": "The target validator epoch payment.",
          "_targetVotingGoldFraction": "The percentage of floating Gold voting to target.",
          "registryAddress": "The address of the registry contract.",
          "rewardsMultiplierMax": "The max multiplier on target epoch rewards.",
          "rewardsMultiplierOverspendAdjustmentFactor": "Adjusts the multiplier on target epoch  rewards when the protocol is running ahead of the target Gold supply.",
          "rewardsMultiplierUnderspendAdjustmentFactor": "Adjusts the multiplier on target epoch  rewards when the protocol is running behind the target Gold supply.",
          "targetVotingYieldAdjustmentFactor": "The target block reward adjustment factor for voters.",
          "targetVotingYieldInitial": "The initial relative target block reward for voters.",
          "targetVotingYieldMax": "The max relative target block reward for voters."
        }
      },
      "isOwner()": {
        "details": "Returns true if the caller is the current owner."
      },
      "minQuorumSize(uint256)": {
        "details": "Computed in celo-blockchain as int(math.Ceil(float64(2*valSet.Size()) / 3))"
      },
      "minQuorumSizeInCurrentSet()": {
        "return": "Byzantine quorum of validators."
      },
      "numberValidatorsInCurrentSet()": {
        "return": "Size of the current elected validator set."
      },
      "numberValidatorsInSet(uint256)": {
        "params": {
          "blockNumber": "Block number to retrieve the validator set from."
        },
        "return": "Size of the validator set."
      },
      "owner()": {
        "details": "Returns the address of the current owner."
      },
      "renounceOwnership()": {
        "details": "Leaves the contract without owner. It will not be possible to call `onlyOwner` functions anymore. Can only be called by the current owner.     * NOTE: Renouncing ownership will leave the contract without an owner, thereby removing any functionality that is only available to the owner."
      },
      "setCarbonOffsettingFund(address,uint256)": {
        "params": {
          "partner": "The address of the carbon offsetting partner.",
          "value": "The percentage of the total reward to be sent to the carbon offsetting partner."
        },
        "return": "True upon success."
      },
      "setCommunityRewardFraction(uint256)": {
        "params": {
          "value": "The percentage of the total reward to be sent to the community funds."
        },
        "return": "True upon success."
      },
      "setRegistry(address)": {
        "params": {
          "registryAddress": "The address of a registry contract for routing to other contracts."
        }
      },
      "setRewardsMultiplierParameters(uint256,uint256,uint256)": {
        "params": {
          "max": "The max multiplier on target epoch rewards.",
          "overspendAdjustmentFactor": "Adjusts the multiplier on target epoch rewards when the  protocol is running ahead of the target Gold supply.",
          "underspendAdjustmentFactor": "Adjusts the multiplier on target epoch rewards when the  protocol is running behind the target Gold supply."
        },
        "return": "True upon success."
      },
      "setTargetValidatorEpochPayment(uint256)": {
        "params": {
          "value": "The value in Celo Dollars."
        },
        "return": "True upon success."
      },
      "setTargetVotingGoldFraction(uint256)": {
        "params": {
          "value": "The percentage of floating Gold voting to target."
        },
        "return": "True upon success."
      },
      "setTargetVotingYield(uint256)": {
        "params": {
          "targetVotingYield": "The relative target block reward for voters."
        },
        "return": "True upon success."
      },
      "setTargetVotingYieldParameters(uint256,uint256)": {
        "params": {
          "adjustmentFactor": "The target block reward adjustment factor for voters.",
          "max": "The max relative target block reward for voters."
        },
        "return": "True upon success."
      },
      "transferOwnership(address)": {
        "details": "Transfers ownership of the contract to a new account (`newOwner`). Can only be called by the current owner."
      },
      "updateTargetVotingYield()": {
        "details": "Only called directly by the protocol."
      },
      "validatorSignerAddressFromCurrentSet(uint256)": {
        "params": {
          "index": "Index of requested validator in the validator set."
        },
        "return": "Address of validator at the requested index."
      },
      "validatorSignerAddressFromSet(uint256,uint256)": {
        "params": {
          "blockNumber": "Block number to retrieve the validator set from.",
          "index": "Index of requested validator in the validator set."
        },
        "return": "Address of validator at the requested index."
      }
    },
    "title": "Contract for calculating epoch rewards."
  },
  "userdoc": {
    "methods": {
      "calculateTargetEpochRewards()": {
        "notice": "Calculates the per validator epoch payment and the total rewards to voters."
      },
      "checkProofOfPossession(address,bytes,bytes)": {
        "notice": "Checks a BLS proof of possession."
      },
      "fractionMulExp(uint256,uint256,uint256,uint256,uint256,uint256)": {
        "notice": "calculate a * b^x for fractions a, b to `decimals` precision"
      },
      "getBlockNumberFromHeader(bytes)": {
        "notice": "Parses block number out of header."
      },
      "getCarbonOffsettingFraction()": {
        "notice": "Returns the carbon offsetting partner reward fraction."
      },
      "getCommunityRewardFraction()": {
        "notice": "Returns the community reward fraction."
      },
      "getEpochNumber()": {
        "notice": "Returns the epoch number at a block."
      },
      "getEpochNumberOfBlock(uint256)": {
        "notice": "Returns the epoch number at a block."
      },
      "getEpochSize()": {
        "notice": "Returns the current epoch size in blocks."
      },
      "getParentSealBitmap(uint256)": {
        "notice": "Gets the parent seal bitmap from the header at the given block number."
      },
      "getRewardsMultiplier()": {
        "notice": "Returns the rewards multiplier based on the current and target Gold supplies."
      },
      "getRewardsMultiplierParameters()": {
        "notice": "Returns the rewards multiplier parameters."
      },
      "getTargetGoldTotalSupply()": {
        "notice": "Returns the target Gold supply according to the epoch rewards target schedule."
      },
      "getTargetTotalEpochPaymentsInGold()": {
        "notice": "Returns the total target epoch payments to validators, converted to Gold."
      },
      "getTargetVoterRewards()": {
        "notice": "Returns the total target epoch rewards for voters."
      },
      "getTargetVotingGoldFraction()": {
        "notice": "Returns the target voting Gold fraction."
      },
      "getTargetVotingYieldParameters()": {
        "notice": "Returns the target voting yield parameters."
      },
      "getVerifiedSealBitmapFromHeader(bytes)": {
        "notice": "Verifies the BLS signature on the header and returns the seal bitmap. The validator set used for verification is retrieved based on the parent hash field of the header.  If the parent hash is not in the blockchain, verification fails."
      },
      "getVotingGoldFraction()": {
        "notice": "Returns the fraction of floating Gold being used for voting in validator elections."
      },
      "hashHeader(bytes)": {
        "notice": "Computes hash of header."
      },
      "initialize(address,uint256,uint256,uint256,uint256,uint256,uint256,uint256,uint256,uint256,address,uint256)": {
        "notice": "Used in place of the constructor to allow the contract to be upgradable via proxy."
      },
      "isReserveLow()": {
        "notice": "Determines if the reserve is low enough to demand a diversion from   the community reward. Targets initial critical ratio of 2 with a linear   decline until 25 years have passed where the critical ratio will be 1."
      },
      "minQuorumSize(uint256)": {
        "notice": "Returns the minimum number of required signers for a given block number."
      },
      "minQuorumSizeInCurrentSet()": {
        "notice": "Computes byzantine quorum from current validator set size"
      },
      "numberValidatorsInCurrentSet()": {
        "notice": "Gets the size of the current elected validator set."
      },
      "numberValidatorsInSet(uint256)": {
        "notice": "Gets the size of the validator set that must sign the given block number."
      },
      "setCarbonOffsettingFund(address,uint256)": {
        "notice": "Sets the carbon offsetting fund."
      },
      "setCommunityRewardFraction(uint256)": {
        "notice": "Sets the community reward percentage"
      },
      "setRegistry(address)": {
        "notice": "Updates the address pointing to a Registry contract."
      },
      "setRewardsMultiplierParameters(uint256,uint256,uint256)": {
        "notice": "Sets the rewards multiplier parameters."
      },
      "setTargetValidatorEpochPayment(uint256)": {
        "notice": "Sets the target per-epoch payment in Celo Dollars for validators."
      },
      "setTargetVotingGoldFraction(uint256)": {
        "notice": "Sets the target voting Gold fraction."
      },
      "setTargetVotingYield(uint256)": {
        "notice": "Sets the target voting yield.  Uses fixed point arithmetic for protection against overflow."
      },
      "setTargetVotingYieldParameters(uint256,uint256)": {
        "notice": "Sets the target voting yield parameters."
      },
      "updateTargetVotingYield()": {
        "notice": "Updates the target voting yield based on the difference between the target and current  voting Gold fraction."
      },
      "validatorSignerAddressFromCurrentSet(uint256)": {
        "notice": "Gets a validator address from the current validator set."
      },
      "validatorSignerAddressFromSet(uint256,uint256)": {
        "notice": "Gets a validator address from the validator set at the given block number."
      }
    }
  }
}