{
  "contractName": "GoldToken",
  "abi": [
    {
      "anonymous": false,
      "inputs": [
        {
          "indexed": true,
          "internalType": "address",
          "name": "owner",
          "type": "address"
        },
        {
          "indexed": true,
          "internalType": "address",
          "name": "spender",
          "type": "address"
        },
        {
          "indexed": false,
          "internalType": "uint256",
          "name": "value",
          "type": "uint256"
        }
      ],
      "name": "Approval",
      "type": "event"
    },
    {
      "anonymous": false,
      "inputs": [
        {
          "indexed": true,
          "internalType": "address",
          "name": "previousOwner",
          "type": "address"
        },
        {
          "indexed": true,
          "internalType": "address",
          "name": "newOwner",
          "type": "address"
        }
      ],
      "name": "OwnershipTransferred",
      "type": "event"
    },
    {
      "anonymous": false,
      "inputs": [
        {
          "indexed": true,
          "internalType": "address",
          "name": "registryAddress",
          "type": "address"
        }
      ],
      "name": "RegistrySet",
      "type": "event"
    },
    {
      "anonymous": false,
      "inputs": [
        {
          "indexed": true,
          "internalType": "address",
          "name": "from",
          "type": "address"
        },
        {
          "indexed": true,
          "internalType": "address",
          "name": "to",
          "type": "address"
        },
        {
          "indexed": false,
          "internalType": "uint256",
          "name": "value",
          "type": "uint256"
        }
      ],
      "name": "Transfer",
      "type": "event"
    },
    {
      "anonymous": false,
      "inputs": [
        {
          "indexed": false,
          "internalType": "string",
          "name": "comment",
          "type": "string"
        }
      ],
      "name": "TransferComment",
      "type": "event"
    },
    {
      "constant": true,
      "inputs": [],
      "name": "initialized",
      "outputs": [
        {
          "internalType": "bool",
          "name": "",
          "type": "bool"
        }
      ],
      "payable": false,
      "stateMutability": "view",
      "type": "function"
    },
    {
      "constant": true,
      "inputs": [],
      "name": "isOwner",
      "outputs": [
        {
          "internalType": "bool",
          "name": "",
          "type": "bool"
        }
      ],
      "payable": false,
      "stateMutability": "view",
      "type": "function"
    },
    {
      "constant": true,
      "inputs": [],
      "name": "owner",
      "outputs": [
        {
          "internalType": "address",
          "name": "",
          "type": "address"
        }
      ],
      "payable": false,
      "stateMutability": "view",
      "type": "function"
    },
    {
      "constant": true,
      "inputs": [],
      "name": "registry",
      "outputs": [
        {
          "internalType": "contract IRegistry",
          "name": "",
          "type": "address"
        }
      ],
      "payable": false,
      "stateMutability": "view",
      "type": "function"
    },
    {
      "constant": false,
      "inputs": [],
      "name": "renounceOwnership",
      "outputs": [],
      "payable": false,
      "stateMutability": "nonpayable",
      "type": "function"
    },
    {
      "constant": false,
      "inputs": [
        {
          "internalType": "address",
          "name": "registryAddress",
          "type": "address"
        }
      ],
      "name": "setRegistry",
      "outputs": [],
      "payable": false,
      "stateMutability": "nonpayable",
      "type": "function"
    },
    {
      "constant": false,
      "inputs": [
        {
          "internalType": "address",
          "name": "newOwner",
          "type": "address"
        }
      ],
      "name": "transferOwnership",
      "outputs": [],
      "payable": false,
      "stateMutability": "nonpayable",
      "type": "function"
    },
    {
      "constant": true,
      "inputs": [],
      "name": "getVersionNumber",
      "outputs": [
        {
          "internalType": "uint256",
          "name": "",
          "type": "uint256"
        },
        {
          "internalType": "uint256",
          "name": "",
          "type": "uint256"
        },
        {
          "internalType": "uint256",
          "name": "",
          "type": "uint256"
        },
        {
          "internalType": "uint256",
          "name": "",
          "type": "uint256"
        }
      ],
      "payable": false,
      "stateMutability": "pure",
      "type": "function"
    },
    {
      "constant": false,
      "inputs": [
        {
          "internalType": "address",
          "name": "registryAddress",
          "type": "address"
        }
      ],
      "name": "initialize",
      "outputs": [],
      "payable": false,
      "stateMutability": "nonpayable",
      "type": "function"
    },
    {
      "constant": false,
      "inputs": [
        {
          "internalType": "address",
          "name": "to",
          "type": "address"
        },
        {
          "internalType": "uint256",
          "name": "value",
          "type": "uint256"
        }
      ],
      "name": "transfer",
      "outputs": [
        {
          "internalType": "bool",
          "name": "",
          "type": "bool"
        }
      ],
      "payable": false,
      "stateMutability": "nonpayable",
      "type": "function"
    },
    {
      "constant": false,
      "inputs": [
        {
          "internalType": "address",
          "name": "to",
          "type": "address"
        },
        {
          "internalType": "uint256",
          "name": "value",
          "type": "uint256"
        },
        {
          "internalType": "string",
          "name": "comment",
          "type": "string"
        }
      ],
      "name": "transferWithComment",
      "outputs": [
        {
          "internalType": "bool",
          "name": "",
          "type": "bool"
        }
      ],
      "payable": false,
      "stateMutability": "nonpayable",
      "type": "function"
    },
    {
      "constant": false,
      "inputs": [
        {
          "internalType": "address",
          "name": "spender",
          "type": "address"
        },
        {
          "internalType": "uint256",
          "name": "value",
          "type": "uint256"
        }
      ],
      "name": "approve",
      "outputs": [
        {
          "internalType": "bool",
          "name": "",
          "type": "bool"
        }
      ],
      "payable": false,
      "stateMutability": "nonpayable",
      "type": "function"
    },
    {
      "constant": false,
      "inputs": [
        {
          "internalType": "address",
          "name": "spender",
          "type": "address"
        },
        {
          "internalType": "uint256",
          "name": "value",
          "type": "uint256"
        }
      ],
      "name": "increaseAllowance",
      "outputs": [
        {
          "internalType": "bool",
          "name": "",
          "type": "bool"
        }
      ],
      "payable": false,
      "stateMutability": "nonpayable",
      "type": "function"
    },
    {
      "constant": false,
      "inputs": [
        {
          "internalType": "address",
          "name": "spender",
          "type": "address"
        },
        {
          "internalType": "uint256",
          "name": "value",
          "type": "uint256"
        }
      ],
      "name": "decreaseAllowance",
      "outputs": [
        {
          "internalType": "bool",
          "name": "",
          "type": "bool"
        }
      ],
      "payable": false,
      "stateMutability": "nonpayable",
      "type": "function"
    },
    {
      "constant": false,
      "inputs": [
        {
          "internalType": "address",
          "name": "from",
          "type": "address"
        },
        {
          "internalType": "address",
          "name": "to",
          "type": "address"
        },
        {
          "internalType": "uint256",
          "name": "value",
          "type": "uint256"
        }
      ],
      "name": "transferFrom",
      "outputs": [
        {
          "internalType": "bool",
          "name": "",
          "type": "bool"
        }
      ],
      "payable": false,
      "stateMutability": "nonpayable",
      "type": "function"
    },
    {
      "constant": false,
      "inputs": [
        {
          "internalType": "address",
          "name": "to",
          "type": "address"
        },
        {
          "internalType": "uint256",
          "name": "value",
          "type": "uint256"
        }
      ],
      "name": "mint",
      "outputs": [
        {
          "internalType": "bool",
          "name": "",
          "type": "bool"
        }
      ],
      "payable": false,
      "stateMutability": "nonpayable",
      "type": "function"
    },
    {
      "constant": true,
      "inputs": [],
      "name": "name",
      "outputs": [
        {
          "internalType": "string",
          "name": "",
          "type": "string"
        }
      ],
      "payable": false,
      "stateMutability": "view",
      "type": "function"
    },
    {
      "constant": true,
      "inputs": [],
      "name": "symbol",
      "outputs": [
        {
          "internalType": "string",
          "name": "",
          "type": "string"
        }
      ],
      "payable": false,
      "stateMutability": "view",
      "type": "function"
    },
    {
      "constant": true,
      "inputs": [],
      "name": "decimals",
      "outputs": [
        {
          "internalType": "uint8",
          "name": "",
          "type": "uint8"
        }
      ],
      "payable": false,
      "stateMutability": "view",
      "type": "function"
    },
    {
      "constant": true,
      "inputs": [],
      "name": "totalSupply",
      "outputs": [
        {
          "internalType": "uint256",
          "name": "",
          "type": "uint256"
        }
      ],
      "payable": false,
      "stateMutability": "view",
      "type": "function"
    },
    {
      "constant": true,
      "inputs": [
        {
          "internalType": "address",
          "name": "owner",
          "type": "address"
        },
        {
          "internalType": "address",
          "name": "spender",
          "type": "address"
        }
      ],
      "name": "allowance",
      "outputs": [
        {
          "internalType": "uint256",
          "name": "",
          "type": "uint256"
        }
      ],
      "payable": false,
      "stateMutability": "view",
      "type": "function"
    },
    {
      "constant": false,
      "inputs": [
        {
          "internalType": "uint256",
          "name": "amount",
          "type": "uint256"
        }
      ],
      "name": "increaseSupply",
      "outputs": [],
      "payable": false,
      "stateMutability": "nonpayable",
      "type": "function"
    },
    {
      "constant": true,
      "inputs": [
        {
          "internalType": "address",
          "name": "owner",
          "type": "address"
        }
      ],
      "name": "balanceOf",
      "outputs": [
        {
          "internalType": "uint256",
          "name": "",
          "type": "uint256"
        }
      ],
      "payable": false,
      "stateMutability": "view",
      "type": "function"
    }
  ],
  "bytecode": "0x608060405260006100146100b860201b60201c565b905080600060016101000a81548173ffffffffffffffffffffffffffffffffffffffff021916908373ffffffffffffffffffffffffffffffffffffffff1602179055508073ffffffffffffffffffffffffffffffffffffffff16600073ffffffffffffffffffffffffffffffffffffffff167f8be0079c531659141344cd1fd0a4f28419497f9722a3daafe3b4186f6b6457e060405160405180910390a3506100c0565b600033905090565b612850806100cf6000396000f3fe608060405234801561001057600080fd5b506004361061014d5760003560e01c80637b103999116100c3578063a91ee0dc1161007c578063a91ee0dc1461068b578063b921e163146106cf578063c4d66de8146106fd578063dd62ed3e14610741578063e1d6aceb146107b9578063f2fde38b146108745761014d565b80637b103999146104865780638da5cb5b146104d05780638f32d59b1461051a57806395d89b411461053c578063a457c2d7146105bf578063a9059cbb146106255761014d565b8063313ce56711610115578063313ce56714610301578063395093511461032557806340c10f191461038b57806354255be0146103f157806370a0823114610424578063715018a61461047c5761014d565b806306fdde0314610152578063095ea7b3146101d5578063158ef93e1461023b57806318160ddd1461025d57806323b872dd1461027b575b600080fd5b61015a6108b8565b6040518080602001828103825283818151815260200191508051906020019080838360005b8381101561019a57808201518184015260208101905061017f565b50505050905090810190601f1680156101c75780820380516001836020036101000a031916815260200191505b509250505060405180910390f35b610221600480360360408110156101eb57600080fd5b81019080803573ffffffffffffffffffffffffffffffffffffffff169060200190929190803590602001909291905050506108f5565b604051808215151515815260200191505060405180910390f35b610243610a89565b604051808215151515815260200191505060405180910390f35b610265610a9b565b6040518082815260200191505060405180910390f35b6102e76004803603606081101561029157600080fd5b81019080803573ffffffffffffffffffffffffffffffffffffffff169060200190929190803573ffffffffffffffffffffffffffffffffffffffff16906020019092919080359060200190929190505050610aa5565b604051808215151515815260200191505060405180910390f35b6103096110b2565b604051808260ff1660ff16815260200191505060405180910390f35b6103716004803603604081101561033b57600080fd5b81019080803573ffffffffffffffffffffffffffffffffffffffff169060200190929190803590602001909291905050506110bb565b604051808215151515815260200191505060405180910390f35b6103d7600480360360408110156103a157600080fd5b81019080803573ffffffffffffffffffffffffffffffffffffffff169060200190929190803590602001909291905050506112e9565b604051808215151515815260200191505060405180910390f35b6103f961166c565b6040518085815260200184815260200183815260200182815260200194505050505060405180910390f35b6104666004803603602081101561043a57600080fd5b81019080803573ffffffffffffffffffffffffffffffffffffffff169060200190929190505050611693565b6040518082815260200191505060405180910390f35b6104846116b4565b005b61048e6117ee565b604051808273ffffffffffffffffffffffffffffffffffffffff1673ffffffffffffffffffffffffffffffffffffffff16815260200191505060405180910390f35b6104d8611814565b604051808273ffffffffffffffffffffffffffffffffffffffff1673ffffffffffffffffffffffffffffffffffffffff16815260200191505060405180910390f35b61052261183d565b604051808215151515815260200191505060405180910390f35b61054461189b565b6040518080602001828103825283818151815260200191508051906020019080838360005b83811015610584578082015181840152602081019050610569565b50505050905090810190601f1680156105b15780820380516001836020036101000a031916815260200191505b509250505060405180910390f35b61060b600480360360408110156105d557600080fd5b81019080803573ffffffffffffffffffffffffffffffffffffffff169060200190929190803590602001909291905050506118d8565b604051808215151515815260200191505060405180910390f35b6106716004803603604081101561063b57600080fd5b81019080803573ffffffffffffffffffffffffffffffffffffffff16906020019092919080359060200190929190505050611a63565b604051808215151515815260200191505060405180910390f35b6106cd600480360360208110156106a157600080fd5b81019080803573ffffffffffffffffffffffffffffffffffffffff169060200190929190505050611a77565b005b6106fb600480360360208110156106e557600080fd5b8101908080359060200190929190505050611c1b565b005b61073f6004803603602081101561071357600080fd5b81019080803573ffffffffffffffffffffffffffffffffffffffff169060200190929190505050611cdb565b005b6107a36004803603604081101561075757600080fd5b81019080803573ffffffffffffffffffffffffffffffffffffffff169060200190929190803573ffffffffffffffffffffffffffffffffffffffff169060200190929190505050611d94565b6040518082815260200191505060405180910390f35b61085a600480360360608110156107cf57600080fd5b81019080803573ffffffffffffffffffffffffffffffffffffffff169060200190929190803590602001909291908035906020019064010000000081111561081657600080fd5b82018360208201111561082857600080fd5b8035906020019184600183028401116401000000008311171561084a57600080fd5b9091929391929390505050611e1b565b604051808215151515815260200191505060405180910390f35b6108b66004803603602081101561088a57600080fd5b81019080803573ffffffffffffffffffffffffffffffffffffffff169060200190929190505050611e99565b005b60606040518060400160405280600981526020017f43656c6f20476f6c640000000000000000000000000000000000000000000000815250905090565b60008073ffffffffffffffffffffffffffffffffffffffff168373ffffffffffffffffffffffffffffffffffffffff161415610999576040517f08c379a000000000000000000000000000000000000000000000000000000000815260040180806020018281038252601a8152602001807f63616e6e6f742073657420616c6c6f77616e636520666f72203000000000000081525060200191505060405180910390fd5b81600360003373ffffffffffffffffffffffffffffffffffffffff1673ffffffffffffffffffffffffffffffffffffffff16815260200190815260200160002060008573ffffffffffffffffffffffffffffffffffffffff1673ffffffffffffffffffffffffffffffffffffffff168152602001908152602001600020819055508273ffffffffffffffffffffffffffffffffffffffff163373ffffffffffffffffffffffffffffffffffffffff167f8c5be1e5ebec7d5bd14f71427d1e84f3dd0314c0f7b2291e5b200ac8c7c3b925846040518082815260200191505060405180910390a36001905092915050565b6000809054906101000a900460ff1681565b6000600254905090565b6000610aaf611f1f565b73ffffffffffffffffffffffffffffffffffffffff1663e5839836306040518263ffffffff1660e01b8152600401808273ffffffffffffffffffffffffffffffffffffffff1673ffffffffffffffffffffffffffffffffffffffff16815260200191505060206040518083038186803b158015610b2b57600080fd5b505afa158015610b3f573d6000803e3d6000fd5b505050506040513d6020811015610b5557600080fd5b810190808051906020019092919050505015610bbc576040517f08c379a000000000000000000000000000000000000000000000000000000000815260040180806020018281038252602281526020018061276f6022913960400191505060405180910390fd5b600073ffffffffffffffffffffffffffffffffffffffff168373ffffffffffffffffffffffffffffffffffffffff161415610c42576040517f08c379a000000000000000000000000000000000000000000000000000000000815260040180806020018281038252602a8152602001806127f2602a913960400191505060405180910390fd5b610c4b84611693565b821115610ca3576040517f08c379a00000000000000000000000000000000000000000000000000000000081526004018080602001828103825260298152602001806127916029913960400191505060405180910390fd5b600360008573ffffffffffffffffffffffffffffffffffffffff1673ffffffffffffffffffffffffffffffffffffffff16815260200190815260200160002060003373ffffffffffffffffffffffffffffffffffffffff1673ffffffffffffffffffffffffffffffffffffffff16815260200190815260200160002054821115610d78576040517f08c379a00000000000000000000000000000000000000000000000000000000081526004018080602001828103825260388152602001806127ba6038913960400191505060405180910390fd5b600060fd73ffffffffffffffffffffffffffffffffffffffff1660005a90878787604051602001808473ffffffffffffffffffffffffffffffffffffffff1673ffffffffffffffffffffffffffffffffffffffff1681526020018373ffffffffffffffffffffffffffffffffffffffff1673ffffffffffffffffffffffffffffffffffffffff16815260200182815260200193505050506040516020818303038152906040526040518082805190602001908083835b60208310610e515780518252602082019150602081019050602083039250610e2e565b6001836020036101000a038019825116818451168082178552505050505050905001915050600060405180830381858888f193505050503d8060008114610eb4576040519150601f19603f3d011682016040523d82523d6000602084013e610eb9565b606091505b50508091505080610f32576040517f08c379a00000000000000000000000000000000000000000000000000000000081526004018080602001828103825260198152602001807f43656c6f20476f6c64207472616e73666572206661696c65640000000000000081525060200191505060405180910390fd5b610fc183600360008873ffffffffffffffffffffffffffffffffffffffff1673ffffffffffffffffffffffffffffffffffffffff16815260200190815260200160002060003373ffffffffffffffffffffffffffffffffffffffff1673ffffffffffffffffffffffffffffffffffffffff1681526020019081526020016000205461201a90919063ffffffff16565b600360008773ffffffffffffffffffffffffffffffffffffffff1673ffffffffffffffffffffffffffffffffffffffff16815260200190815260200160002060003373ffffffffffffffffffffffffffffffffffffffff1673ffffffffffffffffffffffffffffffffffffffff168152602001908152602001600020819055508373ffffffffffffffffffffffffffffffffffffffff168573ffffffffffffffffffffffffffffffffffffffff167fddf252ad1be2c89b69c2b068fc378daa952ba7f163c4a11628f55a4df523b3ef856040518082815260200191505060405180910390a360019150509392505050565b60006012905090565b60008073ffffffffffffffffffffffffffffffffffffffff168373ffffffffffffffffffffffffffffffffffffffff16141561115f576040517f08c379a000000000000000000000000000000000000000000000000000000000815260040180806020018281038252601a8152602001807f63616e6e6f742073657420616c6c6f77616e636520666f72203000000000000081525060200191505060405180910390fd5b6000600360003373ffffffffffffffffffffffffffffffffffffffff1673ffffffffffffffffffffffffffffffffffffffff16815260200190815260200160002060008573ffffffffffffffffffffffffffffffffffffffff1673ffffffffffffffffffffffffffffffffffffffff16815260200190815260200160002054905060006111f5848361206490919063ffffffff16565b905080600360003373ffffffffffffffffffffffffffffffffffffffff1673ffffffffffffffffffffffffffffffffffffffff16815260200190815260200160002060008773ffffffffffffffffffffffffffffffffffffffff1673ffffffffffffffffffffffffffffffffffffffff168152602001908152602001600020819055508473ffffffffffffffffffffffffffffffffffffffff163373ffffffffffffffffffffffffffffffffffffffff167f8c5be1e5ebec7d5bd14f71427d1e84f3dd0314c0f7b2291e5b200ac8c7c3b925836040518082815260200191505060405180910390a360019250505092915050565b60008073ffffffffffffffffffffffffffffffffffffffff163373ffffffffffffffffffffffffffffffffffffffff161461138c576040517f08c379a00000000000000000000000000000000000000000000000000000000081526004018080602001828103825260108152602001807f4f6e6c7920564d2063616e2063616c6c0000000000000000000000000000000081525060200191505060405180910390fd5b600082141561139e5760019050611666565b600073ffffffffffffffffffffffffffffffffffffffff168373ffffffffffffffffffffffffffffffffffffffff161415611424576040517f08c379a00000000000000000000000000000000000000000000000000000000081526004018080602001828103825260268152602001806127236026913960400191505060405180910390fd5b6114398260025461206490919063ffffffff16565b600281905550600060fd73ffffffffffffffffffffffffffffffffffffffff1660005a9060008787604051602001808473ffffffffffffffffffffffffffffffffffffffff1673ffffffffffffffffffffffffffffffffffffffff1681526020018373ffffffffffffffffffffffffffffffffffffffff1673ffffffffffffffffffffffffffffffffffffffff16815260200182815260200193505050506040516020818303038152906040526040518082805190602001908083835b6020831061151957805182526020820191506020810190506020830392506114f6565b6001836020036101000a038019825116818451168082178552505050505050905001915050600060405180830381858888f193505050503d806000811461157c576040519150601f19603f3d011682016040523d82523d6000602084013e611581565b606091505b505080915050806115fa576040517f08c379a00000000000000000000000000000000000000000000000000000000081526004018080602001828103825260198152602001807f43656c6f20476f6c64207472616e73666572206661696c65640000000000000081525060200191505060405180910390fd5b8373ffffffffffffffffffffffffffffffffffffffff16600073ffffffffffffffffffffffffffffffffffffffff167fddf252ad1be2c89b69c2b068fc378daa952ba7f163c4a11628f55a4df523b3ef856040518082815260200191505060405180910390a360019150505b92915050565b60008060008060018060016000839350829250819150809050935093509350935090919293565b60008173ffffffffffffffffffffffffffffffffffffffff16319050919050565b6116bc61183d565b61172e576040517f08c379a00000000000000000000000000000000000000000000000000000000081526004018080602001828103825260208152602001807f4f776e61626c653a2063616c6c6572206973206e6f7420746865206f776e657281525060200191505060405180910390fd5b600073ffffffffffffffffffffffffffffffffffffffff16600060019054906101000a900473ffffffffffffffffffffffffffffffffffffffff1673ffffffffffffffffffffffffffffffffffffffff167f8be0079c531659141344cd1fd0a4f28419497f9722a3daafe3b4186f6b6457e060405160405180910390a360008060016101000a81548173ffffffffffffffffffffffffffffffffffffffff021916908373ffffffffffffffffffffffffffffffffffffffff160217905550565b600160009054906101000a900473ffffffffffffffffffffffffffffffffffffffff1681565b60008060019054906101000a900473ffffffffffffffffffffffffffffffffffffffff16905090565b60008060019054906101000a900473ffffffffffffffffffffffffffffffffffffffff1673ffffffffffffffffffffffffffffffffffffffff1661187f6120ec565b73ffffffffffffffffffffffffffffffffffffffff1614905090565b60606040518060400160405280600481526020017f63474c4400000000000000000000000000000000000000000000000000000000815250905090565b600080600360003373ffffffffffffffffffffffffffffffffffffffff1673ffffffffffffffffffffffffffffffffffffffff16815260200190815260200160002060008573ffffffffffffffffffffffffffffffffffffffff1673ffffffffffffffffffffffffffffffffffffffff168152602001908152602001600020549050600061196f848361201a90919063ffffffff16565b905080600360003373ffffffffffffffffffffffffffffffffffffffff1673ffffffffffffffffffffffffffffffffffffffff16815260200190815260200160002060008773ffffffffffffffffffffffffffffffffffffffff1673ffffffffffffffffffffffffffffffffffffffff168152602001908152602001600020819055508473ffffffffffffffffffffffffffffffffffffffff163373ffffffffffffffffffffffffffffffffffffffff167f8c5be1e5ebec7d5bd14f71427d1e84f3dd0314c0f7b2291e5b200ac8c7c3b925836040518082815260200191505060405180910390a360019250505092915050565b6000611a6f83836120f4565b905092915050565b611a7f61183d565b611af1576040517f08c379a00000000000000000000000000000000000000000000000000000000081526004018080602001828103825260208152602001807f4f776e61626c653a2063616c6c6572206973206e6f7420746865206f776e657281525060200191505060405180910390fd5b600073ffffffffffffffffffffffffffffffffffffffff168173ffffffffffffffffffffffffffffffffffffffff161415611b94576040517f08c379a00000000000000000000000000000000000000000000000000000000081526004018080602001828103825260208152602001807f43616e6e6f7420726567697374657220746865206e756c6c206164647265737381525060200191505060405180910390fd5b80600160006101000a81548173ffffffffffffffffffffffffffffffffffffffff021916908373ffffffffffffffffffffffffffffffffffffffff1602179055508073ffffffffffffffffffffffffffffffffffffffff167f27fe5f0c1c3b1ed427cc63d0f05759ffdecf9aec9e18d31ef366fc8a6cb5dc3b60405160405180910390a250565b600073ffffffffffffffffffffffffffffffffffffffff163373ffffffffffffffffffffffffffffffffffffffff1614611cbd576040517f08c379a00000000000000000000000000000000000000000000000000000000081526004018080602001828103825260108152602001807f4f6e6c7920564d2063616e2063616c6c0000000000000000000000000000000081525060200191505060405180910390fd5b611cd28160025461206490919063ffffffff16565b60028190555050565b6000809054906101000a900460ff1615611d5d576040517f08c379a000000000000000000000000000000000000000000000000000000000815260040180806020018281038252601c8152602001807f636f6e747261637420616c726561647920696e697469616c697a65640000000081525060200191505060405180910390fd5b60016000806101000a81548160ff0219169083151502179055506000600281905550611d883361251c565b611d9181611a77565b50565b6000600360008473ffffffffffffffffffffffffffffffffffffffff1673ffffffffffffffffffffffffffffffffffffffff16815260200190815260200160002060008373ffffffffffffffffffffffffffffffffffffffff1673ffffffffffffffffffffffffffffffffffffffff16815260200190815260200160002054905092915050565b600080611e2886866120f4565b90507fe5d4e30fb8364e57bc4d662a07d0cf36f4c34552004c4c3624620a2c1d1c03dc848460405180806020018281038252848482818152602001925080828437600081840152601f19601f820116905080830192505050935050505060405180910390a180915050949350505050565b611ea161183d565b611f13576040517f08c379a00000000000000000000000000000000000000000000000000000000081526004018080602001828103825260208152602001807f4f776e61626c653a2063616c6c6572206973206e6f7420746865206f776e657281525060200191505060405180910390fd5b611f1c8161251c565b50565b6000600160009054906101000a900473ffffffffffffffffffffffffffffffffffffffff1673ffffffffffffffffffffffffffffffffffffffff1663dcf0aaed60405160200180807f467265657a6572000000000000000000000000000000000000000000000000008152506007019050604051602081830303815290604052805190602001206040518263ffffffff1660e01b81526004018082815260200191505060206040518083038186803b158015611fda57600080fd5b505afa158015611fee573d6000803e3d6000fd5b505050506040513d602081101561200457600080fd5b8101908080519060200190929190505050905090565b600061205c83836040518060400160405280601e81526020017f536166654d6174683a207375627472616374696f6e206f766572666c6f770000815250612662565b905092915050565b6000808284019050838110156120e2576040517f08c379a000000000000000000000000000000000000000000000000000000000815260040180806020018281038252601b8152602001807f536166654d6174683a206164646974696f6e206f766572666c6f77000000000081525060200191505060405180910390fd5b8091505092915050565b600033905090565b60006120fe611f1f565b73ffffffffffffffffffffffffffffffffffffffff1663e5839836306040518263ffffffff1660e01b8152600401808273ffffffffffffffffffffffffffffffffffffffff1673ffffffffffffffffffffffffffffffffffffffff16815260200191505060206040518083038186803b15801561217a57600080fd5b505afa15801561218e573d6000803e3d6000fd5b505050506040513d60208110156121a457600080fd5b81019080805190602001909291905050501561220b576040517f08c379a000000000000000000000000000000000000000000000000000000000815260040180806020018281038252602281526020018061276f6022913960400191505060405180910390fd5b600073ffffffffffffffffffffffffffffffffffffffff168373ffffffffffffffffffffffffffffffffffffffff161415612291576040517f08c379a000000000000000000000000000000000000000000000000000000000815260040180806020018281038252602a8152602001806127f2602a913960400191505060405180910390fd5b61229a33611693565b8211156122f2576040517f08c379a00000000000000000000000000000000000000000000000000000000081526004018080602001828103825260298152602001806127916029913960400191505060405180910390fd5b600060fd73ffffffffffffffffffffffffffffffffffffffff1660005a90338787604051602001808473ffffffffffffffffffffffffffffffffffffffff1673ffffffffffffffffffffffffffffffffffffffff1681526020018373ffffffffffffffffffffffffffffffffffffffff1673ffffffffffffffffffffffffffffffffffffffff16815260200182815260200193505050506040516020818303038152906040526040518082805190602001908083835b602083106123cb57805182526020820191506020810190506020830392506123a8565b6001836020036101000a038019825116818451168082178552505050505050905001915050600060405180830381858888f193505050503d806000811461242e576040519150601f19603f3d011682016040523d82523d6000602084013e612433565b606091505b505080915050806124ac576040517f08c379a00000000000000000000000000000000000000000000000000000000081526004018080602001828103825260198152602001807f43656c6f20476f6c64207472616e73666572206661696c65640000000000000081525060200191505060405180910390fd5b8373ffffffffffffffffffffffffffffffffffffffff163373ffffffffffffffffffffffffffffffffffffffff167fddf252ad1be2c89b69c2b068fc378daa952ba7f163c4a11628f55a4df523b3ef856040518082815260200191505060405180910390a3600191505092915050565b600073ffffffffffffffffffffffffffffffffffffffff168173ffffffffffffffffffffffffffffffffffffffff1614156125a2576040517f08c379a00000000000000000000000000000000000000000000000000000000081526004018080602001828103825260268152602001806127496026913960400191505060405180910390fd5b8073ffffffffffffffffffffffffffffffffffffffff16600060019054906101000a900473ffffffffffffffffffffffffffffffffffffffff1673ffffffffffffffffffffffffffffffffffffffff167f8be0079c531659141344cd1fd0a4f28419497f9722a3daafe3b4186f6b6457e060405160405180910390a380600060016101000a81548173ffffffffffffffffffffffffffffffffffffffff021916908373ffffffffffffffffffffffffffffffffffffffff16021790555050565b600083831115829061270f576040517f08c379a00000000000000000000000000000000000000000000000000000000081526004018080602001828103825283818151815260200191508051906020019080838360005b838110156126d45780820151818401526020810190506126b9565b50505050905090810190601f1680156127015780820380516001836020036101000a031916815260200191505b509250505060405180910390fd5b506000838503905080915050939250505056fe6d696e7420617474656d7074656420746f2072657365727665642061646472657373203078304f776e61626c653a206e6577206f776e657220697320746865207a65726f206164647265737363616e27742063616c6c207768656e20636f6e74726163742069732066726f7a656e7472616e736665722076616c75652065786365656465642062616c616e6365206f662073656e6465727472616e736665722076616c75652065786365656465642073656e646572277320616c6c6f77616e636520666f7220726563697069656e747472616e7366657220617474656d7074656420746f207265736572766564206164647265737320307830a265627a7a72315820238c40520845d2fe0802dd1d7110852662b7c8066157fda51f6877169a05308164736f6c634300050d0032",
  "source": "pragma solidity ^0.5.13;\r\n\r\nimport \"openzeppelin-solidity/contracts/math/SafeMath.sol\";\r\nimport \"openzeppelin-solidity/contracts/token/ERC20/IERC20.sol\";\r\n\r\nimport \"./CalledByVm.sol\";\r\nimport \"./Freezable.sol\";\r\nimport \"./Initializable.sol\";\r\nimport \"./interfaces/ICeloToken.sol\";\r\nimport \"../common/interfaces/ICeloVersionedContract.sol\";\r\n\r\ncontract GoldToken is\r\n  Initializable,\r\n  CalledByVm,\r\n  Freezable,\r\n  IERC20,\r\n  ICeloToken,\r\n  ICeloVersionedContract\r\n{\r\n  using SafeMath for uint256;\r\n\r\n  // Address of the TRANSFER precompiled contract.\r\n  // solhint-disable state-visibility\r\n  address constant TRANSFER = address(0xff - 2);\r\n  string constant NAME = \"Celo Gold\";\r\n  string constant SYMBOL = \"cGLD\";\r\n  uint8 constant DECIMALS = 18;\r\n  uint256 internal totalSupply_;\r\n  // solhint-enable state-visibility\r\n\r\n  mapping(address => mapping(address => uint256)) internal allowed;\r\n\r\n  event Transfer(address indexed from, address indexed to, uint256 value);\r\n\r\n  event TransferComment(string comment);\r\n\r\n  event Approval(address indexed owner, address indexed spender, uint256 value);\r\n\r\n  /**\r\n   * @notice Returns the storage, major, minor, and patch version of the contract.\r\n   * @return The storage, major, minor, and patch version of the contract.\r\n   */\r\n  function getVersionNumber() external pure returns (uint256, uint256, uint256, uint256) {\r\n    return (1, 1, 1, 0);\r\n  }\r\n\r\n  /**\r\n   * @notice Used in place of the constructor to allow the contract to be upgradable via proxy.\r\n   * @param registryAddress Address of the Registry contract.\r\n   */\r\n  function initialize(address registryAddress) external initializer {\r\n    totalSupply_ = 0;\r\n    _transferOwnership(msg.sender);\r\n    setRegistry(registryAddress);\r\n  }\r\n\r\n  /**\r\n   * @notice Transfers Celo Gold from one address to another.\r\n   * @param to The address to transfer Celo Gold to.\r\n   * @param value The amount of Celo Gold to transfer.\r\n   * @return True if the transaction succeeds.\r\n   */\r\n  // solhint-disable-next-line no-simple-event-func-name\r\n  function transfer(address to, uint256 value) external returns (bool) {\r\n    return _transfer(to, value);\r\n  }\r\n\r\n  /**\r\n   * @notice Transfers Celo Gold from one address to another with a comment.\r\n   * @param to The address to transfer Celo Gold to.\r\n   * @param value The amount of Celo Gold to transfer.\r\n   * @param comment The transfer comment\r\n   * @return True if the transaction succeeds.\r\n   */\r\n  function transferWithComment(address to, uint256 value, string calldata comment)\r\n    external\r\n    returns (bool)\r\n  {\r\n    bool succeeded = _transfer(to, value);\r\n    emit TransferComment(comment);\r\n    return succeeded;\r\n  }\r\n\r\n  /**\r\n   * @notice Approve a user to transfer Celo Gold on behalf of another user.\r\n   * @param spender The address which is being approved to spend Celo Gold.\r\n   * @param value The amount of Celo Gold approved to the spender.\r\n   * @return True if the transaction succeeds.\r\n   */\r\n  function approve(address spender, uint256 value) external returns (bool) {\r\n    require(spender != address(0), \"cannot set allowance for 0\");\r\n    allowed[msg.sender][spender] = value;\r\n    emit Approval(msg.sender, spender, value);\r\n    return true;\r\n  }\r\n\r\n  /**\r\n   * @notice Increases the allowance of another user.\r\n   * @param spender The address which is being approved to spend Celo Gold.\r\n   * @param value The increment of the amount of Celo Gold approved to the spender.\r\n   * @return True if the transaction succeeds.\r\n   */\r\n  function increaseAllowance(address spender, uint256 value) external returns (bool) {\r\n    require(spender != address(0), \"cannot set allowance for 0\");\r\n    uint256 oldValue = allowed[msg.sender][spender];\r\n    uint256 newValue = oldValue.add(value);\r\n    allowed[msg.sender][spender] = newValue;\r\n    emit Approval(msg.sender, spender, newValue);\r\n    return true;\r\n  }\r\n\r\n  /**\r\n   * @notice Decreases the allowance of another user.\r\n   * @param spender The address which is being approved to spend Celo Gold.\r\n   * @param value The decrement of the amount of Celo Gold approved to the spender.\r\n   * @return True if the transaction succeeds.\r\n   */\r\n  function decreaseAllowance(address spender, uint256 value) external returns (bool) {\r\n    uint256 oldValue = allowed[msg.sender][spender];\r\n    uint256 newValue = oldValue.sub(value);\r\n    allowed[msg.sender][spender] = newValue;\r\n    emit Approval(msg.sender, spender, newValue);\r\n    return true;\r\n  }\r\n\r\n  /**\r\n   * @notice Transfers Celo Gold from one address to another on behalf of a user.\r\n   * @param from The address to transfer Celo Gold from.\r\n   * @param to The address to transfer Celo Gold to.\r\n   * @param value The amount of Celo Gold to transfer.\r\n   * @return True if the transaction succeeds.\r\n   */\r\n  function transferFrom(address from, address to, uint256 value)\r\n    external\r\n    onlyWhenNotFrozen\r\n    returns (bool)\r\n  {\r\n    require(to != address(0), \"transfer attempted to reserved address 0x0\");\r\n    require(value <= balanceOf(from), \"transfer value exceeded balance of sender\");\r\n    require(\r\n      value <= allowed[from][msg.sender],\r\n      \"transfer value exceeded sender's allowance for recipient\"\r\n    );\r\n\r\n    bool success;\r\n    (success, ) = TRANSFER.call.value(0).gas(gasleft())(abi.encode(from, to, value));\r\n    require(success, \"Celo Gold transfer failed\");\r\n\r\n    allowed[from][msg.sender] = allowed[from][msg.sender].sub(value);\r\n    emit Transfer(from, to, value);\r\n    return true;\r\n  }\r\n\r\n  /**\r\n   * @notice Mints new cGLD and gives it to 'to'.\r\n   * @param to The account for which to mint tokens.\r\n   * @param value The amount of cGLD to mint.\r\n   */\r\n  function mint(address to, uint256 value) external onlyVm returns (bool) {\r\n    if (value == 0) {\r\n      return true;\r\n    }\r\n\r\n    require(to != address(0), \"mint attempted to reserved address 0x0\");\r\n    totalSupply_ = totalSupply_.add(value);\r\n\r\n    bool success;\r\n    (success, ) = TRANSFER.call.value(0).gas(gasleft())(abi.encode(address(0), to, value));\r\n    require(success, \"Celo Gold transfer failed\");\r\n\r\n    emit Transfer(address(0), to, value);\r\n    return true;\r\n  }\r\n\r\n  /**\r\n   * @return The name of the Celo Gold token.\r\n   */\r\n  function name() external view returns (string memory) {\r\n    return NAME;\r\n  }\r\n\r\n  /**\r\n   * @return The symbol of the Celo Gold token.\r\n   */\r\n  function symbol() external view returns (string memory) {\r\n    return SYMBOL;\r\n  }\r\n\r\n  /**\r\n   * @return The number of decimal places to which Celo Gold is divisible.\r\n   */\r\n  function decimals() external view returns (uint8) {\r\n    return DECIMALS;\r\n  }\r\n\r\n  /**\r\n   * @return The total amount of Celo Gold in existence.\r\n   */\r\n  function totalSupply() external view returns (uint256) {\r\n    return totalSupply_;\r\n  }\r\n\r\n  /**\r\n   * @notice Gets the amount of owner's Celo Gold allowed to be spent by spender.\r\n   * @param owner The owner of the Celo Gold.\r\n   * @param spender The spender of the Celo Gold.\r\n   * @return The amount of Celo Gold owner is allowing spender to spend.\r\n   */\r\n  function allowance(address owner, address spender) external view returns (uint256) {\r\n    return allowed[owner][spender];\r\n  }\r\n\r\n  /**\r\n   * @notice Increases the variable for total amount of Celo Gold in existence.\r\n   * @param amount The amount to increase counter by\r\n   */\r\n  function increaseSupply(uint256 amount) external onlyVm {\r\n    totalSupply_ = totalSupply_.add(amount);\r\n  }\r\n\r\n  /**\r\n   * @notice Gets the balance of the specified address.\r\n   * @param owner The address to query the balance of.\r\n   * @return The balance of the specified address.\r\n   */\r\n  function balanceOf(address owner) public view returns (uint256) {\r\n    return owner.balance;\r\n  }\r\n\r\n  /**\r\n   * @notice internal Celo Gold transfer from one address to another.\r\n   * @param to The address to transfer Celo Gold to.\r\n   * @param value The amount of Celo Gold to transfer.\r\n   * @return True if the transaction succeeds.\r\n   */\r\n  function _transfer(address to, uint256 value) internal onlyWhenNotFrozen returns (bool) {\r\n    require(to != address(0), \"transfer attempted to reserved address 0x0\");\r\n    require(value <= balanceOf(msg.sender), \"transfer value exceeded balance of sender\");\r\n\r\n    bool success;\r\n    (success, ) = TRANSFER.call.value(0).gas(gasleft())(abi.encode(msg.sender, to, value));\r\n    require(success, \"Celo Gold transfer failed\");\r\n    emit Transfer(msg.sender, to, value);\r\n    return true;\r\n  }\r\n}\r\n",
  "sourcePath": "D:\\Work\\celo-monorepo\\packages\\protocol\\contracts\\common\\GoldToken.sol",
  "compiler": {
    "name": "solc",
    "version": "0.5.13+commit.5b0b510c.Emscripten.clang"
  },
  "schemaVersion": "3.0.23",
  "updatedAt": "2021-02-08T13:54:47.417Z",
  "devdoc": {
    "methods": {
      "allowance(address,address)": {
        "params": {
          "owner": "The owner of the Celo Gold.",
          "spender": "The spender of the Celo Gold."
        },
        "return": "The amount of Celo Gold owner is allowing spender to spend."
      },
      "approve(address,uint256)": {
        "params": {
          "spender": "The address which is being approved to spend Celo Gold.",
          "value": "The amount of Celo Gold approved to the spender."
        },
        "return": "True if the transaction succeeds."
      },
      "balanceOf(address)": {
        "params": {
          "owner": "The address to query the balance of."
        },
        "return": "The balance of the specified address."
      },
      "decimals()": {
        "return": "The number of decimal places to which Celo Gold is divisible."
      },
      "decreaseAllowance(address,uint256)": {
        "params": {
          "spender": "The address which is being approved to spend Celo Gold.",
          "value": "The decrement of the amount of Celo Gold approved to the spender."
        },
        "return": "True if the transaction succeeds."
      },
      "getVersionNumber()": {
        "return": "The storage, major, minor, and patch version of the contract."
      },
      "increaseAllowance(address,uint256)": {
        "params": {
          "spender": "The address which is being approved to spend Celo Gold.",
          "value": "The increment of the amount of Celo Gold approved to the spender."
        },
        "return": "True if the transaction succeeds."
      },
      "increaseSupply(uint256)": {
        "params": {
          "amount": "The amount to increase counter by"
        }
      },
      "initialize(address)": {
        "params": {
          "registryAddress": "Address of the Registry contract."
        }
      },
      "isOwner()": {
        "details": "Returns true if the caller is the current owner."
      },
      "mint(address,uint256)": {
        "params": {
          "to": "The account for which to mint tokens.",
          "value": "The amount of cGLD to mint."
        }
      },
      "name()": {
        "return": "The name of the Celo Gold token."
      },
      "owner()": {
        "details": "Returns the address of the current owner."
      },
      "renounceOwnership()": {
        "details": "Leaves the contract without owner. It will not be possible to call `onlyOwner` functions anymore. Can only be called by the current owner.     * NOTE: Renouncing ownership will leave the contract without an owner, thereby removing any functionality that is only available to the owner."
      },
      "setRegistry(address)": {
        "params": {
          "registryAddress": "The address of a registry contract for routing to other contracts."
        }
      },
      "symbol()": {
        "return": "The symbol of the Celo Gold token."
      },
      "totalSupply()": {
        "return": "The total amount of Celo Gold in existence."
      },
      "transfer(address,uint256)": {
        "params": {
          "to": "The address to transfer Celo Gold to.",
          "value": "The amount of Celo Gold to transfer."
        },
        "return": "True if the transaction succeeds."
      },
      "transferFrom(address,address,uint256)": {
        "params": {
          "from": "The address to transfer Celo Gold from.",
          "to": "The address to transfer Celo Gold to.",
          "value": "The amount of Celo Gold to transfer."
        },
        "return": "True if the transaction succeeds."
      },
      "transferOwnership(address)": {
        "details": "Transfers ownership of the contract to a new account (`newOwner`). Can only be called by the current owner."
      },
      "transferWithComment(address,uint256,string)": {
        "params": {
          "comment": "The transfer comment",
          "to": "The address to transfer Celo Gold to.",
          "value": "The amount of Celo Gold to transfer."
        },
        "return": "True if the transaction succeeds."
      }
    }
  },
  "userdoc": {
    "methods": {
      "allowance(address,address)": {
        "notice": "Gets the amount of owner's Celo Gold allowed to be spent by spender."
      },
      "approve(address,uint256)": {
        "notice": "Approve a user to transfer Celo Gold on behalf of another user."
      },
      "balanceOf(address)": {
        "notice": "Gets the balance of the specified address."
      },
      "decreaseAllowance(address,uint256)": {
        "notice": "Decreases the allowance of another user."
      },
      "getVersionNumber()": {
        "notice": "Returns the storage, major, minor, and patch version of the contract."
      },
      "increaseAllowance(address,uint256)": {
        "notice": "Increases the allowance of another user."
      },
      "increaseSupply(uint256)": {
        "notice": "Increases the variable for total amount of Celo Gold in existence."
      },
      "initialize(address)": {
        "notice": "Used in place of the constructor to allow the contract to be upgradable via proxy."
      },
      "mint(address,uint256)": {
        "notice": "Mints new cGLD and gives it to 'to'."
      },
      "setRegistry(address)": {
        "notice": "Updates the address pointing to a Registry contract."
      },
      "transfer(address,uint256)": {
        "notice": "Transfers Celo Gold from one address to another."
      },
      "transferFrom(address,address,uint256)": {
        "notice": "Transfers Celo Gold from one address to another on behalf of a user."
      },
      "transferWithComment(address,uint256,string)": {
        "notice": "Transfers Celo Gold from one address to another with a comment."
      }
    }
  }
}