{
  "contractName": "LockedGold",
  "abi": [
    {
      "anonymous": false,
      "inputs": [
        {
          "indexed": true,
          "internalType": "address",
          "name": "slashed",
          "type": "address"
        },
        {
          "indexed": false,
          "internalType": "uint256",
          "name": "penalty",
          "type": "uint256"
        },
        {
          "indexed": true,
          "internalType": "address",
          "name": "reporter",
          "type": "address"
        },
        {
          "indexed": false,
          "internalType": "uint256",
          "name": "reward",
          "type": "uint256"
        }
      ],
      "name": "AccountSlashed",
      "type": "event"
    },
    {
      "anonymous": false,
      "inputs": [
        {
          "indexed": true,
          "internalType": "address",
          "name": "account",
          "type": "address"
        },
        {
          "indexed": false,
          "internalType": "uint256",
          "name": "value",
          "type": "uint256"
        }
      ],
      "name": "GoldLocked",
      "type": "event"
    },
    {
      "anonymous": false,
      "inputs": [
        {
          "indexed": true,
          "internalType": "address",
          "name": "account",
          "type": "address"
        },
        {
          "indexed": false,
          "internalType": "uint256",
          "name": "value",
          "type": "uint256"
        }
      ],
      "name": "GoldRelocked",
      "type": "event"
    },
    {
      "anonymous": false,
      "inputs": [
        {
          "indexed": true,
          "internalType": "address",
          "name": "account",
          "type": "address"
        },
        {
          "indexed": false,
          "internalType": "uint256",
          "name": "value",
          "type": "uint256"
        },
        {
          "indexed": false,
          "internalType": "uint256",
          "name": "available",
          "type": "uint256"
        }
      ],
      "name": "GoldUnlocked",
      "type": "event"
    },
    {
      "anonymous": false,
      "inputs": [
        {
          "indexed": true,
          "internalType": "address",
          "name": "account",
          "type": "address"
        },
        {
          "indexed": false,
          "internalType": "uint256",
          "name": "value",
          "type": "uint256"
        }
      ],
      "name": "GoldWithdrawn",
      "type": "event"
    },
    {
      "anonymous": false,
      "inputs": [
        {
          "indexed": true,
          "internalType": "address",
          "name": "previousOwner",
          "type": "address"
        },
        {
          "indexed": true,
          "internalType": "address",
          "name": "newOwner",
          "type": "address"
        }
      ],
      "name": "OwnershipTransferred",
      "type": "event"
    },
    {
      "anonymous": false,
      "inputs": [
        {
          "indexed": true,
          "internalType": "address",
          "name": "registryAddress",
          "type": "address"
        }
      ],
      "name": "RegistrySet",
      "type": "event"
    },
    {
      "anonymous": false,
      "inputs": [
        {
          "indexed": true,
          "internalType": "string",
          "name": "slasherIdentifier",
          "type": "string"
        }
      ],
      "name": "SlasherWhitelistAdded",
      "type": "event"
    },
    {
      "anonymous": false,
      "inputs": [
        {
          "indexed": true,
          "internalType": "string",
          "name": "slasherIdentifier",
          "type": "string"
        }
      ],
      "name": "SlasherWhitelistRemoved",
      "type": "event"
    },
    {
      "anonymous": false,
      "inputs": [
        {
          "indexed": false,
          "internalType": "uint256",
          "name": "period",
          "type": "uint256"
        }
      ],
      "name": "UnlockingPeriodSet",
      "type": "event"
    },
    {
      "constant": true,
      "inputs": [],
      "name": "initialized",
      "outputs": [
        {
          "internalType": "bool",
          "name": "",
          "type": "bool"
        }
      ],
      "payable": false,
      "stateMutability": "view",
      "type": "function"
    },
    {
      "constant": true,
      "inputs": [],
      "name": "isOwner",
      "outputs": [
        {
          "internalType": "bool",
          "name": "",
          "type": "bool"
        }
      ],
      "payable": false,
      "stateMutability": "view",
      "type": "function"
    },
    {
      "constant": true,
      "inputs": [],
      "name": "owner",
      "outputs": [
        {
          "internalType": "address",
          "name": "",
          "type": "address"
        }
      ],
      "payable": false,
      "stateMutability": "view",
      "type": "function"
    },
    {
      "constant": true,
      "inputs": [],
      "name": "registry",
      "outputs": [
        {
          "internalType": "contract IRegistry",
          "name": "",
          "type": "address"
        }
      ],
      "payable": false,
      "stateMutability": "view",
      "type": "function"
    },
    {
      "constant": false,
      "inputs": [],
      "name": "renounceOwnership",
      "outputs": [],
      "payable": false,
      "stateMutability": "nonpayable",
      "type": "function"
    },
    {
      "constant": false,
      "inputs": [
        {
          "internalType": "address",
          "name": "registryAddress",
          "type": "address"
        }
      ],
      "name": "setRegistry",
      "outputs": [],
      "payable": false,
      "stateMutability": "nonpayable",
      "type": "function"
    },
    {
      "constant": true,
      "inputs": [
        {
          "internalType": "uint256",
          "name": "",
          "type": "uint256"
        }
      ],
      "name": "slashingWhitelist",
      "outputs": [
        {
          "internalType": "bytes32",
          "name": "",
          "type": "bytes32"
        }
      ],
      "payable": false,
      "stateMutability": "view",
      "type": "function"
    },
    {
      "constant": true,
      "inputs": [],
      "name": "totalNonvoting",
      "outputs": [
        {
          "internalType": "uint256",
          "name": "",
          "type": "uint256"
        }
      ],
      "payable": false,
      "stateMutability": "view",
      "type": "function"
    },
    {
      "constant": false,
      "inputs": [
        {
          "internalType": "address",
          "name": "newOwner",
          "type": "address"
        }
      ],
      "name": "transferOwnership",
      "outputs": [],
      "payable": false,
      "stateMutability": "nonpayable",
      "type": "function"
    },
    {
      "constant": true,
      "inputs": [],
      "name": "unlockingPeriod",
      "outputs": [
        {
          "internalType": "uint256",
          "name": "",
          "type": "uint256"
        }
      ],
      "payable": false,
      "stateMutability": "view",
      "type": "function"
    },
    {
      "constant": true,
      "inputs": [
        {
          "internalType": "address",
          "name": "slasher",
          "type": "address"
        }
      ],
      "name": "isSlasher",
      "outputs": [
        {
          "internalType": "bool",
          "name": "",
          "type": "bool"
        }
      ],
      "payable": false,
      "stateMutability": "view",
      "type": "function"
    },
    {
      "constant": true,
      "inputs": [],
      "name": "getVersionNumber",
      "outputs": [
        {
          "internalType": "uint256",
          "name": "",
          "type": "uint256"
        },
        {
          "internalType": "uint256",
          "name": "",
          "type": "uint256"
        },
        {
          "internalType": "uint256",
          "name": "",
          "type": "uint256"
        },
        {
          "internalType": "uint256",
          "name": "",
          "type": "uint256"
        }
      ],
      "payable": false,
      "stateMutability": "pure",
      "type": "function"
    },
    {
      "constant": false,
      "inputs": [
        {
          "internalType": "address",
          "name": "registryAddress",
          "type": "address"
        },
        {
          "internalType": "uint256",
          "name": "_unlockingPeriod",
          "type": "uint256"
        }
      ],
      "name": "initialize",
      "outputs": [],
      "payable": false,
      "stateMutability": "nonpayable",
      "type": "function"
    },
    {
      "constant": false,
      "inputs": [
        {
          "internalType": "uint256",
          "name": "value",
          "type": "uint256"
        }
      ],
      "name": "setUnlockingPeriod",
      "outputs": [],
      "payable": false,
      "stateMutability": "nonpayable",
      "type": "function"
    },
    {
      "constant": false,
      "inputs": [],
      "name": "lock",
      "outputs": [],
      "payable": true,
      "stateMutability": "payable",
      "type": "function"
    },
    {
      "constant": false,
      "inputs": [
        {
          "internalType": "address",
          "name": "account",
          "type": "address"
        },
        {
          "internalType": "uint256",
          "name": "value",
          "type": "uint256"
        }
      ],
      "name": "incrementNonvotingAccountBalance",
      "outputs": [],
      "payable": false,
      "stateMutability": "nonpayable",
      "type": "function"
    },
    {
      "constant": false,
      "inputs": [
        {
          "internalType": "address",
          "name": "account",
          "type": "address"
        },
        {
          "internalType": "uint256",
          "name": "value",
          "type": "uint256"
        }
      ],
      "name": "decrementNonvotingAccountBalance",
      "outputs": [],
      "payable": false,
      "stateMutability": "nonpayable",
      "type": "function"
    },
    {
      "constant": false,
      "inputs": [
        {
          "internalType": "uint256",
          "name": "value",
          "type": "uint256"
        }
      ],
      "name": "unlock",
      "outputs": [],
      "payable": false,
      "stateMutability": "nonpayable",
      "type": "function"
    },
    {
      "constant": false,
      "inputs": [
        {
          "internalType": "uint256",
          "name": "index",
          "type": "uint256"
        },
        {
          "internalType": "uint256",
          "name": "value",
          "type": "uint256"
        }
      ],
      "name": "relock",
      "outputs": [],
      "payable": false,
      "stateMutability": "nonpayable",
      "type": "function"
    },
    {
      "constant": false,
      "inputs": [
        {
          "internalType": "uint256",
          "name": "index",
          "type": "uint256"
        }
      ],
      "name": "withdraw",
      "outputs": [],
      "payable": false,
      "stateMutability": "nonpayable",
      "type": "function"
    },
    {
      "constant": true,
      "inputs": [],
      "name": "getTotalLockedGold",
      "outputs": [
        {
          "internalType": "uint256",
          "name": "",
          "type": "uint256"
        }
      ],
      "payable": false,
      "stateMutability": "view",
      "type": "function"
    },
    {
      "constant": true,
      "inputs": [],
      "name": "getNonvotingLockedGold",
      "outputs": [
        {
          "internalType": "uint256",
          "name": "",
          "type": "uint256"
        }
      ],
      "payable": false,
      "stateMutability": "view",
      "type": "function"
    },
    {
      "constant": true,
      "inputs": [
        {
          "internalType": "address",
          "name": "account",
          "type": "address"
        }
      ],
      "name": "getAccountTotalLockedGold",
      "outputs": [
        {
          "internalType": "uint256",
          "name": "",
          "type": "uint256"
        }
      ],
      "payable": false,
      "stateMutability": "view",
      "type": "function"
    },
    {
      "constant": true,
      "inputs": [
        {
          "internalType": "address",
          "name": "account",
          "type": "address"
        }
      ],
      "name": "getAccountNonvotingLockedGold",
      "outputs": [
        {
          "internalType": "uint256",
          "name": "",
          "type": "uint256"
        }
      ],
      "payable": false,
      "stateMutability": "view",
      "type": "function"
    },
    {
      "constant": true,
      "inputs": [
        {
          "internalType": "address",
          "name": "account",
          "type": "address"
        }
      ],
      "name": "getPendingWithdrawals",
      "outputs": [
        {
          "internalType": "uint256[]",
          "name": "",
          "type": "uint256[]"
        },
        {
          "internalType": "uint256[]",
          "name": "",
          "type": "uint256[]"
        }
      ],
      "payable": false,
      "stateMutability": "view",
      "type": "function"
    },
    {
      "constant": true,
      "inputs": [
        {
          "internalType": "address",
          "name": "account",
          "type": "address"
        }
      ],
      "name": "getTotalPendingWithdrawals",
      "outputs": [
        {
          "internalType": "uint256",
          "name": "",
          "type": "uint256"
        }
      ],
      "payable": false,
      "stateMutability": "view",
      "type": "function"
    },
    {
      "constant": true,
      "inputs": [],
      "name": "getSlashingWhitelist",
      "outputs": [
        {
          "internalType": "bytes32[]",
          "name": "",
          "type": "bytes32[]"
        }
      ],
      "payable": false,
      "stateMutability": "view",
      "type": "function"
    },
    {
      "constant": false,
      "inputs": [
        {
          "internalType": "string",
          "name": "slasherIdentifier",
          "type": "string"
        }
      ],
      "name": "addSlasher",
      "outputs": [],
      "payable": false,
      "stateMutability": "nonpayable",
      "type": "function"
    },
    {
      "constant": false,
      "inputs": [
        {
          "internalType": "string",
          "name": "slasherIdentifier",
          "type": "string"
        },
        {
          "internalType": "uint256",
          "name": "index",
          "type": "uint256"
        }
      ],
      "name": "removeSlasher",
      "outputs": [],
      "payable": false,
      "stateMutability": "nonpayable",
      "type": "function"
    },
    {
      "constant": false,
      "inputs": [
        {
          "internalType": "address",
          "name": "account",
          "type": "address"
        },
        {
          "internalType": "uint256",
          "name": "penalty",
          "type": "uint256"
        },
        {
          "internalType": "address",
          "name": "reporter",
          "type": "address"
        },
        {
          "internalType": "uint256",
          "name": "reward",
          "type": "uint256"
        },
        {
          "internalType": "address[]",
          "name": "lessers",
          "type": "address[]"
        },
        {
          "internalType": "address[]",
          "name": "greaters",
          "type": "address[]"
        },
        {
          "internalType": "uint256[]",
          "name": "indices",
          "type": "uint256[]"
        }
      ],
      "name": "slash",
      "outputs": [],
      "payable": false,
      "stateMutability": "nonpayable",
      "type": "function"
    }
  ],
  "bytecode": "0x6080604052600160008190555060006200001e620000c260201b60201c565b9050806001806101000a81548173ffffffffffffffffffffffffffffffffffffffff021916908373ffffffffffffffffffffffffffffffffffffffff1602179055508073ffffffffffffffffffffffffffffffffffffffff16600073ffffffffffffffffffffffffffffffffffffffff167f8be0079c531659141344cd1fd0a4f28419497f9722a3daafe3b4186f6b6457e060405160405180910390a350620000ca565b600033905090565b61457980620000da6000396000f3fe6080604052600436106101cd5760003560e01c80636adcc938116100f7578063a91ee0dc11610095578063cd6dc68711610064578063cd6dc68714610acb578063f2fde38b14610b26578063f340c0d014610b77578063f83d08ba14610c65576101cd565b8063a91ee0dc146109a5578063b2fb30cb146109f6578063b6e1e49d14610a3b578063c1867f6d14610aa0576101cd565b80637b103999116100d15780637b1039991461089d578063807876b7146108f45780638da5cb5b1461091f5780638f32d59b14610976576101cd565b80636adcc938146107dc5780636edf77a51461082b578063715018a614610886576101cd565b806330ec70f51161016f57806357601c5d1161013e57806357601c5d146106775780636198e339146106e0578063648911981461071b57806366f0633b146107a1576101cd565b806330ec70f5146103e957806331993fc91461044e5780633f199b40146105d257806354255be014610637576101cd565b80631fe2dfda116101ab5780631fe2dfda146102c857806320637d8e146103585780632e1a7d4d1461038357806330a61d59146103be576101cd565b806308764ee2146101d2578063158ef93e1461023e57806318a4ff8c1461026d575b600080fd5b3480156101de57600080fd5b506101e7610c6f565b6040518080602001828103825283818151815260200191508051906020019060200280838360005b8381101561022a57808201518184015260208101905061020f565b505050509050019250505060405180910390f35b34801561024a57600080fd5b50610253610cc7565b604051808215151515815260200191505060405180910390f35b34801561027957600080fd5b506102c66004803603604081101561029057600080fd5b81019080803573ffffffffffffffffffffffffffffffffffffffff16906020019092919080359060200190929190505050610cda565b005b3480156102d457600080fd5b50610356600480360360408110156102eb57600080fd5b810190808035906020019064010000000081111561030857600080fd5b82018360208201111561031a57600080fd5b8035906020019184600183028401116401000000008311171561033c57600080fd5b909192939192939080359060200190929190505050610e7e565b005b34801561036457600080fd5b5061036d611164565b6040518082815260200191505060405180910390f35b34801561038f57600080fd5b506103bc600480360360208110156103a657600080fd5b810190808035906020019092919050505061116a565b005b3480156103ca57600080fd5b506103d361158c565b6040518082815260200191505060405180910390f35b3480156103f557600080fd5b506104386004803603602081101561040c57600080fd5b81019080803573ffffffffffffffffffffffffffffffffffffffff16906020019092919050505061162f565b6040518082815260200191505060405180910390f35b34801561045a57600080fd5b506105d0600480360360e081101561047157600080fd5b81019080803573ffffffffffffffffffffffffffffffffffffffff16906020019092919080359060200190929190803573ffffffffffffffffffffffffffffffffffffffff16906020019092919080359060200190929190803590602001906401000000008111156104e257600080fd5b8201836020820111156104f457600080fd5b8035906020019184602083028401116401000000008311171561051657600080fd5b90919293919293908035906020019064010000000081111561053757600080fd5b82018360208201111561054957600080fd5b8035906020019184602083028401116401000000008311171561056b57600080fd5b90919293919293908035906020019064010000000081111561058c57600080fd5b82018360208201111561059e57600080fd5b803590602001918460208302840111640100000000831117156105c057600080fd5b9091929391929390505050611750565b005b3480156105de57600080fd5b50610621600480360360208110156105f557600080fd5b81019080803573ffffffffffffffffffffffffffffffffffffffff169060200190929190505050611de5565b6040518082815260200191505060405180910390f35b34801561064357600080fd5b5061064c611e31565b6040518085815260200184815260200183815260200182815260200194505050505060405180910390f35b34801561068357600080fd5b506106c66004803603602081101561069a57600080fd5b81019080803573ffffffffffffffffffffffffffffffffffffffff169060200190929190505050611e57565b604051808215151515815260200191505060405180910390f35b3480156106ec57600080fd5b506107196004803603602081101561070357600080fd5b8101908080359060200190929190505050611f81565b005b34801561072757600080fd5b5061079f6004803603602081101561073e57600080fd5b810190808035906020019064010000000081111561075b57600080fd5b82018360208201111561076d57600080fd5b8035906020019184600183028401116401000000008311171561078f57600080fd5b90919293919293905050506124ed565b005b3480156107ad57600080fd5b506107da600480360360208110156107c457600080fd5b8101908080359060200190929190505050612827565b005b3480156107e857600080fd5b50610815600480360360208110156107ff57600080fd5b810190808035906020019092919050505061295a565b6040518082815260200191505060405180910390f35b34801561083757600080fd5b506108846004803603604081101561084e57600080fd5b81019080803573ffffffffffffffffffffffffffffffffffffffff1690602001909291908035906020019092919050505061297b565b005b34801561089257600080fd5b5061089b612b1f565b005b3480156108a957600080fd5b506108b2612c58565b604051808273ffffffffffffffffffffffffffffffffffffffff1673ffffffffffffffffffffffffffffffffffffffff16815260200191505060405180910390f35b34801561090057600080fd5b50610909612c7e565b6040518082815260200191505060405180910390f35b34801561092b57600080fd5b50610934612c88565b604051808273ffffffffffffffffffffffffffffffffffffffff1673ffffffffffffffffffffffffffffffffffffffff16815260200191505060405180910390f35b34801561098257600080fd5b5061098b612cb1565b604051808215151515815260200191505060405180910390f35b3480156109b157600080fd5b506109f4600480360360208110156109c857600080fd5b81019080803573ffffffffffffffffffffffffffffffffffffffff169060200190929190505050612d0f565b005b348015610a0257600080fd5b50610a3960048036036040811015610a1957600080fd5b810190808035906020019092919080359060200190929190505050612eb3565b005b348015610a4757600080fd5b50610a8a60048036036020811015610a5e57600080fd5b81019080803573ffffffffffffffffffffffffffffffffffffffff16906020019092919050505061324b565b6040518082815260200191505060405180910390f35b348015610aac57600080fd5b50610ab5613363565b6040518082815260200191505060405180910390f35b348015610ad757600080fd5b50610b2460048036036040811015610aee57600080fd5b81019080803573ffffffffffffffffffffffffffffffffffffffff16906020019092919080359060200190929190505050613369565b005b348015610b3257600080fd5b50610b7560048036036020811015610b4957600080fd5b81019080803573ffffffffffffffffffffffffffffffffffffffff169060200190929190505050613425565b005b348015610b8357600080fd5b50610bc660048036036020811015610b9a57600080fd5b81019080803573ffffffffffffffffffffffffffffffffffffffff1690602001909291905050506134ab565b604051808060200180602001838103835285818151815260200191508051906020019060200280838360005b83811015610c0d578082015181840152602081019050610bf2565b50505050905001838103825284818151815260200191508051906020019060200280838360005b83811015610c4f578082015181840152602081019050610c34565b5050505090500194505050505060405180910390f35b610c6d613788565b005b60606005805480602002602001604051908101604052809291908181526020018280548015610cbd57602002820191906000526020600020905b815481526020019060010190808311610ca9575b5050505050905090565b600160009054906101000a900460ff1681565b60405160200180807f456c656374696f6e0000000000000000000000000000000000000000000000008152506008019050604051602081830303815290604052805190602001203373ffffffffffffffffffffffffffffffffffffffff16600260009054906101000a900473ffffffffffffffffffffffffffffffffffffffff1673ffffffffffffffffffffffffffffffffffffffff1663dcf0aaed836040518263ffffffff1660e01b81526004018082815260200191505060206040518083038186803b158015610dab57600080fd5b505afa158015610dbf573d6000803e3d6000fd5b505050506040513d6020811015610dd557600080fd5b810190808051906020019092919050505073ffffffffffffffffffffffffffffffffffffffff1614610e6f576040517f08c379a00000000000000000000000000000000000000000000000000000000081526004018080602001828103825260188152602001807f6f6e6c79207265676973746572656420636f6e7472616374000000000000000081525060200191505060405180910390fd5b610e7983836139a1565b505050565b610e86612cb1565b610ef8576040517f08c379a00000000000000000000000000000000000000000000000000000000081526004018080602001828103825260208152602001807f4f776e61626c653a2063616c6c6572206973206e6f7420746865206f776e657281525060200191505060405180910390fd5b600083836040516020018083838082843780830192505050925050506040516020818303038152906040528051906020012090506004600082815260200190815260200160002060009054906101000a900460ff16610fa2576040517f08c379a00000000000000000000000000000000000000000000000000000000081526004018080602001828103825260278152602001806144fd6027913960400191505060405180910390fd5b6005805490508210610fff576040517f08c379a00000000000000000000000000000000000000000000000000000000081526004018080602001828103825260288152602001806144d56028913960400191505060405180910390fd5b806005838154811061100d57fe5b90600052602060002001541461108b576040517f08c379a000000000000000000000000000000000000000000000000000000000815260040180806020018281038252601e8152602001807f496e64657820646f65736e2774206d61746368206964656e746966696572000081525060200191505060405180910390fd5b6005600160058054905003815481106110a057fe5b9060005260206000200154600583815481106110b857fe5b906000526020600020018190555060058054806110d157fe5b6001900381819060005260206000200160009055905560006004600083815260200190815260200160002060006101000a81548160ff021916908315150217905550838360405180838380828437808301925050509250505060405180910390207faee8df56d95b5766042c2ff4dcb39a120f0a09dd21bb9c143f86a314eff4b71460405160405180910390a250505050565b60075481565b60016000808282540192505081905550600080549050611188613a5b565b73ffffffffffffffffffffffffffffffffffffffff166325ca4c9c336040518263ffffffff1660e01b8152600401808273ffffffffffffffffffffffffffffffffffffffff1673ffffffffffffffffffffffffffffffffffffffff16815260200191505060206040518083038186803b15801561120457600080fd5b505afa158015611218573d6000803e3d6000fd5b505050506040513d602081101561122e57600080fd5b81019080805190602001909291905050506112b1576040517f08c379a000000000000000000000000000000000000000000000000000000000815260040180806020018281038252600f8152602001807f556e6b6e6f776e206163636f756e74000000000000000000000000000000000081525060200191505060405180910390fd5b6000600360003373ffffffffffffffffffffffffffffffffffffffff1673ffffffffffffffffffffffffffffffffffffffff168152602001908152602001600020905080600101805490508310611370576040517f08c379a000000000000000000000000000000000000000000000000000000000815260040180806020018281038252601c8152602001807f4261642070656e64696e67207769746864726177616c20696e6465780000000081525060200191505060405180910390fd5b600081600101848154811061138157fe5b90600052602060002090600202019050806001015442101561140b576040517f08c379a00000000000000000000000000000000000000000000000000000000081526004018080602001828103825260208152602001807f50656e64696e67207769746864726177616c206e6f7420617661696c61626c6581525060200191505060405180910390fd5b6000816000015490506114218360010186613b56565b47811115611497576040517f08c379a00000000000000000000000000000000000000000000000000000000081526004018080602001828103825260148152602001807f496e636f6e73697374656e742062616c616e636500000000000000000000000081525060200191505060405180910390fd5b6114c0813373ffffffffffffffffffffffffffffffffffffffff16613bd090919063ffffffff16565b3373ffffffffffffffffffffffffffffffffffffffff167f292d39ba701489b7f640c83806d3eeabe0a32c9f0a61b49e95612ebad42211cd826040518082815260200191505060405180910390a25050506000548114611588576040517f08c379a000000000000000000000000000000000000000000000000000000000815260040180806020018281038252600e8152602001807f7265656e7472616e742063616c6c00000000000000000000000000000000000081525060200191505060405180910390fd5b5050565b600061162a611599613d0a565b73ffffffffffffffffffffffffffffffffffffffff16639a0e7d666040518163ffffffff1660e01b815260040160206040518083038186803b1580156115de57600080fd5b505afa1580156115f2573d6000803e3d6000fd5b505050506040513d602081101561160857600080fd5b8101908080519060200190929190505050600654613e0590919063ffffffff16565b905090565b600080600360008473ffffffffffffffffffffffffffffffffffffffff1673ffffffffffffffffffffffffffffffffffffffff168152602001908152602001600020600001549050611748611682613d0a565b73ffffffffffffffffffffffffffffffffffffffff16636c781a2c856040518263ffffffff1660e01b8152600401808273ffffffffffffffffffffffffffffffffffffffff1673ffffffffffffffffffffffffffffffffffffffff16815260200191505060206040518083038186803b1580156116fe57600080fd5b505afa158015611712573d6000803e3d6000fd5b505050506040513d602081101561172857600080fd5b810190808051906020019092919050505082613e0590919063ffffffff16565b915050919050565b600260009054906101000a900473ffffffffffffffffffffffffffffffffffffffff1673ffffffffffffffffffffffffffffffffffffffff166317c508186005336040518363ffffffff1660e01b815260040180806020018373ffffffffffffffffffffffffffffffffffffffff1673ffffffffffffffffffffffffffffffffffffffff168152602001828103825284818154815260200191508054801561181757602002820191906000526020600020905b815481526020019060010190808311611803575b5050935050505060206040518083038186803b15801561183657600080fd5b505afa15801561184a573d6000803e3d6000fd5b505050506040513d602081101561186057600080fd5b81019080805190602001909291905050506118c6576040517f08c379a00000000000000000000000000000000000000000000000000000000081526004018080602001828103825260248152602001806144286024913960400191505060405180910390fd5b60006118da8a6118d58d61162f565b613e8d565b905087811015611952576040517f08c379a000000000000000000000000000000000000000000000000000000000815260040180806020018281038252601d8152602001807f7265776172642063616e6e6f74206578636565642070656e616c74792e00000081525060200191505060405180910390fd5b6000600360008d73ffffffffffffffffffffffffffffffffffffffff1673ffffffffffffffffffffffffffffffffffffffff168152602001908152602001600020600001549050600080905082821015611b81576119b98284613ea690919063ffffffff16565b9050806119c4613d0a565b73ffffffffffffffffffffffffffffffffffffffff16638ef01def8f848d8d8d8d8d8d6040518963ffffffff1660e01b8152600401808973ffffffffffffffffffffffffffffffffffffffff1673ffffffffffffffffffffffffffffffffffffffff16815260200188815260200180602001806020018060200184810384528a8a82818152602001925060200280828437600081840152601f19601f8201169050808301925050508481038352888882818152602001925060200280828437600081840152601f19601f8201169050808301925050508481038252868682818152602001925060200280828437600081840152601f19601f8201169050808301925050509b505050505050505050505050602060405180830381600087803b158015611aef57600080fd5b505af1158015611b03573d6000803e3d6000fd5b505050506040513d6020811015611b1957600080fd5b810190808051906020019092919050505014611b80576040517f08c379a00000000000000000000000000000000000000000000000000000000081526004018080602001828103825260218152602001806145246021913960400191505060405180910390fd5b5b611b9d8d611b988386613ea690919063ffffffff16565b6139a1565b611ba78b8b613ef0565b50506000600260009054906101000a900473ffffffffffffffffffffffffffffffffffffffff1673ffffffffffffffffffffffffffffffffffffffff1663dcf0aaed60405160200180807f476f7665726e616e636500000000000000000000000000000000000000000000815250600a019050604051602081830303815290604052805190602001206040518263ffffffff1660e01b81526004018082815260200191505060206040518083038186803b158015611c6457600080fd5b505afa158015611c78573d6000803e3d6000fd5b505050506040513d6020811015611c8e57600080fd5b81019080805190602001909291905050509050600081905047611cba8b85613ea690919063ffffffff16565b1115611d2e576040517f08c379a00000000000000000000000000000000000000000000000000000000081526004018080602001828103825260148152602001807f496e636f6e73697374656e742062616c616e636500000000000000000000000081525060200191505060405180910390fd5b611d69611d448b85613ea690919063ffffffff16565b8273ffffffffffffffffffffffffffffffffffffffff16613bd090919063ffffffff16565b8a73ffffffffffffffffffffffffffffffffffffffff168d73ffffffffffffffffffffffffffffffffffffffff167f7abcb995a115c34a67528d58d5fc5ce02c22cb835ce1685046163f7d366d7111858d604051808381526020018281526020019250505060405180910390a350505050505050505050505050565b6000600360008373ffffffffffffffffffffffffffffffffffffffff1673ffffffffffffffffffffffffffffffffffffffff168152602001908152602001600020600001549050919050565b600080600080600180600180839350829250819150809050935093509350935090919293565b6000600260009054906101000a900473ffffffffffffffffffffffffffffffffffffffff1673ffffffffffffffffffffffffffffffffffffffff166317c508186005846040518363ffffffff1660e01b815260040180806020018373ffffffffffffffffffffffffffffffffffffffff1673ffffffffffffffffffffffffffffffffffffffff1681526020018281038252848181548152602001915080548015611f2057602002820191906000526020600020905b815481526020019060010190808311611f0c575b5050935050505060206040518083038186803b158015611f3f57600080fd5b505afa158015611f53573d6000803e3d6000fd5b505050506040513d6020811015611f6957600080fd5b81019080805190602001909291905050509050919050565b60016000808282540192505081905550600080549050611f9f613a5b565b73ffffffffffffffffffffffffffffffffffffffff166325ca4c9c336040518263ffffffff1660e01b8152600401808273ffffffffffffffffffffffffffffffffffffffff1673ffffffffffffffffffffffffffffffffffffffff16815260200191505060206040518083038186803b15801561201b57600080fd5b505afa15801561202f573d6000803e3d6000fd5b505050506040513d602081101561204557600080fd5b81019080805190602001909291905050506120c8576040517f08c379a000000000000000000000000000000000000000000000000000000000815260040180806020018281038252600f8152602001807f556e6b6e6f776e206163636f756e74000000000000000000000000000000000081525060200191505060405180910390fd5b6000600360003373ffffffffffffffffffffffffffffffffffffffff1673ffffffffffffffffffffffffffffffffffffffff1681526020019081526020016000209050612113613faa565b73ffffffffffffffffffffffffffffffffffffffff16635f8dd649336040518263ffffffff1660e01b8152600401808273ffffffffffffffffffffffffffffffffffffffff1673ffffffffffffffffffffffffffffffffffffffff16815260200191505060206040518083038186803b15801561218f57600080fd5b505afa1580156121a3573d6000803e3d6000fd5b505050506040513d60208110156121b957600080fd5b81019080805190602001909291905050501561223d576040517f08c379a000000000000000000000000000000000000000000000000000000000815260040180806020018281038252600e8152602001807f4163636f756e74206c6f636b656400000000000000000000000000000000000081525060200191505060405180910390fd5b60006122476140a5565b73ffffffffffffffffffffffffffffffffffffffff1663dcff4cf6336040518263ffffffff1660e01b8152600401808273ffffffffffffffffffffffffffffffffffffffff1673ffffffffffffffffffffffffffffffffffffffff16815260200191505060206040518083038186803b1580156122c357600080fd5b505afa1580156122d7573d6000803e3d6000fd5b505050506040513d60208110156122ed57600080fd5b8101908080519060200190929190505050905060008114806123295750612325846123173361162f565b613ea690919063ffffffff16565b8111155b61239b576040517f08c379a000000000000000000000000000000000000000000000000000000000815260040180806020018281038252601e8152602001807f547279696e6720746f20756e6c6f636b20746f6f206d75636820676f6c64000081525060200191505060405180910390fd5b6123a533856139a1565b60006123bc60075442613e0590919063ffffffff16565b9050826001016040518060400160405280878152602001838152509080600181540180825580915050906001820390600052602060002090600202016000909192909190915060008201518160000155602082015181600101555050503373ffffffffffffffffffffffffffffffffffffffff167fb1a3aef2a332070da206ad1868a5e327f5aa5144e00e9a7b40717c153158a5888683604051808381526020018281526020019250505060405180910390a250505060005481146124e9576040517f08c379a000000000000000000000000000000000000000000000000000000000815260040180806020018281038252600e8152602001807f7265656e7472616e742063616c6c00000000000000000000000000000000000081525060200191505060405180910390fd5b5050565b6124f5612cb1565b612567576040517f08c379a00000000000000000000000000000000000000000000000000000000081526004018080602001828103825260208152602001807f4f776e61626c653a2063616c6c6572206973206e6f7420746865206f776e657281525060200191505060405180910390fd5b60008282604051602001808383808284378083019250505092505050604051602081830303815290604052805190602001209050600073ffffffffffffffffffffffffffffffffffffffff16600260009054906101000a900473ffffffffffffffffffffffffffffffffffffffff1673ffffffffffffffffffffffffffffffffffffffff1663dd927233836040518263ffffffff1660e01b81526004018082815260200191505060206040518083038186803b15801561262657600080fd5b505afa15801561263a573d6000803e3d6000fd5b505050506040513d602081101561265057600080fd5b810190808051906020019092919050505073ffffffffffffffffffffffffffffffffffffffff1614156126eb576040517f08c379a000000000000000000000000000000000000000000000000000000000815260040180806020018281038252601c8152602001807f4964656e746966696572206973206e6f7420726567697374657265640000000081525060200191505060405180910390fd5b6004600082815260200190815260200160002060009054906101000a900460ff161561277f576040517f08c379a000000000000000000000000000000000000000000000000000000000815260040180806020018281038252601c8152602001807f43616e6e6f742061646420736c61736865722049442074776963652e0000000081525060200191505060405180910390fd5b600581908060018154018082558091505090600182039060005260206000200160009091929091909150555060016004600083815260200190815260200160002060006101000a81548160ff021916908315150217905550828260405180838380828437808301925050509250505060405180910390207f92a16cb9e1846d175c3007fc61953d186452c9ea1aa34183eb4b7f88cd3f07bb60405160405180910390a2505050565b61282f612cb1565b6128a1576040517f08c379a00000000000000000000000000000000000000000000000000000000081526004018080602001828103825260208152602001807f4f776e61626c653a2063616c6c6572206973206e6f7420746865206f776e657281525060200191505060405180910390fd5b600754811415612919576040517f08c379a000000000000000000000000000000000000000000000000000000000815260040180806020018281038252601c8152602001807f556e6c6f636b696e6720706572696f64206e6f74206368616e6765640000000081525060200191505060405180910390fd5b806007819055507fd9274a7c98edc7c66931fc71872764091e7023fe3867358f8504d4c21b161fc5816040518082815260200191505060405180910390a150565b6005818154811061296757fe5b906000526020600020016000915090505481565b60405160200180807f456c656374696f6e0000000000000000000000000000000000000000000000008152506008019050604051602081830303815290604052805190602001203373ffffffffffffffffffffffffffffffffffffffff16600260009054906101000a900473ffffffffffffffffffffffffffffffffffffffff1673ffffffffffffffffffffffffffffffffffffffff1663dcf0aaed836040518263ffffffff1660e01b81526004018082815260200191505060206040518083038186803b158015612a4c57600080fd5b505afa158015612a60573d6000803e3d6000fd5b505050506040513d6020811015612a7657600080fd5b810190808051906020019092919050505073ffffffffffffffffffffffffffffffffffffffff1614612b10576040517f08c379a00000000000000000000000000000000000000000000000000000000081526004018080602001828103825260188152602001807f6f6e6c79207265676973746572656420636f6e7472616374000000000000000081525060200191505060405180910390fd5b612b1a8383613ef0565b505050565b612b27612cb1565b612b99576040517f08c379a00000000000000000000000000000000000000000000000000000000081526004018080602001828103825260208152602001807f4f776e61626c653a2063616c6c6572206973206e6f7420746865206f776e657281525060200191505060405180910390fd5b600073ffffffffffffffffffffffffffffffffffffffff166001809054906101000a900473ffffffffffffffffffffffffffffffffffffffff1673ffffffffffffffffffffffffffffffffffffffff167f8be0079c531659141344cd1fd0a4f28419497f9722a3daafe3b4186f6b6457e060405160405180910390a360006001806101000a81548173ffffffffffffffffffffffffffffffffffffffff021916908373ffffffffffffffffffffffffffffffffffffffff160217905550565b600260009054906101000a900473ffffffffffffffffffffffffffffffffffffffff1681565b6000600654905090565b60006001809054906101000a900473ffffffffffffffffffffffffffffffffffffffff16905090565b60006001809054906101000a900473ffffffffffffffffffffffffffffffffffffffff1673ffffffffffffffffffffffffffffffffffffffff16612cf36141a0565b73ffffffffffffffffffffffffffffffffffffffff1614905090565b612d17612cb1565b612d89576040517f08c379a00000000000000000000000000000000000000000000000000000000081526004018080602001828103825260208152602001807f4f776e61626c653a2063616c6c6572206973206e6f7420746865206f776e657281525060200191505060405180910390fd5b600073ffffffffffffffffffffffffffffffffffffffff168173ffffffffffffffffffffffffffffffffffffffff161415612e2c576040517f08c379a00000000000000000000000000000000000000000000000000000000081526004018080602001828103825260208152602001807f43616e6e6f7420726567697374657220746865206e756c6c206164647265737381525060200191505060405180910390fd5b80600260006101000a81548173ffffffffffffffffffffffffffffffffffffffff021916908373ffffffffffffffffffffffffffffffffffffffff1602179055508073ffffffffffffffffffffffffffffffffffffffff167f27fe5f0c1c3b1ed427cc63d0f05759ffdecf9aec9e18d31ef366fc8a6cb5dc3b60405160405180910390a250565b60016000808282540192505081905550600080549050612ed1613a5b565b73ffffffffffffffffffffffffffffffffffffffff166325ca4c9c336040518263ffffffff1660e01b8152600401808273ffffffffffffffffffffffffffffffffffffffff1673ffffffffffffffffffffffffffffffffffffffff16815260200191505060206040518083038186803b158015612f4d57600080fd5b505afa158015612f61573d6000803e3d6000fd5b505050506040513d6020811015612f7757600080fd5b8101908080519060200190929190505050612ffa576040517f08c379a000000000000000000000000000000000000000000000000000000000815260040180806020018281038252600f8152602001807f556e6b6e6f776e206163636f756e74000000000000000000000000000000000081525060200191505060405180910390fd5b6000600360003373ffffffffffffffffffffffffffffffffffffffff1673ffffffffffffffffffffffffffffffffffffffff1681526020019081526020016000209050806001018054905084106130b9576040517f08c379a000000000000000000000000000000000000000000000000000000000815260040180806020018281038252601c8152602001807f4261642070656e64696e67207769746864726177616c20696e6465780000000081525060200191505060405180910390fd5b60008160010185815481106130ca57fe5b906000526020600020906002020190508060000154841115613137576040517f08c379a00000000000000000000000000000000000000000000000000000000081526004018080602001828103825260298152602001806144ac6029913960400191505060405180910390fd5b8060000154841415613155576131508260010186613b56565b613175565b61316c848260000154613ea690919063ffffffff16565b81600001819055505b61317f3385613ef0565b3373ffffffffffffffffffffffffffffffffffffffff167fa823fc38a01c2f76d7057a79bb5c317710f26f7dbdea78634598d5519d0f7cb0856040518082815260200191505060405180910390a250506000548114613246576040517f08c379a000000000000000000000000000000000000000000000000000000000815260040180806020018281038252600e8152602001807f7265656e7472616e742063616c6c00000000000000000000000000000000000081525060200191505060405180910390fd5b505050565b600080600090506060600360008573ffffffffffffffffffffffffffffffffffffffff1673ffffffffffffffffffffffffffffffffffffffff168152602001908152602001600020600101805480602002602001604051908101604052809291908181526020016000905b828210156132fc578382906000526020600020906002020160405180604001604052908160008201548152602001600182015481525050815260200190600101906132b6565b50505050905060008090505b81518110156133585761333b82828151811061332057fe5b60200260200101516000015184613e0590919063ffffffff16565b9250613351600182613e0590919063ffffffff16565b9050613308565b508192505050919050565b60065481565b600160009054906101000a900460ff16156133ec576040517f08c379a000000000000000000000000000000000000000000000000000000000815260040180806020018281038252601c8152602001807f636f6e747261637420616c726561647920696e697469616c697a65640000000081525060200191505060405180910390fd5b60018060006101000a81548160ff02191690831515021790555061340f336141a8565b61341882612d0f565b61342181612827565b5050565b61342d612cb1565b61349f576040517f08c379a00000000000000000000000000000000000000000000000000000000081526004018080602001828103825260208152602001807f4f776e61626c653a2063616c6c6572206973206e6f7420746865206f776e657281525060200191505060405180910390fd5b6134a8816141a8565b50565b6060806134b6613a5b565b73ffffffffffffffffffffffffffffffffffffffff166325ca4c9c846040518263ffffffff1660e01b8152600401808273ffffffffffffffffffffffffffffffffffffffff1673ffffffffffffffffffffffffffffffffffffffff16815260200191505060206040518083038186803b15801561353257600080fd5b505afa158015613546573d6000803e3d6000fd5b505050506040513d602081101561355c57600080fd5b81019080805190602001909291905050506135df576040517f08c379a000000000000000000000000000000000000000000000000000000000815260040180806020018281038252600f8152602001807f556e6b6e6f776e206163636f756e74000000000000000000000000000000000081525060200191505060405180910390fd5b6000600360008573ffffffffffffffffffffffffffffffffffffffff1673ffffffffffffffffffffffffffffffffffffffff16815260200190815260200160002060010180549050905060608160405190808252806020026020018201604052801561365a5781602001602082028038833980820191505090505b50905060608260405190808252806020026020018201604052801561368e5781602001602082028038833980820191505090505b50905060008090505b83811015613779576136a76143ac565b600360008973ffffffffffffffffffffffffffffffffffffffff1673ffffffffffffffffffffffffffffffffffffffff16815260200190815260200160002060010182815481106136f457fe5b9060005260206000209060020201604051806040016040529081600082015481526020016001820154815250509050806000015184838151811061373457fe5b602002602001018181525050806020015183838151811061375157fe5b60200260200101818152505050613772600182613e0590919063ffffffff16565b9050613697565b50818194509450505050915091565b600160008082825401925050819055506000805490506137a6613a5b565b73ffffffffffffffffffffffffffffffffffffffff166325ca4c9c336040518263ffffffff1660e01b8152600401808273ffffffffffffffffffffffffffffffffffffffff1673ffffffffffffffffffffffffffffffffffffffff16815260200191505060206040518083038186803b15801561382257600080fd5b505afa158015613836573d6000803e3d6000fd5b505050506040513d602081101561384c57600080fd5b81019080805190602001909291905050506138cf576040517f08c379a000000000000000000000000000000000000000000000000000000000815260040180806020018281038252600b8152602001807f6e6f74206163636f756e7400000000000000000000000000000000000000000081525060200191505060405180910390fd5b6138d93334613ef0565b3373ffffffffffffffffffffffffffffffffffffffff167f0f0f2fc5b4c987a49e1663ce2c2d65de12f3b701ff02b4d09461421e63e609e7346040518082815260200191505060405180910390a2600054811461399e576040517f08c379a000000000000000000000000000000000000000000000000000000000815260040180806020018281038252600e8152602001807f7265656e7472616e742063616c6c00000000000000000000000000000000000081525060200191505060405180910390fd5b50565b6139f681600360008573ffffffffffffffffffffffffffffffffffffffff1673ffffffffffffffffffffffffffffffffffffffff16815260200190815260200160002060000154613ea690919063ffffffff16565b600360008473ffffffffffffffffffffffffffffffffffffffff1673ffffffffffffffffffffffffffffffffffffffff16815260200190815260200160002060000181905550613a5181600654613ea690919063ffffffff16565b6006819055505050565b6000600260009054906101000a900473ffffffffffffffffffffffffffffffffffffffff1673ffffffffffffffffffffffffffffffffffffffff1663dcf0aaed60405160200180807f4163636f756e74730000000000000000000000000000000000000000000000008152506008019050604051602081830303815290604052805190602001206040518263ffffffff1660e01b81526004018082815260200191505060206040518083038186803b158015613b1657600080fd5b505afa158015613b2a573d6000803e3d6000fd5b505050506040513d6020811015613b4057600080fd5b8101908080519060200190929190505050905090565b6000613b7060018480549050613ea690919063ffffffff16565b9050828181548110613b7e57fe5b9060005260206000209060020201838381548110613b9857fe5b90600052602060002090600202016000820154816000015560018201548160010155905050808381613bca91906143c6565b50505050565b80471015613c46576040517f08c379a000000000000000000000000000000000000000000000000000000000815260040180806020018281038252601d8152602001807f416464726573733a20696e73756666696369656e742062616c616e636500000081525060200191505060405180910390fd5b60008273ffffffffffffffffffffffffffffffffffffffff168260405180600001905060006040518083038185875af1925050503d8060008114613ca6576040519150601f19603f3d011682016040523d82523d6000602084013e613cab565b606091505b5050905080613d05576040517f08c379a000000000000000000000000000000000000000000000000000000000815260040180806020018281038252603a815260200180614472603a913960400191505060405180910390fd5b505050565b6000600260009054906101000a900473ffffffffffffffffffffffffffffffffffffffff1673ffffffffffffffffffffffffffffffffffffffff1663dcf0aaed60405160200180807f456c656374696f6e0000000000000000000000000000000000000000000000008152506008019050604051602081830303815290604052805190602001206040518263ffffffff1660e01b81526004018082815260200191505060206040518083038186803b158015613dc557600080fd5b505afa158015613dd9573d6000803e3d6000fd5b505050506040513d6020811015613def57600080fd5b8101908080519060200190929190505050905090565b600080828401905083811015613e83576040517f08c379a000000000000000000000000000000000000000000000000000000000815260040180806020018281038252601b8152602001807f536166654d6174683a206164646974696f6e206f766572666c6f77000000000081525060200191505060405180910390fd5b8091505092915050565b6000818310613e9c5781613e9e565b825b905092915050565b6000613ee883836040518060400160405280601e81526020017f536166654d6174683a207375627472616374696f6e206f766572666c6f7700008152506142ec565b905092915050565b613f4581600360008573ffffffffffffffffffffffffffffffffffffffff1673ffffffffffffffffffffffffffffffffffffffff16815260200190815260200160002060000154613e0590919063ffffffff16565b600360008473ffffffffffffffffffffffffffffffffffffffff1673ffffffffffffffffffffffffffffffffffffffff16815260200190815260200160002060000181905550613fa081600654613e0590919063ffffffff16565b6006819055505050565b6000600260009054906101000a900473ffffffffffffffffffffffffffffffffffffffff1673ffffffffffffffffffffffffffffffffffffffff1663dcf0aaed60405160200180807f476f7665726e616e636500000000000000000000000000000000000000000000815250600a019050604051602081830303815290604052805190602001206040518263ffffffff1660e01b81526004018082815260200191505060206040518083038186803b15801561406557600080fd5b505afa158015614079573d6000803e3d6000fd5b505050506040513d602081101561408f57600080fd5b8101908080519060200190929190505050905090565b6000600260009054906101000a900473ffffffffffffffffffffffffffffffffffffffff1673ffffffffffffffffffffffffffffffffffffffff1663dcf0aaed60405160200180807f56616c696461746f727300000000000000000000000000000000000000000000815250600a019050604051602081830303815290604052805190602001206040518263ffffffff1660e01b81526004018082815260200191505060206040518083038186803b15801561416057600080fd5b505afa158015614174573d6000803e3d6000fd5b505050506040513d602081101561418a57600080fd5b8101908080519060200190929190505050905090565b600033905090565b600073ffffffffffffffffffffffffffffffffffffffff168173ffffffffffffffffffffffffffffffffffffffff16141561422e576040517f08c379a000000000000000000000000000000000000000000000000000000000815260040180806020018281038252602681526020018061444c6026913960400191505060405180910390fd5b8073ffffffffffffffffffffffffffffffffffffffff166001809054906101000a900473ffffffffffffffffffffffffffffffffffffffff1673ffffffffffffffffffffffffffffffffffffffff167f8be0079c531659141344cd1fd0a4f28419497f9722a3daafe3b4186f6b6457e060405160405180910390a3806001806101000a81548173ffffffffffffffffffffffffffffffffffffffff021916908373ffffffffffffffffffffffffffffffffffffffff16021790555050565b6000838311158290614399576040517f08c379a00000000000000000000000000000000000000000000000000000000081526004018080602001828103825283818151815260200191508051906020019080838360005b8381101561435e578082015181840152602081019050614343565b50505050905090810190601f16801561438b5780820380516001836020036101000a031916815260200191505b509250505060405180910390fd5b5060008385039050809150509392505050565b604051806040016040528060008152602001600081525090565b8154818355818111156143f3576002028160020283600052602060002091820191016143f291906143f8565b5b505050565b61442491905b80821115614420576000808201600090556001820160009055506002016143fe565b5090565b9056fe43616c6c6572206973206e6f7420612077686974656c697374656420736c61736865722e4f776e61626c653a206e6577206f776e657220697320746865207a65726f2061646472657373416464726573733a20756e61626c6520746f2073656e642076616c75652c20726563697069656e74206d617920686176652072657665727465645265717565737465642076616c7565206c6172676572207468616e2070656e64696e672076616c756550726f766964656420696e64657820657863656564732077686974656c69737420626f756e64732e43616e6e6f742072656d6f766520736c6173686572204944206e6f74207965742061646465642e43616e6e6f74207265766f6b6520656e6f75676820766f74696e6720676f6c642ea265627a7a72315820a6305424bdc9aea8749465b59c74ea008568cd04bc63c2e684bfc901d06990c964736f6c634300050d0032",
  "source": "pragma solidity ^0.5.13;\r\n\r\nimport \"openzeppelin-solidity/contracts/math/Math.sol\";\r\nimport \"openzeppelin-solidity/contracts/math/SafeMath.sol\";\r\nimport \"openzeppelin-solidity/contracts/ownership/Ownable.sol\";\r\nimport \"openzeppelin-solidity/contracts/utils/Address.sol\";\r\n\r\nimport \"./interfaces/ILockedGold.sol\";\r\n\r\nimport \"../common/Initializable.sol\";\r\nimport \"../common/Signatures.sol\";\r\nimport \"../common/UsingRegistry.sol\";\r\nimport \"../common/interfaces/ICeloVersionedContract.sol\";\r\nimport \"../common/libraries/ReentrancyGuard.sol\";\r\n\r\ncontract LockedGold is\r\n  ILockedGold,\r\n  ICeloVersionedContract,\r\n  ReentrancyGuard,\r\n  Initializable,\r\n  UsingRegistry\r\n{\r\n  using SafeMath for uint256;\r\n  using Address for address payable; // prettier-ignore\r\n\r\n  struct PendingWithdrawal {\r\n    // The value of the pending withdrawal.\r\n    uint256 value;\r\n    // The timestamp at which the pending withdrawal becomes available.\r\n    uint256 timestamp;\r\n  }\r\n\r\n  // NOTE: This contract does not store an account's locked gold that is being used in electing\r\n  // validators.\r\n  struct Balances {\r\n    // The amount of locked gold that this account has that is not currently participating in\r\n    // validator elections.\r\n    uint256 nonvoting;\r\n    // Gold that has been unlocked and will become available for withdrawal.\r\n    PendingWithdrawal[] pendingWithdrawals;\r\n  }\r\n\r\n  mapping(address => Balances) internal balances;\r\n\r\n  // Iterable map to store whitelisted identifiers.\r\n  // Necessary to allow iterating over whitelisted IDs to check ID's address at runtime.\r\n  mapping(bytes32 => bool) internal slashingMap;\r\n  bytes32[] public slashingWhitelist;\r\n\r\n  modifier onlySlasher {\r\n    require(\r\n      registry.isOneOf(slashingWhitelist, msg.sender),\r\n      \"Caller is not a whitelisted slasher.\"\r\n    );\r\n    _;\r\n  }\r\n\r\n  function isSlasher(address slasher) external view returns (bool) {\r\n    return (registry.isOneOf(slashingWhitelist, slasher));\r\n  }\r\n\r\n  uint256 public totalNonvoting;\r\n  uint256 public unlockingPeriod;\r\n\r\n  event UnlockingPeriodSet(uint256 period);\r\n  event GoldLocked(address indexed account, uint256 value);\r\n  event GoldUnlocked(address indexed account, uint256 value, uint256 available);\r\n  event GoldRelocked(address indexed account, uint256 value);\r\n  event GoldWithdrawn(address indexed account, uint256 value);\r\n  event SlasherWhitelistAdded(string indexed slasherIdentifier);\r\n  event SlasherWhitelistRemoved(string indexed slasherIdentifier);\r\n  event AccountSlashed(\r\n    address indexed slashed,\r\n    uint256 penalty,\r\n    address indexed reporter,\r\n    uint256 reward\r\n  );\r\n\r\n  /**\r\n  * @notice Returns the storage, major, minor, and patch version of the contract.\r\n  * @return The storage, major, minor, and patch version of the contract.\r\n  */\r\n  function getVersionNumber() external pure returns (uint256, uint256, uint256, uint256) {\r\n    return (1, 1, 1, 1);\r\n  }\r\n\r\n  /**\r\n   * @notice Used in place of the constructor to allow the contract to be upgradable via proxy.\r\n   * @param registryAddress The address of the registry core smart contract.\r\n   * @param _unlockingPeriod The unlocking period in seconds.\r\n   */\r\n  function initialize(address registryAddress, uint256 _unlockingPeriod) external initializer {\r\n    _transferOwnership(msg.sender);\r\n    setRegistry(registryAddress);\r\n    setUnlockingPeriod(_unlockingPeriod);\r\n  }\r\n\r\n  /**\r\n   * @notice Sets the duration in seconds users must wait before withdrawing gold after unlocking.\r\n   * @param value The unlocking period in seconds.\r\n   */\r\n  function setUnlockingPeriod(uint256 value) public onlyOwner {\r\n    require(value != unlockingPeriod, \"Unlocking period not changed\");\r\n    unlockingPeriod = value;\r\n    emit UnlockingPeriodSet(value);\r\n  }\r\n\r\n  /**\r\n   * @notice Locks gold to be used for voting.\r\n   */\r\n  function lock() external payable nonReentrant {\r\n    require(getAccounts().isAccount(msg.sender), \"not account\");\r\n    _incrementNonvotingAccountBalance(msg.sender, msg.value);\r\n    emit GoldLocked(msg.sender, msg.value);\r\n  }\r\n\r\n  /**\r\n   * @notice Increments the non-voting balance for an account.\r\n   * @param account The account whose non-voting balance should be incremented.\r\n   * @param value The amount by which to increment.\r\n   * @dev Can only be called by the registered Election smart contract.\r\n   */\r\n  function incrementNonvotingAccountBalance(address account, uint256 value)\r\n    external\r\n    onlyRegisteredContract(ELECTION_REGISTRY_ID)\r\n  {\r\n    _incrementNonvotingAccountBalance(account, value);\r\n  }\r\n\r\n  /**\r\n   * @notice Decrements the non-voting balance for an account.\r\n   * @param account The account whose non-voting balance should be decremented.\r\n   * @param value The amount by which to decrement.\r\n   * @dev Can only be called by the registered \"Election\" smart contract.\r\n   */\r\n  function decrementNonvotingAccountBalance(address account, uint256 value)\r\n    external\r\n    onlyRegisteredContract(ELECTION_REGISTRY_ID)\r\n  {\r\n    _decrementNonvotingAccountBalance(account, value);\r\n  }\r\n\r\n  /**\r\n   * @notice Increments the non-voting balance for an account.\r\n   * @param account The account whose non-voting balance should be incremented.\r\n   * @param value The amount by which to increment.\r\n   */\r\n  function _incrementNonvotingAccountBalance(address account, uint256 value) private {\r\n    balances[account].nonvoting = balances[account].nonvoting.add(value);\r\n    totalNonvoting = totalNonvoting.add(value);\r\n  }\r\n\r\n  /**\r\n   * @notice Decrements the non-voting balance for an account.\r\n   * @param account The account whose non-voting balance should be decremented.\r\n   * @param value The amount by which to decrement.\r\n   */\r\n  function _decrementNonvotingAccountBalance(address account, uint256 value) private {\r\n    balances[account].nonvoting = balances[account].nonvoting.sub(value);\r\n    totalNonvoting = totalNonvoting.sub(value);\r\n  }\r\n\r\n  /**\r\n   * @notice Unlocks gold that becomes withdrawable after the unlocking period.\r\n   * @param value The amount of gold to unlock.\r\n   */\r\n  function unlock(uint256 value) external nonReentrant {\r\n    require(getAccounts().isAccount(msg.sender), \"Unknown account\");\r\n    Balances storage account = balances[msg.sender];\r\n    // Prevent unlocking gold when voting on governance proposals so that the gold cannot be\r\n    // used to vote more than once.\r\n    require(!getGovernance().isVoting(msg.sender), \"Account locked\");\r\n    uint256 balanceRequirement = getValidators().getAccountLockedGoldRequirement(msg.sender);\r\n    require(\r\n      balanceRequirement == 0 ||\r\n        balanceRequirement <= getAccountTotalLockedGold(msg.sender).sub(value),\r\n      \"Trying to unlock too much gold\"\r\n    );\r\n    _decrementNonvotingAccountBalance(msg.sender, value);\r\n    uint256 available = now.add(unlockingPeriod);\r\n    // CERTORA: the slot containing the length could be MAX_UINT\r\n    account.pendingWithdrawals.push(PendingWithdrawal(value, available));\r\n    emit GoldUnlocked(msg.sender, value, available);\r\n  }\r\n\r\n  /**\r\n   * @notice Relocks gold that has been unlocked but not withdrawn.\r\n   * @param index The index of the pending withdrawal to relock from.\r\n   * @param value The value to relock from the specified pending withdrawal.\r\n   */\r\n  function relock(uint256 index, uint256 value) external nonReentrant {\r\n    require(getAccounts().isAccount(msg.sender), \"Unknown account\");\r\n    Balances storage account = balances[msg.sender];\r\n    require(index < account.pendingWithdrawals.length, \"Bad pending withdrawal index\");\r\n    PendingWithdrawal storage pendingWithdrawal = account.pendingWithdrawals[index];\r\n    require(value <= pendingWithdrawal.value, \"Requested value larger than pending value\");\r\n    if (value == pendingWithdrawal.value) {\r\n      deletePendingWithdrawal(account.pendingWithdrawals, index);\r\n    } else {\r\n      pendingWithdrawal.value = pendingWithdrawal.value.sub(value);\r\n    }\r\n    _incrementNonvotingAccountBalance(msg.sender, value);\r\n    emit GoldRelocked(msg.sender, value);\r\n  }\r\n\r\n  /**\r\n   * @notice Withdraws gold that has been unlocked after the unlocking period has passed.\r\n   * @param index The index of the pending withdrawal to withdraw.\r\n   */\r\n  function withdraw(uint256 index) external nonReentrant {\r\n    require(getAccounts().isAccount(msg.sender), \"Unknown account\");\r\n    Balances storage account = balances[msg.sender];\r\n    require(index < account.pendingWithdrawals.length, \"Bad pending withdrawal index\");\r\n    PendingWithdrawal storage pendingWithdrawal = account.pendingWithdrawals[index];\r\n    require(now >= pendingWithdrawal.timestamp, \"Pending withdrawal not available\");\r\n    uint256 value = pendingWithdrawal.value;\r\n    deletePendingWithdrawal(account.pendingWithdrawals, index);\r\n    require(value <= address(this).balance, \"Inconsistent balance\");\r\n    msg.sender.sendValue(value);\r\n    emit GoldWithdrawn(msg.sender, value);\r\n  }\r\n\r\n  /**\r\n   * @notice Returns the total amount of locked gold in the system. Note that this does not include\r\n   *   gold that has been unlocked but not yet withdrawn.\r\n   * @return The total amount of locked gold in the system.\r\n   */\r\n  function getTotalLockedGold() external view returns (uint256) {\r\n    return totalNonvoting.add(getElection().getTotalVotes());\r\n  }\r\n\r\n  /**\r\n   * @notice Returns the total amount of locked gold not being used to vote in elections.\r\n   * @return The total amount of locked gold not being used to vote in elections.\r\n   */\r\n  function getNonvotingLockedGold() external view returns (uint256) {\r\n    return totalNonvoting;\r\n  }\r\n\r\n  /**\r\n   * @notice Returns the total amount of locked gold for an account.\r\n   * @param account The account.\r\n   * @return The total amount of locked gold for an account.\r\n   */\r\n  function getAccountTotalLockedGold(address account) public view returns (uint256) {\r\n    uint256 total = balances[account].nonvoting;\r\n    return total.add(getElection().getTotalVotesByAccount(account));\r\n  }\r\n\r\n  /**\r\n   * @notice Returns the total amount of non-voting locked gold for an account.\r\n   * @param account The account.\r\n   * @return The total amount of non-voting locked gold for an account.\r\n   */\r\n  function getAccountNonvotingLockedGold(address account) external view returns (uint256) {\r\n    return balances[account].nonvoting;\r\n  }\r\n\r\n  /**\r\n   * @notice Returns the pending withdrawals from unlocked gold for an account.\r\n   * @param account The address of the account.\r\n   * @return The value and timestamp for each pending withdrawal.\r\n   */\r\n  function getPendingWithdrawals(address account)\r\n    external\r\n    view\r\n    returns (uint256[] memory, uint256[] memory)\r\n  {\r\n    require(getAccounts().isAccount(account), \"Unknown account\");\r\n    uint256 length = balances[account].pendingWithdrawals.length;\r\n    uint256[] memory values = new uint256[](length);\r\n    uint256[] memory timestamps = new uint256[](length);\r\n    for (uint256 i = 0; i < length; i = i.add(1)) {\r\n      PendingWithdrawal memory pendingWithdrawal = (balances[account].pendingWithdrawals[i]);\r\n      values[i] = pendingWithdrawal.value;\r\n      timestamps[i] = pendingWithdrawal.timestamp;\r\n    }\r\n    return (values, timestamps);\r\n  }\r\n\r\n  /**\r\n   * @notice Returns the total amount to withdraw from unlocked gold for an account.\r\n   * @param account The address of the account.\r\n   * @return Total amount to withdraw.\r\n   */\r\n  function getTotalPendingWithdrawals(address account) external view returns (uint256) {\r\n    uint256 pendingWithdrawalSum = 0;\r\n    PendingWithdrawal[] memory withdrawals = balances[account].pendingWithdrawals;\r\n    for (uint256 i = 0; i < withdrawals.length; i = i.add(1)) {\r\n      pendingWithdrawalSum = pendingWithdrawalSum.add(withdrawals[i].value);\r\n    }\r\n    return pendingWithdrawalSum;\r\n  }\r\n\r\n  function getSlashingWhitelist() external view returns (bytes32[] memory) {\r\n    return slashingWhitelist;\r\n  }\r\n\r\n  /**\r\n   * @notice Deletes a pending withdrawal.\r\n   * @param list The list of pending withdrawals from which to delete.\r\n   * @param index The index of the pending withdrawal to delete.\r\n   */\r\n  function deletePendingWithdrawal(PendingWithdrawal[] storage list, uint256 index) private {\r\n    uint256 lastIndex = list.length.sub(1);\r\n    list[index] = list[lastIndex];\r\n    list.length = lastIndex;\r\n  }\r\n\r\n  /**\r\n   * @notice Adds `slasher` to whitelist of approved slashing addresses.\r\n   * @param slasherIdentifier Identifier to whitelist.\r\n   */\r\n  function addSlasher(string calldata slasherIdentifier) external onlyOwner {\r\n    bytes32 keyBytes = keccak256(abi.encodePacked(slasherIdentifier));\r\n    require(registry.getAddressFor(keyBytes) != address(0), \"Identifier is not registered\");\r\n    require(!slashingMap[keyBytes], \"Cannot add slasher ID twice.\");\r\n    slashingWhitelist.push(keyBytes);\r\n    slashingMap[keyBytes] = true;\r\n    emit SlasherWhitelistAdded(slasherIdentifier);\r\n  }\r\n\r\n  /**\r\n   * @notice Removes `slasher` from whitelist of approved slashing addresses.\r\n   * @param slasherIdentifier Identifier to remove from whitelist.\r\n   * @param index Index of the provided identifier in slashingWhiteList array.\r\n   */\r\n  function removeSlasher(string calldata slasherIdentifier, uint256 index) external onlyOwner {\r\n    bytes32 keyBytes = keccak256(abi.encodePacked(slasherIdentifier));\r\n    require(slashingMap[keyBytes], \"Cannot remove slasher ID not yet added.\");\r\n    require(index < slashingWhitelist.length, \"Provided index exceeds whitelist bounds.\");\r\n    require(slashingWhitelist[index] == keyBytes, \"Index doesn't match identifier\");\r\n    slashingWhitelist[index] = slashingWhitelist[slashingWhitelist.length - 1];\r\n    slashingWhitelist.pop();\r\n    slashingMap[keyBytes] = false;\r\n    emit SlasherWhitelistRemoved(slasherIdentifier);\r\n  }\r\n\r\n  /**\r\n   * @notice Slashes `account` by reducing its nonvoting locked gold by `penalty`.\r\n   *         If there is not enough nonvoting locked gold to slash, calls into\r\n   *         `Election.slashVotes` to slash the remaining gold. If `account` does not have\r\n   *         `penalty` worth of locked gold, slashes `account`'s total locked gold.\r\n   *         Also sends `reward` gold to the reporter, and penalty-reward to the Community Fund.\r\n   * @param account Address of account being slashed.\r\n   * @param penalty Amount to slash account.\r\n   * @param reporter Address of account reporting the slasher.\r\n   * @param reward Reward to give reporter.\r\n   * @param lessers The groups receiving fewer votes than i'th group, or 0 if the i'th group has\r\n   *                the fewest votes of any validator group.\r\n   * @param greaters The groups receiving more votes than the i'th group, or 0 if the i'th group\r\n   *                 has the most votes of any validator group.\r\n   * @param indices The indices of the i'th group in `account`'s voting list.\r\n   * @dev Fails if `reward` is greater than `account`'s total locked gold.\r\n   */\r\n  function slash(\r\n    address account,\r\n    uint256 penalty,\r\n    address reporter,\r\n    uint256 reward,\r\n    address[] calldata lessers,\r\n    address[] calldata greaters,\r\n    uint256[] calldata indices\r\n  ) external onlySlasher {\r\n    uint256 maxSlash = Math.min(penalty, getAccountTotalLockedGold(account));\r\n    require(maxSlash >= reward, \"reward cannot exceed penalty.\");\r\n    // Local scoping is required to avoid Solc \"stack too deep\" error from too many locals.\r\n    {\r\n      uint256 nonvotingBalance = balances[account].nonvoting;\r\n      uint256 difference = 0;\r\n      // If not enough nonvoting, revoke the difference\r\n      if (nonvotingBalance < maxSlash) {\r\n        difference = maxSlash.sub(nonvotingBalance);\r\n        require(\r\n          getElection().forceDecrementVotes(account, difference, lessers, greaters, indices) ==\r\n            difference,\r\n          \"Cannot revoke enough voting gold.\"\r\n        );\r\n      }\r\n      // forceDecrementVotes does not increment nonvoting account balance, so we can't double count\r\n      _decrementNonvotingAccountBalance(account, maxSlash.sub(difference));\r\n      _incrementNonvotingAccountBalance(reporter, reward);\r\n    }\r\n    address communityFund = registry.getAddressForOrDie(GOVERNANCE_REGISTRY_ID);\r\n    address payable communityFundPayable = address(uint160(communityFund));\r\n    require(maxSlash.sub(reward) <= address(this).balance, \"Inconsistent balance\");\r\n    communityFundPayable.sendValue(maxSlash.sub(reward));\r\n    emit AccountSlashed(account, maxSlash, reporter, reward);\r\n  }\r\n}\r\n",
  "sourcePath": "D:\\Work\\celo-monorepo\\packages\\protocol\\contracts\\governance\\LockedGold.sol",
  "compiler": {
    "name": "solc",
    "version": "0.5.13+commit.5b0b510c.Emscripten.clang"
  },
  "schemaVersion": "3.0.23",
  "updatedAt": "2021-02-08T13:54:47.845Z",
  "devdoc": {
    "methods": {
      "addSlasher(string)": {
        "params": {
          "slasherIdentifier": "Identifier to whitelist."
        }
      },
      "decrementNonvotingAccountBalance(address,uint256)": {
        "details": "Can only be called by the registered \"Election\" smart contract.",
        "params": {
          "account": "The account whose non-voting balance should be decremented.",
          "value": "The amount by which to decrement."
        }
      },
      "getAccountNonvotingLockedGold(address)": {
        "params": {
          "account": "The account."
        },
        "return": "The total amount of non-voting locked gold for an account."
      },
      "getAccountTotalLockedGold(address)": {
        "params": {
          "account": "The account."
        },
        "return": "The total amount of locked gold for an account."
      },
      "getNonvotingLockedGold()": {
        "return": "The total amount of locked gold not being used to vote in elections."
      },
      "getPendingWithdrawals(address)": {
        "params": {
          "account": "The address of the account."
        },
        "return": "The value and timestamp for each pending withdrawal."
      },
      "getTotalLockedGold()": {
        "return": "The total amount of locked gold in the system."
      },
      "getTotalPendingWithdrawals(address)": {
        "params": {
          "account": "The address of the account."
        },
        "return": "Total amount to withdraw."
      },
      "getVersionNumber()": {
        "return": "The storage, major, minor, and patch version of the contract."
      },
      "incrementNonvotingAccountBalance(address,uint256)": {
        "details": "Can only be called by the registered Election smart contract.",
        "params": {
          "account": "The account whose non-voting balance should be incremented.",
          "value": "The amount by which to increment."
        }
      },
      "initialize(address,uint256)": {
        "params": {
          "_unlockingPeriod": "The unlocking period in seconds.",
          "registryAddress": "The address of the registry core smart contract."
        }
      },
      "isOwner()": {
        "details": "Returns true if the caller is the current owner."
      },
      "owner()": {
        "details": "Returns the address of the current owner."
      },
      "relock(uint256,uint256)": {
        "params": {
          "index": "The index of the pending withdrawal to relock from.",
          "value": "The value to relock from the specified pending withdrawal."
        }
      },
      "removeSlasher(string,uint256)": {
        "params": {
          "index": "Index of the provided identifier in slashingWhiteList array.",
          "slasherIdentifier": "Identifier to remove from whitelist."
        }
      },
      "renounceOwnership()": {
        "details": "Leaves the contract without owner. It will not be possible to call `onlyOwner` functions anymore. Can only be called by the current owner.     * NOTE: Renouncing ownership will leave the contract without an owner, thereby removing any functionality that is only available to the owner."
      },
      "setRegistry(address)": {
        "params": {
          "registryAddress": "The address of a registry contract for routing to other contracts."
        }
      },
      "setUnlockingPeriod(uint256)": {
        "params": {
          "value": "The unlocking period in seconds."
        }
      },
      "slash(address,uint256,address,uint256,address[],address[],uint256[])": {
        "details": "Fails if `reward` is greater than `account`'s total locked gold.",
        "params": {
          "account": "Address of account being slashed.",
          "greaters": "The groups receiving more votes than the i'th group, or 0 if the i'th group                has the most votes of any validator group.",
          "indices": "The indices of the i'th group in `account`'s voting list.",
          "lessers": "The groups receiving fewer votes than i'th group, or 0 if the i'th group has               the fewest votes of any validator group.",
          "penalty": "Amount to slash account.",
          "reporter": "Address of account reporting the slasher.",
          "reward": "Reward to give reporter."
        }
      },
      "transferOwnership(address)": {
        "details": "Transfers ownership of the contract to a new account (`newOwner`). Can only be called by the current owner."
      },
      "unlock(uint256)": {
        "params": {
          "value": "The amount of gold to unlock."
        }
      },
      "withdraw(uint256)": {
        "params": {
          "index": "The index of the pending withdrawal to withdraw."
        }
      }
    }
  },
  "userdoc": {
    "methods": {
      "addSlasher(string)": {
        "notice": "Adds `slasher` to whitelist of approved slashing addresses."
      },
      "decrementNonvotingAccountBalance(address,uint256)": {
        "notice": "Decrements the non-voting balance for an account."
      },
      "getAccountNonvotingLockedGold(address)": {
        "notice": "Returns the total amount of non-voting locked gold for an account."
      },
      "getAccountTotalLockedGold(address)": {
        "notice": "Returns the total amount of locked gold for an account."
      },
      "getNonvotingLockedGold()": {
        "notice": "Returns the total amount of locked gold not being used to vote in elections."
      },
      "getPendingWithdrawals(address)": {
        "notice": "Returns the pending withdrawals from unlocked gold for an account."
      },
      "getTotalLockedGold()": {
        "notice": "Returns the total amount of locked gold in the system. Note that this does not include  gold that has been unlocked but not yet withdrawn."
      },
      "getTotalPendingWithdrawals(address)": {
        "notice": "Returns the total amount to withdraw from unlocked gold for an account."
      },
      "getVersionNumber()": {
        "notice": "Returns the storage, major, minor, and patch version of the contract."
      },
      "incrementNonvotingAccountBalance(address,uint256)": {
        "notice": "Increments the non-voting balance for an account."
      },
      "initialize(address,uint256)": {
        "notice": "Used in place of the constructor to allow the contract to be upgradable via proxy."
      },
      "lock()": {
        "notice": "Locks gold to be used for voting."
      },
      "relock(uint256,uint256)": {
        "notice": "Relocks gold that has been unlocked but not withdrawn."
      },
      "removeSlasher(string,uint256)": {
        "notice": "Removes `slasher` from whitelist of approved slashing addresses."
      },
      "setRegistry(address)": {
        "notice": "Updates the address pointing to a Registry contract."
      },
      "setUnlockingPeriod(uint256)": {
        "notice": "Sets the duration in seconds users must wait before withdrawing gold after unlocking."
      },
      "slash(address,uint256,address,uint256,address[],address[],uint256[])": {
        "notice": "Slashes `account` by reducing its nonvoting locked gold by `penalty`.        If there is not enough nonvoting locked gold to slash, calls into        `Election.slashVotes` to slash the remaining gold. If `account` does not have        `penalty` worth of locked gold, slashes `account`'s total locked gold.        Also sends `reward` gold to the reporter, and penalty-reward to the Community Fund."
      },
      "unlock(uint256)": {
        "notice": "Unlocks gold that becomes withdrawable after the unlocking period."
      },
      "withdraw(uint256)": {
        "notice": "Withdraws gold that has been unlocked after the unlocking period has passed."
      }
    }
  }
}