{
  "contractName": "Signatures",
  "abi": [
    {
      "constant": true,
      "inputs": [],
      "name": "getVersionNumber",
      "outputs": [
        {
          "internalType": "uint256",
          "name": "",
          "type": "uint256"
        },
        {
          "internalType": "uint256",
          "name": "",
          "type": "uint256"
        },
        {
          "internalType": "uint256",
          "name": "",
          "type": "uint256"
        },
        {
          "internalType": "uint256",
          "name": "",
          "type": "uint256"
        }
      ],
      "payable": false,
      "stateMutability": "pure",
      "type": "function"
    },
    {
      "constant": true,
      "inputs": [
        {
          "internalType": "address",
          "name": "message",
          "type": "address"
        },
        {
          "internalType": "uint8",
          "name": "v",
          "type": "uint8"
        },
        {
          "internalType": "bytes32",
          "name": "r",
          "type": "bytes32"
        },
        {
          "internalType": "bytes32",
          "name": "s",
          "type": "bytes32"
        }
      ],
      "name": "getSignerOfAddress",
      "outputs": [
        {
          "internalType": "address",
          "name": "",
          "type": "address"
        }
      ],
      "payable": false,
      "stateMutability": "pure",
      "type": "function"
    },
    {
      "constant": true,
      "inputs": [
        {
          "internalType": "bytes32",
          "name": "messageHash",
          "type": "bytes32"
        },
        {
          "internalType": "uint8",
          "name": "v",
          "type": "uint8"
        },
        {
          "internalType": "bytes32",
          "name": "r",
          "type": "bytes32"
        },
        {
          "internalType": "bytes32",
          "name": "s",
          "type": "bytes32"
        }
      ],
      "name": "getSignerOfMessageHash",
      "outputs": [
        {
          "internalType": "address",
          "name": "",
          "type": "address"
        }
      ],
      "payable": false,
      "stateMutability": "pure",
      "type": "function"
    },
    {
      "constant": true,
      "inputs": [
        {
          "internalType": "bytes32",
          "name": "eip712DomainSeparator",
          "type": "bytes32"
        },
        {
          "internalType": "bytes32",
          "name": "structHash",
          "type": "bytes32"
        }
      ],
      "name": "toEthSignedTypedDataHash",
      "outputs": [
        {
          "internalType": "bytes32",
          "name": "",
          "type": "bytes32"
        }
      ],
      "payable": false,
      "stateMutability": "pure",
      "type": "function"
    },
    {
      "constant": true,
      "inputs": [
        {
          "internalType": "bytes32",
          "name": "eip712DomainSeparator",
          "type": "bytes32"
        },
        {
          "internalType": "bytes32",
          "name": "structHash",
          "type": "bytes32"
        },
        {
          "internalType": "uint8",
          "name": "v",
          "type": "uint8"
        },
        {
          "internalType": "bytes32",
          "name": "r",
          "type": "bytes32"
        },
        {
          "internalType": "bytes32",
          "name": "s",
          "type": "bytes32"
        }
      ],
      "name": "getSignerOfTypedDataHash",
      "outputs": [
        {
          "internalType": "address",
          "name": "",
          "type": "address"
        }
      ],
      "payable": false,
      "stateMutability": "pure",
      "type": "function"
    }
  ],
  "bytecode": "0x61061f610026600b82828239805160001a60731461001957fe5b30600052607381538281f3fe73000000000000000000000000000000000000000030146080604052600436106100615760003560e01c806334d1a2331461006657806354255be0146100ff578063683317091461013257806396ef41a11461017e578063b3abdb0c14610223575b600080fd5b6100bd600480360360a081101561007c57600080fd5b810190808035906020019092919080359060200190929190803560ff16906020019092919080359060200190929190803590602001909291905050506102b2565b604051808273ffffffffffffffffffffffffffffffffffffffff1673ffffffffffffffffffffffffffffffffffffffff16815260200191505060405180910390f35b610107610324565b6040518085815260200184815260200183815260200182815260200194505050505060405180910390f35b6101686004803603604081101561014857600080fd5b81019080803590602001909291908035906020019092919050505061034b565b6040518082815260200191505060405180910390f35b6101e16004803603608081101561019457600080fd5b81019080803573ffffffffffffffffffffffffffffffffffffffff169060200190929190803560ff16906020019092919080359060200190929190803590602001909291905050506103ac565b604051808273ffffffffffffffffffffffffffffffffffffffff1673ffffffffffffffffffffffffffffffffffffffff16815260200191505060405180910390f35b6102706004803603608081101561023957600080fd5b8101908080359060200190929190803560ff169060200190929190803590602001909291908035906020019092919050505061041e565b604051808273ffffffffffffffffffffffffffffffffffffffff1673ffffffffffffffffffffffffffffffffffffffff16815260200191505060405180910390f35b6000606060416040519080825280601f01601f1916602001820160405280156102ea5781602001600182028038833980820191505090505b509050836020820152826040820152846060820153600061030b888861034b565b9050610317818361048e565b9250505095945050505050565b60008060008060018060026000839350829250819150809050935093509350935090919293565b6000828260405160200180807f19010000000000000000000000000000000000000000000000000000000000008152506002018381526020018281526020019250505060405160208183030381529060405280519060200120905092915050565b60008085604051602001808273ffffffffffffffffffffffffffffffffffffffff1673ffffffffffffffffffffffffffffffffffffffff1660601b81526014019150506040516020818303038152906040528051906020012090506104138186868661041e565b915050949350505050565b6000606060416040519080825280601f01601f1916602001820160405280156104565781602001600182028038833980820191505090505b509050836020820152826040820152846060820153600061047687610592565b9050610482818361048e565b92505050949350505050565b600060418251146104a2576000905061058c565b60008060006020850151925060408501519150606085015160001a90507f7fffffffffffffffffffffffffffffff5d576e7357a4501ddfe92f46681b20a08260001c11156104f6576000935050505061058c565b601b8160ff161415801561050e5750601c8160ff1614155b1561051f576000935050505061058c565b60018682858560405160008152602001604052604051808581526020018460ff1660ff1681526020018381526020018281526020019450505050506020604051602081039080840390855afa15801561057c573d6000803e3d6000fd5b5050506020604051035193505050505b92915050565b60008160405160200180807f19457468657265756d205369676e6564204d6573736167653a0a333200000000815250601c0182815260200191505060405160208183030381529060405280519060200120905091905056fea265627a7a723158207700359c5eb1a296a697a1d3a4e4de72f2e6876497e89e5d519bf17c0abad3df64736f6c634300050d0032",
  "source": "pragma solidity ^0.5.13;\r\n\r\nimport \"openzeppelin-solidity/contracts/cryptography/ECDSA.sol\";\r\n\r\nlibrary Signatures {\r\n  /**\r\n   * @notice Returns the storage, major, minor, and patch version of the contract.\r\n   * @return The storage, major, minor, and patch version of the contract.\r\n   */\r\n  function getVersionNumber() external pure returns (uint256, uint256, uint256, uint256) {\r\n    return (1, 1, 2, 0);\r\n  }\r\n\r\n  /**\r\n  * @notice Given a signed address, returns the signer of the address.\r\n  * @param message The address that was signed.\r\n  * @param v The recovery id of the incoming ECDSA signature.\r\n  * @param r Output value r of the ECDSA signature.\r\n  * @param s Output value s of the ECDSA signature.\r\n  */\r\n  function getSignerOfAddress(address message, uint8 v, bytes32 r, bytes32 s)\r\n    public\r\n    pure\r\n    returns (address)\r\n  {\r\n    bytes32 hash = keccak256(abi.encodePacked(message));\r\n    return getSignerOfMessageHash(hash, v, r, s);\r\n  }\r\n\r\n  /**\r\n  * @notice Given a message hash, returns the signer of the address.\r\n  * @param messageHash The hash of a message.\r\n  * @param v The recovery id of the incoming ECDSA signature.\r\n  * @param r Output value r of the ECDSA signature.\r\n  * @param s Output value s of the ECDSA signature.\r\n  */\r\n  function getSignerOfMessageHash(bytes32 messageHash, uint8 v, bytes32 r, bytes32 s)\r\n    public\r\n    pure\r\n    returns (address)\r\n  {\r\n    bytes memory signature = new bytes(65);\r\n    // Concatenate (r, s, v) into signature.\r\n    assembly {\r\n      mstore(add(signature, 32), r)\r\n      mstore(add(signature, 64), s)\r\n      mstore8(add(signature, 96), v)\r\n    }\r\n    bytes32 prefixedHash = ECDSA.toEthSignedMessageHash(messageHash);\r\n    return ECDSA.recover(prefixedHash, signature);\r\n  }\r\n\r\n  /**\r\n  * @notice Given a domain separator and a structHash, construct the typed data hash\r\n  * @param eip712DomainSeparator Context specific domain separator\r\n  * @param structHash hash of the typed data struct\r\n  * @return The EIP712 typed data hash\r\n  */\r\n  function toEthSignedTypedDataHash(bytes32 eip712DomainSeparator, bytes32 structHash)\r\n    public\r\n    pure\r\n    returns (bytes32)\r\n  {\r\n    return keccak256(abi.encodePacked(\"\\x19\\x01\", eip712DomainSeparator, structHash));\r\n  }\r\n\r\n  /**\r\n  * @notice Given a domain separator and a structHash and a signature return the signer\r\n  * @param eip712DomainSeparator Context specific domain separator\r\n  * @param structHash hash of the typed data struct\r\n  * @param v The recovery id of the incoming ECDSA signature.\r\n  * @param r Output value r of the ECDSA signature.\r\n  * @param s Output value s of the ECDSA signature.\r\n  */\r\n  function getSignerOfTypedDataHash(\r\n    bytes32 eip712DomainSeparator,\r\n    bytes32 structHash,\r\n    uint8 v,\r\n    bytes32 r,\r\n    bytes32 s\r\n  ) public pure returns (address) {\r\n    bytes memory signature = new bytes(65);\r\n    // Concatenate (r, s, v) into signature.\r\n    assembly {\r\n      mstore(add(signature, 32), r)\r\n      mstore(add(signature, 64), s)\r\n      mstore8(add(signature, 96), v)\r\n    }\r\n    bytes32 prefixedHash = toEthSignedTypedDataHash(eip712DomainSeparator, structHash);\r\n    return ECDSA.recover(prefixedHash, signature);\r\n  }\r\n}\r\n",
  "sourcePath": "D:\\Work\\celo-monorepo\\packages\\protocol\\contracts\\common\\Signatures.sol",
  "compiler": {
    "name": "solc",
    "version": "0.5.13+commit.5b0b510c.Emscripten.clang"
  },
  "schemaVersion": "3.0.23",
  "updatedAt": "2021-02-08T13:54:47.477Z",
  "devdoc": {
    "methods": {
      "getSignerOfAddress(address,uint8,bytes32,bytes32)": {
        "params": {
          "message": "The address that was signed.",
          "r": "Output value r of the ECDSA signature.",
          "s": "Output value s of the ECDSA signature.",
          "v": "The recovery id of the incoming ECDSA signature."
        }
      },
      "getSignerOfMessageHash(bytes32,uint8,bytes32,bytes32)": {
        "params": {
          "messageHash": "The hash of a message.",
          "r": "Output value r of the ECDSA signature.",
          "s": "Output value s of the ECDSA signature.",
          "v": "The recovery id of the incoming ECDSA signature."
        }
      },
      "getSignerOfTypedDataHash(bytes32,bytes32,uint8,bytes32,bytes32)": {
        "params": {
          "eip712DomainSeparator": "Context specific domain separator",
          "r": "Output value r of the ECDSA signature.",
          "s": "Output value s of the ECDSA signature.",
          "structHash": "hash of the typed data struct",
          "v": "The recovery id of the incoming ECDSA signature."
        }
      },
      "getVersionNumber()": {
        "return": "The storage, major, minor, and patch version of the contract."
      },
      "toEthSignedTypedDataHash(bytes32,bytes32)": {
        "params": {
          "eip712DomainSeparator": "Context specific domain separator",
          "structHash": "hash of the typed data struct"
        },
        "return": "The EIP712 typed data hash"
      }
    }
  },
  "userdoc": {
    "methods": {
      "getSignerOfAddress(address,uint8,bytes32,bytes32)": {
        "notice": "Given a signed address, returns the signer of the address."
      },
      "getSignerOfMessageHash(bytes32,uint8,bytes32,bytes32)": {
        "notice": "Given a message hash, returns the signer of the address."
      },
      "getSignerOfTypedDataHash(bytes32,bytes32,uint8,bytes32,bytes32)": {
        "notice": "Given a domain separator and a structHash and a signature return the signer"
      },
      "getVersionNumber()": {
        "notice": "Returns the storage, major, minor, and patch version of the contract."
      },
      "toEthSignedTypedDataHash(bytes32,bytes32)": {
        "notice": "Given a domain separator and a structHash, construct the typed data hash"
      }
    }
  }
}