{
  "contractName": "Signatures",
  "abi": [
    {
      "constant": true,
      "inputs": [],
      "name": "getVersionNumber",
      "outputs": [
        {
          "internalType": "uint256",
          "name": "",
          "type": "uint256"
        },
        {
          "internalType": "uint256",
          "name": "",
          "type": "uint256"
        },
        {
          "internalType": "uint256",
          "name": "",
          "type": "uint256"
        },
        {
          "internalType": "uint256",
          "name": "",
          "type": "uint256"
        }
      ],
      "payable": false,
      "stateMutability": "pure",
      "type": "function"
    },
    {
      "constant": true,
      "inputs": [
        {
          "internalType": "address",
          "name": "message",
          "type": "address"
        },
        {
          "internalType": "uint8",
          "name": "v",
          "type": "uint8"
        },
        {
          "internalType": "bytes32",
          "name": "r",
          "type": "bytes32"
        },
        {
          "internalType": "bytes32",
          "name": "s",
          "type": "bytes32"
        }
      ],
      "name": "getSignerOfAddress",
      "outputs": [
        {
          "internalType": "address",
          "name": "",
          "type": "address"
        }
      ],
      "payable": false,
      "stateMutability": "pure",
      "type": "function"
    },
    {
      "constant": true,
      "inputs": [
        {
          "internalType": "bytes32",
          "name": "messageHash",
          "type": "bytes32"
        },
        {
          "internalType": "uint8",
          "name": "v",
          "type": "uint8"
        },
        {
          "internalType": "bytes32",
          "name": "r",
          "type": "bytes32"
        },
        {
          "internalType": "bytes32",
          "name": "s",
          "type": "bytes32"
        }
      ],
      "name": "getSignerOfMessageHash",
      "outputs": [
        {
          "internalType": "address",
          "name": "",
          "type": "address"
        }
      ],
      "payable": false,
      "stateMutability": "pure",
      "type": "function"
    }
  ],
  "bytecode": "0x610451610026600b82828239805160001a60731461001957fe5b30600052607381538281f3fe730000000000000000000000000000000000000000301460806040526004361061004b5760003560e01c806354255be01461005057806396ef41a114610083578063b3abdb0c14610128575b600080fd5b6100586101b7565b6040518085815260200184815260200183815260200182815260200194505050505060405180910390f35b6100e66004803603608081101561009957600080fd5b81019080803573ffffffffffffffffffffffffffffffffffffffff169060200190929190803560ff16906020019092919080359060200190929190803590602001909291905050506101de565b604051808273ffffffffffffffffffffffffffffffffffffffff1673ffffffffffffffffffffffffffffffffffffffff16815260200191505060405180910390f35b6101756004803603608081101561013e57600080fd5b8101908080359060200190929190803560ff1690602001909291908035906020019092919080359060200190929190505050610250565b604051808273ffffffffffffffffffffffffffffffffffffffff1673ffffffffffffffffffffffffffffffffffffffff16815260200191505060405180910390f35b60008060008060018060016000839350829250819150809050935093509350935090919293565b60008085604051602001808273ffffffffffffffffffffffffffffffffffffffff1673ffffffffffffffffffffffffffffffffffffffff1660601b815260140191505060405160208183030381529060405280519060200120905061024581868686610250565b915050949350505050565b6000606060416040519080825280601f01601f1916602001820160405280156102885781602001600182028038833980820191505090505b50905083602082015282604082015284606082015360006102a8876102c0565b90506102b48183610318565b92505050949350505050565b60008160405160200180807f19457468657265756d205369676e6564204d6573736167653a0a333200000000815250601c01828152602001915050604051602081830303815290604052805190602001209050919050565b6000604182511461032c5760009050610416565b60008060006020850151925060408501519150606085015160001a90507f7fffffffffffffffffffffffffffffff5d576e7357a4501ddfe92f46681b20a08260001c11156103805760009350505050610416565b601b8160ff16141580156103985750601c8160ff1614155b156103a95760009350505050610416565b60018682858560405160008152602001604052604051808581526020018460ff1660ff1681526020018381526020018281526020019450505050506020604051602081039080840390855afa158015610406573d6000803e3d6000fd5b5050506020604051035193505050505b9291505056fea265627a7a723158208325aa75c7ace1f9a87de3f999309eefd52dc997ad9102c47854f1ac2f6f07ec64736f6c634300050d0032",
  "source": "pragma solidity ^0.5.3;\r\n\r\nimport \"openzeppelin-solidity/contracts/cryptography/ECDSA.sol\";\r\n\r\nlibrary Signatures {\r\n  /**\r\n   * @notice Returns the storage, major, minor, and patch version of the contract.\r\n   * @return The storage, major, minor, and patch version of the contract.\r\n   */\r\n  function getVersionNumber() external pure returns (uint256, uint256, uint256, uint256) {\r\n    return (1, 1, 1, 0);\r\n  }\r\n\r\n  /**\r\n  * @notice Given a signed address, returns the signer of the address.\r\n  * @param message The address that was signed.\r\n  * @param v The recovery id of the incoming ECDSA signature.\r\n  * @param r Output value r of the ECDSA signature.\r\n  * @param s Output value s of the ECDSA signature.\r\n  */\r\n  function getSignerOfAddress(address message, uint8 v, bytes32 r, bytes32 s)\r\n    public\r\n    pure\r\n    returns (address)\r\n  {\r\n    bytes32 hash = keccak256(abi.encodePacked(message));\r\n    return getSignerOfMessageHash(hash, v, r, s);\r\n  }\r\n\r\n  /**\r\n  * @notice Given a message hash, returns the signer of the address.\r\n  * @param messageHash The hash of a message.\r\n  * @param v The recovery id of the incoming ECDSA signature.\r\n  * @param r Output value r of the ECDSA signature.\r\n  * @param s Output value s of the ECDSA signature.\r\n  */\r\n  function getSignerOfMessageHash(bytes32 messageHash, uint8 v, bytes32 r, bytes32 s)\r\n    public\r\n    pure\r\n    returns (address)\r\n  {\r\n    bytes memory signature = new bytes(65);\r\n    // Concatenate (r, s, v) into signature.\r\n    assembly {\r\n      mstore(add(signature, 32), r)\r\n      mstore(add(signature, 64), s)\r\n      mstore8(add(signature, 96), v)\r\n    }\r\n    bytes32 prefixedHash = ECDSA.toEthSignedMessageHash(messageHash);\r\n    return ECDSA.recover(prefixedHash, signature);\r\n  }\r\n}\r\n",
  "sourcePath": "D:\\Work\\celo-monorepo\\packages\\protocol\\contracts\\common\\Signatures.sol",
  "compiler": {
    "name": "solc",
    "version": "0.5.13+commit.5b0b510c.Emscripten.clang"
  },
  "schemaVersion": "3.0.23",
  "updatedAt": "2020-09-09T12:47:30.411Z",
  "devdoc": {
    "methods": {
      "getSignerOfAddress(address,uint8,bytes32,bytes32)": {
        "params": {
          "message": "The address that was signed.",
          "r": "Output value r of the ECDSA signature.",
          "s": "Output value s of the ECDSA signature.",
          "v": "The recovery id of the incoming ECDSA signature."
        }
      },
      "getSignerOfMessageHash(bytes32,uint8,bytes32,bytes32)": {
        "params": {
          "messageHash": "The hash of a message.",
          "r": "Output value r of the ECDSA signature.",
          "s": "Output value s of the ECDSA signature.",
          "v": "The recovery id of the incoming ECDSA signature."
        }
      },
      "getVersionNumber()": {
        "return": "The storage, major, minor, and patch version of the contract."
      }
    }
  },
  "userdoc": {
    "methods": {
      "getSignerOfAddress(address,uint8,bytes32,bytes32)": {
        "notice": "Given a signed address, returns the signer of the address."
      },
      "getSignerOfMessageHash(bytes32,uint8,bytes32,bytes32)": {
        "notice": "Given a message hash, returns the signer of the address."
      },
      "getVersionNumber()": {
        "notice": "Returns the storage, major, minor, and patch version of the contract."
      }
    }
  }
}